:020000040000fa
:080000000001040000000000f3
:020000040000fa
:040008003c020000b6
:020000040000fa
:04000c007e02000070
:020000040000fa
:04001000be0200002c
:020000040000fa
:040014005c0200008a
:020000040000fa
:040018009e02000044
:020000040000fa
:04001c00c404000018
:020000040000fa
:04002000c404000014
:020000040000fa
:04002400c404000010
:020000040000fa
:04002800c40400000c
:020000040000fa
:04002c00c404000008
:020000040000fa
:04003000c404000004
:020000040000fa
:04003400c404000000
:020000040000fa
:04003800c4040000fc
:020000040000fa
:04003c00c4040000f8
:020000040000fa
:04004000c4040000f4
:020000040000fa
:04004400de020000d8
:020000040000fa
:04004800c4040000ec
:020000040000fa
:04004c00c4040000e8
:020000040000fa
:04005000c4040000e4
:020000040000fa
:04005400480400005c
:020000040000fa
:04005800ec030000b5
:020000040000fa
:04005c00c4040000d8
:020000040000fa
:04006000c4040000d4
:020000040000fa
:04006400c4040000d0
:020000040000fa
:04006800c4040000cc
:020000040000fa
:04006c00c4040000c8
:020000040000fa
:04007000c4040000c4
:020000040000fa
:04007400c4040000c0
:020000040000fa
:04007800c4040000bc
:020000040000fa
:04007c00c4040000b8
:020000040000fa
:04008000c4040000b4
:020000040000fa
:04008400c4040000b0
:020000040000fa
:04008800c4040000ac
:020000040000fa
:04008c00c4040000a8
:020000040000fa
:04009000c4040000a4
:020000040000fa
:04009400c4040000a0
:020000040000fa
:04009800c40400009c
:020000040000fa
:04009c00c404000098
:020000040000fa
:0400a00070030000e9
:020000040000fa
:0400a4001403000041
:020000040000fa
:0400a800c40400008c
:020000040000fa
:0400ac00c404000088
:020000040000fa
:0400b000c404000084
:020000040000fa
:0400b400c404000080
:020000040000fa
:0400b800c40400007c
:020000040000fa
:0400bc00c404000078
:020000040000fa
:0400c000c404000074
:020000040000fa
:0400c400c404000070
:020000040000fa
:0400c800c40400006c
:020000040000fa
:0400cc00c404000068
:020000040000fa
:0400d000c404000064
:020000040000fa
:0400d400c404000060
:020000040000fa
:0400d800c40400005c
:020000040000fa
:0400dc00c404000058
:020000040000fa
:0400e000c404000054
:020000040000fa
:0400e400c404000050
:020000040000fa
:0400e800c40400004c
:020000040000fa
:0400ec00c404000048
:020000040000fa
:0400f000c404000044
:020000040000fa
:0400f400c404000040
:020000040000fa
:0400f800c40400003c
:020000040000fa
:0400fc00c404000038
:020000040000fa
:04010000c404000033
:020000040000fa
:04010400c40400002f
:020000040000fa
:04010800c40400002b
:020000040000fa
:04010c00c404000027
:020000040000fa
:04011000c404000023
:020000040000fa
:04011400c40400001f
:020000040000fa
:04011800c40400001b
:020000040000fa
:04011c00c404000017
:020000040000fa
:04012000c404000013
:020000040000fa
:04012400c40400000f
:020000040000fa
:04012800c40400000b
:020000040000fa
:04012c00ae0400001d
:020000040000fa
:04013000d6030000f2
:020000040000fa
:04013400c4040000ff
:020000040000fa
:04013800c4040000fb
:020000040000fa
:04013c00c4040000f7
:020000040000fa
:04014000c4040000f3
:020000040000fa
:04014400c4040000ef
:020000040000fa
:04014800c4040000eb
:020000040000fa
:04014c00c4040000e7
:020000040000fa
:04015000c4040000e3
:020000040000fa
:04015400c4040000df
:020000040000fa
:04015800c4040000db
:020000040000fa
:04015c00c4040000d7
:020000040000fa
:04016000c4040000d3
:020000040000fa
:04016400c4040000cf
:020000040000fa
:04016800c4040000cb
:020000040000fa
:04016c00c4040000c7
:020000040000fa
:04017000c4040000c3
:020000040000fa
:04017400c4040000bf
:020000040000fa
:04017800c4040000bb
:020000040000fa
:04017c00c4040000b7
:020000040000fa
:04018000c4040000b3
:020000040000fa
:04018400c4040000af
:020000040000fa
:04018800c4040000ab
:020000040000fa
:04018c00c4040000a7
:020000040000fa
:04019000c4040000a3
:020000040000fa
:04019400c40400009f
:020000040000fa
:04019800c40400009b
:020000040000fa
:04019c00c404000097
:020000040000fa
:0401a000c404000093
:020000040000fa
:0401a400c40400008f
:020000040000fa
:0401a800c40400008b
:020000040000fa
:0401ac00c404000087
:020000040000fa
:0401b000c404000083
:020000040000fa
:0401b400c40400007f
:020000040000fa
:0401b800c40400007b
:020000040000fa
:0401bc00c404000077
:020000040000fa
:0401c000c404000073
:020000040000fa
:0401c400c40400006f
:020000040000fa
:0401c800c40400006b
:020000040000fa
:0401cc00c404000067
:020000040000fa
:0401d000c404000063
:020000040000fa
:0401d400c40400005f
:020000040000fa
:0401d800c40400005b
:020000040000fa
:0401dc00c404000057
:020000040000fa
:0401e000c404000053
:020000040000fa
:0401e400c40400004f
:020000040000fa
:0401e800c40400004b
:020000040000fa
:0401ec00c404000047
:020000040000fa
:0401f000c404000043
:020000040000fa
:0401f400c40400003f
:020000040000fa
:0401f800c40400003b
:020000040000fa
:0401fc00c404000037
:020000040000fa
:100200002f9120000e7f24000e01880000000000c6
:10021000000020000000e000020032000001200089
:100220002002880014000700fa0107000000e00027
:1002300003003a008007210001002000020037007f
:100240000000200001002000810f7000010032003a
:1002500014000700000020000000e000020032004f
:100260000000020000000000581102000000000021
:100270000040da000000fe004440a90020002000f9
:100280000000e00003003200100020009001880010
:100290004440a800000006008a1f78008b1f7800e9
:1002a00000000600a1028800800478000000eb0036
:1002b0001f003700e284440054a0b4009905ba003e
:1002c000e284440054a0b4009906ba00e2844400d9
:1002d00054a0b4000006eb00476fde00fd07b2003b
:1002e000ae018800636ce10003003a00eaff0700fa
:1002f0000000eb000e003700606ce10008003a00df
:10030000004deb000a05e800020039003420ec0043
:100310000af0a0008b05e900f9ff3e000400370059
:100320006168e100010032000086eb000b0007006d
:1003300019c7ba001905ba000e04e00003003a001c
:100340000a00e000dbff3a0000000600fe07b200f2
:10035000ae0288008a047800f5ff37000cd0a300b5
:10036000e20f4d001c00390089027800354dba00bb
:100370000a05e800020039003420ec000af0a00071
:100380008b05e9000f003200254dba000a05e80090
:10039000020039003420ec000af0a0008b05e900cf
:1003a000080032000c00e0000600320015cdba0053
:1003b0000a05e800020039003420ec000af0a00031
:1003c0008b05e9008984e80054a0b4000b00e0002c
:1003d000e2ff3a00000006009902ba00055d7800cd
:1003e0008b05e900f7ff3200c82ade00055d7800c2
:1003f0008b05e900f3ff32000c00e000f1ff320052
:1004000019ddba00eeff3700d60e04000000000030
:100410008c06040000000000aa0604000000000092
:100420009e09040000000000bc0904000000000058
:10043000360f0400000000003c0f04000000000024
:10044000420f040000000000480f040000000000fc
:100450004e0f040000000000540f040000000000d4
:100460005a0f040000000000920f0400000000007a
:100470009e0f0400000000003600f800809fbe00c0
:10048000829fbe00849fbe00869fbe000000fa00cf
:100490008020a9000000eb00980707000080fa0008
:1004a0004f03be004f02be004f01be004f00be0012
:1004b0003600f900004006003600f800809fbe00bc
:1004c000829fbe00849fbe00869fbe000000fa008f
:1004d0008f0707008040a900100020008707070051
:1004e0000080fa004f03be004f02be004f01be0065
:1004f0004f00be003600f900004006003600f8004c
:10050000809fbe00829fbe00849fbe00869fbe006b
:100510000000fa008060a900200020007707070093
:100520000080fa004f03be004f02be004f01be0024
:100530004f00be003600f900004006003600f8000b
:10054000809fbe00829fbe00849fbe00869fbe002b
:100550000000fa008080a900300020006707070033
:100560000080fa004f03be004f02be004f01be00e4
:100570004f00be003600f900004006003600f800cb
:10058000809fbe00829fbe00849fbe00869fbe00eb
:100590000000fa008600a90070002000570707003d
:1005a0000080fa004f03be004f02be004f01be00a4
:1005b0004f00be003600f900004006003600f8008b
:1005c000809fbe00829fbe00849fbe00869fbe00ab
:1005d0000000fa00604180000000e00002003200ec
:1005e000604180000000010070872000104078000a
:1005f0008040e80070872000014878006087200074
:1006000011c0b3000148780088e0a9000080fa001a
:100610004f03be004f02be004f01be004f00be00a0
:100620003600f900004006003600f800809fbe004a
:10063000829fbe00849fbe00869fbe000000fa001d
:1006400050408000000001003140800020408000c8
:10065000808f500002003a009be0a900190037008b
:100660008be0a900100037003040800090407800f7
:100670008180fb00911d88000000e8003040880068
:100680003140800070852000808f500002003a00c9
:10069000e08420003040880031408000204080000d
:1006a000808f500006003200811d80000020200055
:1006b000008060000000e000ebff32000100370026
:1006c000000000000080fa004f03be004f02be0091
:1006d0004f01be004f00be003600f900004006008a
:1006e0003600f800809fbe00829fbe00849fbe003f
:1006f000869fbe000000fa006040800000000100fc
:100700008bc0a9001e00370000408000a11d8000a2
:10071000814078000148780001408000f085200089
:10072000808f500009003200004080008000e80007
:1007300010408000808f5000040032000040800094
:100740000000e800004088000d00370001408000f4
:10075000f0852000808f500007003a001140800093
:1007600070852000808f50000300320070852000cb
:10077000004088000200370010c0b30008e8b7004e
:10078000801d8000610060000000e000deff3a0094
:100790000080fa004f03be004f02be004f01be00b2
:1007a0004f00be003600f90000400600801f7800b0
:1007b0000000fa00801d8000620060000000e00080
:1007c00001003200b023a9009040a9000080fa0087
:1007d0004f007800004006003600f800809fbe0001
:1007e000829fbe00849fbe00869fbe000000fa006c
:1007f000c040800000000100a140800090408000c7
:10080000808f500002003a009980a900190037003b
:100810008980a90010003700a04080009040780037
:100820008180fb00e11c88000000e800a0408800f7
:10083000a140800090862000808f500002003a0086
:1008400000862000a0408800a140800090408000e9
:10085000808f500006003200d11c80000020200054
:10086000008060000000e000ebff32000100370074
:10087000000000000080fa004f03be004f02be00df
:100880004f01be004f00be003600f90000400600d8
:100890003600f800809fbe00829fbe00849fbe008d
:1008a000869fbe000000fa00d040800000000100da
:1008b0008960a9001e00370070408000f11c800094
:1008c0008140780001487800714080001087200046
:1008d000808f500009003200704080008000e800e6
:1008e00080408000808f5000040032007040800003
:1008f0000000e800704088000d0037007140800063
:1009000010872000808f500007003a00814080004f
:1009100090862000808f50000300320090862000d7
:10092000704088000200370010c0b30016e8b7001e
:10093000d01c8000610060000000e000deff3a0093
:100940000080fa004f03be004f02be004f01be0000
:100950004f00be003600f90000400600801f7800fe
:100960000000fa00d01c8000620060000000e0007f
:10097000010032009a23a9009020a9000080fa000b
:100980004f007800004006000040da000000fe0042
:10099000889fbe0080047800d04380000000e00003
:1009a00004003a000e0007000084eb000000e000a5
:1009b00008003500d84380000900e000050032003f
:1009c00009004400060007000000e00001003d00af
:1009d0000084eb00080078004f04be000000060011
:1009e000800078000100e00003003a00c08720008a
:1009f000d0438800000005000080eb002291200019
:100a0000828f500002003e00d14388000000eb00be
:100a10000000060000000500889fbe00000478006a
:100a2000914380000100e0000200320001007800e4
:100a30000d003700a14380004087200004003700ec
:100a4000910f5400250036000180e80091009000cd
:100a50000100e000faff3a0010003700920f540046
:100a60001e0036000280e800100178000200e0005d
:100a7000faff3a0011017800a1438000408720006e
:100a800004003700910f5400140036000180e80084
:100a900091009000828f5000faff3a00c943800015
:100aa000888f540001003100880478000900780024
:100ab000360007000000e00004003a00888f540070
:100ac000050032008904d100f5ff370009187800cd
:100ad00038000700d2ff37000000eb004f04be00d3
:100ae00000000600881f7800630440000800a10091
:100af0008000eb00800f540021003600e30f54000b
:100b000001003e004800200008007800c2ff0700f6
:100b10008000eb000000e000190032009000780037
:100b20009101780064815100880f51000300310069
:100b3000110190000208780007003700088140008a
:100b400002087800910190001301980010017800cc
:100b50001109140088087800100178000000eb00eb
:100b60000200e00004003200920190000300e00067
:100b7000010032000280e800904388008180e80094
:100b8000010078004f047800000006008000780023
:100b90000000eb000100e0000500340001007800d7
:100ba0007bff0700e10f400001003a000000eb006e
:100bb000000006000000e0002f003200c0017800b5
:100bc000e38f51002c0036000308a3002a003a00ee
:100bd000a14380000100e00002003200810f5000bc
:100be0000400310011009800a0438800160037006f
:100bf00082007800110190000200e0000200320043
:100c0000800f5100faff3900110278008482400001
:100c1000850f500018003900808f520003003a0001
:100c20008308420001007800070037000200e0005e
:100c30000300320083014000830f51000e00390091
:100c40001200980090009800900090000100e000d1
:100c50000900320010014000828f500006003a0067
:100c6000228720000009eb001001780011084100e4
:0c0c7000910090001100980000000600a8
:020000040000fa
:100c7c000000fa009be0a9009bc0a90080002000a6
:100c8c00701d8800b023ef0070062000b01d880096
:100c9c00b823ef00e084200030408800e08420007e
:100cac00204088007085200010408800708520004e
:100cbc00004088000868ef00c068200007000700ab
:100ccc00a06a2000140007009bc0a800afe3a80096
:100cdc00b143a8000080fa00000006000200fa00f0
:100cec00000f78001e0078000000e00003003a00be
:100cfc00c068200050408800020037009e00780039
:100d0c00514088000080fa00000006000000fa0044
:100d1c000080fa00000006000200fa00000f7800c4
:100d2c001e0078000000e00003003a00a06a2000da
:100d3c0060408800020037009e0078006140880007
:100d4c000080fa00000006000000fa000080fa00a3
:100d5c00000006000200fa000040eb00004f780093
:100d6c00000000001140800000408000808f500087
:100d7c00fcff320010408000104f780010408000c3
:100d8c000000e80010408800114080000086200020
:100d9c00808f500002003a007085200010408800bf
:100dac001e4078000080fa00000006000200fa00e5
:100dbc00004f7800000000001c0007000004a20097
:100dcc000004e000fcff3a00204080001e48780040
:100ddc00204080000000e800204088002140800076
:100dec0070852000808f500002003a00e0842000c3
:100dfc00204088009be0a8000080fa00000006005c
:100e0c000000fa0011408000004080000080680063
:100e1c0000f0a7000000ea000000ea004f00de002e
:100e2c00004078000080fa00000006000400fa0080
:100e3c003140800011079800214080001e00900076
:100e4c00808f5000060031009e00900020408000f2
:100e5c00008050000000e900000f7800050037000a
:100e6c009e009000204080000080500068004000f0
:100e7c00000f78001e00780000f0a7000000ea00c8
:100e8c000000ea004f00de00004078000080fa000d
:100e9c00000006000000fa00214080003040800075
:100eac00808f500009003a00811d80000010200046
:100ebc000080600000f0a7000000ea000000ea00db
:100ecc004f00de0000407800010037000040eb00ce
:100edc000080fa00000006000400fa0001408000c7
:100eec0011079800104080009e009000808f5000e9
:100efc00060031009e0090001040800000805000e1
:100f0c0069004000000f7800040037009e0090003c
:100f1c001040800000805000000f7800f00f20007f
:100f2c009e007800808f50000200360000c0eb005d
:100f3c00020037001e007800004078000080fa00a4
:100f4c00000006000400fa003140800011079800f0
:100f5c00214080001e009000808f50000600310060
:100f6c009e00900020408000008050000000e900ae
:100f7c00000f7800050037009e0090002040800094
:100f8c000080500068004000000f7800f00f200037
:100f9c009e007800808f50000200360000c0eb00ed
:100fac00020037001e007800004078000080fa0034
:100fbc00000006000800fa0020079800310798008e
:100fcc00c5ff07000080fb00000f78003e0090007a
:100fdc009e0f500002003100be009000010f7800ff
:100fec000000eb00100798000900370059ff0700bc
:100ffc00ae009000804878002e0090000000e800c1
:10100c00200798001e0090000000e80010079800d0
:10101c001e0090009e0f5000f4ff39001e00780057
:10102c000080fa00000006000800fa002007980073
:10103c0031079800c3ff07000080fb00000f780009
:10104c003e0090009e0f500002003100be00900048
:10105c00010f78000000eb00100798000900370022
:10106c002e00900010407800ae0090008100e80047
:10107c00210798004dff07001e0090000000e800bb
:10108c00100798001e0090009e0f5000f4ff3900ce
:10109c001e0078000080fa00000006000400fa0030
:1010ac000000eb00000f78008bff07002047980032
:1010bc00a4ff0700304798002e4090000080fb00f2
:1010cc000000e00003003200e90f50000300320082
:1010dc00040037001e20a000040037001e00a000f2
:1010ec00020037001e10a000000000003e409000df
:1010fc000080fb000000e00003003200e90f50000c
:10110c0003003200040037001e30a000020037003c
:10111c001e40a000000000001e0078000080fa00b5
:10112c00000006000400fa0010079800114080002f
:10113c001e009000008f4000020037009e007800d7
:10114c00698f5000008620009e007800808f500030
:10115c00faff3e001e007800104078000080fa0074
:10116c00000006000000fa005bff07000080fb0097
:10117c000000e9004f00de00004078000080fa001b
:10118c00000006000000fa006eff07000080fb0064
:10119c000000e9004f00de00004078000080fa00fb
:1011ac00000006000000fa00801d80000080fa009c
:1011bc00000006000000fa0062ff07000004e000d7
:1011cc00100032003140800020408000808f5000a1
:1011dc0006003600304080008000780020408000ff
:1011ec00008050000000e90007003700304080000c
:1011fc008000780020408000008050006800400093
:10120c00010037000000eb000080fa00000006002f
:10121c000000fa0030ff07000004e000100032006c
:10122c001140800000408000808f50000600360086
:10123c00104080008000780000408000008050004a
:10124c000000e900070037001040800080007800a3
:10125c000040800000805000680040000100370012
:10126c000000eb000080fa00000006000000fa000d
:10127c00afe3a800b143a8000080fa00000006000c
:10128c000000fa00afe3a900b143a9000080fa0006
:10129c00000006000000fa009980a9009960a900de
:1012ac0080002000c01c88009a23ef0070062000ec
:1012bc00001d8800a223ef0000862000a0408800bb
:1012cc000086200090408800908620008040880096
:1012dc0090862000704088001668ef00e09920008e
:1012ec0007000700c09b2000140007009960a800ad
:1012fc0099e3a8009b43a8000080fa0000000600b8
:10130c000200fa00000f78001e0078000000e000d8
:10131c0003003a00e0992000c0408800020037002a
:10132c009e007800c14088000080fa000000060092
:10133c000000fa000080fa00000006000200fa002b
:10134c00000f78001e0078000000e00003003a0057
:10135c00c09b2000d0408800020037009e0078001f
:10136c00d14088000080fa00000006000000fa005e
:10137c000080fa00000006000200fa000040eb00ba
:10138c00004f780000000000814080007040800019
:10139c00808f5000fcff320080408000104f78009e
:1013ac00804080000000e800804088008140800080
:1013bc0020872000808f500002003a009086200089
:1013cc00804088001e4078000080fa000000060073
:1013dc000200fa00004f7800000000001c0007001b
:1013ec000004a2000004e000fcff3a0090408000e2
:1013fc001e487800904080000000e8009040880073
:10140c009140800090862000808f500002003a00ae
:10141c0000862000904088009980a8000080fa0087
:10142c00000006000000fa0081408000704080003f
:10143c000080680000f0a7000000ea000000ea004d
:10144c004f00de00004078000080fa00000006002b
:10145c000400fa00a1408000110798009140800020
:10146c001e009000808f5000060031009e009000fe
:10147c0090408000008050000000e900000f7800d0
:10148c00050037009e0090009040800000805000c6
:10149c0068004000000f78001e00780000f0a700e4
:1014ac000000ea000000ea004f00de000040780077
:1014bc000080fa00000006000000fa009140800055
:1014cc00a0408000808f500009003a00d11c8000a1
:1014dc00001020000080600000f0a7000000ea006f
:1014ec000000ea004f00de000040780001003700e9
:1014fc000040eb000080fa00000006000400fa0037
:10150c007140800011079800804080009e00900080
:10151c00808f5000060031009e00900080408000bb
:10152c000080500069004000000f78000400370074
:10153c009e0090008040800000805000000f7800da
:10154c00f00f20009e007800808f500002003600c3
:10155c0000c0eb00020037001e007800004078004d
:10156c000080fa00000006000400fa00a140800090
:10157c0011079800914080001e009000808f500051
:10158c00060031009e0090009040800000805000ca
:10159c000000e900000f7800050037009e00900065
:1015ac00904080000080500068004000000f7800e0
:1015bc00f00f20009e007800808f50000200360053
:1015cc0000c0eb00020037001e00780000407800dd
:1015dc000080fa00000006000800fa0020079800be
:1015ec0031079800c5ff07000080fb00000f780052
:1015fc003e0090009e0f500002003100be00900093
:10160c00010f78000000eb0010079800090037006c
:10161c0059ff0700ae009000804878002e00900023
:10162c000000e800200798001e0090000000e80071
:10163c00100798001e0090009e0f5000f4ff390018
:10164c001e0078000080fa00000006000800fa0076
:10165c002007980031079800c3ff07000080fb00ab
:10166c00000f78003e0090009e0f500002003100e9
:10167c00be009000010f78000000eb0010079800ee
:10168c00090037002e00900010407800ae0090004a
:10169c008100e800210798004dff07001e00900014
:1016ac000000e800100798001e0090009e0f5000ec
:1016bc00f4ff39001e0078000080fa0000000600dc
:1016cc000400fa000000eb00000f78008bff07000d
:1016dc0020479800a4ff0700304798002e40900048
:1016ec000080fb000000e00003003200e90f500016
:1016fc0003003200040037001e20a0000400370055
:10170c001e00a000020037001e10a0000000000008
:10171c003e4090000080fb000000e000030032001f
:10172c00e90f500003003200040037001e30a00007
:10173c00020037001e40a000000000001e007800d0
:10174c000080fa00000006000400fa001007980060
:10175c00814080001e009000008f40000200370086
:10176c009e007800698f5000208720009e00780032
:10177c00808f5000faff3e001e0078001040780069
:10178c000080fa00000006000000fa005bff070072
:10179c000080fb000000e9004f00de0000407800f4
:1017ac000080fa00000006000000fa006eff07003f
:1017bc000080fb000000e9004f00de0000407800d4
:1017cc000080fa00000006000000fa00d01c800027
:1017dc000080fa00000006000000fa0062ff07001b
:1017ec000004e00010003200a14080009040800016
:1017fc00808f500006003600a040800080007800ea
:10180c0090408000008050000000e9000700370085
:10181c00a040800080007800904080000080500044
:10182c0068004000010037000000eb000080fa0067
:10183c00000006000000fa0030ff07000004e00082
:10184c00100032008140800070408000808f50007a
:10185c0006003600804080008000780070408000d8
:10186c00008050000000e900070037008040800035
:10187c0080007800704080000080500068004000bc
:10188c00010037000000eb000080fa0000000600a9
:10189c000000fa0099e3a8009b43a8000080fa001e
:1018ac00000006000000fa0099e3a9009b43a90080
:1018bc000080fa00000006000000fa00f623ef009a
:1018cc00f823ef00fc23ef000424ef000824ef00c2
:1018dc000a24ef000c24ef000e24ef001002280065
:1018ec00a01f88000080fa00000006000400fa0027
:1018fc00000f78001107980000000000e01f800026
:10190c00620060000000e000fcff3a001e0078005e
:10191c00104078000080fb000020880000000000d0
:10192c00e11f800000022000008060000000e00049
:10193c00fbff3a0000208000804078001e009000e1
:10194c00014878000080fa00000006001800fa0038
:10195c00100f9800210f9800320f98000000eb0038
:10196c00000f78000000eb00100798000000eb005f
:10197c00700798000000eb00000f9800100020008a
:10198c00600798001e0890000000e00005003a0077
:10199c000000eb00500798007000470020079800eb
:1019ac0004003700ee009000510798009e0890004c
:1019bc00210798003e0890000000e00005003a0066
:1019cc000000eb00400798006e00470030079800bd
:1019dc0005003700ee00900041079800be0890000b
:1019ec003107980000000000e01f800062006000da
:1019fc000000e000fcff3a001d003700e01f8000f3
:101a0c00620060000000e00009003a002e00900027
:101a1c00104078000080fb0000208800ae00900091
:101a2c005e00900000804000200798001e0fe80028
:101a3c00e11f800000022000008060000000e00038
:101a4c000b003a0000208000804078003e0090009f
:101a5c0001487800be0090004e00900000804000cd
:101a6c00300798001e0090000000e8001007980056
:101a7c002e0890009e007800808f5000dfff390008
:101a8c0010003700e11f8000000220000080600081
:101a9c000000e0000b003a0000208000804078003d
:101aac003e00900001487800be0090004e0090006f
:101abc0000804000300798001e0090000000e800f5
:101acc00100798009e0090002e089000808f500008
:101adc00ecff39001e0078000080fa0000000600c0
:101aec000400fa00204798000e80e8008e00780071
:101afc007eff07001e4078000080fa000000060000
:101b0c000600fa00000f78001107980022079800d1
:101b1c002e0190009e0090001e0078008bff0700a5
:101b2c000080fa00000006000000fa00a11f8000ef
:101b3c0000802000008060000000e0000200320005
:101b4c002000200008003700a11f8000004020006a
:101b5c00008060000000e000020032001000200055
:101b6c00010037000000eb000080fa0000000600c6
:101b7c000000fa00e01f80000080fa000000060060
:101b8c000200fa00000f78001e00780010007800a8
:101b9c00000001001e007800200090009e007800dc
:101bac0091009000110098001e0078001000900029
:101bbc009e007800a1009000210098001e00780083
:101bcc0090009000010f7800efff37000200fa0040
:101bdc00000f78001e0078009e007800210098000d
:101bec001e0078009e007800110098001e007800fe
:101bfc00a1022000310098000080fa0000000600cd
:101c0c000400fa001007980080002000b2fb0700c7
:101c1c00000f78001e0078008000eb001100980087
:101c2c001e0078008000eb00210098001e00780058
:101c3c009e009000010878001e0078000080fa00d9
:101c4c00000006000800fa002007980031079800f1
:101c5c00ae0090003e009000808f500022003200b9
:101c6c00ae009000010f78000040eb002047980078
:101c7c00090037001e00780090009000010f7800da
:101c8c003e0090009e0f500003003a0010c0b300bd
:101c9c0020479800070037001e00780010009000c5
:101cac00a00090001e00780010009000808f500063
:101cbc00f0ff3a002e4090000004e0000b003a00c8
:101ccc001e007800be009000110098003e009000ad
:101cdc009e007800210098003e009000ae0090001d
:101cec001100980001003700000000000080fa008d
:101cfc00000006000000fa009621ef009c21ef0086
:101d0c0000002800000d8800604180000000e00009
:101d1c0002003a0060ed20002400070088e0a900d2
:101d2c0098e0a800608720008040eb000148780014
:101d3c000080fa00000006000200fa00000f780094
:101d4c009e007800e10c8800608720008040eb004a
:101d5c00014878000080fa00000006000000fa003c
:101d6c00e00c80000080fa00000006000200fa007f
:101d7c00000f78009e007800b10c8800608720006e
:101d8c008040eb00014878000080fa00000006005b
:101d9c000000fa00b00c80000080fa000000060081
:101dac000000fa000080fa00000006000200fa00b1
:101dbc00000f780098e0a9009e007800614188002f
:101dcc0098e0a8000080fa00000006000000fa006d
:101ddc00608720008040eb000148780098e0a80064
:101dec00a1e1a8000080fa00000006000000fa0043
:101dfc00a1e1a90098e0a9000080fa00000006000b
:101e0c000200fa0060872000104f78001e40780016
:101e1c000004e00003003200608720008040eb00eb
:101e2c00014878001e4078000080fa00000006008f
:101e3c000000fa0070872000104078000080fb0042
:101e4c000080fa00000006000000fa0070872000f5
:101e5c008040eb00014878000080fa00000006008a
:101e6c000000fa000080fa00000006000000fa00f2
:101e7c000080fa00000006000000fa000080fa0062
:101e8c00000006000000fa000080fa0000000600c6
:101e9c000000fa000080fa00000006000000fa00c2
:101eac000080fa00000006000000fa0028c8bf00fd
:101ebc000004e00006003a0021418000e040800070
:101ecc0060ff070010c0b30028e8b700040037001b
:101edc0031418000e04080005aff07002868ef0085
:101eec000080fa00000006000000fa00214180008a
:101efc00e040800053ff07000080fa00000006005d
:101f0c000000fa0031418000e04080004dff0700e6
:101f1c000080fa00000006000000fa000141800079
:101f2c00e040800047ff07000080fa000000060038
:101f3c000000fa0011418000e040800041ff0700e2
:101f4c000080fa00000006000000fa0060f3200098
:101f5c002bff0700e0408800c0f3200028ff07009b
:101f6c00f040880020f4200025ff07000041880085
:101f7c0080f4200022ff070010418800e0f42000cc
:101f8c001fff07002041880040f520001cff0700c0
:101f9c0030418800e04080000cff0700a0f52000d5
:101fac0082ff070020f92000e4fc0700e0f9200084
:101fbc0059fb0700e04080000080fa00000006009a
:101fcc000000fa006626ef007a26ef007001200070
:101fdc001033880030a02600b03388007426ef0040
:101fec008826ef007226ef008626ef006826ef00a9
:101ffc007c26ef00f0002000503388000000220007
:10200c00f033880001088000f00b20000081600094
:10201c006004200071052000031020008049780026
:10202c008149780082497800b13d800000fc2f0086
:10203c0000806000e000b300b03d8800f13e8000fd
:10204c0000f82f00008060009000b300f03e880084
:10205c00e13e800000f82f00008060000030a000fe
:10206c00e03e8800c13d800000fc2f000080600035
:10207c009000b300c03d8800a13d800000fc2f0003
:10208c0000806000b000b300a03d8800013f8000dc
:10209c0000f82f00008060003000b300003f880083
:1020ac00113f8000f00f280080806000005020005d
:1020bc0001007000103f88000008800000017800cb
:1020cc000260a000600420007105200003102000b5
:1020dc008049780081497800824978000080fa00b4
:0420ec0000000600ea
:020000040000fa
:1020f0002e08000020000000800000002a080000d8
:102100000200000082000000ffff000076080000cf
:1021100002000000800000002c0800000200000007
:10212000800000004e080000120000008000000047
:10213000000800000e0000008000000060080000a1
:1021400012000000800000000e0800000e000000d9
:10215000800000001c0800000e000000800000004d
:102160007808000002000000820000000400000067
:102170007208000004000000800000007a080000df
:0c218000020000008000000000000000d1
:020000040000fa
:10218c000000fa0041068000f08f2f0000806000f4
:10219c000080a00040068800b1058000f0ff2800f8
:1021ac000080600000c0a000b0058800b105800070
:1021bc00f08f2f00008060000080a000b005880028
:1021cc0051058000f0ff28000080600000c0a000d6
:1021dc005005880041068000f0f82f000080600058
:1021ec000040a000400688007105800080ff2f0091
:1021fc00008060000000a000700588006105800070
:10220c00f0ff28000080600000c0a000600588007e
:10221c000080fa00000006000000fa000000230015
:10222c00100888000621ef006821ef006a21ef00fa
:10223c000821ef0000702000500888000c21ef00ee
:10224c000e21ef007821ef007a21ef007c21ef00c6
:10225c007e21ef008021ef008221ef008421ef002e
:10226c008621ef000001eb0080072000a10920006f
:10227c001310200080497800814978008249780049
:10228c000001eb0060042000710520000310200009
:10229c008049780081497800824978000080fa00f2
:1022ac00000006000200fa001d00070026ff0700d0
:1022bc00000f78001e00780031fe0700d03380003c
:1022cc004200de00614060000004a200614060003a
:1022dc000080fb00610060004200dd00d133800013
:1022ec000120a10001007000d0338800f3ff3700fb
:1022fc000200fa00000f78009e007800514188001f
:10230c00ffff37000000fa00e08220008007780011
:10231c0060842000000188000080fa0000000600a4
:10232c000000fa0026ff070095ff0700baff070020
:10233c004ffa070060fd0700d6fb07006dfe070093
:08234c000080fa000000060009
:020000040000fa
:020000040005f5
:045e0000ffff0000a0
:020000040000fa
:020000040005f5
:045e2000ffffff0081
:020000040000fa
:020000040005f5
:045e300078ffff00f8
:020000040000fa
:020000040005f5
:045e3800b3ffff00b5
:020000040000fa
:020000040005f5
:045e40009fffff00c1
:020000040000fa
:020000040005f5
:045e4800ffffff0059
:020000040000fa
:020000040005f5
:045e5000dfffff0071
:020000040000fa
:020000040005f5
:045e5800ffffff0049
:00000001FF
