:020000040000fa
:080000000001040000000000f3
:020000040000fa
:0400080044020000ae
:020000040000fa
:04000c008602000068
:020000040000fa
:04001000c602000024
:020000040000fa
:040014006402000082
:020000040000fa
:04001800a60200003c
:020000040000fa
:04001c001c070000bd
:020000040000fa
:040020001c070000b9
:020000040000fa
:040024001c070000b5
:020000040000fa
:040028001c070000b1
:020000040000fa
:04002c001c070000ad
:020000040000fa
:040030001c070000a9
:020000040000fa
:040034001c070000a5
:020000040000fa
:040038001c070000a1
:020000040000fa
:04003c001c0700009d
:020000040000fa
:040040001c07000099
:020000040000fa
:040044001c07000095
:020000040000fa
:04004800e6020000cc
:020000040000fa
:04004c001c0700008d
:020000040000fa
:040050001c07000089
:020000040000fa
:040054005004000054
:020000040000fa
:04005800f4030000ad
:020000040000fa
:04005c001c0700007d
:020000040000fa
:040060001c07000079
:020000040000fa
:040064001c07000075
:020000040000fa
:040068001c07000071
:020000040000fa
:04006c00cc040000c0
:020000040000fa
:040070001c07000069
:020000040000fa
:040074001c07000065
:020000040000fa
:040078001c07000061
:020000040000fa
:04007c001c0700005d
:020000040000fa
:040080001c07000059
:020000040000fa
:040084001c07000055
:020000040000fa
:040088001c07000051
:020000040000fa
:04008c001c0700004d
:020000040000fa
:040090001c07000049
:020000040000fa
:040094001c07000045
:020000040000fa
:040098001c07000041
:020000040000fa
:04009c001c0700003d
:020000040000fa
:0400a00078030000e1
:020000040000fa
:0400a4001c03000039
:020000040000fa
:0400a8001c07000031
:020000040000fa
:0400ac001c0700002d
:020000040000fa
:0400b0001c07000029
:020000040000fa
:0400b4001c07000025
:020000040000fa
:0400b8001c07000021
:020000040000fa
:0400bc001c0700001d
:020000040000fa
:0400c0001c07000019
:020000040000fa
:0400c4001c07000015
:020000040000fa
:0400c8001c07000011
:020000040000fa
:0400cc001c0700000d
:020000040000fa
:0400d0001c07000009
:020000040000fa
:0400d4001c07000005
:020000040000fa
:0400d8001c07000001
:020000040000fa
:0400dc001c070000fd
:020000040000fa
:0400e0001c070000f9
:020000040000fa
:0400e4001c070000f5
:020000040000fa
:0400e8001c070000f1
:020000040000fa
:0400ec001c070000ed
:020000040000fa
:0400f0001c070000e9
:020000040000fa
:0400f4001c070000e5
:020000040000fa
:0400f8001c070000e1
:020000040000fa
:0400fc001c070000dd
:020000040000fa
:040100001c070000d8
:020000040000fa
:040104001c070000d4
:020000040000fa
:040108001c070000d0
:020000040000fa
:04010c001c070000cc
:020000040000fa
:040110001c070000c8
:020000040000fa
:040114001c070000c4
:020000040000fa
:040118001c070000c0
:020000040000fa
:04011c001c070000bc
:020000040000fa
:040120001c070000b8
:020000040000fa
:040124001c070000b4
:020000040000fa
:040128001c070000b0
:020000040000fa
:04012c00b604000015
:020000040000fa
:04013000de030000ea
:020000040000fa
:040134001c070000a4
:020000040000fa
:040138001c070000a0
:020000040000fa
:04013c001c0700009c
:020000040000fa
:040140001c07000098
:020000040000fa
:040144001c07000094
:020000040000fa
:040148001c07000090
:020000040000fa
:04014c001c0700008c
:020000040000fa
:040150001c07000088
:020000040000fa
:040154001c07000084
:020000040000fa
:040158001c07000080
:020000040000fa
:04015c001c0700007c
:020000040000fa
:040160001c07000078
:020000040000fa
:040164001c07000074
:020000040000fa
:040168001c07000070
:020000040000fa
:04016c001c0700006c
:020000040000fa
:040170001c07000068
:020000040000fa
:040174001c07000064
:020000040000fa
:040178001c07000060
:020000040000fa
:04017c001c0700005c
:020000040000fa
:040180001c07000058
:020000040000fa
:040184001c07000054
:020000040000fa
:040188001c07000050
:020000040000fa
:04018c001c0700004c
:020000040000fa
:040190001c07000048
:020000040000fa
:040194001c07000044
:020000040000fa
:040198001c07000040
:020000040000fa
:04019c001c0700003c
:020000040000fa
:0401a0001c07000038
:020000040000fa
:0401a4001c07000034
:020000040000fa
:0401a8001c07000030
:020000040000fa
:0401ac001c0700002c
:020000040000fa
:0401b0001c07000028
:020000040000fa
:0401b4001c07000024
:020000040000fa
:0401b8001c07000020
:020000040000fa
:0401bc001c0700001c
:020000040000fa
:0401c0001c07000018
:020000040000fa
:0401c4001c07000014
:020000040000fa
:0401c8001c07000010
:020000040000fa
:0401cc001c0700000c
:020000040000fa
:0401d0001c07000008
:020000040000fa
:0401d4001c07000004
:020000040000fa
:0401d8001c07000000
:020000040000fa
:0401dc001c070000fc
:020000040000fa
:0401e0001c070000f8
:020000040000fa
:0401e4001c070000f4
:020000040000fa
:0401e8001c070000f0
:020000040000fa
:0401ec001c070000ec
:020000040000fa
:0401f0001c070000e8
:020000040000fa
:0401f4001c070000e4
:020000040000fa
:0401f8001c070000e0
:020000040000fa
:0401fc001c070000dc
:020000040000fa
:10020000ef5d21000e7f24000e0188000000000039
:10021000000020000000e000020032000001200089
:100220002002880014000700260307000000e000f9
:1002300003003a00600322000100200002003700a2
:100240000000200001002000810f7000010032003a
:1002500014000700000020000000e000020032004f
:100260000000020000000000262102000000000043
:100270000040da000000fe004440a90060002000b9
:100280000000e00003003200002020009001880000
:100290004440a800000006008a1f78008b1f7800e9
:1002a00000000600a1028800800478000000eb0036
:1002b0001f003700e284440054a0b4009905ba003e
:1002c000e284440054a0b4009906ba00e2844400d9
:1002d00054a0b4000006eb00476fde00fd07b2003b
:1002e000ae018800636ce10003003a00eaff0700fa
:1002f0000000eb000e003700606ce10008003a00df
:10030000004deb000a05e800020039003420ec0043
:100310000af0a0008b05e900f9ff3e000400370059
:100320006168e100010032000086eb000b0007006d
:1003300019c7ba001905ba000e04e00003003a001c
:100340000a00e000dbff3a0000000600fe07b200f2
:10035000ae0288008a047800f5ff37000cd0a300b5
:10036000e20f4d001c00390089027800354dba00bb
:100370000a05e800020039003420ec000af0a00071
:100380008b05e9000f003200254dba000a05e80090
:10039000020039003420ec000af0a0008b05e900cf
:1003a000080032000c00e0000600320015cdba0053
:1003b0000a05e800020039003420ec000af0a00031
:1003c0008b05e9008984e80054a0b4000b00e0002c
:1003d000e2ff3a00000006009902ba00055d7800cd
:1003e0008b05e900f7ff3200c82ade00055d7800c2
:1003f0008b05e900f3ff32000c00e000f1ff320052
:1004000019ddba00eeff3700061e040000000000f0
:100410006a120400000000008812040000000000be
:100420007c150400000000009a1504000000000084
:10043000740a040000000000620b040000000000c9
:10044000fc0b040000000000800c04000000000011
:10045000540f0400000000005c0f040000000000c6
:10046000640f0400000000006e0f04000000000094
:10047000a40f040000000000ae1004000000000003
:10048000ba100400000000003600f800809fbe0093
:10049000829fbe00849fbe00869fbe000000fa00bf
:1004a0008020a9000000eb00510f07000080fa0037
:1004b0004f03be004f02be004f01be004f00be0002
:1004c0003600f900004006003600f800809fbe00ac
:1004d000829fbe00849fbe00869fbe000000fa007f
:1004e000480f07008040a90010002000400f0700bf
:1004f0000080fa004f03be004f02be004f01be0055
:100500004f00be003600f900004006003600f8003b
:10051000809fbe00829fbe00849fbe00869fbe005b
:100520000000fa008060a90020002000300f0700c2
:100530000080fa004f03be004f02be004f01be0014
:100540004f00be003600f900004006003600f800fb
:10055000809fbe00829fbe00849fbe00869fbe001b
:100560000000fa008080a90030002000200f070062
:100570000080fa004f03be004f02be004f01be00d4
:100580004f00be003600f900004006003600f800bb
:10059000809fbe00829fbe00849fbe00869fbe00db
:1005a0000000fa008600a90070002000100f07006c
:1005b0000080fa004f03be004f02be004f01be0094
:1005c0004f00be003600f900004006003600f8007b
:1005d000809fbe00829fbe00849fbe00869fbe009b
:1005e0000000fa00d04280000000e000020032006b
:1005f000d0428000000001003054210010407800fb
:100600008040e80030542100014878002054210047
:1006100011c0b300014878008900a9000080fa00e9
:100620004f03be004f02be004f01be004f00be0090
:100630003600f900004006003600f800809fbe003a
:10064000829fbe00849fbe00869fbe000000fa000d
:100650003042800000000100114280000042800012
:10066000808f500002003a009be0a900190037007b
:100670008be0a90010003700104280009040780005
:100680008180fb00911d88000000e8001042880076
:100690001142800010512100808f500002003a006a
:1006a00080502100104288001142800000428000ea
:1006b000808f500006003200811d80000020200045
:1006c000008060000000e000ebff32000100370016
:1006d000000000000080fa004f03be004f02be0081
:1006e0004f01be004f00be003600f900004006007a
:1006f0003600f800809fbe00829fbe00849fbe002f
:10070000869fbe000000fa00404280000000010009
:100710008bc0a9001e003700e0418000a11d8000b1
:100720008140780001487800e1418000905121002b
:10073000808f500009003200e04180008000e80016
:10074000f0418000808f500004003200e0418000c2
:100750000000e800e04188000d003700e141800022
:1007600090512100808f500007003a00f141800035
:1007700010512100808f50000300320010512100e1
:10078000e04188000200370010c0b30044e8b70021
:10079000801d8000610060000000e000deff3a0084
:1007a0000080fa004f03be004f02be004f01be00a2
:1007b0004f00be003600f90000400600801f7800a0
:1007c0000000fa00801d8000620060000000e00070
:1007d00001003200b023a9009040a9000080fa0077
:1007e0004f007800004006003600f800809fbe00f1
:1007f000829fbe00849fbe00869fbe000000fa005c
:10080000a042800000000100814280007042800010
:10081000808f500002003a009980a900190037002b
:100820008980a90010003700804280009040780045
:100830008180fb00e11c88000000e8008042880005
:100840008142800030522100808f500002003a0027
:10085000a0512100804288008142800070428000c7
:10086000808f500006003200d11c80000020200044
:10087000008060000000e000ebff32000100370064
:10088000000000000080fa004f03be004f02be00cf
:100890004f01be004f00be003600f90000400600c8
:1008a0003600f800809fbe00829fbe00849fbe007d
:1008b000869fbe000000fa00b042800000000100e8
:1008c0008960a9001e00370050428000f11c8000a2
:1008d000814078000148780051428000b0522100e8
:1008e000808f500009003200504280008000e800f4
:1008f00060428000808f500004003200504280002f
:100900000000e800504288000d003700514280008e
:10091000b0522100808f500007003a0061428000f1
:1009200030522100808f50000300320030522100ed
:10093000504288000200370010c0b30052e8b700f0
:10094000d01c8000610060000000e000deff3a0083
:100950000080fa004f03be004f02be004f01be00f0
:100960004f00be003600f90000400600801f7800ee
:100970000000fa00d01c8000620060000000e0006f
:10098000010032009a23a9009020a9000080fa00fb
:100990004f007800004006003600f800809fbe003f
:1009a000829fbe00849fbe00869fbe000000fa00aa
:1009b0008a20a900f1248000000820000080600047
:1009c0000000e000080032009ee4a9002c28ef009f
:1009d00090418000200090008000eb00010878002a
:1009e0003228ef000d013700604180008000eb00ed
:1009f000b200200003002000820f5000838f5800b7
:100a0000fc003e00006001000b0037003900370099
:100a1000750037009c003700f3003700c80037002e
:100a2000d9003700f0003700db003700f100370055
:100a30003400370050003700408220002000900032
:100a4000620060000000e000f3003a0040822000f5
:100a5000100090009041880040822000100090001b
:100a6000104078002ee8b70040822000100090006f
:100a7000100090008041880040822000100090000b
:100a8000e6004000408220001100980040822000d3
:100a90009000900020532100808f500003003a0006
:100aa00040822000c15221001100980040822000a5
:100ab000a00090000100a1002100980040822000c9
:100ac000900090004082200010007800808f50003d
:100ad00004003a0040822000a00090000110a00015
:100ae000210098009a04a80020002000604188009e
:100af000ca0037009a24a800200020006041880026
:100b0000c6003700f124800000002800008060004b
:100b10000000e000080032004082200060409000a9
:100b20008040e800408220006140980040002000a2
:100b300086090700b9003700a04180008000d1007d
:100b4000f00f200000806000b0248800a0418000e9
:100b500061006000004078000004e0000300320003
:100b6000b000200060418800ac0037003000200059
:100b700060418800a9003700f124800000002800af
:100b8000008060000000e000080032004082200089
:100b9000604090008040e800408220006140980062
:100ba00040002000690907009c0037009a24a80033
:100bb000a04180004800de00e6006000000f200039
:100bc00001007000a0418800a04180000000a0004a
:100bd000a041880010c0b30036e8b7002000200014
:100be000604188008d00370036c8bf00e14f5000db
:100bf0000a0032008041800010007800a041880087
:100c00008041800020009000c04188008041800029
:100c1000204090003ae8b700010037003668ef0046
:100c2000a1418000f00f2000808f500009003600a5
:100c3000a04180004800de00e6006000000f2000b8
:100c400001007000b0248800a000200060418800ee
:100c500072003700a0418000b0248800a0418000cd
:100c600061006000004078000004e00003003200f2
:100c700050002000604188006800370030002000ec
:100c80006041880065003700f124800000002800e2
:100c9000008060000000e000090032004082200077
:100ca000604090008040e800408220006140980051
:100cb0009fe4a900500020002409070057003700d6
:100cc0003ac8bf008080fb008100e900cf08de0049
:100cd000814078000040e9003ae8b7000104e000f4
:100ce0001000320080418000660040008041880092
:100cf0002ec8bf000040e9002ee8b7002ec8bf0094
:100d00000004e00003003a00200020000f09070063
:100d1000420037009a24a80020002000604188008b
:100d20003e003700c0418000904078008180fb0089
:100d3000b12488000000e800c04188003700370077
:100d4000f124800000002800008060000000e00026
:100d50000900320040822000604090008040e8009e
:100d6000408220006140980040002000f708070002
:100d70009fe4a900290037009a64a80080002000a1
:100d80006041880025003700800020006041880015
:100d90009a64a80021003700c0418000a12480008f
:100da00081407800014878000000e800c0418800d8
:100db0003ac8bf000040e9003ae8b7003ac8bf00af
:100dc0000004e000040032009aa4a90060002000a2
:100dd00060418800020037009aa4a800ca080700f2
:100de0009a84a8000d00370020002000d7080700d3
:100df0000a00370040822000604090008040e800f8
:100e0000408220006140980060002000cf08070069
:100e10000000000001003700000000000080fa0020
:100e20004f03be004f02be004f01be004f00be0088
:100e30003600f900004006000040da000000fe0025
:100e4000889fbe008004780030aa80000000e00087
:100e500004003a000e0007000084eb000000e000f0
:100e60000800350038aa80000900e00005003200c3
:100e700009004400060007000000e00001003d00fa
:100e80000084eb00080078004f04be00000006005c
:100e9000800078000100e00003003a008054210047
:100ea00030aa8800000005000080eb00e25d210010
:100eb000828f500002003e0031aa88000000eb0043
:100ec00000000600000005000001be001b00070036
:100ed0000470a70003f0a10003f8a30013003a0078
:100ee0006509b10010003200090035006928e100f1
:100ef000020035000100280000000500000040004d
:100f0000818048008502e900fcff3a0000000600ed
:100f1000f88f4200050035008100d1000080d30029
:100f20008502e800fcff3a00000006008000eb00ac
:100f3000000005006011b80049003700c70ade0054
:100f4000f107b200f50fb20008003200e1cf420015
:100f5000020032000170a00024000500810f700023
:100f6000010032000408050044000500810f7000f4
:100f700002003a00140005008502e900000040006c
:100f800081c04800fcff3b000170a0002400050068
:100f9000889fbe008a9fbe008c1f780085000700d6
:100fa0008c00330003866c006450e10024003200a2
:100fb0006420e100270032006150e100220032008d
:100fc0006120e100210032008b854200eb07b10077
:100fd0000134b800003ab8000804420089844a008d
:100fe000013ab8000030b8008880400009014a008a
:100ff00004003300000040008180480002014900e5
:101000008b05e900c909dd00830170000100320091
:1010100013002000c814de004814dd004709de007c
:101020001200b200c808de00088470003b00070010
:1010300001f0a1000cf0a70001f0a0006e00370045
:101040006120e100700032000801be000200be0015
:10105000f7ff37006150e100fcff3a006a003700fb
:10106000889fbe008a9fbe0000827000040271004b
:1010700004827100260032000004be000200be009f
:101080006011b8006b092000950220000182cf009a
:101090000a0039000541b1000082cf000700390085
:1010a0000541b1000982cf00040039000541b100bb
:1010b0000882cf00010039000541b100054252000d
:1010c000120032000a003b0082817100610164005d
:1010d0008100d1000080d3008984d3000884d3002c
:1010e0008b05e8000442e800f7ff3a0007003700ec
:1010f0000804440089844c000000480081804800b6
:101100008b05e9000442e900f9ff3a0003000700fb
:101110004f05be004f04be00000006008100200005
:10112000618055000b003d000b00200061fe2f0088
:101130000100e1001d003400828171006101640042
:101140008904d1000884d3000000e800faff3a00c7
:101150007100200061006400030070000200600064
:101160000900320061044400e0844c000988a500b5
:10117000050032008b05e8006808e10002003a0033
:101180008904d1000884d300f20f20000258e10046
:1011900005003d00c75ddd00f907b20089807500dc
:1011a00008007800000006000bf827008b0078008c
:1011b000000005000004be0060ff07000003be0041
:1011c0000405be000200be005cff0700844f7500ee
:1011d000000006000200be006450e1000500360079
:1011e0006420e100020036000968a30001003a0013
:1011f0000800be000160a0004f0678004f05be0049
:101200004f04be0000000600f0ff2f00f1ff270092
:10121000f9ff3700889fbe0000047800f1a9800024
:101220000100e00002003200010078000d003700ec
:1012300001aa80000054210004003700910f5400df
:10124000250036000180e800910090000100e000d8
:10125000faff3a0010003700920f54001e003600cb
:101260000280e800100178000200e000faff3a0076
:101270001101780001aa8000005421000400370009
:10128000910f5400140036000180e8009100900096
:10129000828f5000faff3a0029aa8000888f5400fc
:1012a0000100310088047800090078003d00070043
:1012b0000000e00004003a00888f5400050032006e
:1012c0008904d100f5ff3700091878003f000700b6
:1012d000d2ff37000000eb004f04be000000060004
:1012e000881f7800630440000800a1008000eb0024
:1012f000800f540021003600e30f540001003e002f
:101300004800200008007800c2ff07008000eb00c2
:101310000000e00019003200900078009101780090
:1013200064815100880f51000300310011019000c9
:1013300002087800070037000881400002087800a2
:101340009101900013019800100178001109140018
:1013500088087800100178000000eb000200e0002f
:1013600004003200920190000300e000010032000e
:101370000280e800f0a988008180e8000100780080
:101380004f0478000000060080017800020037005a
:10139000b15978000201e9000200e000fcff3a00c8
:1013a00000000600800078000000eb000100e00073
:1013b0000500340001007800a1fe0700e10f4000a5
:1013c00001003a000000eb00000006000000e00011
:1013d0002f003200c0017800e38f51002c0036004e
:1013e0000308a3002a003a0001aa80000100e000df
:1013f00002003200810f50000400310011009800fb
:1014000000aa8800160037008200780011019000c1
:101410000200e00002003200800f5100faff3900a4
:101420001102780084824000850f500018003900b6
:10143000808f520003003a008308420001007800c8
:10144000070037000200e000030032008301400083
:10145000830f51000e003900120098009000980090
:10146000900090000100e0000900320010014000ef
:10147000828f500006003a00e25321000009eb0081
:1014800010017800110841009100900011009800af
:041490000000060052
:020000040000fa
:0c1494000000000020030000b004000075
:020000040000fa
:1014a0000000fa0010c0b30018e8b7001e28ef00d3
:1014b00020002000d04088000080fa0000000600d4
:1014c0000000fa001868ef0010002000f0408800cb
:1014d0002028ef0010002000d04088006686a90078
:1014e0000080fa00000006000000fa00303380009f
:1014f00000407800614060000004a200614060008c
:101500000080fb0061006000313380000100a10019
:1015100001007000303388000080fa0000000600ef
:101520000000fa0011a3800080a28000f20f2000ca
:1015300095ff07000080fa00000006000000fa0096
:10154000a1a3800080a28000f20f20008eff070080
:10155000b1a3800090a28000f20f20008aff070054
:1015600082002000d14721009045210086ff07001e
:101570000000eb00a0a28800104621008040eb0094
:1015800001487800d0a38000b0a2880080452100e7
:1015900011c0b300014878000080fa000000060086
:1015a0000000fa0081408000904080000000d100df
:1015b0000074a1000080fb004200dd0000804000bc
:1015c00010007800610060000000e00002003200be
:1015d0000040eb00390037008140800090408000df
:1015e0000000d1000074a1000080fb004200dd007b
:1015f0000080400010007800620060000000e00001
:10160000020032000040eb002c00370081408000d7
:10161000904080000000d1000074a1000080fb0019
:101620004200dd000080400010007800640060008f
:101630000000e000020032000040eb001f00370015
:1016400081408000904080000000d1000074a10023
:101650000080fb004200dd000080400010007800a8
:101660004400de008000780060528400808f5000cb
:10167000020036000040eb0010003700814080007f
:10168000904080000000d1000074a1000080fb00a9
:101690004200dd0000804000100090004200de00ab
:1016a0008000780070528400808f50000200360065
:1016b0000040eb000100370010c0b3000080fa00ca
:1016c000000006000400fa00000f2f00010f2f0099
:1016d000d9080700008fbe00814080009040800044
:1016e0000000d1000074a1000080fb004200dd007a
:1016f000008040003e1878002e1078009040800056
:101700000000d1000074a1000040e8000074a100b6
:101710008080fb00f0072000008060000000400097
:101720009240800011f02f008100610001007000e4
:1017300090408800904080000000d1000074a1001b
:101740000080fb00ea0f500005003400914080004b
:1017500010f02f0000806000904088001208a80060
:101760000080fa00000006000400fa0090408000ab
:101770000000d1000074a100004f78001e407800e6
:101780000004e00003003a00a0c0b300004f78005e
:10179000010037001e4fe9000000eb001007980021
:1017a000814080001e80fb004200dd000080400080
:1017b000100090004200de009e00900001007000ca
:1017c00010079800814080001e80fb004200dd0071
:1017d00000804000100090004200de004880de00e3
:1017e0009e00900001007000100798001e009000fd
:1017f0000080fa00000006000200fa00d004070092
:10180000004f7800b0408000e10f50002a00320005
:10181000e10f500005003900e20f50002c003200ab
:10182000e30f50002e003200330037001e80fb0013
:10183000e10f50001b003200e20f50001b0032008d
:101840000000e0002b003a00bd040700004f7800c4
:101850001e80fb0061006000004078000004e00092
:10186000040032004eff07000004e00001003200d7
:101870000bff07001e80fb00620060000000e0001c
:10188000010032000eff07001e80fb0064006000b4
:101890000000e0000100320021ff0700000000000e
:1018a0001500370010002000b040880030002000f4
:1018b000b0408800100037001e80fb004800dd00ab
:1018c00040a4880020002000b04088000a003700b3
:1018d0001e80fb0040a488001628ef000600370099
:1018e0006140800000408000260907001628ef00b4
:1018f00001003700000000000080fa000000060030
:101900000200fa000040eb00004f780003030700dc
:10191000004f7800a0408000e20f500064003200c9
:10192000e20f500005003e000000e0000a00320017
:10193000e10f50003e00320068003700e40f500015
:101940004f003200e40f50005e003900e50f5000f8
:1019500051003200610037001e80fb00e30f500091
:101960002b003200e30f500005003c00e10f500057
:101970001e003200e20f50002100320057003700f5
:10198000e40f500026003200ea0f500052003a00e7
:10199000e2020700004f78001e407800e14f50003f
:1019a00004003a00fefe07000004e00001003200df
:1019b000bbfe07001e407800e24f500001003a00d5
:1019c000bffe07001e407800e34f500002003a00bf
:1019d00030002000d04088001e407800e44f5000c6
:1019e00001003a00cefe0700100037000000eb00b7
:1019f00030a4880010002000a04088000b003700b1
:101a00001000200030a4880020002000a0408800a2
:101a10002000200030a4880030002000a040880072
:101a200040002000a04088002c0037002b00370029
:101a300031a38000e00f2000808f50000a003e009c
:101a400011a3800030a3800000004000008040000f
:101a50009e80fb000108780030a380000000e800b1
:101a600030a388001d0037000000eb0030a3880081
:101a70001428ef003000200030a488001700370041
:101a80001e80fb004800dd0040a4880050002000bc
:101a9000a04088001100370041a480001e80fb0098
:101aa0000100700040a488001428ef000b003700ec
:101ab0007140800000408000b20807001428ef0049
:101ac000060037006140800000408000ad0807003c
:101ad0001428ef0001003700000000000080fa0029
:101ae000000006000e00fa00904080000000d100c7
:101af0000074a100004f78001e4078000004e00050
:101b000003003a00a0c0b300004f78000100370086
:101b10001e4fe900814080001e80fb004200dd0076
:101b200000804000100090004200de004047980016
:101b3000814080001e80fb004200dd0000804000ec
:101b4000100090004200de004880de005047980000
:101b5000814080001e80fb004200dd0000804000cc
:101b6000100078004400de0060479800814080004b
:101b70001e80fb004200dd00008040001000780065
:101b80004400de004880de0070479800014180007c
:101b9000410798004e009000204f98004e009000a2
:101ba0004800de00304f9800d0408000e20f500027
:101bb00017003200e20f500005003e000000e00078
:101bc000b6003200e10f500004003200b4003700cc
:101bd000e30f50001f003200b100370000c0eb00df
:101be0006402070000c0eb00620207004e40900054
:101bf000600207005e4090005e0207006e409000a9
:101c00005c0207007e4090005a020700a4003700e3
:101c100000c0eb0057020700e0cfb30055020700f9
:101c20004e409000530207005e40900051020700b2
:101c30006e4090004f0207007e4090004d0207006a
:101c40002e4890004b0207003e48900049020700d2
:101c500093003700d0a380000000e80060079800e0
:101c600000000000811d8000002020000080600036
:101c70000000e000fbff3a0000c0eb003d0207005f
:101c800000000000811d8000002020000080600016
:101c90000000e000fbff3a00d0cfb30035020700a0
:101ca0000000eb0010079800100037000000000053
:101cb000811d800000202000008060000000e00006
:101cc000fbff3a001e009000c1022000808040000f
:101cd00000452100008040001040900025020700d0
:101ce0001e0090000000e800100798001e00900001
:101cf000e70f5000edff360000000000811d80005e
:101d000000202000008060000000e000fbff3a009f
:101d10005048210010407800160207000000000023
:101d2000811d800000202000008060000000e00095
:101d3000fbff3a00d0a38000004078000d020700ae
:101d400000000000811d8000002020000080600055
:101d50000000e000fbff3a00d0a380004800de0056
:101d600000407800030207000000eb001007980015
:101d70001e00370000000000811d800000202000b0
:101d8000008060000000e000fbff3a00a1a380009b
:101d90001e0090000000400000804000100078000d
:101da00000407800f301070000000000811d800062
:101db00000202000008060000000e000fbff3a00ef
:101dc000a1a380001e0090000000400000804000a1
:101dd000100078004800de0000407800e5010700b0
:101de0001e0090000000e800100798009e00900080
:101df0006e009000808f5000deff39000000eb0085
:101e0000100798001e00370000000000811d8000b0
:101e100000202000008060000000e000fbff3a008e
:101e2000b1a380001e009000000040000080400030
:101e30001000780000407800ce010700000000008c
:101e4000811d800000202000008060000000e00074
:101e5000fbff3a00b1a380001e009000000040008c
:101e600000804000100078004800de00004078004c
:101e7000c00107001e0090000000e8001007980055
:101e80009e0090006e009000808f5000deff3900b1
:101e900010002000d0408800010037000000000042
:101ea0000080fa00000006000000fa000dff0700a5
:101eb0000080fa00000006000000fa0009ff070099
:101ec0000080fa00000006000000fa003000200048
:101ed00030a488000080fa00000006000600fa0026
:101ee00030a380000000e00013003a0000c2b300fd
:101ef000104798001e4090000080fb00f10f20006a
:101f000000017800110009008200d80020479800e5
:101f10000040eb00004f78000300370031a3800041
:101f2000210798001e4fe8002e4090009e40780048
:101f300080cf5000f9ff39003000200030a4880025
:101f40000080fa00000006002000fa0018c8bf0058
:101f50000004e0006600320091fd07000004e0008c
:101f60006200320000418000100798000000e80085
:101f700000418800a1a28000010f7800b2a2800079
:101f8000220798009e00e8002e009000808f5000ed
:101f9000090039004afd0700550037001e0fe80010
:101fa0002e0090009e007800808f500003003900c2
:101fb00043fd0700090037000000000091a28000e7
:101fc0001e00e80000004000008040009000780003
:101fd0001e009000808f5000f0ff390081a2800029
:101fe0001e00780000004000008040009000780053
:101ff0003107980081a280001e00e8000000400028
:1020000000804000100178004207980091a28000f3
:102010001e00780000004000008040009000780022
:102020005107980091a280001e00e80000004000c7
:10203000008040001001780062079800ee009000d8
:102040005e0090000080500070079800ce00900065
:102050003e00900000805000000f98009e0090000d
:102060005e00900000805000100f98009e089000c5
:102070007e00900000017800110009008280d800e5
:102080008000eb00abfb0700200f9800310f980099
:102090000e0890008000eb00a6fb07002e099000c0
:1020a000be099000bafb0700400f9800510f98003e
:1020b0004e089000de08900083fb07008000780047
:1020c0003e00900000804000600f9800a6fd0700d1
:1020d000700f9800ee0890007e089000808f5000ee
:1020e000030031006686a80001003700f4fc0700f9
:1020f00022c8bf000004e00006003a004140800012
:10210000004080001f07070010c0b30022e8b7009e
:1021100004003700114080000040800019070700cc
:102120002268ef000080fa00000006000000fa00bc
:102130004140800000408000120707000080fa0044
:10214000000006000000fa005140800000408000be
:102150000c0707000080fa00000006000000fa00eb
:102160002140800000408000060707000080fa0040
:10217000000006000000fa003140800000408000ae
:10218000000707000080fa00000006000000fa00c7
:1021900040a72000ea0607000040880020b6200083
:1021a000e706070010408800c0bf2000e4060700d3
:1021b0002040880000c82000e10607003040880069
:1021c00040f52000de06070040408800c0f52000f2
:1021d000db0607005040880040f62000d8060700c4
:1021e00060408800e0f62000d506070070408800b7
:1021f00000408000c806070040fa2000860607005d
:10220000e00a21003f020700a00b2100b4000700f4
:102210008906070090030700060207000145210018
:10222000a248210008000900b218780021462100c8
:10223000c249210008000900b21878004147210076
:10224000e24a210008000900b2187800c085200089
:1022500080a2880060e5200090a288000000eb00ca
:10226000a0a28800a0a5200010a38800400521009e
:1022700020a388000000eb0030a3880080c5200068
:10228000a0a3880020252100b0a388000000eb0057
:10229000c0a388001000200030a48800004c21005a
:1022a000804088001208a9009140800010f02f00a3
:1022b00000806000904088001d68ef001c68ef00ff
:1022c00030002000d0408800b0a380008000eb00e8
:1022d00001087800b0a380000080e800e12e200013
:1022e00001087800b0a3800064004000e160200095
:1022f00001087800b0a380006600400061862000dd
:1023000001087800b0a3800068004000e19220003e
:1023100001087800b0a380006a004000619f20009f
:1023200001087800b0a380006c00400041e7200065
:1023300001087800a0a38000410620000108780071
:10234000a0a380000080e80081252000010878001b
:10235000a0a3800064004000012d20000108780047
:10236000a0a3800066004000013c20000108780026
:10237000a0a3800068004000813e20000108780092
:10238000a0a380006a004000013c20000108780002
:10239000a0a380006c0040004106200001087800e6
:1023a000c047210011c0b300014878006000200040
:1023b000d0a388000000eb00c0a388005048210093
:1023c0008040eb0001487800d047210041c4b300b1
:1023d00001487800e047210051c6b3000148780069
:1023e000f047210061c6b300014878000048210091
:1023f00011c6b300014878001048210051c7b3004e
:102400000148780020482100c1c6b3000148780087
:102410003048210041c7b3000148780040482100fe
:102420008040eb000148780044fc07000040800039
:102430000080fa00000006000000fa009be0a900fe
:102440009bc0a90080002000701d8800b023ef0011
:1024500030032000b01d8800b823ef008050210019
:102460001042880080502100004288001051210055
:10247000f041880010512100e04188004468ef00dd
:10248000a026210007000700802821001400070073
:102490009bc0a800afe3a800b143a8000080fa00e9
:1024a000000006000200fa00000f78001e0078000d
:1024b0000000e00003003a00a0262100304288001e
:1024c000020037009e007800314288000080fa0048
:1024d000000006000000fa000080fa00000006007c
:1024e0000200fa00000f78001e0078000000e000f3
:1024f00003003a0080282100404288000200370093
:102500009e007800414288000080fa00000006002a
:102510000000fa000080fa00000006000200fa0045
:102520000040eb00004f780000000000f141800007
:10253000e0418000808f5000fcff3200f0418000bd
:10254000104f7800f04180000000e800f041880062
:10255000f1418000a0512100808f500002003a001c
:1025600010512100f04188001e4078000080fa00e0
:10257000000006000200fa00004f78000000000092
:102580001c0007000004a2000004e000fcff3a0069
:10259000004280001e487800004280000000e800f1
:1025a000004288000142800010512100808f5000bd
:1025b00002003a0080502100004288009be0a80001
:1025c0000080fa00000006000000fa00f1418000df
:1025d000e04180000080680000f0a7000000ea00f1
:1025e0000000ea004f00de00004078000080fa00a2
:1025f000000006000400fa00114280001107980054
:10260000014280001e009000808f500006003100c3
:102610009e00900000428000008050000000e90011
:10262000000f7800050037009e00900000428000f7
:102630000080500068004000000f78001e00780005
:1026400000f0a7000000ea000000ea004f00de00f2
:10265000004078000080fa00000006000000fa0048
:102660000142800010428000808f500009003a0033
:10267000811d8000001020000080600000f0a70095
:102680000000ea000000ea004f00de000040780091
:10269000010037000040eb000080fa000000060057
:1026a0000400fa00e141800011079800f041800029
:1026b0009e009000808f5000060031009e00900028
:1026c000f04180000080500069004000000f780059
:1026d000040037009e009000f04180000080500010
:1026e000000f7800f00f20009e007800808f5000cf
:1026f0000200360000c0eb00020037001e00780028
:10270000004078000080fa00000006000400fa0093
:102710001142800011079800014280001e009000c5
:10272000808f5000060031009e0090000042800023
:10273000008050000000e900000f7800050037001d
:102740009e00900000428000008050006800400021
:10275000000f7800f00f20009e007800808f50005e
:102760000200360000c0eb00020037001e007800b7
:10277000004078000080fa00000006000800fa001f
:102780002007980031079800c5ff07000080fb0074
:10279000000f78003e0090009e0f500002003100b4
:1027a000be009000010f78000000eb0010079800b9
:1027b0000900370059ff0700ae00900080487800fc
:1027c0002e0090000000e800200798001e009000f6
:1027d0000000e800100798001e0090009e0f5000b7
:1027e000f4ff39001e0078000080fa0000000600a7
:1027f0000800fa002007980031079800c3ff07007f
:102800000080fb00000f78003e0090009e0f5000fb
:1028100002003100be009000010f78000000eb00c4
:1028200010079800090037002e0090001040780033
:10283000ae0090008100e800210798004dff0700de
:102840001e0090000000e800100798001e00900095
:102850009e0f5000f4ff39001e0078000080fa003f
:10286000000006000400fa000000eb00000f7800f2
:102870008bff070020479800a4ff0700304798000f
:102880002e4090000080fb000000e00003003200ba
:10289000e90f500003003200040037001e20a000a2
:1028a000040037001e00a000020037001e10a00028
:1028b000000000003e4090000080fb000000e000af
:1028c00003003200e90f500003003200040037001b
:1028d0001e30a000020037001e40a00000000000d3
:1028e0001e0078000080fa00000006000400fa00d4
:1028f00010079800f14180001e009000008f4000fa
:10290000020037009e007800698f5000a05121001e
:102910009e007800808f5000faff3e001e00780075
:10292000104078000080fa00000006000000fa0065
:102930005bff07000080fb000000e9004f00de00a5
:10294000004078000080fa00000006000000fa0055
:102950006eff07000080fb000000e9004f00de0072
:10296000004078000080fa00000006000000fa0035
:10297000801d80000080fa00000006000000fa00c0
:1029800062ff07000004e0001000320011428000e6
:1029900000428000808f5000060036001042800008
:1029a0008000780000428000008050000000e900b4
:1029b000070037001042800080007800004280004d
:1029c0000080500068004000010037000000eb006c
:1029d0000080fa00000006000000fa0030ff070047
:1029e0000004e00010003200f1418000e04180006e
:1029f000808f500006003600f04180008000780093
:102a0000e0418000008050000000e900070037002e
:102a1000f041800080007800e0418000008050009c
:102a200068004000010037000000eb000080fa0061
:102a3000000006000000fa00afe3a800b143a800c0
:102a40000080fa00000006000000fa00afe3a900d1
:102a5000b143a9000080fa00000006000000fa005f
:102a60009980a9009960a90080002000c01c8800fe
:102a70009a23ef0030032000001d8800a223ef00fe
:102a8000a051210080428800a0512100704288009e
:102a900030522100604288003052210050428800ac
:102aa0005268ef00c057210007000700a05921001d
:102ab000140007009960a80099e3a8009b43a800b0
:102ac0000080fa00000006000200fa00000f780003
:102ad0001e0078000000e00003003a00c05721000b
:102ae000a0428800020037009e007800a1428800c2
:102af0000080fa00000006000000fa000080fa00e2
:102b0000000006000200fa00000f78001e007800a6
:102b10000000e00003003a00a0592100b042880004
:102b2000020037009e007800b14288000080fa0061
:102b3000000006000000fa000080fa000000060015
:102b40000200fa000040eb00004f78000000000097
:102b50006142800050428000808f5000fcff3200b4
:102b600060428000104f7800604280000000e80062
:102b70006042880061428000c0522100808f500076
:102b800002003a0030522100604288001e40780066
:102b90000080fa00000006000200fa00004f7800f2
:102ba000000000001c0007000004a2000004e00078
:102bb000fcff3a00704280001e487800704280009e
:102bc0000000e8007042880071428000305221000d
:102bd000808f500002003a00a0512100704288000e
:102be0009980a8000080fa00000006000000fa00aa
:102bf00061428000504280000080680000f0a70021
:102c00000000ea000000ea004f00de00004078000b
:102c10000080fa00000006000400fa0081428000f3
:102c200011079800714280001e009000808f5000b4
:102c3000060031009e00900070428000008050002d
:102c40000000e900000f7800050037009e009000aa
:102c5000704280000080500068004000000f780043
:102c60001e00780000f0a7000000ea000000ea0063
:102c70004f00de00004078000080fa0000000600ef
:102c80000000fa007142800080428000808f500076
:102c900009003a00d11c8000001020000080600074
:102ca00000f0a7000000ea000000ea004f00de008c
:102cb00000407800010037000040eb000080fa007f
:102cc000000006000400fa0051428000110798003d
:102cd000604280009e009000808f5000060031000e
:102ce0009e0090006042800000805000690040001b
:102cf000000f7800040037009e00900060428000c2
:102d000000805000000f7800f00f20009e00780037
:102d1000808f50000200360000c0eb000200370038
:102d20001e007800004078000080fa0000000600d5
:102d30000400fa008142800011079800714280006f
:102d40001e009000808f5000060031009e00900011
:102d500070428000008050000000e900000f780001
:102d6000050037009e0090007042800000805000f7
:102d700068004000000f7800f00f20009e007800ef
:102d8000808f50000200360000c0eb0002003700c8
:102d90001e007800004078000080fa000000060065
:102da0000800fa002007980031079800c5ff0700c7
:102db0000080fb00000f78003e0090009e0f500046
:102dc00002003100be009000010f78000000eb000f
:102dd000100798000900370059ff0700ae00900067
:102de000804878002e0090000000e800200798003e
:102df0001e0090000000e800100798001e009000e0
:102e00009e0f5000f4ff39001e0078000080fa0089
:102e1000000006000800fa0020079800310798001b
:102e2000c3ff07000080fb00000f78003e00900009
:102e30009e0f500002003100be009000010f78008c
:102e40000000eb0010079800090037002e009000ea
:102e500010407800ae0090008100e8002107980043
:102e60004dff07001e0090000000e80010079800ca
:102e70001e0090009e0f5000f4ff39001e007800e5
:102e80000080fa00000006000400fa000000eb00d9
:102e9000000f78008bff070020479800a4ff070071
:102ea000304798002e4090000080fb000000e000ba
:102eb00003003200e90f5000030032000400370025
:102ec0001e20a000040037001e00a00002003700f2
:102ed0001e10a000000000003e4090000080fb009b
:102ee0000000e00003003200e90f50000300320050
:102ef000040037001e30a000020037001e40a00072
:102f0000000000001e0078000080fa0000000600ab
:102f10000400fa0010079800614280001e00900033
:102f2000008f4000020037009e007800698f50003b
:102f3000c05221009e007800808f5000faff3e00b2
:102f40001e007800104078000080fa0000000600a3
:102f50000000fa005bff07000080fb000000e900b2
:102f60004f00de00004078000080fa0000000600fc
:102f70000000fa006eff07000080fb000000e9007f
:102f80004f00de00004078000080fa0000000600dc
:102f90000000fa00d01c80000080fa00000006004b
:102fa0000000fa0062ff07000004e0001000320099
:102fb0008142800070428000808f50000600360001
:102fc00080428000800078007042800000805000c5
:102fd0000000e90007003700804280008000780090
:102fe00070428000008050006800400001003700ff
:102ff0000000eb000080fa00000006000000fa006c
:1030000030ff07000004e000100032006142800041
:1030100050428000808f50000600360060428000e1
:103020008000780050428000008050000000e900dd
:103030000700370060428000800078005042800026
:103040000080500068004000010037000000eb00e5
:103050000080fa00000006000000fa0099e3a800d2
:103060009b43a8000080fa00000006000000fa0060
:1030700099e3a9009b43a9000080fa000000060024
:103080000000fa0040822000c15221001100980087
:1030900040822000c15221000108780040822000b7
:1030a000a00090000110a0002100980040822000a4
:1030b000a00090000100a1002100980040822000a3
:1030c0008040eb006140980020012000c02488006f
:1030d00000002800d02488009e24ef008a20a90048
:1030e0009a20a8000080fa00000006000200fa0002
:1030f00040822000e0409000014f78001e407800a0
:103100000080fa00000006000000fa008041800004
:1031100066004000804188002ec8bf000040e900e2
:103120002ee8b7002ec8bf000004e00003003a00fc
:10313000400020006041880002003700100020009d
:10314000604188000080fa00000006000200fa00da
:10315000000f78009a44a800904180002000900061
:103160000000e00003003200904180002000900049
:103170001e0878002c28ef000080fa0000000600ee
:103180000800fa00000f78002147980022079800f5
:10319000330798004082200020009000610060000a
:1031a0000000e0000a003a00ae0190002e419000bd
:1031b0009e00780080532100770007003e019000b8
:1031c0008153210010c0b3001f0007000300370027
:1031d0003e0090008000eb00010878000080fa00bb
:1031e000000006000800fa00000f78002147980050
:1031f00022079800330798004082200020009000aa
:10320000610060000000e0000a003a00ae0190009a
:103210002e4190009e0078002053210046000700b8
:103220003e0190002153210010c0b30006000700aa
:10323000030037003e0090008000eb00010878009a
:103240000080fa00000006000600fa00004f780037
:10325000110798002207980040822000200090006b
:10326000610060000000e0002e003a002e00900097
:103270001100200001087800408220001000780032
:103280009e009000110098004082200010007800fd
:103290001e4878004082200010007800ae009000a8
:1032a000210098004082200010007800e6004000d5
:1032b00040822000010878004082200090007800c1
:1032c00020532100808f500003003a0040822000ec
:1032d000c15221000108780040822000a000900027
:1032e0000110a10021009800408220009000900071
:1032f0004082200010007800808f500004003a00c7
:1033000040822000a00090000100a0002100980051
:10331000604180000000e00005003a008a20a8001b
:10332000030037002e0090008000eb0001087800b9
:103330000080fa00000006000800fa00000f780084
:103340001107980042479800330798003e0090000c
:1033500000004000800078001e007800010878001e
:103360001e00780010007800800078000100a000a6
:103370001e007800010878001e007800ce40900002
:10338000214098001e0078009e00900021009800c7
:103390000080fa00000006000800fa00000f780024
:1033a0001107980042479800330798003e009000ac
:1033b00000004000800078001e00780001087800be
:1033c0001e007800ce409000214098001e0078003a
:1033d0009e009000210098000080fa000000060086
:1033e0000000fa004082200020009000620060008f
:1033f00000f0a7000000ea000000ea004f00de0035
:10340000004078000080fa00000006000000fa008a
:1034100040822000200090006100600000f0a700c2
:103420000000ea000000ea004f00de0000407800e3
:103430000080fa00000006001e00fa00300f98001d
:10344000410f9800520f9800630f98001000200061
:10345000200798004e0890004800de0000407800e9
:10346000205798004e089000004078003057980090
:10347000f200470066004700be09900022c0b3007a
:10348000c5ff07006e089000804078006600470086
:1034900066004000be09900001417800de089000ff
:1034a000a5ff07000000eb00000f78000000eb0014
:1034b0001007980020003700e4004700660047002e
:1034c000010178008000780020c0b3005eff070093
:1034d0000c00370000d42000310020003603070024
:1034e0009e00900020032000808f500002003a00d0
:1034f0002e009000160037001e0090000000e8002b
:10350000100798002e009000e10f5000f1ff3200ec
:103510002e009000e20f50000b0032004006200009
:103520009e007800808f500002003a002e0090002c
:10353000070037001e0fe8002e0090000000e0009a
:10354000ddff3a0001003700000000002e0090006f
:103550000080fa00000006001400fa0060079800de
:1035600071079800020f9800130f980010002000b8
:10357000500798000000eb00000f78003f00370074
:103580007e0090004800de00004078006047980010
:103590007e00900000407800704798000e08900070
:1035a00010407800004f98000e0890000000e800de
:1035b000000f98000000eb00100798000000eb00df
:1035c0002007980021003700ea0047006600470006
:1035d000810178006e01900031c0b300e8fe070061
:1035e00007003700ae00900020032000808f5000bd
:1035f000070032002e0090000000e800200798002d
:103600005e009000e10f5000f6ff3200010037002d
:1036100000000000ae00900020032000808f5000ca
:103620000f0032005e009000e20f50000c003200ec
:103630009e00900040062000808f5000070032005e
:103640001e0090000000e800100798005e00900047
:103650000000e000dcff3a0001003700000000003d
:103660005e0090000000e000090032007e00900043
:103670000000e800700798001e0fe8001e08900088
:103680009e007800808f5000bdff39000100370098
:10369000000000005e0090000080fa0000000600bc
:1036a0001e00fa00400f9800510f9800620f98001a
:1036b00000c2b30040479800100020003007980077
:1036c0005e0890004800de000040780040579800f7
:1036d0005e0890000040780050579800f4004700c2
:1036e00068004700ce09900022c0b3002aff0700ff
:1036f0006800470066004000ce0990004e419000ef
:10370000ee08900024ff07000000eb00000f780097
:103710000000eb001007980020003700e60047008b
:1037200068004700010178008000780020c0b300e5
:10373000c5fe07000c00370000d420003100200037
:103740009d0207009e00900020032000808f500003
:1037500002003a003e009000160037001e00900064
:103760000000e800100798003e009000e10f5000b4
:10377000f1ff32003e009000e20f50000b003200db
:10378000400620009e007800808f500002003a0022
:103790003e009000070037001e0fe8003e0090003a
:1037a0000000e000ddff3a000100370000000000eb
:1037b0003e0090000080fa00000006000000fa00c1
:1037c00000012000b01f8800f823ef00fc23ef0069
:1037d00010002000202088000824ef000a24ef00b9
:1037e0000c24ef000e24ef0010822800a01f880098
:1037f0000080fa00000006000400fa00000f7800c4
:103800001107980000000000e01f800062006000c7
:103810000000e000fcff3a001e0078001000780075
:10382000002088001e0078000080e800100078006a
:103830001020880000000000e11f8000000220002e
:10384000008060000000e000fbff3a001e009000d6
:1038500001208000010878001e0090000080e80030
:1038600011208000010878000080fa0000000600a6
:103870001a00fa00200f9800310f9800420f9800ac
:103880000000eb00000f78000000eb00100798002c
:103890000000eb00700798006000b800000f98006f
:1038a000110f980040002000600798003e0890002b
:1038b0004200de00300f98002e0890000000e0006b
:1038c00005003a000000eb00500798007000470028
:1038d0002007980004003700ee0090005107980080
:1038e000ae089000210798004e0890000000e0000c
:1038f00005003a000000eb00400798006e0047000a
:103900003007980005003700ee009000410798004e
:10391000ce0890003107980000000000e01f8000f2
:10392000620060000000e000fcff3a002300370066
:10393000e01f8000620060000000e0000c003a0020
:103940002e00900010007800002088002e009000cb
:103950000080e8001000780010208800ae00900081
:103960005e00900000804000200798001e0fe800d5
:10397000e11f800000022000008060000000e000e5
:103980000e003a003e0090000120800001087800ff
:103990003e0090000080e8001120800001087800bf
:1039a000be0090004e00900000804000300798005c
:1039b0001e0090000000e800100798003e089000ec
:1039c0009e007800808f5000d9ff39001300370027
:1039d000e11f800000022000008060000000e00085
:1039e0000e003a003e00900001208000010878009f
:1039f0003e0090000080e80011208000010878005f
:103a0000be0090004e0090000080400030079800fb
:103a10001e0090000000e800100798009e00900033
:103a20003e089000808f5000e9ff39001e007800aa
:103a30000080fa00000006000800fa002007980045
:103a4000310798008e007800640047006aff070085
:103a50001e00be000080fa00000006000600fa000a
:103a6000000f78001107980022079800ae00900020
:103a70001e007800010178009e0090007cff070086
:103a80000080fa00000006000000fa00a11f80007c
:103a900000802000008060000000e0000200320092
:103aa0002000200008003700a11f800000402000f7
:103ab000008060000000e0000200320010002000e2
:103ac000010037000000eb000080fa000000060053
:103ad0000000fa00e01f80000080fa0000000600ed
:103ae0000000fa009a21ef0060002000f00c88002e
:103af0009621ef00f0a72100e00c8800800028004c
:103b0000000d8800d04280000000e00002003a0072
:103b100060e02100400007008900a9009900a8008a
:103b2000205421008040eb00014878000080fa001a
:103b3000000006000400fa00008fbe001e0078009e
:103b4000e00c88001e00be004008de000000780087
:103b5000f00c88000080fa00000006000400fa0063
:103b60000080eb008080eb00008fbe00f00c800036
:103b70008000eb00c001dd0002002000e00c8000ae
:103b80008000eb00001f7100019771001e00be0055
:103b90000080fa00000006000400fa00008fbe005a
:103ba0001e00be004008de0000007800c00c880047
:103bb0001e007800b00c88000080fa0000000600ab
:103bc0000800fa000080eb008080eb00008fbe0050
:103bd000b10c800021079800c10c800031079800cb
:103be0003e0090008000eb00c001dd0002002000dc
:103bf0002e0090008000eb00001f71000197710003
:103c00001e00be000080fa00000006000000fa005e
:103c10000080fa00000006000200fa00000f7800a1
:103c20009900a9009e007800d14288009900a80060
:103c30000080fa00000006000000fa002054210075
:103c40008040eb00014878009900a800a1e1a8009d
:103c50000080fa00000006000000fa00a1e1a900bf
:103c60009900a9000080fa00000006000200fa0096
:103c700020542100104f78001e4078000004e0001e
:103c800003003200205421008040eb0001487800fe
:103c90001e4078000080fa00000006000000fa00d4
:103ca00030542100104078000080fb000080fa00b2
:103cb000000006000000fa00305421008040eb00b4
:103cc000014878000080fa00000006000200fa00b7
:103cd000000f78001e00780010007800000001003e
:103ce0001e007800200090009e0078009100900057
:103cf000110098001e007800100090009e007800cf
:103d0000a1009000210098001e0078009000900013
:103d1000010f7800efff37000200fa00000f780073
:103d20001e0078009e007800210098001e00780098
:103d30009e007800110098000080fa000000060044
:103d40000400fa00100798008000200064f50700c6
:103d5000000f78001e0078008000eb001100980032
:103d60001e0078008000eb00210098001e00780003
:103d70009e009000010878001e0078000080fa0084
:103d8000000006000800fa0020079800310798009c
:103d9000ae0090003e009000808f50002200320064
:103da000ae009000010f78000040eb002047980023
:103db000090037001e00780090009000010f780085
:103dc0003e0090009e0f500003003a0010c0b30068
:103dd00020479800070037001e0078001000900070
:103de000a00090001e00780010009000808f50000e
:103df000f0ff3a002e4090000004e0000b003a0073
:103e00001e007800be009000110098003e00900057
:103e10009e007800210098003e009000ae009000c7
:103e20001100980001003700000000000080fa0037
:103e3000000006000000fa006626ef00004029009e
:103e4000d03388006226ef0070a62400b0338800cb
:103e50007426ef008826ef007226ef000000240091
:103e6000303488006826ef007c26ef006a26ef00d9
:103e70007e26ef0001088000f00b2000008160002a
:103e800060042000710520000310200080497800a4
:103e90008149780082497800b13e8000f00f280007
:103ea000808060000070200001007000b03e88003b
:103eb000b13d8000f00f2c00008060000090a00059
:103ec000b03d8800e13e800000f82f0000806000d7
:103ed0000030a000e03e8800f13e800000f82f0096
:103ee000008060009000b300f03e8800b13d80008b
:103ef00000fc2f0000806000e000b300b03d8800af
:103f0000c13d800000fc2f00008060009000b300e5
:103f1000c03d8800113f8000f00f280080806000c5
:103f20000050200001007000103f8800013f800019
:103f300000f82f00008060003000b300003f8800d0
:103f4000a13d800000fc2f0000806000b000b300a5
:103f5000a03d8800013f8000f00f280080806000b5
:103f60000060200001007000003f88000008800011
:103f7000000178000260a0006004200071052000ac
:103f80000310200080497800814978008249780038
:103f90000080fa00000006000000fa0041068000e0
:103fa000f08f2f00008060000080a0004006880095
:103fb000b1058000f0ff28000080600000c0a00074
:103fc000b0058800b1058000f08f2f0000806000f0
:103fd0000080a000b005880041068000f0f82f00a6
:103fe000008060000040a00040068800710580004d
:103ff00080ff2f00008060000000a0007005880096
:1040000061058000f0ff28000080600000c0a00073
:104010006005880081058000f0f82f0000806000b6
:104020000040a000800588008105800080ff2f00ef
:10403000008060000000a00080058800510580001d
:10404000f0ff28000080600000c0a000500588003c
:104050006105800080ff2f00008060000000a0004c
:0c406000600588000080fa0000000600e7
:020000040000fa
:10406c00e814000020000000800000005808000048
:10407c000200000082000000ffff0000421500005b
:10408c0002000000800000005a080000020000003e
:10409c0080000000081500001200000080000000e5
:1040ac003c0800000e000000800000001a15000003
:1040bc0012000000800000004a0800000e00000002
:1040cc00800000002c150000120000008000000091
:1040dc002408000018000000800000005c080000ac
:1040ec008c0c000080000000000800002400000080
:1040fc008000000044150000020000008200000057
:10410c00040000003e1500000400000080000000c8
:10411c0046150000020000008000000000000000b6
:020000040000fa
:10412c000000fa0000002300100888000621ef00b0
:10413c006821ef006a21ef000821ef0000702000d9
:10414c00500888000c21ef000e21ef007821ef00c1
:10415c007a21ef007c21ef007e21ef008021ef001f
:10416c008221ef008421ef008621ef000001eb009b
:10417c0080072000a109200013102000804978003e
:10418c0081497800824978000001eb00600420002e
:10419c0071052000031020008049780081497800c7
:0c41ac00824978000080fa000000060044
:020000040000fa
:1041b800f03fb1000180b10006003500ee030900b0
:1041c80000000000403fb1000180b100fbff3d004e
:1041d8001000b000203fb000020035000080090048
:0841e8000000000000000600c9
:020000040000fa
:1041f0000200fa00000f78009e007800c14288009b
:10420000ffff37000000fa00804e21008007780091
:1042100000502100000188000080fa000000060024
:104220000000fa0003ff07005bff0700bfff070065
:1042300081f8070061fd070091fb070007fa0700fe
:1042400027fe07000080fa00000006000000fa00c8
:10425000f3ff0700cdf707009cfe070010002000c9
:084260000080fa0000000600d6
:020000040000fa
:020000040005f5
:045e0000ffff0000a0
:020000040000fa
:020000040005f5
:045e2000ffffff0081
:020000040000fa
:020000040005f5
:045e300060ffff0010
:020000040000fa
:020000040005f5
:045e380063ffff0005
:020000040000fa
:020000040005f5
:045e40009fffff00c1
:020000040000fa
:020000040005f5
:045e4800ffffff0059
:020000040000fa
:020000040005f5
:045e5000dfffff0071
:020000040000fa
:020000040005f5
:045e5800efffff0059
:00000001FF
