:020000040000fa
:080000000001040000000000f3
:020000040000fa
:0400080044020000ae
:020000040000fa
:04000c008602000068
:020000040000fa
:04001000c602000024
:020000040000fa
:040014006402000082
:020000040000fa
:04001800a60200003c
:020000040000fa
:04001c001c070000bd
:020000040000fa
:040020001c070000b9
:020000040000fa
:040024001c070000b5
:020000040000fa
:040028001c070000b1
:020000040000fa
:04002c001c070000ad
:020000040000fa
:040030001c070000a9
:020000040000fa
:040034001c070000a5
:020000040000fa
:040038001c070000a1
:020000040000fa
:04003c001c0700009d
:020000040000fa
:040040001c07000099
:020000040000fa
:04004400e6020000d0
:020000040000fa
:040048001c07000091
:020000040000fa
:04004c001c0700008d
:020000040000fa
:040050001c07000089
:020000040000fa
:040054005004000054
:020000040000fa
:04005800f4030000ad
:020000040000fa
:04005c001c0700007d
:020000040000fa
:040060001c07000079
:020000040000fa
:040064001c07000075
:020000040000fa
:040068001c07000071
:020000040000fa
:04006c00cc040000c0
:020000040000fa
:040070001c07000069
:020000040000fa
:040074001c07000065
:020000040000fa
:040078001c07000061
:020000040000fa
:04007c001c0700005d
:020000040000fa
:040080001c07000059
:020000040000fa
:040084001c07000055
:020000040000fa
:040088001c07000051
:020000040000fa
:04008c001c0700004d
:020000040000fa
:040090001c07000049
:020000040000fa
:040094001c07000045
:020000040000fa
:040098001c07000041
:020000040000fa
:04009c001c0700003d
:020000040000fa
:0400a00078030000e1
:020000040000fa
:0400a4001c03000039
:020000040000fa
:0400a8001c07000031
:020000040000fa
:0400ac001c0700002d
:020000040000fa
:0400b0001c07000029
:020000040000fa
:0400b4001c07000025
:020000040000fa
:0400b8001c07000021
:020000040000fa
:0400bc001c0700001d
:020000040000fa
:0400c0001c07000019
:020000040000fa
:0400c4001c07000015
:020000040000fa
:0400c8001c07000011
:020000040000fa
:0400cc001c0700000d
:020000040000fa
:0400d0001c07000009
:020000040000fa
:0400d4001c07000005
:020000040000fa
:0400d8001c07000001
:020000040000fa
:0400dc001c070000fd
:020000040000fa
:0400e0001c070000f9
:020000040000fa
:0400e4001c070000f5
:020000040000fa
:0400e8001c070000f1
:020000040000fa
:0400ec001c070000ed
:020000040000fa
:0400f0001c070000e9
:020000040000fa
:0400f4001c070000e5
:020000040000fa
:0400f8001c070000e1
:020000040000fa
:0400fc001c070000dd
:020000040000fa
:040100001c070000d8
:020000040000fa
:040104001c070000d4
:020000040000fa
:040108001c070000d0
:020000040000fa
:04010c001c070000cc
:020000040000fa
:040110001c070000c8
:020000040000fa
:040114001c070000c4
:020000040000fa
:040118001c070000c0
:020000040000fa
:04011c001c070000bc
:020000040000fa
:040120001c070000b8
:020000040000fa
:040124001c070000b4
:020000040000fa
:040128001c070000b0
:020000040000fa
:04012c00b604000015
:020000040000fa
:04013000de030000ea
:020000040000fa
:040134001c070000a4
:020000040000fa
:040138001c070000a0
:020000040000fa
:04013c001c0700009c
:020000040000fa
:040140001c07000098
:020000040000fa
:040144001c07000094
:020000040000fa
:040148001c07000090
:020000040000fa
:04014c001c0700008c
:020000040000fa
:040150001c07000088
:020000040000fa
:040154001c07000084
:020000040000fa
:040158001c07000080
:020000040000fa
:04015c001c0700007c
:020000040000fa
:040160001c07000078
:020000040000fa
:040164001c07000074
:020000040000fa
:040168001c07000070
:020000040000fa
:04016c001c0700006c
:020000040000fa
:040170001c07000068
:020000040000fa
:040174001c07000064
:020000040000fa
:040178001c07000060
:020000040000fa
:04017c001c0700005c
:020000040000fa
:040180001c07000058
:020000040000fa
:040184001c07000054
:020000040000fa
:040188001c07000050
:020000040000fa
:04018c001c0700004c
:020000040000fa
:040190001c07000048
:020000040000fa
:040194001c07000044
:020000040000fa
:040198001c07000040
:020000040000fa
:04019c001c0700003c
:020000040000fa
:0401a0001c07000038
:020000040000fa
:0401a4001c07000034
:020000040000fa
:0401a8001c07000030
:020000040000fa
:0401ac001c0700002c
:020000040000fa
:0401b0001c07000028
:020000040000fa
:0401b4001c07000024
:020000040000fa
:0401b8001c07000020
:020000040000fa
:0401bc001c0700001c
:020000040000fa
:0401c0001c07000018
:020000040000fa
:0401c4001c07000014
:020000040000fa
:0401c8001c07000010
:020000040000fa
:0401cc001c0700000c
:020000040000fa
:0401d0001c07000008
:020000040000fa
:0401d4001c07000004
:020000040000fa
:0401d8001c07000000
:020000040000fa
:0401dc001c070000fc
:020000040000fa
:0401e0001c070000f8
:020000040000fa
:0401e4001c070000f4
:020000040000fa
:0401e8001c070000f0
:020000040000fa
:0401ec001c070000ec
:020000040000fa
:0401f0001c070000e8
:020000040000fa
:0401f4001c070000e4
:020000040000fa
:0401f8001c070000e0
:020000040000fa
:0401fc001c070000dc
:020000040000fa
:10020000cf5821000e7f24000e018800000000005e
:10021000000020000000e000020032000001200089
:100220002002880014000700260307000000e000f9
:1002300003003a004088210001002000020037003e
:100240000000200001002000810f7000010032003a
:1002500014000700000020000000e000020032004f
:1002600000000200000000002a1902000000000047
:100270000040da000000fe004440a90020002000f9
:100280000000e00003003200100020009001880010
:100290004440a800000006008a1f78008b1f7800e9
:1002a00000000600a1028800800478000000eb0036
:1002b0001f003700e284440054a0b4009905ba003e
:1002c000e284440054a0b4009906ba00e2844400d9
:1002d00054a0b4000006eb00476fde00fd07b2003b
:1002e000ae018800636ce10003003a00eaff0700fa
:1002f0000000eb000e003700606ce10008003a00df
:10030000004deb000a05e800020039003420ec0043
:100310000af0a0008b05e900f9ff3e000400370059
:100320006168e100010032000086eb000b0007006d
:1003300019c7ba001905ba000e04e00003003a001c
:100340000a00e000dbff3a0000000600fe07b200f2
:10035000ae0288008a047800f5ff37000cd0a300b5
:10036000e20f4d001c00390089027800354dba00bb
:100370000a05e800020039003420ec000af0a00071
:100380008b05e9000f003200254dba000a05e80090
:10039000020039003420ec000af0a0008b05e900cf
:1003a000080032000c00e0000600320015cdba0053
:1003b0000a05e800020039003420ec000af0a00031
:1003c0008b05e9008984e80054a0b4000b00e0002c
:1003d000e2ff3a00000006009902ba00055d7800cd
:1003e0008b05e900f7ff3200c82ade00055d7800c2
:1003f0008b05e900f3ff32000c00e000f1ff320052
:1004000019ddba00eeff37003217040000000000cb
:10041000f2080400000000001009040000000000c1
:10042000040c040000000000220c04000000000086
:10043000c80e040000000000ce0e04000000000002
:100440001c0f040000000000260f04000000000044
:10045000ac0f040000000000b20f04000000000018
:10046000b80f040000000000c80f040000000000e6
:100470001c100400000000005410040000000000e4
:1004800060100400000000003600f800809fbe00ed
:10049000829fbe00849fbe00869fbe000000fa00bf
:1004a0008020a9000000eb00970b07000080fa00f5
:1004b0004f03be004f02be004f01be004f00be0002
:1004c0003600f900004006003600f800809fbe00ac
:1004d000829fbe00849fbe00869fbe000000fa007f
:1004e0008e0b07008040a90010002000860b07003b
:1004f0000080fa004f03be004f02be004f01be0055
:100500004f00be003600f900004006003600f8003b
:10051000809fbe00829fbe00849fbe00869fbe005b
:100520000000fa008060a90020002000760b070080
:100530000080fa004f03be004f02be004f01be0014
:100540004f00be003600f900004006003600f800fb
:10055000809fbe00829fbe00849fbe00869fbe001b
:100560000000fa008080a90030002000660b070020
:100570000080fa004f03be004f02be004f01be00d4
:100580004f00be003600f900004006003600f800bb
:10059000809fbe00829fbe00849fbe00869fbe00db
:1005a0000000fa008600a90070002000560b07002a
:1005b0000080fa004f03be004f02be004f01be0094
:1005c0004f00be003600f900004006003600f8007b
:1005d000809fbe00829fbe00849fbe00869fbe009b
:1005e0000000fa00804280000000e00002003200bb
:1005f0008042800000000100104f21001040780070
:100600008040e800104f210001487800004f210091
:1006100011c0b3000148780088e0a9000080fa000a
:100620004f03be004f02be004f01be004f00be0090
:100630003600f900004006003600f800809fbe003a
:10064000829fbe00849fbe00869fbe000000fa000d
:10065000e041800000000100c1418000b041800005
:10066000808f500002003a009be0a900190037007b
:100670008be0a90010003700c04180009040780056
:100680008180fb00911d88000000e800c0418800c7
:10069000c1418000f04b2100808f500002003a00e1
:1006a000604b2100c0418800c1418000b041800002
:1006b000808f500006003200811d80000020200045
:1006c000008060000000e000ebff32000100370016
:1006d000000000000080fa004f03be004f02be0081
:1006e0004f01be004f00be003600f900004006007a
:1006f0003600f800809fbe00829fbe00849fbe002f
:10070000869fbe000000fa00f0418000000001005a
:100710008bc0a9001e00370090418000a11d800001
:10072000814078000148780091418000704c2100a0
:10073000808f500009003200904180008000e80066
:10074000a0418000808f5000040032009041800062
:100750000000e800904188000d00370091418000c2
:10076000704c2100808f500007003a00a1418000aa
:10077000f04b2100808f500003003200f04b21002d
:10078000904188000200370010c0b3003ae8b7007b
:10079000801d8000610060000000e000deff3a0084
:1007a0000080fa004f03be004f02be004f01be00a2
:1007b0004f00be003600f90000400600801f7800a0
:1007c0000000fa00801d8000620060000000e00070
:1007d00001003200b023a9009040a9000080fa0077
:1007e0004f007800004006003600f800809fbe00f1
:1007f000829fbe00849fbe00869fbe000000fa005c
:100800005042800000000100314280002042800000
:10081000808f500002003a009980a900190037002b
:100820008980a90010003700304280009040780095
:100830008180fb00e11c88000000e8003042880055
:1008400031428000104d2100808f500002003a009c
:10085000804c2100304288003142800020428000dc
:10086000808f500006003200d11c80000020200044
:10087000008060000000e000ebff32000100370064
:10088000000000000080fa004f03be004f02be00cf
:100890004f01be004f00be003600f90000400600c8
:1008a0003600f800809fbe00829fbe00849fbe007d
:1008b000869fbe000000fa00604280000000010038
:1008c0008960a9001e00370000428000f11c8000f2
:1008d000814078000148780001428000904d21005d
:1008e000808f500009003200004280008000e80044
:1008f00010428000808f50000400320000428000cf
:100900000000e800004288000d003700014280002e
:10091000904d2100808f500007003a001142800066
:10092000104d2100808f500003003200104d210037
:10093000004288000200370010c0b30048e8b7004a
:10094000d01c8000610060000000e000deff3a0083
:100950000080fa004f03be004f02be004f01be00f0
:100960004f00be003600f90000400600801f7800ee
:100970000000fa00d01c8000620060000000e0006f
:10098000010032009a23a9009020a9000080fa00fb
:100990004f007800004006003600f800809fbe003f
:1009a000829fbe00849fbe00869fbe000000fa00aa
:1009b0008a20a900f1248000000820000080600047
:1009c0000000e000080032009ee4a9002228ef00a9
:1009d00040418000200090008000eb00010878007a
:1009e0002828ef000d013700104180008000eb0047
:1009f000b200200003002000820f5000838f5800b7
:100a0000fc003e00006001000b0037003900370099
:100a1000750037009c003700f3003700c80037002e
:100a2000d9003700f0003700db003700f100370055
:100a30003400370050003700a081200020009000d3
:100a4000620060000000e000f3003a00a081200096
:100a50001000900040418800a0812000100090000c
:100a60001040780024e8b700a0812000100090001a
:100a70001000900030418800a081200010009000fc
:100a8000e6004000a081200011009800a081200015
:100a900090009000004e2100808f500003003a002b
:100aa000a0812000a14d210011009800a08120000c
:100ab000a00090000100a10021009800a08120006a
:100ac00090009000a081200010007800808f5000de
:100ad00004003a00a0812000a00090000110a000b6
:100ae000210098009a04a8002000200010418800ee
:100af000ca0037009a24a800200020001041880076
:100b0000c6003700f124800000002800008060004b
:100b10000000e00008003200a0812000604090004a
:100b20008040e800a0812000614098004000200043
:100b3000e1050700b9003700504180008000d10076
:100b4000f00f200000806000b02488005041800039
:100b500061006000004078000004e0000300320003
:100b6000b000200010418800ac00370030002000a9
:100b700010418800a9003700f124800000002800ff
:100b8000008060000000e00008003200a08120002a
:100b9000604090008040e800a08120006140980003
:100ba00040002000c40507009c0037009a24a800dc
:100bb000504180004800de00e6006000000f200089
:100bc0000100700050418800504180000000a000ea
:100bd0005041880010c0b3002ce8b700200020006e
:100be000104188008d0037002cc8bf00e14f500035
:100bf0000a00320030418000100078005041880027
:100c00003041800020009000704188003041800019
:100c10002040900030e8b700010037002c68ef005a
:100c200051418000f00f2000808f500009003600f5
:100c3000504180004800de00e6006000000f200008
:100c400001007000b0248800a0002000104188003e
:100c50007200370050418000b0248800504180006d
:100c600061006000004078000004e00003003200f2
:100c7000500020001041880068003700300020003c
:100c80001041880065003700f12480000000280032
:100c9000008060000000e00009003200a081200018
:100ca000604090008040e800a081200061409800f2
:100cb0009fe4a900500020007f050700570037007f
:100cc00030c8bf008080fb008100e900cf08de0053
:100cd000814078000040e90030e8b7000104e000fe
:100ce0001000320030418000660040003041880032
:100cf00024c8bf000040e90024e8b70024c8bf00b2
:100d00000004e00003003a00200020006a0507000c
:100d1000420037009a24a8002000200010418800db
:100d20003e00370070418000904078008180fb00d9
:100d3000b12488000000e8007041880037003700c7
:100d4000f124800000002800008060000000e00026
:100d500009003200a0812000604090008040e8003f
:100d6000a08120006140980040002000520507004b
:100d70009fe4a900290037009a64a80080002000a1
:100d800010418800250037008000200010418800b5
:100d90009a64a8002100370070418000a1248000df
:100da00081407800014878000000e8007041880028
:100db00030c8bf000040e90030e8b70030c8bf00cd
:100dc0000004e000040032009aa4a90060002000a2
:100dd00010418800020037009aa4a80025050700ea
:100de0009a84a8000d00370020002000320507007b
:100df0000a003700a0812000604090008040e80099
:100e0000a081200061409800600020002a050700b2
:100e10000000000001003700000000000080fa0020
:100e20004f03be004f02be004f01be004f00be0088
:100e30003600f900004006000040da000000fe0025
:100e4000889fbe0080047800a0a780000000e0001a
:100e500004003a000e0007000084eb000000e000f0
:100e600008003500a8a780000900e0000500320056
:100e700009004400060007000000e00001003d00fa
:100e80000084eb00080078004f04be00000006005c
:100e9000800078000100e00003003a00604f21006c
:100ea000a0a78800000005000080eb00c2582100c8
:100eb000828f500002003e00a1a788000000eb00d6
:100ec0000000060000000500889fbe0000047800b6
:100ed00061a780000100e0000200320001007800fc
:100ee0000d00370071a78000e04e2100040037009c
:100ef000910f5400250036000180e8009100900019
:100f00000100e000faff3a0010003700920f540091
:100f10001e0036000280e800100178000200e000a8
:100f2000faff3a001101780071a78000e04e21001d
:100f300004003700910f5400140036000180e800cf
:100f400091009000828f5000faff3a0099a780002c
:100f5000888f54000100310088047800090078006f
:100f60003d0007000000e00004003a00888f5400b4
:100f7000050032008904d100f5ff37000918780018
:100f80003f000700d2ff37000000eb004f04be0017
:100f900000000600881f7800630440000800a100dc
:100fa0008000eb00800f540021003600e30f540056
:100fb00001003e004800200008007800c2ff070042
:100fc0008000eb000000e000190032009000780083
:100fd0009101780064815100880f510003003100b5
:100fe00011019000020878000700370008814000d6
:100ff0000208780091019000130198001001780018
:101000001109140088087800100178000000eb0036
:101010000200e00004003200920190000300e000b2
:10102000010032000280e80060a788008180e800ab
:10103000010078004f04780000000600800178006d
:1010400002003700b15978000201e9000200e00017
:10105000fcff3a0000000600800078000000eb0072
:101060000100e000050034000100780074ff070073
:10107000e10f400001003a000000eb000000060014
:101080000000e0002f003200c0017800e38f510023
:101090002c0036000308a3002a003a0071a7800044
:1010a0000100e00002003200810f50000400310016
:1010b0001100980070a788001600370082007800a1
:1010c000110190000200e00002003200800f510088
:1010d000faff39001102780084824000850f500029
:1010e00018003900808f520003003a008308420044
:1010f00001007800070037000200e0000300320022
:1011000083014000830f51000e0039001200980047
:1011100090009800900090000100e000090032006b
:1011200010014000828f500006003a00c24e21009c
:101130000009eb00100178001108410091009000b7
:081140001100980000000600f8
:020000040000fa
:101148000000fa009be0a9009bc0a90080002000d5
:10115800701d8800b023ef0070062000b01d8800c5
:10116800b823ef00604b2100c0418800604b21008c
:10117800b0418800f04b2100a0418800f04b2100cd
:10118800904188003a68ef00208f20000700070090
:1011980000912000140007009bc0a800afe3a8003e
:1011a800b143a8000080fa00000006000200fa001f
:1011b800000f78001e0078000000e00003003a00ed
:1011c800208f2000e0418800020037009e00780050
:1011d800e14188000080fa00000006000000fa00e3
:1011e8000080fa00000006000200fa00000f7800f4
:1011f8001e0078000000e00003003a000091200083
:10120800f0418800020037009e007800f141880014
:101218000080fa00000006000000fa000080fa00d2
:10122800000006000200fa000040eb00004f7800c2
:1012380000000000a141800090418000808f500094
:10124800fcff3200a0418000104f7800a0418000d0
:101258000000e800a0418800a1418000804c2100e6
:10126800808f500002003a00f04b2100a041880016
:101278001e4078000080fa00000006000200fa0014
:10128800004f7800000000001c0007000004a200c6
:101298000004e000fcff3a00b04180001e487800de
:1012a800b04180000000e800b0418800b1418000f2
:1012b800f04b2100808f500002003a00604b210063
:1012c800b04188009be0a8000080fa0000000600fa
:1012d8000000fa00a1418000904180000080680071
:1012e80000f0a7000000ea000000ea004f00de005e
:1012f800004078000080fa00000006000400fa00b0
:10130800c141800011079800b14180001e00900083
:10131800808f5000060031009e009000b041800090
:10132800008050000000e900000f78000500370039
:101338009e009000b041800000805000680040008e
:10134800000f78001e00780000f0a7000000ea00f7
:101358000000ea004f00de00004078000080fa003c
:10136800000006000000fa00b1418000c041800082
:10137800808f500009003a00811d80000010200075
:101388000080600000f0a7000000ea000000ea000a
:101398004f00de0000407800010037000040eb00fd
:1013a8000080fa00000006000400fa009141800065
:1013b80011079800a04180009e009000808f500087
:1013c800060031009e009000a0418000008050007f
:1013d80069004000000f7800040037009e0090006c
:1013e800a041800000805000000f7800f00f20001e
:1013f8009e007800808f50000200360000c0eb008d
:10140800020037001e007800004078000080fa00d3
:10141800000006000400fa00c1418000110798008e
:10142800b14180001e009000808f500006003100fe
:101438009e009000b0418000008050000000e9004c
:10144800000f7800050037009e009000b041800032
:101458000080500068004000000f7800f00f200066
:101468009e007800808f50000200360000c0eb001c
:10147800020037001e007800004078000080fa0063
:10148800000006000800fa002007980031079800bd
:10149800c5ff07000080fb00000f78003e009000a9
:1014a8009e0f500002003100be009000010f78002e
:1014b8000000eb00100798000900370059ff0700eb
:1014c800ae009000804878002e0090000000e800f0
:1014d800200798001e0090000000e8001007980000
:1014e8001e0090009e0f5000f4ff39001e00780087
:1014f8000080fa00000006000800fa0020079800a3
:1015080031079800c3ff07000080fb00000f780038
:101518003e0090009e0f500002003100be00900077
:10152800010f78000000eb00100798000900370051
:101538002e00900010407800ae0090008100e80076
:10154800210798004dff07001e0090000000e800ea
:10155800100798001e0090009e0f5000f4ff3900fd
:101568001e0078000080fa00000006000400fa005f
:101578000000eb00000f78008bff07002047980061
:10158800a4ff0700304798002e4090000080fb0021
:101598000000e00003003200e90f500003003200b1
:1015a800040037001e20a000040037001e00a00021
:1015b800020037001e10a000000000003e4090000e
:1015c8000080fb000000e00003003200e90f50003b
:1015d80003003200040037001e30a000020037006c
:1015e8001e40a000000000001e0078000080fa00e5
:1015f800000006000400fa0010079800a1418000ce
:101608001e009000008f4000020037009e00780006
:10161800698f5000804c21009e007800808f500018
:10162800faff3e001e007800104078000080fa00a3
:10163800000006000000fa005bff07000080fb00c6
:101648000000e9004f00de00004078000080fa004a
:10165800000006000000fa006eff07000080fb0093
:101668000000e9004f00de00004078000080fa002a
:10167800000006000000fa00801d80000080fa00cb
:10168800000006000000fa0062ff07000004e00006
:1016980010003200c1418000b0418000808f5000ae
:1016a80006003600c041800080007800b04180000c
:1016b800008050000000e90007003700c0418000aa
:1016c80080007800b0418000008050006800400031
:1016d800010037000000eb000080fa00000006005f
:1016e8000000fa0030ff07000004e000100032009c
:1016f800a141800090418000808f50000600360094
:10170800a041800080007800904180000080500057
:101718000000e90007003700a04180008000780041
:1017280090418000008050006800400001003700b0
:101738000000eb000080fa00000006000000fa003c
:10174800afe3a800b143a8000080fa00000006003b
:101758000000fa00afe3a900b143a9000080fa0035
:10176800000006000000fa009980a9009960a9000d
:1017780080002000c01c88009a23ef00700620001b
:10178800001d8800a223ef00804c21003042880011
:10179800804c210020428800104d21001042880012
:1017a800104d2100004288004868ef0040c020002a
:1017b8000700070020c22000140007009960a80055
:1017c80099e3a8009b43a8000080fa0000000600e7
:1017d8000200fa00000f78001e0078000000e00008
:1017e80003003a0040c02000504288000200370041
:1017f8009e007800514288000080fa000000060030
:101808000000fa000080fa00000006000200fa005a
:10181800000f78001e0078000000e00003003a0086
:1018280020c2200060428800020037009e00780035
:10183800614288000080fa00000006000000fa00fb
:101848000080fa00000006000200fa000040eb00e9
:10185800004f780000000000114280000042800024
:10186800808f5000fcff320010428000104f78003b
:10187800104280000000e8001042880011428000f9
:10188800a04d2100808f500002003a00104d210029
:10189800104288001e4078000080fa000000060010
:1018a8000200fa00004f7800000000001c0007004a
:1018b8000004a2000004e000fcff3a00204280007f
:1018c8001e487800204280000000e800204288007e
:1018d80021428000104d2100808f500002003a0004
:1018e800804c2100204288009980a8000080fa00de
:1018f800000006000000fa0011428000004280004b
:101908000080680000f0a7000000ea000000ea007c
:101918004f00de00004078000080fa00000006005a
:101928000400fa003142800011079800214280002b
:101938001e009000808f5000060031009e0090002d
:1019480020428000008050000000e900000f78006d
:10195800050037009e009000204280000080500063
:1019680068004000000f78001e00780000f0a70013
:101978000000ea000000ea004f00de0000407800a6
:101988000080fa00000006000000fa0021428000f2
:1019980030428000808f500009003a00d11c80003e
:1019a800001020000080600000f0a7000000ea009e
:1019b8000000ea004f00de00004078000100370018
:1019c8000040eb000080fa00000006000400fa0066
:1019d8000142800011079800104280009e0090008c
:1019e800808f5000060031009e0090001042800059
:1019f8000080500069004000000f780004003700a4
:101a08009e0090001042800000805000000f780077
:101a1800f00f20009e007800808f500002003600f2
:101a280000c0eb00020037001e007800004078007c
:101a38000080fa00000006000400fa00314280002d
:101a480011079800214280001e009000808f5000ee
:101a5800060031009e009000204280000080500067
:101a68000000e900000f7800050037009e00900094
:101a7800204280000080500068004000000f78007d
:101a8800f00f20009e007800808f50000200360082
:101a980000c0eb00020037001e007800004078000c
:101aa8000080fa00000006000800fa0020079800ed
:101ab80031079800c5ff07000080fb00000f780081
:101ac8003e0090009e0f500002003100be009000c2
:101ad800010f78000000eb0010079800090037009c
:101ae80059ff0700ae009000804878002e00900053
:101af8000000e800200798001e0090000000e800a1
:101b0800100798001e0090009e0f5000f4ff390047
:101b18001e0078000080fa00000006000800fa00a5
:101b28002007980031079800c3ff07000080fb00da
:101b3800000f78003e0090009e0f50000200310018
:101b4800be009000010f78000000eb00100798001d
:101b5800090037002e00900010407800ae00900079
:101b68008100e800210798004dff07001e00900043
:101b78000000e800100798001e0090009e0f50001b
:101b8800f4ff39001e0078000080fa00000006000b
:101b98000400fa000000eb00000f78008bff07003c
:101ba80020479800a4ff0700304798002e40900077
:101bb8000080fb000000e00003003200e90f500045
:101bc80003003200040037001e20a0000400370084
:101bd8001e00a000020037001e10a0000000000038
:101be8003e4090000080fb000000e000030032004f
:101bf800e90f500003003200040037001e30a00037
:101c0800020037001e40a000000000001e007800ff
:101c18000080fa00000006000400fa00100798008f
:101c2800114280001e009000008f40000200370023
:101c38009e007800698f5000a04d21009e0078001a
:101c4800808f5000faff3e001e0078001040780098
:101c58000080fa00000006000000fa005bff0700a1
:101c68000080fb000000e9004f00de000040780023
:101c78000080fa00000006000000fa006eff07006e
:101c88000080fb000000e9004f00de000040780003
:101c98000080fa00000006000000fa00d01c800056
:101ca8000080fa00000006000000fa0062ff07004a
:101cb8000004e00010003200314280002042800021
:101cc800808f500006003600304280008000780087
:101cd80020428000008050000000e9000700370023
:101ce8003042800080007800204280000080500050
:101cf80068004000010037000000eb000080fa0097
:101d0800000006000000fa0030ff07000004e000b1
:101d1800100032001142800000428000808f500085
:101d280006003600104280008000780000428000e3
:101d3800008050000000e9000700370010428000d2
:101d48008000780000428000008050006800400059
:101d5800010037000000eb000080fa0000000600d8
:101d68000000fa0099e3a8009b43a8000080fa004d
:101d7800000006000000fa0099e3a9009b43a900af
:101d88000080fa00000006000000fa000080fa0057
:101d9800000006000400fa006000b8007d03070098
:101da800008fbe0091408000a04080000000d1005c
:101db8000074a1000080fb004200dd0000804000ac
:101dc8003e1878002e107800a04080000000d10056
:101dd8000074a1000040e8000074a1008080fb00ae
:101de800f00720000080600000004000a240800052
:101df80011f02f008100610001007000a0408800f0
:101e0800a1408000e00f200000806000f40f500027
:101e180005003a00a140800010f02f00008060000b
:101e2800a04088001408a8000080fa0000000600fe
:101e38000200fa0084fe0700004f78000080fa00d4
:101e4800000006000200fa00f6fc0700004f7800c8
:101e5800b0408000e10f50001a003200e10f50003e
:101e680005003900e20f500028003200e30f50004f
:101e78002c003200340037001e80fb00e10f5000b8
:101e880007003200e20f50000a0032000000e000b4
:101e98002c003a00e3fc0700004f780008003700e8
:101ea8000000eb00f0a2880010002000b04088007d
:101eb8000300370020002000b040880022003700cf
:101ec80021003700c1a28000f03f2000808f500021
:101ed80008003e00b1a28000c0a28000008040003f
:101ee8001e487800c0a280000000e800c0a2880058
:101ef800150037000000eb00c0a288001628ef008c
:101f080030002000f0a288000f0037001e80fb0080
:101f18004800dd0000a3880030002000b0408800a1
:101f2800090037001e80fb0000a388001628ef0078
:101f3800814080001040800071030700000000000d
:101f480001003700000000000080fa0000000600d1
:101f58000000fa000080fa00000006000000fa0005
:101f68000080fa00000006000000fa00b2a280001b
:101f780001a3800000408000034020008701070083
:101f88000080fa00000006000600fa00c0a28000e7
:101f98000000e0001d003a0000c2b300104798009e
:101fa8001e4090000080fb000140200000017800e6
:101fb800110009008200d800204798000040eb007b
:101fc800004f78000d003700c1a28000210798005b
:101fd800b2a280001e4090008080fb002e0090007e
:101fe8000088b900000078000001410001a38000ca
:101ff80000408000030207001e4fe8002e409000ba
:102008009e40780080cf5000efff39000080fa0032
:10201800000006000000fa00b1a2800090a2800033
:102028000240200003fc07000080fa0000000600c0
:102038000000fa0018c8bf000004e00006003a00db
:1020480051408000104080002d03070010c0b300ed
:1020580018e8b70004003700614080001040800095
:10206800270307001868ef000080fa000000060048
:102078000000fa0051408000104080002003070053
:102088000080fa00000006000000fa0061408000ad
:10209800104080001a0307000080fa0000000600c4
:1020a8000000fa003140800010408000140307004f
:1020b8000080fa00000006000000fa00414080009d
:1020c800104080000e0307000080fa0000000600a0
:1020d8000000fa0080ec2000f80207001040880099
:1020e800e0ec2000f502070020408800c0f1200045
:1020f800f20207003040880060f22000ef0207007b
:1021080040408800c0fa2000ec02070050408800d8
:1021180020fb2000e90207006040880080fb2000c7
:10212800e60207007040880080fc2000e3020700f8
:102138008040880010408000d3020700c0012100c1
:102148004903070040052100b0fd070000062100f3
:1021580025fc070012a3800023a3800092a2880018
:10216800a3a2880032a3800043a38000b2a2880003
:10217800c3a2880052a3800063a38000d2a2880073
:10218800e3a288002085200090a288000000eb00d0
:10219800a0a2880020c52000b0a288000000eb00a3
:1021a800c0a2880020052100d0a288000000eb0012
:1021b800e0a2880030002000f0a28800e04621005c
:1021c800904088001408a900a140800010f02f005a
:1021d80000806000a0408800104080000080fa0065
:1021e800000006000000fa00a0812000a14d210097
:1021f80011009800a0812000a14d2100010878005d
:10220800a0812000a00090000110a00021009800eb
:10221800a0812000a00090000100a10021009800ea
:10222800a08120008040eb00614098002001200040
:10223800c024880000002800d02488009e24ef00d5
:102248008a20a9009a20a8000080fa000000060051
:102258000200fa00a0812000e0409000014f7800c1
:102268001e4078000080fa00000006000000fa0016
:1022780030418000660040003041880024c8bf001b
:102288000040e90024e8b70024c8bf000004e000cb
:1022980003003a0040002000104188000200370087
:1022a80010002000104188000080fa00000006009d
:1022b8000200fa00000f78009a44a800404180000c
:1022c800200090000000e000030032004041800040
:1022d800200090001e0878002228ef000080fa00f5
:1022e800000006000800fa00000f78002147980057
:1022f8002207980033079800a08120002000900052
:10230800610060000000e0000a003a00ae019000a1
:102318002e4190009e007800604e21007700070053
:102328003e019000614e210010c0b3001f0007005d
:10233800030037003e0090008000eb0001087800a1
:102348000080fa00000006000800fa00000f78007c
:10235800214798002207980033079800a0812000a1
:1023680020009000610060000000e0000a003a00d0
:10237800ae0190002e4190009e007800004e210092
:10238800460007003e019000014e210010c0b30036
:1023980006000700030037003e0090008000eb00b5
:1023a800010878000080fa00000006000600fa0024
:1023b800004f78001107980022079800a08120009c
:1023c80020009000610060000000e0002e003a004c
:1023d8002e0090001100200001087800a081200044
:1023e800100078009e00900011009800a081200045
:1023f800100078001e487800a081200010007800a6
:10240800ae00900021009800a08120001000780004
:10241800e6004000a081200001087800a08120008b
:1024280090007800004e2100808f500003003a0091
:10243800a0812000a14d210001087800a081200082
:10244800a00090000110a10021009800a0812000a8
:1024580090009000a081200010007800808f50002c
:1024680004003a00a0812000a00090000100a00014
:1024780021009800104180000000e00005003a00ab
:102488008a20a800030037002e0090008000eb008f
:10249800010878000080fa00000006000800fa0031
:1024a800000f7800110798004247980033079800fa
:1024b8003e00900000004000800078001e00780078
:1024c800010878001e00780010007800800078006d
:1024d8000100a0001e007800010878001e007800a6
:1024e800ce409000214098001e0078009e00900089
:1024f800210098000080fa00000006000800fa0099
:10250800000f780011079800424798003307980099
:102518003e00900000004000800078001e00780017
:10252800010878001e007800ce40900021409800f5
:102538001e0078009e009000210098000080fa009c
:10254800000006000000fa00a08120002000900092
:102558006200600000f0a7000000ea000000ea0046
:102568004f00de00004078000080fa0000000600fe
:102578000000fa00a08120002000900061006000a7
:1025880000f0a7000000ea000000ea004f00de00ab
:10259800004078000080fa00000006001e00fa00e3
:1025a800300f9800410f9800520f9800630f980061
:1025b80010002000200798004e0890004800de0018
:1025c80000407800205798004e089000004078009e
:1025d80030579800f200470066004700be09900097
:1025e80022c0b300c5ff07006e0890008040780045
:1025f8006600470066004000be099000014178006f
:10260800de089000a5ff07000000eb00000f78002f
:102618000000eb001007980020003700e400470096
:1026280066004700010178008000780020c0b300f0
:102638005eff07000c00370000d4200031002000a6
:10264800210307009e00900020032000808f500087
:1026580002003a002e009000160037001e0090007d
:102668000000e800100798002e009000e10f5000cd
:10267800f1ff32002e009000e20f50000b003200f4
:10268800400620009e007800808f500002003a002b
:102698002e009000070037001e0fe8002e00900063
:1026a8000000e000ddff3a000100370000000000f4
:1026b8002e0090000080fa00000006001400fa00c6
:1026c8006007980071079800020f9800130f980090
:1026d80010002000500798000000eb00000f780061
:1026e8003f0037007e0090004800de000040780080
:1026f800604798007e00900000407800704798007e
:102708000e08900010407800004f98000e089000c6
:102718000000e800000f98000000eb001007980088
:102728000000eb002007980021003700ea0047006e
:1027380066004700810178006e01900031c0b30047
:10274800e8fe070007003700ae00900020032000d5
:10275800808f5000070032002e0090000000e80033
:10276800200798005e009000e10f5000f6ff32004d
:102778000100370000000000ae0090002003200098
:10278800808f50000f0032005e009000e20f500072
:102798000c0032009e00900040062000808f500000
:1027a800070032001e0090000000e80010079800a3
:1027b8005e0090000000e000dcff3a0001003700f6
:1027c800000000005e0090000000e00009003200f8
:1027d8007e0090000000e800700798001e0fe800d7
:1027e8001e0890009e007800808f5000bdff3900c1
:1027f80001003700000000005e0090000080fa0031
:10280800000006001e00fa00400f9800510f9800c3
:10281800620f980000c2b3004047980010002000e3
:10282800300798005e0890004800de0000407800fd
:10283800405798005e089000004078005057980074
:10284800f400470068004700ce09900022c0b3009a
:102858002aff07006800470066004000ce09900084
:102868004e419000ee08900024ff07000000eb00a6
:10287800000f78000000eb001007980020003700d8
:10288800e6004700680047000101780080007800f2
:1028980020c0b300c5fe07000c00370000d420009c
:1028a80031002000880207009e00900020032000cd
:1028b800808f500002003a003e009000160037005a
:1028c8001e0090000000e800100798003e009000ed
:1028d800e10f5000f1ff32003e009000e20f50007f
:1028e8000b003200400620009e007800808f5000c8
:1028f80002003a003e009000070037001e0fe80073
:102908003e0090000000e000ddff3a0001003700c3
:10291800000000003e0090000080fa000000060061
:102928000000fa00f623ef00f823ef00fc23ef0085
:102938000424ef000824ef000a24ef000c24ef0021
:102948000e24ef0010822800a01f88000080fa00e3
:10295800000006000400fa00000f78001107980034
:1029680000000000e01f8000620060000000e0003e
:10297800fcff3a001e007800100078000020880054
:102988001e0078000080e800100078001020880001
:1029980000000000e11f80000002200000806000ad
:1029a8000000e000fbff3a001e00900001208000bc
:1029b800010878001e0090000080e80011208000c7
:1029c800010878000080fa00000006001a00fa00ea
:1029d800200f9800310f9800420f98000000eb007c
:1029e800000f78000000eb00100798000000eb00d3
:1029f800700798006000b800000f9800110f980049
:102a080040002000600798003e0890004200de0069
:102a1800300f98002e0890000000e00005003a00f2
:102a28000000eb005007980070004700200798004e
:102a380004003700ee00900051079800ae0890009f
:102a4800210798004e0890000000e00005003a00b9
:102a58000000eb00400798006e0047003007980020
:102a680005003700ee00900041079800ce0890005e
:102a78003107980000000000e01f8000620060003d
:102a88000000e000fcff3a0023003700e01f800050
:102a9800620060000000e0000c003a002e00900088
:102aa80010007800002088002e0090000080e800c8
:102ab8001000780010208800ae0090005e009000a2
:102ac80000804000200798001e0fe800e11f8000ea
:102ad80000022000008060000000e0000e003a00c4
:102ae8003e00900001208000010878003e00900020
:102af8000080e8001120800001087800be009000e6
:102b08004e00900000804000300798001e009000a2
:102b18000000e800100798003e0890009e0078002a
:102b2800808f5000d9ff390013003700e11f800063
:102b380000022000008060000000e0000e003a0063
:102b48003e00900001208000010878003e009000bf
:102b58000080e8001120800001087800be00900085
:102b68004e00900000804000300798001e00900042
:102b78000000e800100798009e0090003e089000b2
:102b8800808f5000e9ff39001e0078000080fa00ad
:102b9800000006000800fa00200798003107980096
:102ba8008e007800640047006aff07001e00be0020
:102bb8000080fa00000006000600fa00000f780006
:102bc8001107980022079800ae0090001e007800b8
:102bd800010178009e0090007cff07000080fa0049
:102be800000006000000fa00a11f800000802000fd
:102bf800008060000000e000020032002000200099
:102c080008003700a11f80000040200000806000fd
:102c18000000e00002003200100020000100370030
:102c28000000eb000080fa00000006000000fa0037
:102c3800e01f80000080fa00000006000200fa0091
:102c4800000f78001e0078001000780000000100d6
:102c58001e007800200090009e00780091009000ef
:102c6800110098001e007800100090009e00780067
:102c7800a1009000210098001e00780090009000ac
:102c8800010f7800efff37000200fa00000f78000c
:102c98001e0078009e007800210098001e00780031
:102ca8009e007800110098001e007800a102200004
:102cb800310098000080fa00000006000400fa00c5
:102cc8001007980080002000b0f80700000f780077
:102cd8001e0078008000eb00110098001e007800ac
:102ce8008000eb00210098001e0078009e009000f4
:102cf800010878001e0078000080fa000000060035
:102d08000800fa002007980031079800ae009000ec
:102d18003e009000808f500022003200ae009000ec
:102d2800010f78000040eb002047980009003700a9
:102d38001e00780090009000010f78003e0090007f
:102d48009e0f500003003a0010c0b30020479800bf
:102d5800070037001e00780010009000a0009000c7
:102d68001e00780010009000808f5000f0ff3a009d
:102d78002e4090000004e0000b003a001e0078008e
:102d8800be009000110098003e0090009e00780060
:102d9800210098003e009000ae00900011009800bd
:102da80001003700000000000080fa000000060063
:102db8000000fa009621ef009c21ef000000280097
:102dc800000d8800804280000000e00002003a0008
:102dd800207321002400070088e0a90098e0a800db
:102de800004f21008040eb00014878000080fa0085
:102df800000006000200fa00000f78009e0078002c
:102e0800e10c8800004f21008040eb000148780069
:102e18000080fa00000006000000fa00e00c8000c4
:102e28000080fa00000006000200fa00000f780097
:102e38009e007800b10c8800004f21008040eb0014
:102e4800014878000080fa00000006000000fa003f
:102e5800b00c80000080fa00000006000000fa00b4
:102e68000080fa00000006000200fa00000f780057
:102e780098e0a9009e0078008142880098e0a800a8
:102e88000080fa00000006000000fa00004f210050
:102e98008040eb000148780098e0a800a1e1a80074
:102ea8000080fa00000006000000fa00a1e1a90075
:102eb80098e0a9000080fa00000006000200fa006d
:102ec800004f2100104f78001e4078000004e000f9
:102ed80003003200004f21008040eb0001487800d9
:102ee8001e4078000080fa00000006000000fa008a
:102ef800104f2100104078000080fb000080fa008d
:102f0800000006000000fa00104f21008040eb008e
:102f1800014878000080fa00000006000000fa006e
:102f28006626ef007a26ef00400120001033880063
:102f380030a62600b03388007426ef008826ef00fc
:102f48007226ef008626ef006826ef007c26ef0049
:102f5800c00020005033880000002200f0338800b1
:102f680001088000f00b2000008160006004200050
:102f780071052000031020008049780081497800fd
:102f880082497800013f800000f82f00008060002f
:102f98003000b300003f8800a13d800000fc2f00f6
:102fa80000806000b000b300a03d8800e13e8000d2
:102fb80000f82f00008060000030a000e03e88008c
:102fc800c13d800000fc2f00008060009000b3002d
:102fd800c03d8800113f8000f00f2800808060000d
:102fe8000050200001007000103f8800b13d8000b3
:102ff80000fc2f0000806000e000b300b03d8800b6
:10300800f13e800000f82f00008060009000b300bf
:10301800f03e880000088000000178000260a000ef
:10302800600420007105200003102000804978000a
:1030380081497800824978000080fa000000060083
:103048000000fa0041068000f08f2f000080600029
:103058000080a00040068800b1058000f0ff28002d
:103068000080600000c0a000b0058800b1058000a5
:10307800f08f2f00008060000080a000b00588005d
:1030880041068000f0f82f00008060000040a0009a
:10309800400688007105800080ff2f0000806000d6
:1030a8000000a0007005880061058000f0ff28007e
:1030b8000080600000c0a0006005880081058000d5
:1030c800f0f82f00008060000040a0008005880014
:1030d8008105800080ff2f00008060000000a000b4
:1030e8008005880051058000f0ff280000806000fe
:1030f80000c0a000500588000080fa00000006000b
:020000040000fa
:103108009614000020000000800000004e08000017
:103118000200000082000000ffff0000f014000021
:1031280002000000800000005008000002000000bb
:1031380080000000b61400001200000080000000ab
:10314800320800000e00000080000000c8140000d3
:103158001200000080000000400800000e0000007f
:1031680080000000da140000120000008000000057
:103178001a08000018000000800000005208000033
:10318800440c000080000000000800001a00000045
:1031980080000000f214000002000000820000001d
:1031a80004000000ec14000004000000800000008f
:1031b800f41400000200000080000000000000007d
:020000040000fa
:1031c8000000fa0000002300100888000621ef0024
:1031d8006821ef006a21ef000821ef00007020004d
:1031e800500888000c21ef000e21ef007821ef0035
:1031f8007a21ef007c21ef007e21ef008021ef0093
:103208008221ef008421ef008621ef000001eb000e
:1032180080072000a10920001310200080497800b1
:1032280081497800824978000001eb0060042000a1
:10323800710520000310200080497800814978003a
:10324800824978000080fa00000006000800fa00b1
:103258003700070010112100000f780000c0eb00b4
:103268006047980030ceb30070479800e4004700ec
:1032780066004700810178001e01780021c0b30074
:1032880018fc070092fb0700100798001e0090002a
:103298006afe0700d03380004200de006140600013
:1032a8000004a200614060000080fb006100600033
:1032b8004200dd00d13380000120a1000100700030
:0832c800d0338800f3ff37004a
:020000040000fa
:1032d000f03fb1000180b10006003500ee030900a7
:1032e00000000000403fb1000180b100fbff3d0045
:1032f0001000b000203fb00002003500008009003f
:083300000000000000000600bf
:020000040000fa
:103308000200fa00000f78009e00780071428800e1
:10331800ffff37000000fa006049210080077800ad
:10332800e04a2100000188000080fa000000060041
:103338000000fa00f9fe070041ff0700a0ff0700a0
:103348007ff7070076fd0700a6fb070005f90700d1
:0c33580097fe07000080fa00000006004d
:020000040000fa
:020000040005f5
:045e0000ffff0000a0
:020000040000fa
:020000040005f5
:045e2000ffffff0081
:020000040000fa
:020000040005f5
:045e300078ffff00f8
:020000040000fa
:020000040005f5
:045e3800b3ffff00b5
:020000040000fa
:020000040005f5
:045e40009fffff00c1
:020000040000fa
:020000040005f5
:045e4800ffffff0059
:020000040000fa
:020000040005f5
:045e5000dfffff0071
:020000040000fa
:020000040005f5
:045e5800efffff0059
:00000001FF
