:020000040000fa
:080000000001040000000000f3
:020000040000fa
:0400080044020000ae
:020000040000fa
:04000c008602000068
:020000040000fa
:04001000c602000024
:020000040000fa
:040014006402000082
:020000040000fa
:04001800a60200003c
:020000040000fa
:04001c001c070000bd
:020000040000fa
:040020001c070000b9
:020000040000fa
:040024001c070000b5
:020000040000fa
:040028001c070000b1
:020000040000fa
:04002c001c070000ad
:020000040000fa
:040030001c070000a9
:020000040000fa
:040034001c070000a5
:020000040000fa
:040038001c070000a1
:020000040000fa
:04003c001c0700009d
:020000040000fa
:040040001c07000099
:020000040000fa
:040044001c07000095
:020000040000fa
:04004800e6020000cc
:020000040000fa
:04004c001c0700008d
:020000040000fa
:040050001c07000089
:020000040000fa
:040054005004000054
:020000040000fa
:04005800f4030000ad
:020000040000fa
:04005c001c0700007d
:020000040000fa
:040060001c07000079
:020000040000fa
:040064001c07000075
:020000040000fa
:040068001c07000071
:020000040000fa
:04006c00cc040000c0
:020000040000fa
:040070001c07000069
:020000040000fa
:040074001c07000065
:020000040000fa
:040078001c07000061
:020000040000fa
:04007c001c0700005d
:020000040000fa
:040080001c07000059
:020000040000fa
:040084001c07000055
:020000040000fa
:040088001c07000051
:020000040000fa
:04008c001c0700004d
:020000040000fa
:040090001c07000049
:020000040000fa
:040094001c07000045
:020000040000fa
:040098001c07000041
:020000040000fa
:04009c001c0700003d
:020000040000fa
:0400a00078030000e1
:020000040000fa
:0400a4001c03000039
:020000040000fa
:0400a8001c07000031
:020000040000fa
:0400ac001c0700002d
:020000040000fa
:0400b0001c07000029
:020000040000fa
:0400b4001c07000025
:020000040000fa
:0400b8001c07000021
:020000040000fa
:0400bc001c0700001d
:020000040000fa
:0400c0001c07000019
:020000040000fa
:0400c4001c07000015
:020000040000fa
:0400c8001c07000011
:020000040000fa
:0400cc001c0700000d
:020000040000fa
:0400d0001c07000009
:020000040000fa
:0400d4001c07000005
:020000040000fa
:0400d8001c07000001
:020000040000fa
:0400dc001c070000fd
:020000040000fa
:0400e0001c070000f9
:020000040000fa
:0400e4001c070000f5
:020000040000fa
:0400e8001c070000f1
:020000040000fa
:0400ec001c070000ed
:020000040000fa
:0400f0001c070000e9
:020000040000fa
:0400f4001c070000e5
:020000040000fa
:0400f8001c070000e1
:020000040000fa
:0400fc001c070000dd
:020000040000fa
:040100001c070000d8
:020000040000fa
:040104001c070000d4
:020000040000fa
:040108001c070000d0
:020000040000fa
:04010c001c070000cc
:020000040000fa
:040110001c070000c8
:020000040000fa
:040114001c070000c4
:020000040000fa
:040118001c070000c0
:020000040000fa
:04011c001c070000bc
:020000040000fa
:040120001c070000b8
:020000040000fa
:040124001c070000b4
:020000040000fa
:040128001c070000b0
:020000040000fa
:04012c00b604000015
:020000040000fa
:04013000de030000ea
:020000040000fa
:040134001c070000a4
:020000040000fa
:040138001c070000a0
:020000040000fa
:04013c001c0700009c
:020000040000fa
:040140001c07000098
:020000040000fa
:040144001c07000094
:020000040000fa
:040148001c07000090
:020000040000fa
:04014c001c0700008c
:020000040000fa
:040150001c07000088
:020000040000fa
:040154001c07000084
:020000040000fa
:040158001c07000080
:020000040000fa
:04015c001c0700007c
:020000040000fa
:040160001c07000078
:020000040000fa
:040164001c07000074
:020000040000fa
:040168001c07000070
:020000040000fa
:04016c001c0700006c
:020000040000fa
:040170001c07000068
:020000040000fa
:040174001c07000064
:020000040000fa
:040178001c07000060
:020000040000fa
:04017c001c0700005c
:020000040000fa
:040180001c07000058
:020000040000fa
:040184001c07000054
:020000040000fa
:040188001c07000050
:020000040000fa
:04018c001c0700004c
:020000040000fa
:040190001c07000048
:020000040000fa
:040194001c07000044
:020000040000fa
:040198001c07000040
:020000040000fa
:04019c001c0700003c
:020000040000fa
:0401a0001c07000038
:020000040000fa
:0401a4001c07000034
:020000040000fa
:0401a8001c07000030
:020000040000fa
:0401ac001c0700002c
:020000040000fa
:0401b0001c07000028
:020000040000fa
:0401b4001c07000024
:020000040000fa
:0401b8001c07000020
:020000040000fa
:0401bc001c0700001c
:020000040000fa
:0401c0001c07000018
:020000040000fa
:0401c4001c07000014
:020000040000fa
:0401c8001c07000010
:020000040000fa
:0401cc001c0700000c
:020000040000fa
:0401d0001c07000008
:020000040000fa
:0401d4001c07000004
:020000040000fa
:0401d8001c07000000
:020000040000fa
:0401dc001c070000fc
:020000040000fa
:0401e0001c070000f8
:020000040000fa
:0401e4001c070000f4
:020000040000fa
:0401e8001c070000f0
:020000040000fa
:0401ec001c070000ec
:020000040000fa
:0401f0001c070000e8
:020000040000fa
:0401f4001c070000e4
:020000040000fa
:0401f8001c070000e0
:020000040000fa
:0401fc001c070000dc
:020000040000fa
:10020000af6721000e7f24000e018800000000006f
:10021000000020000000e000020032000001200089
:100220002002880014000700260307000000e000f9
:1002300003003a00a03c2200010020000200370029
:100240000000200001002000810f7000010032003a
:1002500014000700000020000000e000020032004f
:100260000000020000000000ba24020000000000ac
:100270000040da000000fe004440a90060002000b9
:100280000000e00003003200002020009001880000
:100290004440a800000006008a1f78008b1f7800e9
:1002a00000000600a1028800800478000000eb0036
:1002b0001f003700e284440054a0b4009905ba003e
:1002c000e284440054a0b4009906ba00e2844400d9
:1002d00054a0b4000006eb00476fde00fd07b2003b
:1002e000ae018800636ce10003003a00eaff0700fa
:1002f0000000eb000e003700606ce10008003a00df
:10030000004deb000a05e800020039003420ec0043
:100310000af0a0008b05e900f9ff3e000400370059
:100320006168e100010032000086eb000b0007006d
:1003300019c7ba001905ba000e04e00003003a001c
:100340000a00e000dbff3a0000000600fe07b200f2
:10035000ae0288008a047800f5ff37000cd0a300b5
:10036000e20f4d001c00390089027800354dba00bb
:100370000a05e800020039003420ec000af0a00071
:100380008b05e9000f003200254dba000a05e80090
:10039000020039003420ec000af0a0008b05e900cf
:1003a000080032000c00e0000600320015cdba0053
:1003b0000a05e800020039003420ec000af0a00031
:1003c0008b05e9008984e80054a0b4000b00e0002c
:1003d000e2ff3a00000006009902ba00055d7800cd
:1003e0008b05e900f7ff3200c82ade00055d7800c2
:1003f0008b05e900f3ff32000c00e000f1ff320052
:1004000019ddba00eeff37009a2104000000000059
:10041000fe150400000000001c160400000000008f
:1004200010190400000000002e1904000000000054
:10043000de0b040000000000f80c040000000000c7
:10044000920d040000000000160e040000000000e1
:10045000c612040000000000ce12040000000000dc
:10046000d612040000000000e012040000000000aa
:100470001613040000000000361404000000000001
:1004800042140400000000003600f800809fbe0007
:10049000829fbe00849fbe00869fbe000000fa00bf
:1004a0008020a9000000eb001b1107000080fa006b
:1004b0004f03be004f02be004f01be004f00be0002
:1004c0003600f900004006003600f800809fbe00ac
:1004d000829fbe00849fbe00869fbe000000fa007f
:1004e000121107008040a900100020000a11070027
:1004f0000080fa004f03be004f02be004f01be0055
:100500004f00be003600f900004006003600f8003b
:10051000809fbe00829fbe00849fbe00869fbe005b
:100520000000fa008060a90020002000fa100700f7
:100530000080fa004f03be004f02be004f01be0014
:100540004f00be003600f900004006003600f800fb
:10055000809fbe00829fbe00849fbe00869fbe001b
:100560000000fa008080a90030002000ea10070097
:100570000080fa004f03be004f02be004f01be00d4
:100580004f00be003600f900004006003600f800bb
:10059000809fbe00829fbe00849fbe00869fbe00db
:1005a0000000fa008600a90070002000da100700a1
:1005b0000080fa004f03be004f02be004f01be0094
:1005c0004f00be003600f900004006003600f8007b
:1005d000809fbe00829fbe00849fbe00869fbe009b
:1005e0000000fa00004380000000e000020032003a
:1005f000004380000000010090542100104078006a
:100600008040e80090542100014878008054210087
:1006100011c0b300014878008900a9000080fa00e9
:100620004f03be004f02be004f01be004f00be0090
:100630003600f900004006003600f800809fbe003a
:10064000829fbe00849fbe00869fbe000000fa000d
:100650006042800000000100414280003042800082
:10066000808f500002003a009be0a900190037007b
:100670008be0a900100037004042800090407800d5
:100680008180fb00911d88000000e8004042880046
:100690004142800070512100808f500002003a00da
:1006a000e0502100404288004142800030428000fa
:1006b000808f500006003200811d80000020200045
:1006c000008060000000e000ebff32000100370016
:1006d000000000000080fa004f03be004f02be0081
:1006e0004f01be004f00be003600f900004006007a
:1006f0003600f800809fbe00829fbe00849fbe002f
:10070000869fbe000000fa007042800000000100d9
:100710008bc0a9001e00370010428000a11d800080
:10072000814078000148780011428000f05121009a
:10073000808f500009003200104280008000e800e5
:1007400020428000808f5000040032001042800060
:100750000000e800104288000d00370011428000c0
:10076000f0512100808f500007003a0021428000a4
:1007700070512100808f5000030032007051210021
:10078000104288000200370010c0b3004ae8b700ea
:10079000801d8000610060000000e000deff3a0084
:1007a0000080fa004f03be004f02be004f01be00a2
:1007b0004f00be003600f90000400600801f7800a0
:1007c0000000fa00801d8000620060000000e00070
:1007d00001003200b023a9009040a9000080fa0077
:1007e0004f007800004006003600f800809fbe00f1
:1007f000829fbe00849fbe00869fbe000000fa005c
:10080000d042800000000100b1428000a042800080
:10081000808f500002003a009980a900190037002b
:100820008980a90010003700b04280009040780015
:100830008180fb00e11c88000000e800b0428800d5
:10084000b142800090522100808f500002003a0097
:1008500000522100b0428800b1428000a0428000d6
:10086000808f500006003200d11c80000020200044
:10087000008060000000e000ebff32000100370064
:10088000000000000080fa004f03be004f02be00cf
:100890004f01be004f00be003600f90000400600c8
:1008a0003600f800809fbe00829fbe00849fbe007d
:1008b000869fbe000000fa00e042800000000100b8
:1008c0008960a9001e00370080428000f11c800072
:1008d0008140780001487800814280001053210057
:1008e000808f500009003200804280008000e800c4
:1008f00090428000808f50000400320080428000cf
:100900000000e800804288000d003700814280002e
:1009100010532100808f500007003a009142800060
:1009200090522100808f500003003200905221002d
:10093000804288000200370010c0b30058e8b700ba
:10094000d01c8000610060000000e000deff3a0083
:100950000080fa004f03be004f02be004f01be00f0
:100960004f00be003600f90000400600801f7800ee
:100970000000fa00d01c8000620060000000e0006f
:10098000010032009a23a9009020a9000080fa00fb
:100990004f007800004006003600f800809fbe003f
:1009a000829fbe00849fbe00869fbe000000fa00aa
:1009b0008a20a900f1248000000820000080600047
:1009c0000000e000080032009ee4a9003228ef0099
:1009d000c0418000200090008000eb0001087800fa
:1009e0003828ef000d013700904180008000eb00b7
:1009f000b200200003002000820f5000838f5800b7
:100a0000fc003e00006001000b0037003900370099
:100a1000750037009c003700f3003700c80037002e
:100a2000d9003700f0003700db003700f100370055
:100a30003400370050003700a082200020009000d2
:100a4000620060000000e000f3003a00a082200095
:100a500010009000c0418800a0822000100090008b
:100a60001040780034e8b700a08220001000900009
:100a700010009000b0418800a0822000100090007b
:100a8000e6004000a082200011009800a082200013
:100a90009000900080532100808f500003003a00a6
:100aa000a08220002153210011009800a082200084
:100ab000a00090000100a10021009800a082200069
:100ac00090009000a082200010007800808f5000dd
:100ad00004003a00a0822000a00090000110a000b5
:100ae000210098009a04a80020002000904188006e
:100af000ca0037009a24a8002000200090418800f6
:100b0000c6003700f124800000002800008060004b
:100b10000000e00008003200a08220006040900049
:100b20008040e800a0822000614098004000200042
:100b3000500b0700b9003700d04180008000d10081
:100b4000f00f200000806000b0248800d0418000b9
:100b500061006000004078000004e0000300320003
:100b6000b000200090418800ac0037003000200029
:100b700090418800a9003700f1248000000028007f
:100b8000008060000000e00008003200a082200029
:100b9000604090008040e800a08220006140980002
:100ba00040002000330b07009c0037009a24a80067
:100bb000d04180004800de00e6006000000f200009
:100bc00001007000d0418800d04180000000a000ea
:100bd000d041880010c0b3003ce8b70020002000de
:100be000904188008d0037003cc8bf00e14f5000a5
:100bf0000a003200b041800010007800d041880027
:100c0000b041800020009000f0418800b041800099
:100c10002040900040e8b700010037003c68ef003a
:100c2000d1418000f00f2000808f50000900360075
:100c3000d04180004800de00e6006000000f200088
:100c400001007000b0248800a000200090418800be
:100c500072003700d0418000b0248800d04180006d
:100c600061006000004078000004e00003003200f2
:100c700050002000904188006800370030002000bc
:100c80009041880065003700f124800000002800b2
:100c9000008060000000e00009003200a082200017
:100ca000604090008040e800a082200061409800f1
:100cb0009fe4a90050002000ee0a0700570037000b
:100cc00040c8bf008080fb008100e900cf08de0043
:100cd000814078000040e90040e8b7000104e000ee
:100ce00010003200b041800066004000b041880032
:100cf00034c8bf000040e90034e8b70034c8bf0082
:100d00000004e00003003a0020002000d90a070098
:100d1000420037009a24a80020002000904188005b
:100d20003e003700f0418000904078008180fb0059
:100d3000b12488000000e800f04188003700370047
:100d4000f124800000002800008060000000e00026
:100d500009003200a0822000604090008040e8003e
:100d6000a08220006140980040002000c10a0700d6
:100d70009fe4a900290037009a64a80080002000a1
:100d800090418800250037008000200090418800b5
:100d90009a64a80021003700f0418000a12480005f
:100da00081407800014878000000e800f0418800a8
:100db00040c8bf000040e90040e8b70040c8bf009d
:100dc0000004e000040032009aa4a90060002000a2
:100dd00090418800020037009aa4a800940a0700f6
:100de0009a84a8000d00370020002000a10a070007
:100df0000a003700a0822000604090008040e80098
:100e0000a08220006140980060002000990a07003d
:100e10000000000001003700000000000080fa0020
:100e20004f03be004f02be004f01be004f00be0088
:100e30003600f900004006000040da000000fe0025
:100e4000889fbe008004780060aa80000000e00057
:100e500004003a000e0007000084eb000000e000f0
:100e60000800350068aa80000900e0000500320093
:100e700009004400060007000000e00001003d00fa
:100e80000084eb00080078004f04be00000006005c
:100e9000800078000100e00003003a00e0542100e7
:100ea00060aa8800000005000080eb00a267210016
:100eb000828f500002003e0061aa88000000eb0013
:100ec000000006000000050003f0a200889fbe009d
:100ed0008a9fbe008c1f7800f4000700fb003300df
:100ee0006450e1004f0032006420e1005200320003
:100ef00003826c0007003b000905d0000306d00008
:100f0000820f54000c065d0002003900020032001e
:100f100089017800030678008582550004003d00b1
:100f20000003fd008103fd008502ea008b8542007d
:100f3000840f720002003b0060001000e080180087
:100f40006011b8000005eb007a28e1000a003900c2
:100f500006007800c75ddd00f707b20087807500e6
:100f60002d003700828171000a0178006105600060
:100f70008180d1000080d3008502e900f9ff3b00a9
:100f8000060440008784480002003b00600414000f
:100f9000e0841c000988a300070032008a817100e8
:100fa00082817100610164008904d1000884d3004a
:100fb0008b05e800170037000978a30013003a00fa
:100fc0000b00e000130034008b05e9000804440026
:100fd00089844c000a4474000978a3000d003a008b
:100fe0000b00e000070034008b05e9000804440012
:100ff00089844c0001003a000b0020000978a3000e
:10100000f7ff32000001eb0002003700828171001f
:101010000a0178006a0007000cf0a70001f0a000a8
:10102000b30037006420e10002003a00838f6c00b7
:10103000b30033000801be000200be00ac00370060
:10104000889fbe008a9fbe008c1f78009700070013
:101050009e00330003866c006450e1002e003200d5
:101060006420e100330032006150e1002f003200c3
:101070006120e1003100320085855500eb07b000aa
:10108000090020000804200005003700080444007f
:1010900089844c000a0031000603430087834b001b
:1010a0000001530081815b00f8ff33000203be00a2
:1010b0000800a0000804440089844c00f6ff3900b1
:1010c000c639dd00830173000100320013002000e7
:1010d0008904d1000884d3000998a30005003200d8
:1010e0000800a7000300a0008904d1000884d300f1
:1010f0008b05e8008904d1000884d3000001eb00cf
:101100000281d2002e00070001f0a1000cf0a70020
:1011100001f0a000760037006420e1007800320082
:101120000801be000200be00f7ff37006120e100a9
:10113000730032006000b800f3ff370000002000a9
:1011400001f82700f0ff37000001be004200070051
:101150000470a70003f0a10003f8a30013003a00f5
:101160006509b10010003200090035006928e1006e
:1011700002003500010028000000050000004000ca
:10118000818048008502e900fcff3a00000006006b
:10119000f88f4200050035008100d1000080d300a7
:1011a0008502e800fcff3a00000006008000eb002a
:1011b000000005004f89de008201780087003700bb
:1011c00081002000618055000b003d000b002000d5
:1011d00061fe2f000100e1001d00340082817100da
:1011e000610164008904d1000884d3000000e80094
:1011f000faff3a00710020006100640003007000f3
:10120000020060000900320061044400e0844c00e8
:101210000988a500050032008b05e8006808e10098
:1012200002003a008904d1000884d300f20f2000a4
:101230000258e10005003d00c75ddd00f907b2007e
:101240008980750008007800000006000bf8270070
:101250008b00780000000500c70ade00f107b2002d
:10126000f50fb20008003200e1cf42000200320068
:101270000170a00024000500810f70000100320001
:101280000408050044000500810f700002003a00c8
:10129000140005008502e9000000400081c04800fc
:1012a000fcff3b000170a000240005000004be000c
:1012b000e9ff07000003be000405be000200be00f7
:1012c000e5ff0700844f7500000006000200be0025
:1012d0006450e100050036006420e10002003600a1
:1012e0000968a30001003a000800be000160a000e8
:1012f0004f0678004f05be004f04be0000000600f8
:10130000f0ff2f00f1ff2700f9ff3700889fbe0094
:101310008a9fbe008c1f7800e4ff0700ebff3300bc
:1013200003866c006450e100240032006420e10078
:10133000270032006150e100220032006120e1000c
:10134000210032008b854200eb07b1000134b80068
:10135000003ab8000804420089844a00013ab80003
:101360000030b8008880400009014a0004003300c2
:101370000000400081804800020149008b05e9001f
:10138000c909dd0083017000010032001300200054
:10139000c814de004814dd004709de001200b20068
:1013a000c808de000884700085ff070001f0a10076
:1013b0000cf0a70001f0a000cdff37006120e10094
:1013c000cfff32000801be000200be00f7ff370069
:1013d0006150e100fcff3a00c9ff3700881f780028
:1013e000030478000300e00007003d0060001000e7
:1013f000e080180060011900e081190002003b0044
:1014000001f02d00030037000400070008f0a700da
:1014100001f0a0004f04780000000600889fbe0085
:101420008a9fbe0000827000040271000482710075
:10143000260032000004be000200be006011b800a9
:101440006b092000950220000182cf000a003900bc
:101450000541b1000082cf00070039000541b1000d
:101460000982cf00040039000541b1000882cf0095
:10147000010039000541b10005425200120032005e
:101480000a003b0082817100610164008100d1008b
:101490000080d3008984d3000884d3008b05e80042
:1014a0000442e800f7ff3a00070037000804440050
:1014b00089844c0000004800818048008b05e900c9
:1014c0000442e900f9ff3a003dff07004f05be0066
:1014d0004f04be0000000600889fbe000004780094
:1014e00021aa80000100e000020032000100780023
:1014f0000d00370031aa800060542100040037003d
:10150000910f5400250036000180e8009100900002
:101510000100e000faff3a0010003700920f54007b
:101520001e0036000280e800100178000200e00092
:10153000faff3a001101780031aa800060542100be
:1015400004003700910f5400140036000180e800b9
:1015500091009000828f5000faff3a0059aa800053
:10156000888f540001003100880478000900780059
:101570003d0007000000e00004003a00888f54009e
:10158000050032008904d100f5ff37000918780002
:101590003f000700d2ff37000000eb004f04be0001
:1015a00000000600881f7800630440000800a100c6
:1015b0008000eb00800f540021003600e30f540040
:1015c00001003e004800200008007800c2ff07002c
:1015d0008000eb000000e00019003200900078006d
:1015e0009101780064815100880f5100030031009f
:1015f00011019000020878000700370008814000c0
:101600000208780091019000130198001001780001
:101610001109140088087800100178000000eb0020
:101620000200e00004003200920190000300e0009c
:10163000010032000280e80020aa88008180e800d2
:10164000010078004f047800000006008001780057
:1016500002003700b15978000201e9000200e00001
:10166000fcff3a0000000600800078000000eb005c
:101670000100e0000500340001007800f0fd0700e3
:10168000e10f400001003a000000eb0000000600fe
:101690000000e0002f003200c0017800e38f51000d
:1016a0002c0036000308a3002a003a0031aa80006b
:1016b0000100e00002003200810f50000400310000
:1016c0001100980030aa88001600370082007800c8
:1016d000110190000200e00002003200800f510072
:1016e000faff39001102780084824000850f500013
:1016f00018003900808f520003003a00830842002e
:1017000001007800070037000200e000030032000b
:1017100083014000830f51000e0039001200980031
:1017200090009800900090000100e0000900320055
:1017300010014000828f500006003a004254210000
:101740000009eb00100178001108410091009000a1
:081750001100980000000600e2
:020000040000fa
:0c1758000000000020030000b0040000ae
:020000040000fa
:101764000000fa0010c0b3001ae8b7002428ef0004
:10177400c081200021002000210098000080fa0090
:10178400000006000000fa001a68ef000000eb00f9
:10179400d0a2880010002000204188002628ef00f5
:1017a400c081200011002000210098006686a80056
:1017b4000080fa00000006000000fa0030338000c8
:1017c40000407800614060000004a20061406000b5
:1017d4000080fb0061006000313380000100a10043
:1017e40001007000303388000080fa000000060019
:1017f4000000fa00e04521008040eb000148780039
:1018040041a38000b0a28000f20f20008eff0700e9
:1018140051a38000c0a28000f20f20008aff0700bd
:101824008200200011472100f045210086ff0700b7
:101834000000eb00d0a2880090472100904078007f
:10184400704621000148780070a38000e0a288005f
:10185400e045210011c0b300014878000080fa007f
:10186400000006000000fa00d1a38000b0a28000ae
:10187400f20f200074ff0700e1a38000c0a28000e3
:10188400f20f200070ff0700820020003148210081
:10189400f04521006cff07000000eb00d0a2880097
:1018a400704621008040eb000148780000a48000cd
:1018b400e0a28800e045210011c0b300014878008f
:1018c4000080fa00000006000000fa008140800059
:1018d400904080000000d1000074a1000080fb0053
:1018e4004200dd00008040001000780061006000cc
:1018f4000000e000020032000040eb003900370035
:1019040081408000904080000000d1000074a1005c
:101914000080fb004200dd000080400010007800e1
:10192400620060000000e000020032000040eb00b2
:101934002c00370081408000904080000000d100de
:101944000074a1000080fb004200dd000080400024
:1019540010007800640060000000e0000200320023
:101964000040eb001f003700814080009040800061
:101974000000d1000074a1000080fb004200dd00e3
:1019840000804000100078004400de0080007800f1
:10199400705d8400808f5000020036000040eb0030
:1019a4001000370081408000904080000000d1008a
:1019b4000074a1000080fb004200dd0000804000b4
:1019c400100090004200de0080007800805d8400fa
:1019d400808f5000020036000040eb000100370009
:1019e40010c0b3000080fa00000006000400fa00f2
:1019f400000f2f00010f2f00d8090700008fbe0031
:101a040081408000904080000000d1000074a1005b
:101a14000080fb004200dd00008040003e1878009a
:101a24002e107800904080000000d1000074a100c6
:101a34000040e8000074a1008080fb00f007200053
:101a440000806000000040009240800011f02f00f0
:101a54008100610001007000904088009040800087
:101a64000000d1000074a1000080fb00ea0f5000c8
:101a7400050034009140800010f02f0000806000c9
:101a8400904088001208a8000080fa0000000600b8
:101a94000400fa00904080000000d1000074a1000e
:101aa400004f78001e4078000004e00003003a0074
:101ab400a0c0b300004f7800010037001e4fe900ba
:101ac4000000eb0010079800814080001e80fb009e
:101ad4004200dd0000804000100090004200de0063
:101ae4009e00900001007000100798008140800063
:101af4001e80fb004200dd000080400010009000ca
:101b04004200de004880de009e009000010070006c
:101b1400100798001e0090000080fa0000000600e4
:101b24000200fa00cf050700004f7800b0408000a3
:101b3400e10f50002a003200e10f50000500390087
:101b4400e20f50002c003200e30f50002e00320050
:101b5400330037001e80fb00e10f50001b003200f1
:101b6400e20f50001b0032000000e0002b003a009e
:101b7400bc050700004f78001e80fb006100600078
:101b8400004078000004e000040032004eff07002b
:101b94000004e00001003200f1fe07001e80fb009b
:101ba400620060000000e00001003200f5fe070062
:101bb4001e80fb00640060000000e00001003200b1
:101bc4000bff070000000000150037001000200084
:101bd400b040880030002000b0408800100037007a
:101be4001e80fb004800dd0070a488002000200057
:101bf400b04088000a0037001e80fb0070a48800f3
:101c04001628ef0006003700614080000040800085
:101c1400250a07001628ef00010037000000000025
:101c24000080fa00000006000200fa000040eb0009
:101c3400104798000040eb00004f7800a04080005f
:101c4400e20f50002c013200e20f500005003e006c
:101c54000000e0000a003200e10f50000d013200e4
:101c640030013700e40f500015013200e40f50003a
:101c740026013900e50f5000180132002901370010
:101c8400ef030700104798001e4090000080fb00ff
:101c9400e30f500048003200e30f500005003c0001
:101ca400e10f50002f003200e20f50003e003200de
:101cb4001c013700e40f500043003200ea0f5000cb
:101cc40017013a00de030700104798001e409000f9
:101cd4000080fb00e30f500015003200e30f5000ba
:101ce40005003c00e10f50000a003200e20f5000f2
:101cf4000d0032001a003700e50f500012003200c8
:101d0400e50f50000e003500e60f500010003200c1
:101d140013003700ecfe07000004e000010032006d
:101d24008ffe07000e00370096fe07000c003700f8
:101d3400c0812000410020002100980008003700e5
:101d4400abfe070006003700c6fe0700040037009c
:101d5400c081200031002000210098000000000014
:101d64001c0037000000eb0060a488001000200075
:101d7400a0408800c081200011c0b30071409800c9
:101d8400c08120008000eb0011009800c081200079
:101d94008000eb0001087800004721008040eb0040
:101da400014878000b0037001000200060a4880070
:101db40020002000a04088002000200060a48800ab
:101dc40030002000a040880040002000a04088008f
:101dd400d4003700d3003700990307001047980058
:101de400c081200010007800e20f50002a00320069
:101df400e20f500005003e000000e0000800320041
:101e0400e10f50001d0032009d003700e30f500029
:101e14003b003200e40f50006a00320098003700a3
:101e2400c0812000100190009e40900000472100d6
:101e340000004100114098001e4fe800c0812000be
:101e4400100090008000e800c0812000110098007c
:101e5400c081200010009000e80f50008f003a006d
:101e6400c08120008000eb0011009800c081200098
:101e740011002000010878008d00370090472100f0
:101e84009e40900001487800c0812000210020007d
:101e94000108780086003700c081200010009000ff
:101ea4000000e00009003a001e4090000080fb00a2
:101eb40070a38800c0812000100090008000e8001a
:101ec400c0812000110098007900370071a38000c0
:101ed4001e4090000080fb004800dd0000804000b0
:101ee40070a38800c08120008000eb0011009800de
:101ef400c081200031002000010878006c00370008
:101f0400c081200010009000610060000000e0002b
:101f14000a003a0041a38000c08120001000900014
:101f24000000d10000004000008040009e4090006e
:101f34008180fb00010878000f00370042a3800075
:101f4400c0812000100090000000d10080004000fb
:101f54008100410042a380000000400000004100d5
:101f6400100178001e4090000080fb004800dd0056
:101f74000000410080087800c0812000100090001b
:101f84008000e800c081200011009800c08120007a
:101f94009000900070a380000000e8000000400062
:101fa400808f50003f003a00c08120008000eb0089
:101fb40011009800c0812000410020000108780031
:101fc4003b003700c08120001000900061006000d9
:101fd4000000e0000a003a0051a38000c081200004
:101fe400100090000000d10000004000008040007c
:101ff4009e4090008180fb00010878000f003700ac
:1020040052a38000c0812000100090000000d10085
:10201400800040008100410052a380000000400085
:1020240000004100100178001e4090000080fb0079
:102034004800dd000000410080087800c0812000d5
:10204400100090008000e800c0812000110098007a
:10205400c08120009000900070a380000000e80080
:1020640000004000808f500010003a00004721001b
:1020740011c0b300014878001428ef000c003700a9
:10208400c08120008040eb00714098001428ef00cc
:1020940007003700000000000500370000000000c2
:1020a40003003700000000000100370000000000ba
:1020b400a0408000e10f500047ff320019003700b4
:1020c4001e4090000080fb004800dd0070a48800e2
:1020d40050002000a04088001200370071a4800046
:1020e4001e4090000080fb000100700070a4880076
:1020f4001428ef000b00370071408000004080007e
:10210400e90807001428ef0006003700614080004a
:1021140000408000e40807001428ef0001003700a5
:10212400000000000080fa00000006001200fa001f
:10213400904080000000d1000074a100004f78009e
:102144001e4078000004e00003003a00a0c0b30081
:10215400004f7800010037001e4fe90081408000e5
:102164001e80fb004200dd00008040001000900053
:102174004200de0040479800814080001e80fb0042
:102184004200dd0000804000100090004200de00ac
:102194004880de0050479800814080001e80fb008c
:1021a4004200dd0000804000100078004400de00a2
:1021b40060479800814080001e80fb004200dd00e3
:1021c40000804000100078004400de004880de00fb
:1021d4007047980031418000410798004e009000fc
:1021e400204f98004e0090004800de00304f9800c9
:1021f400c1408000610798006e009000604f980015
:102204006e0090004800de00704f9800c0812000ee
:1022140020009000e20f500019003200e20f50003d
:1022240005003e000000e000d4003200e10f500041
:1022340006003200d2003700e40f500021003200c3
:10224400e40f5000b1003900cd00370000c0eb00ae
:102254009102070000c0eb008f0207004e4090007f
:102264008d0207005e4090008b0207006e409000d4
:10227400890207007e40900087020700c0003700f3
:1022840000c0eb0084020700e0cfb3008202070025
:102294004e409000800207005e4090007e020700de
:1022a4006e4090007c0207007e4090007a02070096
:1022b4002e489000780207003e48900076020700fe
:1022c400af003700e0a280000000e800000f980093
:1022d40000000000811d80000020200000806000bc
:1022e4000000e000fbff3a0000c0eb006a020700b8
:1022f40000000000811d800000202000008060009c
:102304000000e000fbff3a00d0cfb30062020700f8
:102314000000eb00100798000f00370000000000d9
:10232400811d800000202000008060000000e0008b
:10233400fbff3a001e009000e800400060452100c9
:102344000080400010409000530207001e009000df
:102354000000e800100798001e009000e70f5000ee
:10236400eeff360000000000811d800000202000e8
:10237400008060000000e000fbff3a00704621008e
:10238400104078004402070000000000811d800016
:1023940000202000008060000000e000fbff3a0005
:1023a400e0a28000004078003b020700000000002b
:1023b400811d800000202000008060000000e000fb
:1023c400fbff3a00e0a280004800de0000407800f5
:1023d400310207000000eb00100798001e003700d0
:1023e40000000000811d80000020200000806000ab
:1023f4000000e000fbff3a00b1a280001e00900044
:102404000000400000804000100078000040780088
:102414002102070000000000811d80000020200030
:10242400008060000000e000fbff3a00b1a28000e1
:102434001e00900000004000008040001000780062
:102444004800de0000407800130207001e009000e0
:102454000000e800100798009e0090000e0890000d
:10246400808f5000deff39000000eb001007980059
:102474001e00370000000000811d800000202000a5
:10248400008060000000e000fbff3a00c1a2800071
:102494001e00900000004000008040001000780002
:1024a40000407800fc01070000000000811d80004e
:1024b40000202000008060000000e000fbff3a00e4
:1024c400c1a280001e009000000040000080400077
:1024d400100078004800de0000407800ee0107009c
:1024e4001e0090000000e800100798009e00900075
:1024f4000e089000808f5000deff3900c08120005c
:1025040011002000210098001d00370000c0eb00de
:10251400e1010700c0cfb300df0107004e40900087
:10252400dd0107005e409000db0107006e40900073
:10253400d90107007e409000d70107002e48900083
:10254400d50107003e489000d301070000000000b9
:10255400811d800000202000008060000000e00059
:10256400fbff3a006e489000cb0107007e489000c4
:10257400c90107000000000001003700000000004e
:102584000080fa00000006000000fa00e7fe0700e1
:102594000080fa00000006000000fa00e3fe0700d5
:1025a4000080fa00000006000000fa00300020005d
:1025b40060a488000080fa00000006000600fa000b
:1025c40060a380000000e00013003a0000c2b300e2
:1025d400104798001e4090000080fb00f10f20007f
:1025e40000017800110009008200d80020479800fb
:1025f4000040eb00004f78000300370061a3800027
:10260400210798001e4fe8002e4090009e4078005d
:1026140080cf5000f9ff39003000200060a488000a
:102624000080fa00000006001e00fa00889fbe0029
:102634001ac8bf000004e0006f003200a2fc0700cb
:102644000004e0006b003200304180001007980065
:102654000000e80030418800d1a28000010f78001a
:10266400e1a28000210798009e00e8002e0090005f
:10267400808f50000900360042fc07006b003700d1
:102684001e0fe8009e00e8002e009000808f50008e
:10269400030036003bfc0700640037000000000024
:1026a400c1a280001e00e80000004000008040003d
:1026b400900078001e009000808f5000f0ff3900d9
:1026c4009e007800d1a28800b1a280001e0078008c
:1026d400000040000080400010007800300798009f
:1026e400b1a280001e00e80000004000008040000d
:1026f4001000780040079800c1a280001e007800f6
:10270400000040000080400010007800500798004e
:10271400c1a280001e00e8000000400000804000cc
:102724001000780060079800ee0090005e009000b2
:102734000080500070079800ce0090003e0090008a
:1027440000805000000f98005e0090009e009000f2
:1027540000805000100f98001e089000cf80de000b
:1027640093fa07000004be007e009000cf80de00d4
:102774008ffa07000001be000800be002ffa070010
:10278400200f9800310f98000e089000cf80de00d3
:1027940087fa07002e099000be099000dafa0700b4
:1027a400400f9800510f98003e009000cf80de004b
:1027b4007ffa07004e099000de099000c2f9070075
:1027c40060fa070000007800c0408800b0fc0700f1
:1027d400600f9800c14080006e089000808f500008
:1027e400020036006686a900030037006686a8004a
:1027f40001003700e3fb070028c8bf000004e00025
:1028040006003a004140800000408000260707008f
:1028140010c0b30028e8b70004003700114080005e
:1028240000408000200707002868ef004f04be0026
:102834000080fa00000006000000fa004140800019
:1028440000408000180707000080fa00000006001e
:102854000000fa0051408000004080001207070089
:102864000080fa00000006000000fa002140800009
:10287400004080000c0707000080fa0000000600fa
:102884000000fa0031408000004080000607070085
:102894000080fa00000006000000fa00b9fb0700ff
:1028a400e0bd2000ef0607000040880080cf200034
:1028b400ec0607001040880020d92000e906070034
:1028c4002040880060e12000e606070030408800d0
:1028d400602c2100e306070040408800e02c210022
:1028e400e006070050408800602d2100dd06070047
:1028f40060408800002e2100da060700704088003e
:1029040000408000cd060700603121008b060700df
:10291400604321004402070020442100b90007005d
:102924008e060700950307000b020700614521008e
:102934000249210008000900b218780081462100ec
:10294400224a210008000900b2187800a14721009a
:10295400424b210008000900b218780020862000ac
:10296400b0a28800c0e52000c0a288000000eb00ef
:10297400d0a2880000a6200040a38800a005210062
:1029840050a388000000eb0060a38800e0c520008d
:10299400d0a3880080252100e0a388000000eb007c
:1029a400f0a388001000200060a48800604c21007f
:1029b400804088001208a9009140800010f02f0088
:1029c4000080600090408800c08120008040eb00bf
:1029d40071409800c08120008040eb006140980065
:1029e400c08120004100200021009800e0a3800065
:1029f4008000eb0001087800e0a380000080e8007c
:102a0400e12e200001087800e0a38000640040006b
:102a1400e160200001087800e0a380006600400027
:102a24006186200001087800e0a38000680040006f
:102a3400e192200001087800e0a380006a004000d1
:102a4400619f200001087800e0a380006c00400032
:102a540041e7200001087800d0a38000410620004f
:102a640001087800d0a380000080e80081252000c0
:102a740001087800d0a3800064004000012d2000ec
:102a840001087800d0a3800066004000013c2000cb
:102a940001087800d0a3800068004000813e200037
:102aa40001087800d0a380006a004000013c2000a7
:102ab40001087800d0a380006c004000410620008b
:102ac400010878002048210011c0b30001487800b3
:102ad4006000200000a488000000eb00f0a3880040
:102ae400b04821008040eb000148780030482100c4
:102af40041c4b300014878004048210051c6b300e6
:102b0400014878005048210061c6b30001487800ac
:102b14006048210011c6b3000148780070482100c4
:102b240051c7b3000148780080482100c1c6b300f2
:102b3400014878009048210041c7b300014878005b
:102b4400a04821008040eb000148780045fb0700c5
:102b5400004080000080fa00000006000000fa0037
:102b64009be0a9009bc0a90080002000701d880084
:102b7400b023ef0030032000b01d8800b823ef001d
:102b8400e050210040428800e0502100304288009b
:102b940070512100204288007051210010428800a9
:102ba4004a68ef00e05f210007000700c0612100d0
:102bb400140007009bc0a800afe3a800b143a8001d
:102bc4000080fa00000006000200fa00000f7800fe
:102bd4001e0078000000e00003003a00e05f2100de
:102be40060428800020037009e007800614288003d
:102bf4000080fa00000006000000fa000080fa00dd
:102c0400000006000200fa00000f78001e007800a1
:102c14000000e00003003a00c06121007042880017
:102c2400020037009e007800714288000080fa009c
:102c3400000006000000fa000080fa000000060010
:102c44000200fa000040eb00004f78000000000092
:102c54002142800010428000808f5000fcff32002f
:102c640020428000104f7800204280000000e800dd
:102c7400204288002142800000522100808f5000b1
:102c840002003a0070512100204288001e40780062
:102c94000080fa00000006000200fa00004f7800ed
:102ca400000000001c0007000004a2000004e00073
:102cb400fcff3a00304280001e4878003042800019
:102cc4000000e80030428800314280007051210049
:102cd400808f500002003a00e0502100304288000a
:102ce4009be0a8000080fa00000006000000fa0043
:102cf40021428000104280000080680000f0a7009c
:102d04000000ea000000ea004f00de000040780006
:102d14000080fa00000006000400fa00414280002e
:102d240011079800314280001e009000808f5000ef
:102d3400060031009e009000304280000080500068
:102d44000000e900000f7800050037009e009000a5
:102d5400304280000080500068004000000f78007e
:102d64001e00780000f0a7000000ea000000ea005e
:102d74004f00de00004078000080fa0000000600ea
:102d84000000fa003142800040428000808f5000f1
:102d940009003a00811d80000010200000806000be
:102da40000f0a7000000ea000000ea004f00de0087
:102db40000407800010037000040eb000080fa007a
:102dc400000006000400fa00114280001107980078
:102dd400204280009e009000808f50000600310049
:102de4009e00900020428000008050006900400056
:102df400000f7800040037009e00900020428000fd
:102e040000805000000f7800f00f20009e00780032
:102e1400808f50000200360000c0eb000200370033
:102e24001e007800004078000080fa0000000600d0
:102e34000400fa00414280001107980031428000ea
:102e44001e009000808f5000060031009e0090000c
:102e540030428000008050000000e900000f78003c
:102e6400050037009e009000304280000080500032
:102e740068004000000f7800f00f20009e007800ea
:102e8400808f50000200360000c0eb0002003700c3
:102e94001e007800004078000080fa000000060060
:102ea4000800fa002007980031079800c5ff0700c2
:102eb4000080fb00000f78003e0090009e0f500041
:102ec40002003100be009000010f78000000eb000a
:102ed400100798000900370059ff0700ae00900062
:102ee400804878002e0090000000e8002007980039
:102ef4001e0090000000e800100798001e009000db
:102f04009e0f5000f4ff39001e0078000080fa0084
:102f1400000006000800fa00200798003107980016
:102f2400c3ff07000080fb00000f78003e00900004
:102f34009e0f500002003100be009000010f780087
:102f44000000eb0010079800090037002e009000e5
:102f540010407800ae0090008100e800210798003e
:102f64004dff07001e0090000000e80010079800c5
:102f74001e0090009e0f5000f4ff39001e007800e0
:102f84000080fa00000006000400fa000000eb00d4
:102f9400000f78008bff070020479800a4ff07006c
:102fa400304798002e4090000080fb000000e000b5
:102fb40003003200e90f5000030032000400370020
:102fc4001e20a000040037001e00a00002003700ed
:102fd4001e10a000000000003e4090000080fb0096
:102fe4000000e00003003200e90f5000030032004b
:102ff400040037001e30a000020037001e40a0006d
:10300400000000001e0078000080fa0000000600a6
:103014000400fa0010079800214280001e0090006e
:10302400008f4000020037009e007800698f500036
:10303400005221009e007800808f5000faff3e006d
:103044001e007800104078000080fa00000006009e
:103054000000fa005bff07000080fb000000e900ad
:103064004f00de00004078000080fa0000000600f7
:103074000000fa006eff07000080fb000000e9007a
:103084004f00de00004078000080fa0000000600d7
:103094000000fa00801d80000080fa000000060095
:1030a4000000fa0062ff07000004e0001000320094
:1030b4004142800030428000808f5000060036007c
:1030c4004042800080007800304280000080500040
:1030d4000000e900070037004042800080007800cb
:1030e400304280000080500068004000010037003a
:1030f4000000eb000080fa00000006000000fa0067
:1031040030ff07000004e00010003200214280007c
:1031140010428000808f500006003600204280005c
:103124008000780010428000008050000000e90018
:1031340007003700204280008000780010428000a1
:103144000080500068004000010037000000eb00e0
:103154000080fa00000006000000fa00afe3a800b7
:10316400b143a8000080fa00000006000000fa0045
:10317400afe3a900b143a9000080fa0000000600f3
:103184000000fa009980a9009960a900800020003d
:10319400c01c88009a23ef0030032000001d880023
:1031a400a223ef0000522100b04288000052210007
:1031b400a042880090522100904288009052210041
:1031c400804288005868ef00009121000700070042
:1031d400e0922100140007009960a80099e3a80078
:1031e4009b43a8000080fa00000006000200fa00d9
:1031f400000f78001e0078000000e00003003a0091
:1032040000912100d0428800020037009e0078001f
:10321400d14288000080fa00000006000000fa0095
:103224000080fa00000006000200fa00000f780097
:103234001e0078000000e00003003a00e092210044
:10324400e0428800020037009e007800e1428800d6
:103254000080fa00000006000000fa000080fa0076
:10326400000006000200fa000040eb00004f780066
:10327400000000009142800080428000808f500056
:10328400fcff320090428000104f78009042800092
:103294000000e80090428800914280002053210001
:1032a400808f500002003a00905221009042880022
:1032b4001e4078000080fa00000006000200fa00b8
:1032c400004f7800000000001c0007000004a2006a
:1032d4000004e000fcff3a00a04280001e48780091
:1032e400a04280000000e800a0428800a1428000c3
:1032f40090522100808f500002003a0000522100b9
:10330400a04288009980a8000080fa00000006000e
:103314000000fa0091428000804280000080680032
:1033240000f0a7000000ea000000ea004f00de0001
:10333400004078000080fa00000006000400fa0053
:10334400b142800011079800a14280001e00900045
:10335400808f5000060031009e009000a042800043
:10336400008050000000e900000f780005003700dd
:103374009e009000a0428000008050006800400041
:10338400000f78001e00780000f0a7000000ea009b
:103394000000ea004f00de00004078000080fa00e0
:1033a400000006000000fa00a1428000b042800044
:1033b400808f500009003a00d11c800000102000ca
:1033c4000080600000f0a7000000ea000000ea00ae
:1033d4004f00de0000407800010037000040eb00a1
:1033e4000080fa00000006000400fa008142800018
:1033f40011079800904280009e009000808f50003a
:10340400060031009e009000904280000080500031
:1034140069004000000f7800040037009e0090000f
:103424009042800000805000000f7800f00f2000d0
:103434009e007800808f50000200360000c0eb0030
:10344400020037001e007800004078000080fa0077
:10345400000006000400fa00b14280001107980041
:10346400a14280001e009000808f500006003100b1
:103474009e009000a0428000008050000000e900ff
:10348400000f7800050037009e009000a0428000e5
:103494000080500068004000000f7800f00f20000a
:1034a4009e007800808f50000200360000c0eb00c0
:1034b400020037001e007800004078000080fa0007
:1034c400000006000800fa00200798003107980061
:1034d400c5ff07000080fb00000f78003e0090004d
:1034e4009e0f500002003100be009000010f7800d2
:1034f4000000eb00100798000900370059ff07008f
:10350400ae009000804878002e0090000000e80093
:10351400200798001e0090000000e80010079800a3
:103524001e0090009e0f5000f4ff39001e0078002a
:103534000080fa00000006000800fa002007980046
:1035440031079800c3ff07000080fb00000f7800dc
:103554003e0090009e0f500002003100be0090001b
:10356400010f78000000eb001007980009003700f5
:103574002e00900010407800ae0090008100e8001a
:10358400210798004dff07001e0090000000e8008e
:10359400100798001e0090009e0f5000f4ff3900a1
:1035a4001e0078000080fa00000006000400fa0003
:1035b4000000eb00000f78008bff07002047980005
:1035c400a4ff0700304798002e4090000080fb00c5
:1035d4000000e00003003200e90f50000300320055
:1035e400040037001e20a000040037001e00a000c5
:1035f400020037001e10a000000000003e409000b2
:103604000080fb000000e00003003200e90f5000de
:1036140003003200040037001e30a000020037000f
:103624001e40a000000000001e0078000080fa0088
:10363400000006000400fa00100798009142800080
:103644001e009000008f4000020037009e007800aa
:10365400698f5000205321009e007800808f500015
:10366400faff3e001e007800104078000080fa0047
:10367400000006000000fa005bff07000080fb006a
:103684000000e9004f00de00004078000080fa00ee
:10369400000006000000fa006eff07000080fb0037
:1036a4000000e9004f00de00004078000080fa00ce
:1036b400000006000000fa00d01c80000080fa0020
:1036c400000006000000fa0062ff07000004e000aa
:1036d40010003200b1428000a0428000808f500070
:1036e40006003600b042800080007800a0428000ce
:1036f400008050000000e90007003700b04280005d
:1037040080007800a04280000080500068004000e3
:10371400010037000000eb000080fa000000060002
:103724000000fa0030ff07000004e000100032003f
:103734009142800080428000808f50000600360055
:103744009042800080007800804280000080500019
:103754000000e900070037009042800080007800f4
:103764008042800000805000680040000100370063
:103774000000eb000080fa00000006000000fa00e0
:1037840099e3a8009b43a8000080fa00000006000b
:103794000000fa0099e3a9009b43a9000080fa0005
:1037a400000006000000fa00a0822000215321003e
:1037b40011009800a0822000215321000108780004
:1037c400a0822000a00090000110a0002100980019
:1037d400a0822000a00090000100a1002100980018
:1037e400a08220008040eb0061409800200120006e
:1037f400c024880000002800d02488009e24ef0004
:103804008a20a9009a20a8000080fa00000006007f
:103814000200fa00a0822000e0409000014f7800ee
:103824001e4078000080fa00000006000000fa0044
:10383400b041800066004000b041880034c8bf0039
:103844000040e90034e8b70034c8bf000004e000d9
:1038540003003a0040002000904188000200370035
:1038640010002000904188000080fa00000006004b
:103874000200fa00000f78009a44a800c0418000ba
:10388400200090000000e00003003200c0418000ee
:10389400200090001e0878003228ef000080fa0013
:1038a400000006000800fa00000f78002147980085
:1038b4002207980033079800a0822000200090007f
:1038c400610060000000e0000a003a00ae019000d0
:1038d4002e4190009e007800e053210077000700fd
:1038e4003e019000e153210010c0b3001f00070007
:1038f400030037003e0090008000eb0001087800d0
:103904000080fa00000006000800fa00000f7800aa
:10391400214798002207980033079800a0822000ce
:1039240020009000610060000000e0000a003a00fe
:10393400ae0190002e4190009e007800805321003b
:10394400460007003e0190008153210010c0b300df
:1039540006000700030037003e0090008000eb00e3
:10396400010878000080fa00000006000600fa0052
:10397400004f78001107980022079800a0822000c9
:1039840020009000610060000000e0002e003a007a
:103994002e0090001100200001087800a082200071
:1039a400100078009e00900011009800a082200072
:1039b400100078001e487800a082200010007800d3
:1039c400ae00900021009800a08220001000780032
:1039d400e6004000a082200001087800a0822000b8
:1039e4009000780080532100808f500003003a003b
:1039f400a08220002153210001087800a082200029
:103a0400a00090000110a10021009800a0822000d5
:103a140090009000a082200010007800808f500059
:103a240004003a00a0822000a00090000100a00041
:103a340021009800904180000000e00005003a0059
:103a44008a20a800030037002e0090008000eb00bd
:103a5400010878000080fa00000006000800fa005f
:103a6400000f780011079800424798003307980028
:103a74003e00900000004000800078001e007800a6
:103a8400010878001e00780010007800800078009b
:103a94000100a0001e007800010878001e007800d4
:103aa400ce409000214098001e0078009e009000b7
:103ab400210098000080fa00000006000800fa00c7
:103ac400000f7800110798004247980033079800c8
:103ad4003e00900000004000800078001e00780046
:103ae400010878001e007800ce4090002140980024
:103af4001e0078009e009000210098000080fa00cb
:103b0400000006000000fa00a082200020009000bf
:103b14006200600000f0a7000000ea000000ea0074
:103b24004f00de00004078000080fa00000006002c
:103b34000000fa00a08220002000900061006000d4
:103b440000f0a7000000ea000000ea004f00de00d9
:103b5400004078000080fa00000006001e00fa0011
:103b6400300f9800410f9800520f9800630f98008f
:103b740010002000200798004e0890004800de0046
:103b840000407800205798004e08900000407800cc
:103b940030579800f200470066004700be099000c5
:103ba40022c0b300c5ff07006e0890008040780073
:103bb4006600470066004000be099000014178009d
:103bc400de089000a5ff07000000eb00000f78005e
:103bd4000000eb001007980020003700e4004700c5
:103be40066004700010178008000780020c0b3001f
:103bf4005eff07000c00370000d4200031002000d5
:103c0400360307009e00900020032000808f5000a0
:103c140002003a002e009000160037001e009000ab
:103c24000000e800100798002e009000e10f5000fb
:103c3400f1ff32002e009000e20f50000b00320022
:103c4400400620009e007800808f500002003a0059
:103c54002e009000070037001e0fe8002e00900091
:103c64000000e000ddff3a00010037000000000022
:103c74002e0090000080fa00000006001400fa00f4
:103c84006007980071079800020f9800130f9800be
:103c940010002000500798000000eb00000f78008f
:103ca4003f0037007e0090004800de0000407800ae
:103cb400604798007e0090000040780070479800ac
:103cc4000e08900010407800004f98000e089000f5
:103cd4000000e800000f98000000eb0010079800b7
:103ce4000000eb002007980021003700ea0047009d
:103cf40066004700810178006e01900031c0b30076
:103d0400e8fe070007003700ae0090002003200003
:103d1400808f5000070032002e0090000000e80061
:103d2400200798005e009000e10f5000f6ff32007b
:103d34000100370000000000ae00900020032000c6
:103d4400808f50000f0032005e009000e20f5000a0
:103d54000c0032009e00900040062000808f50002e
:103d6400070032001e0090000000e80010079800d1
:103d74005e0090000000e000dcff3a000100370024
:103d8400000000005e0090000000e0000900320026
:103d94007e0090000000e800700798001e0fe80005
:103da4001e0890009e007800808f5000bdff3900ef
:103db40001003700000000005e0090000080fa005f
:103dc400000006001e00fa00400f9800510f9800f2
:103dd400620f980000c2b300404798001000200012
:103de400300798005e0890004800de00004078002c
:103df400405798005e0890000040780050579800a3
:103e0400f400470068004700ce09900022c0b300c8
:103e14002aff07006800470066004000ce099000b2
:103e24004e419000ee08900024ff07000000eb00d4
:103e3400000f78000000eb00100798002000370006
:103e4400e600470068004700010178008000780020
:103e540020c0b300c5fe07000c00370000d42000ca
:103e6400310020009d0207009e00900020032000e6
:103e7400808f500002003a003e0090001600370088
:103e84001e0090000000e800100798003e0090001b
:103e9400e10f5000f1ff32003e009000e20f5000ad
:103ea4000b003200400620009e007800808f5000f6
:103eb40002003a003e009000070037001e0fe800a1
:103ec4003e0090000000e000ddff3a0001003700f2
:103ed400000000003e0090000080fa000000060090
:103ee4000000fa0000012000b01f8800f823ef0052
:103ef400fc23ef0010002000202088000824ef009d
:103f04000a24ef000c24ef000e24ef001082280096
:103f1400a01f88000080fa00000006000400fa00d8
:103f2400000f78001107980000000000e01f8000d7
:103f3400620060000000e000fcff3a001e00780010
:103f440010007800002088001e0078000080e8003f
:103f5400100078001020880000000000e11f80009d
:103f640000022000008060000000e000fbff3a0037
:103f74001e00900001208000010878001e009000bf
:103f84000080e80011208000010878000080fa0019
:103f9400000006001a00fa00200f9800310f980064
:103fa400420f98000000eb00000f78000000eb00c7
:103fb400100798000000eb00700798006000b8003c
:103fc400000f9800110f980040002000600798002f
:103fd4003e0890004200de00300f98002e0890004a
:103fe4000000e00005003a000000eb0050079800d4
:103ff400700047002007980004003700ee0090008e
:1040040051079800ae089000210798004e089000d0
:104014000000e00005003a000000eb0040079800b3
:104024006e0047003007980005003700ee0090004e
:1040340041079800ce089000310798000000000066
:10404400e01f8000620060000000e000fcff3a0016
:1040540023003700e01f8000620060000000e000e1
:104064000c003a002e009000100078000020880018
:104074002e0090000080e8001000780010208800d6
:10408400ae0090005e009000008040002007980081
:104094001e0fe800e11f8000000220000080600085
:1040a4000000e0000e003a003e0090000120800075
:1040b400010878003e0090000080e8001120800094
:1040c40001087800be0090004e009000008040007f
:1040d400300798001e0090000000e80010079800c8
:1040e4003e0890009e007800808f5000d9ff390070
:1040f40013003700e11f80000002200000806000f0
:104104000000e0000e003a003e0090000120800014
:10411400010878003e0090000080e8001120800033
:1041240001087800be0090004e009000008040001e
:10413400300798001e0090000000e8001007980067
:104144009e0090003e089000808f5000e9ff3900e7
:104154001e0078000080fa00000006000800fa0043
:1041640020079800310798008e007800640047000b
:104174006aff07001e00be000080fa00000006006f
:104184000600fa00000f7800110798002207980033
:10419400ae0090001e007800010178009e0090009f
:1041a4007cff07000080fa00000006000000fa000f
:1041b400a11f800000802000008060000000e0005b
:1041c400020032002000200008003700a11f8000f8
:1041d40000402000008060000000e0000200320087
:1041e40010002000010037000000eb000080fa00fe
:1041f400000006000000fa00e01f80000080fa00c2
:10420400000006000000fa009a21ef006000200080
:10421400f00c88009621ef00f0a72100e00c880044
:1042240080002800000d8800004380000000e000aa
:1042340002003a00a0192200400007008900a900ea
:104244009900a800805421008040eb0001487800c8
:104254000080fa00000006000400fa00008fbe008f
:104264001e007800e00c88001e00be004008de003e
:1042740000007800f00c88000080fa0000000600be
:104284000400fa000080eb008080eb00008fbe0089
:10429400f00c80008000eb00c001dd000200200073
:1042a400e00c80008000eb00001f7100019771009a
:1042b4001e00be000080fa00000006000400fa00a0
:1042c400008fbe001e00be004008de000000780023
:1042d400c00c88001e007800b00c88000080fa0032
:1042e400000006000800fa000080eb008080eb006c
:1042f400008fbe00b10c800021079800c10c800023
:10430400310798003e0090008000eb00c001dd0002
:10431400020020002e0090008000eb00001f7100be
:10432400019771001e00be000080fa000000060024
:104334000000fa000080fa00000006000200fa0003
:10434400000f78009900a9009e00780001438800be
:104354009900a8000080fa00000006000000fa009e
:10436400805421008040eb00014878009900a800a7
:10437400a1e1a8000080fa00000006000000fa0095
:10438400a1e1a9009900a9000080fa00000006003c
:104394000200fa0080542100104f78001e4078007b
:1043a4000004e00003003200805421008040eb0050
:1043b400014878001e4078000080fa0000000600e2
:1043c4000000fa0090542100104078000080fb00a7
:1043d4000080fa00000006000000fa00905421005a
:1043e4008040eb00014878000080fa0000000600dd
:1043f4000200fa00000f78001e0078001000780018
:10440400000001001e007800200090009e0078004b
:1044140091009000110098001e0078001000900098
:104424009e007800a1009000210098001e007800f2
:1044340090009000010f7800efff37000200fa00af
:10444400000f78001e0078009e007800210098007c
:104454001e0078009e007800110098000080fa0089
:10446400000006000400fa001007980080002000f5
:104474004bf40700000f78001e0078008000eb006a
:10448400110098001e0078008000eb0021009800c5
:104494001e0078009e009000010878001e0078003d
:1044a4000080fa00000006000800fa0020079800c7
:1044b40031079800ae0090003e009000808f5000bd
:1044c40022003200ae009000010f78000040eb00a3
:1044d40020479800090037001e00780090009000e3
:1044e400010f78003e0090009e0f500003003a0038
:1044f40010c0b30020479800070037001e00780062
:1045040010009000a00090001e00780010009000a1
:10451400808f5000f0ff3a002e4090000004e0002d
:104524000b003a001e007800be00900011009800b5
:104534003e0090009e007800210098003e0090000c
:10454400ae00900011009800010037000000000048
:104554000080fa00000006000000fa006626ef0062
:1045640000402900d03388006226ef0070a62400a2
:10457400b03388007426ef008826ef007226ef001f
:1045840000002400303488006826ef007c26ef0009
:104594006a26ef007e26ef0001088000f00b200061
:1045a40000816000600420007105200003102000d9
:1045b400804978008149780082497800b13d8000c3
:1045c400f00f2c00008060000090a000b03d880037
:1045d400013f800000f82f00008060003000b3002d
:1045e400003f8800a13d800000fc2f000080600097
:1045f400b000b300a03d8800113f8000f00f2800f8
:10460400808060000050200001007000103f88008e
:10461400b13d800000fc2f0000806000e000b3008a
:10462400b03d8800c13d800000fc2f000080600088
:104634009000b300c03d8800e13e800000f82f00e8
:10464400008060000030a000e03e8800b13e8000a1
:10465400f00f2800808060000070200001007000ce
:10466400b03e8800f13e800000f82f00008060001a
:104674009000b300f03e8800013f8000f00f280056
:10468400808060000060200001007000003f88000e
:1046940000088000000178000260a000600420008f
:1046a40071052000031020008049780081497800ba
:1046b400824978000080fa00000006000000fa0039
:1046c40041068000f08f2f00008060000080a00071
:1046d40040068800b1058000f0ff280000806000db
:1046e40000c0a000b0058800b1058000f08f2f0045
:1046f400008060000080a000b005880041068000b2
:10470400f0f82f00008060000040a0004006880000
:104714007105800080ff2f00008060000000a00071
:104724007005880061058000f0ff280000806000ab
:1047340000c0a0006005880081058000f0f82f000b
:10474400008060000040a000800588008105800092
:1047540080ff2f00008060000000a000800588001a
:1047640051058000f0ff28000080600000c0a00018
:10477400500588006105800080ff2f0000806000e4
:104784000000a000600588000080fa000000060018
:020000040000fa
:10479400ee14000020000000800000005e0800000d
:1047a4000200000082000000ffff00004815000026
:1047b4000200000080000000600800000200000009
:1047c400800000000e1500001200000080000000b0
:1047d400420800000e0000008000000020150000c8
:1047e4001200000080000000500800000e000000cd
:1047f400800000003215000012000000800000005c
:104804002a08000018000000800000006208000070
:104814008c0c000080000000000800002a0000004a
:10482400800000004a150000020000008200000021
:104834000400000044150000040000008000000093
:104844004c15000002000000800000000000000081
:020000040000fa
:104854000000fa0000002300100888000621ef0081
:104864006821ef006a21ef000821ef0000702000aa
:10487400500888000c21ef000e21ef007821ef0092
:104884007a21ef007c21ef007e21ef008021ef00f0
:104894008221ef008421ef008621ef000001eb006c
:1048a40080072000a109200013102000804978000f
:1048b40081497800824978000001eb0060042000ff
:1048c4007105200003102000804978008149780098
:0c48d400824978000080fa000000060015
:020000040000fa
:1048e000f03fb1000180b10006003500ee03090081
:1048f00000000000403fb1000180b100fbff3d001f
:104900001000b000203fb000020035000080090018
:08491000000000000000060099
:020000040000fa
:104918000200fa00000f78009e007800f14288003b
:10492800ffff37000000fa00e04e21008007780002
:1049380060502100000188000080fa000000060095
:104948000000fa0003ff07005bff0700bfff070036
:1049580081f8070061fd070091fb070007fa0700cf
:1049680027fe07000080fa00000006000000fa0099
:10497800f3ff070000d4200031002000d6ff070015
:10498800c4f7070099fe0700100020000080fa0015
:044998000000060015
:020000040000fa
:020000040005f5
:045e0000ffff0000a0
:020000040000fa
:020000040005f5
:045e2000ffffff0081
:020000040000fa
:020000040005f5
:045e300060ffff0010
:020000040000fa
:020000040005f5
:045e3800a3ffff00c5
:020000040000fa
:020000040005f5
:045e40009fffff00c1
:020000040000fa
:020000040005f5
:045e4800ffffff0059
:020000040000fa
:020000040005f5
:045e5000dfffff0071
:020000040000fa
:020000040005f5
:045e5800efffff0059
:00000001FF
