:020000040000fa
:080000000001040000000000f3
:020000040000fa
:0400080044020000ae
:020000040000fa
:04000c008602000068
:020000040000fa
:04001000c602000024
:020000040000fa
:040014006402000082
:020000040000fa
:04001800a60200003c
:020000040000fa
:04001c001c070000bd
:020000040000fa
:040020001c070000b9
:020000040000fa
:040024001c070000b5
:020000040000fa
:040028001c070000b1
:020000040000fa
:04002c001c070000ad
:020000040000fa
:040030001c070000a9
:020000040000fa
:040034001c070000a5
:020000040000fa
:040038001c070000a1
:020000040000fa
:04003c001c0700009d
:020000040000fa
:040040001c07000099
:020000040000fa
:040044001c07000095
:020000040000fa
:04004800e6020000cc
:020000040000fa
:04004c001c0700008d
:020000040000fa
:040050001c07000089
:020000040000fa
:040054005004000054
:020000040000fa
:04005800f4030000ad
:020000040000fa
:04005c001c0700007d
:020000040000fa
:040060001c07000079
:020000040000fa
:040064001c07000075
:020000040000fa
:040068001c07000071
:020000040000fa
:04006c00cc040000c0
:020000040000fa
:040070001c07000069
:020000040000fa
:040074001c07000065
:020000040000fa
:040078001c07000061
:020000040000fa
:04007c001c0700005d
:020000040000fa
:040080001c07000059
:020000040000fa
:040084001c07000055
:020000040000fa
:040088001c07000051
:020000040000fa
:04008c001c0700004d
:020000040000fa
:040090001c07000049
:020000040000fa
:040094001c07000045
:020000040000fa
:040098001c07000041
:020000040000fa
:04009c001c0700003d
:020000040000fa
:0400a00078030000e1
:020000040000fa
:0400a4001c03000039
:020000040000fa
:0400a8001c07000031
:020000040000fa
:0400ac001c0700002d
:020000040000fa
:0400b0001c07000029
:020000040000fa
:0400b4001c07000025
:020000040000fa
:0400b8001c07000021
:020000040000fa
:0400bc001c0700001d
:020000040000fa
:0400c0001c07000019
:020000040000fa
:0400c4001c07000015
:020000040000fa
:0400c8001c07000011
:020000040000fa
:0400cc001c0700000d
:020000040000fa
:0400d0001c07000009
:020000040000fa
:0400d4001c07000005
:020000040000fa
:0400d8001c07000001
:020000040000fa
:0400dc001c070000fd
:020000040000fa
:0400e0001c070000f9
:020000040000fa
:0400e4001c070000f5
:020000040000fa
:0400e8001c070000f1
:020000040000fa
:0400ec001c070000ed
:020000040000fa
:0400f0001c070000e9
:020000040000fa
:0400f4001c070000e5
:020000040000fa
:0400f8001c070000e1
:020000040000fa
:0400fc001c070000dd
:020000040000fa
:040100001c070000d8
:020000040000fa
:040104001c070000d4
:020000040000fa
:040108001c070000d0
:020000040000fa
:04010c001c070000cc
:020000040000fa
:040110001c070000c8
:020000040000fa
:040114001c070000c4
:020000040000fa
:040118001c070000c0
:020000040000fa
:04011c001c070000bc
:020000040000fa
:040120001c070000b8
:020000040000fa
:040124001c070000b4
:020000040000fa
:040128001c070000b0
:020000040000fa
:04012c00b604000015
:020000040000fa
:04013000de030000ea
:020000040000fa
:040134001c070000a4
:020000040000fa
:040138001c070000a0
:020000040000fa
:04013c001c0700009c
:020000040000fa
:040140001c07000098
:020000040000fa
:040144001c07000094
:020000040000fa
:040148001c07000090
:020000040000fa
:04014c001c0700008c
:020000040000fa
:040150001c07000088
:020000040000fa
:040154001c07000084
:020000040000fa
:040158001c07000080
:020000040000fa
:04015c001c0700007c
:020000040000fa
:040160001c07000078
:020000040000fa
:040164001c07000074
:020000040000fa
:040168001c07000070
:020000040000fa
:04016c001c0700006c
:020000040000fa
:040170001c07000068
:020000040000fa
:040174001c07000064
:020000040000fa
:040178001c07000060
:020000040000fa
:04017c001c0700005c
:020000040000fa
:040180001c07000058
:020000040000fa
:040184001c07000054
:020000040000fa
:040188001c07000050
:020000040000fa
:04018c001c0700004c
:020000040000fa
:040190001c07000048
:020000040000fa
:040194001c07000044
:020000040000fa
:040198001c07000040
:020000040000fa
:04019c001c0700003c
:020000040000fa
:0401a0001c07000038
:020000040000fa
:0401a4001c07000034
:020000040000fa
:0401a8001c07000030
:020000040000fa
:0401ac001c0700002c
:020000040000fa
:0401b0001c07000028
:020000040000fa
:0401b4001c07000024
:020000040000fa
:0401b8001c07000020
:020000040000fa
:0401bc001c0700001c
:020000040000fa
:0401c0001c07000018
:020000040000fa
:0401c4001c07000014
:020000040000fa
:0401c8001c07000010
:020000040000fa
:0401cc001c0700000c
:020000040000fa
:0401d0001c07000008
:020000040000fa
:0401d4001c07000004
:020000040000fa
:0401d8001c07000000
:020000040000fa
:0401dc001c070000fc
:020000040000fa
:0401e0001c070000f8
:020000040000fa
:0401e4001c070000f4
:020000040000fa
:0401e8001c070000f0
:020000040000fa
:0401ec001c070000ec
:020000040000fa
:0401f0001c070000e8
:020000040000fa
:0401f4001c070000e4
:020000040000fa
:0401f8001c070000e0
:020000040000fa
:0401fc001c070000dc
:020000040000fa
:100200002f5921000e7f24000e01880000000000fd
:10021000000020000000e000020032000001200089
:100220002002880014000700260307000000e000f9
:1002300003003a0060ad21000100200002003700f9
:100240000000200001002000810f7000010032003a
:1002500014000700000020000000e000020032004f
:100260000000020000000000c61b020000000000a9
:100270000040da000000fe004440a90060002000b9
:100280000000e00003003200002020009001880000
:100290004440a800000006008a1f78008b1f7800e9
:1002a00000000600a1028800800478000000eb0036
:1002b0001f003700e284440054a0b4009905ba003e
:1002c000e284440054a0b4009906ba00e2844400d9
:1002d00054a0b4000006eb00476fde00fd07b2003b
:1002e000ae018800636ce10003003a00eaff0700fa
:1002f0000000eb000e003700606ce10008003a00df
:10030000004deb000a05e800020039003420ec0043
:100310000af0a0008b05e900f9ff3e000400370059
:100320006168e100010032000086eb000b0007006d
:1003300019c7ba001905ba000e04e00003003a001c
:100340000a00e000dbff3a0000000600fe07b200f2
:10035000ae0288008a047800f5ff37000cd0a300b5
:10036000e20f4d001c00390089027800354dba00bb
:100370000a05e800020039003420ec000af0a00071
:100380008b05e9000f003200254dba000a05e80090
:10039000020039003420ec000af0a0008b05e900cf
:1003a000080032000c00e0000600320015cdba0053
:1003b0000a05e800020039003420ec000af0a00031
:1003c0008b05e9008984e80054a0b4000b00e0002c
:1003d000e2ff3a00000006009902ba00055d7800cd
:1003e0008b05e900f7ff3200c82ade00055d7800c2
:1003f0008b05e900f3ff32000c00e000f1ff320052
:1004000019ddba00eeff3700a61804000000000056
:100410000a0d040000000000280d04000000000088
:100420001c100400000000003a100400000000004e
:10043000be08040000000000e00904000000000005
:10044000320a040000000000b60a040000000000a8
:10045000660b0400000000006e0b040000000000aa
:10046000760b0400000000008a0b0400000000006e
:10047000d40b0400000000000c0c0400000000007d
:10048000180c0400000000003600f800809fbe0039
:10049000829fbe00849fbe00869fbe000000fa00bf
:1004a0008020a9000000eb00a10c07000080fa00ea
:1004b0004f03be004f02be004f01be004f00be0002
:1004c0003600f900004006003600f800809fbe00ac
:1004d000829fbe00849fbe00869fbe000000fa007f
:1004e000980c07008040a90010002000900c070025
:1004f0000080fa004f03be004f02be004f01be0055
:100500004f00be003600f900004006003600f8003b
:10051000809fbe00829fbe00849fbe00869fbe005b
:100520000000fa008060a90020002000800c070075
:100530000080fa004f03be004f02be004f01be0014
:100540004f00be003600f900004006003600f800fb
:10055000809fbe00829fbe00849fbe00869fbe001b
:100560000000fa008080a90030002000700c070015
:100570000080fa004f03be004f02be004f01be00d4
:100580004f00be003600f900004006003600f800bb
:10059000809fbe00829fbe00849fbe00869fbe00db
:1005a0000000fa008600a90070002000600c07001f
:1005b0000080fa004f03be004f02be004f01be0094
:1005c0004f00be003600f900004006003600f8007b
:1005d000809fbe00829fbe00849fbe00869fbe009b
:1005e0000000fa00b04280000000e000020032008b
:1005f000b042800000000100704f210010407800e0
:100600008040e800704f210001487800604f2100d1
:1006100011c0b300014878008900a9000080fa00e9
:100620004f03be004f02be004f01be004f00be0090
:100630003600f900004006003600f800809fbe003a
:10064000829fbe00849fbe00869fbe000000fa000d
:100650001042800000000100f1418000e041800074
:10066000808f500002003a009be0a900190037007b
:100670008be0a90010003700f04180009040780026
:100680008180fb00911d88000000e800f041880097
:10069000f1418000504c2100808f500002003a0050
:1006a000c04b2100f0418800f1418000e041800012
:1006b000808f500006003200811d80000020200045
:1006c000008060000000e000ebff32000100370016
:1006d000000000000080fa004f03be004f02be0081
:1006e0004f01be004f00be003600f900004006007a
:1006f0003600f800809fbe00829fbe00849fbe002f
:10070000869fbe000000fa00204280000000010029
:100710008bc0a9001e003700c0418000a11d8000d1
:100720008140780001487800c1418000d04c210010
:10073000808f500009003200c04180008000e80036
:10074000d0418000808f500004003200c041800002
:100750000000e800c04188000d003700c141800062
:10076000d04c2100808f500007003a00d14180001a
:10077000504c2100808f500003003200504c21006b
:10078000c04188000200370010c0b30040e8b70045
:10079000801d8000610060000000e000deff3a0084
:1007a0000080fa004f03be004f02be004f01be00a2
:1007b0004f00be003600f90000400600801f7800a0
:1007c0000000fa00801d8000620060000000e00070
:1007d00001003200b023a9009040a9000080fa0077
:1007e0004f007800004006003600f800809fbe00f1
:1007f000829fbe00849fbe00869fbe000000fa005c
:100800008042800000000100614280005042800070
:10081000808f500002003a009980a900190037002b
:100820008980a90010003700604280009040780065
:100830008180fb00e11c88000000e8006042880025
:1008400061428000704d2100808f500002003a000c
:10085000e04c2100604288006142800050428000ec
:10086000808f500006003200d11c80000020200044
:10087000008060000000e000ebff32000100370064
:10088000000000000080fa004f03be004f02be00cf
:100890004f01be004f00be003600f90000400600c8
:1008a0003600f800809fbe00829fbe00849fbe007d
:1008b000869fbe000000fa00904280000000010008
:1008c0008960a9001e00370030428000f11c8000c2
:1008d000814078000148780031428000f04d2100cd
:1008e000808f500009003200304280008000e80014
:1008f00040428000808f500004003200304280006f
:100900000000e800304288000d00370031428000ce
:10091000f04d2100808f500007003a0041428000d6
:10092000704d2100808f500003003200704d210077
:10093000304288000200370010c0b3004ee8b70014
:10094000d01c8000610060000000e000deff3a0083
:100950000080fa004f03be004f02be004f01be00f0
:100960004f00be003600f90000400600801f7800ee
:100970000000fa00d01c8000620060000000e0006f
:10098000010032009a23a9009020a9000080fa00fb
:100990004f007800004006003600f800809fbe003f
:1009a000829fbe00849fbe00869fbe000000fa00aa
:1009b0008a20a900f1248000000820000080600047
:1009c0000000e000080032009ee4a9002828ef00a3
:1009d00070418000200090008000eb00010878004a
:1009e0002e28ef000d013700404180008000eb0011
:1009f000b200200003002000820f5000838f5800b7
:100a0000fc003e00006001000b0037003900370099
:100a1000750037009c003700f3003700c80037002e
:100a2000d9003700f0003700db003700f100370055
:100a30003400370050003700008220002000900072
:100a4000620060000000e000f3003a000082200035
:100a5000100090007041880000822000100090007b
:100a6000104078002ae8b7000082200010009000b3
:100a7000100090006041880000822000100090006b
:100a8000e600400000822000110098000082200053
:100a900090009000604e2100808f500003003a00cb
:100aa00000822000014e21001100980000822000e9
:100ab000a00090000100a100210098000082200009
:100ac000900090000082200010007800808f50007d
:100ad00004003a0000822000a00090000110a00055
:100ae000210098009a04a8002000200040418800be
:100af000ca0037009a24a800200020004041880046
:100b0000c6003700f124800000002800008060004b
:100b10000000e000080032000082200060409000e9
:100b20008040e800008220006140980040002000e2
:100b3000d6060700b9003700804180008000d10050
:100b4000f00f200000806000b02488008041800009
:100b500061006000004078000004e0000300320003
:100b6000b000200040418800ac0037003000200079
:100b700040418800a9003700f124800000002800cf
:100b8000008060000000e0000800320000822000c9
:100b9000604090008040e8000082200061409800a2
:100ba00040002000b90607009c0037009a24a800e6
:100bb000804180004800de00e6006000000f200059
:100bc0000100700080418800804180000000a0008a
:100bd0008041880010c0b30032e8b7002000200038
:100be000404188008d00370032c8bf00e14f5000ff
:100bf0000a003200604180001000780080418800c7
:100c00006041800020009000a04188006041800089
:100c10002040900036e8b700010037003268ef004e
:100c200081418000f00f2000808f500009003600c5
:100c3000804180004800de00e6006000000f2000d8
:100c400001007000b0248800a0002000404188000e
:100c50007200370080418000b0248800804180000d
:100c600061006000004078000004e00003003200f2
:100c7000500020004041880068003700300020000c
:100c80004041880065003700f12480000000280002
:100c9000008060000000e0000900320000822000b7
:100ca000604090008040e800008220006140980091
:100cb0009fe4a90050002000740607005700370089
:100cc00036c8bf008080fb008100e900cf08de004d
:100cd000814078000040e90036e8b7000104e000f8
:100ce00010003200604180006600400060418800d2
:100cf0002ac8bf000040e9002ae8b7002ac8bf00a0
:100d00000004e00003003a00200020005f06070016
:100d1000420037009a24a8002000200040418800ab
:100d20003e003700a0418000904078008180fb00a9
:100d3000b12488000000e800a04188003700370097
:100d4000f124800000002800008060000000e00026
:100d50000900320000822000604090008040e800de
:100d600000822000614098004000200047060700f4
:100d70009fe4a900290037009a64a80080002000a1
:100d80004041880025003700800020004041880055
:100d90009a64a80021003700a0418000a1248000af
:100da00081407800014878000000e800a0418800f8
:100db00036c8bf000040e90036e8b70036c8bf00bb
:100dc0000004e000040032009aa4a90060002000a2
:100dd00040418800020037009aa4a8001a060700c4
:100de0009a84a8000d003700200020002706070085
:100df0000a00370000822000604090008040e80038
:100e00000082200061409800600020001f0607005b
:100e10000000000001003700000000000080fa0020
:100e20004f03be004f02be004f01be004f00be0088
:100e30003600f900004006000040da000000fe0025
:100e4000889fbe0080047800d0a780000000e000ea
:100e500004003a000e0007000084eb000000e000f0
:100e600008003500d8a780000900e0000500320026
:100e700009004400060007000000e00001003d00fa
:100e80000084eb00080078004f04be00000006005c
:100e9000800078000100e00003003a00c04f21000c
:100ea000d0a78800000005000080eb002259210037
:100eb000828f500002003e00d1a788000000eb00a6
:100ec0000000060000000500889fbe0000047800b6
:100ed00091a780000100e0000200320001007800cc
:100ee0000d003700a1a78000404f2100040037000b
:100ef000910f5400250036000180e8009100900019
:100f00000100e000faff3a0010003700920f540091
:100f10001e0036000280e800100178000200e000a8
:100f2000faff3a0011017800a1a78000404f21008c
:100f300004003700910f5400140036000180e800cf
:100f400091009000828f5000faff3a00c9a78000fc
:100f5000888f54000100310088047800090078006f
:100f60003d0007000000e00004003a00888f5400b4
:100f7000050032008904d100f5ff37000918780018
:100f80003f000700d2ff37000000eb004f04be0017
:100f900000000600881f7800630440000800a100dc
:100fa0008000eb00800f540021003600e30f540056
:100fb00001003e004800200008007800c2ff070042
:100fc0008000eb000000e000190032009000780083
:100fd0009101780064815100880f510003003100b5
:100fe00011019000020878000700370008814000d6
:100ff0000208780091019000130198001001780018
:101000001109140088087800100178000000eb0036
:101010000200e00004003200920190000300e000b2
:10102000010032000280e80090a788008180e8007b
:10103000010078004f04780000000600800178006d
:1010400002003700b15978000201e9000200e00017
:10105000fcff3a0000000600800078000000eb0072
:101060000100e000050034000100780074ff070073
:10107000e10f400001003a000000eb000000060014
:101080000000e0002f003200c0017800e38f510023
:101090002c0036000308a3002a003a00a1a7800014
:1010a0000100e00002003200810f50000400310016
:1010b00011009800a0a78800160037008200780071
:1010c000110190000200e00002003200800f510088
:1010d000faff39001102780084824000850f500029
:1010e00018003900808f520003003a008308420044
:1010f00001007800070037000200e0000300320022
:1011000083014000830f51000e0039001200980047
:1011100090009800900090000100e000090032006b
:1011200010014000828f500006003a00224f21003b
:101130000009eb00100178001108410091009000b7
:081140001100980000000600f8
:020000040000fa
:0c1148000000000000000000000000009b
:020000040000fa
:101154000000fa0010c0b30018e8b7000080fa00dd
:10116400000006000000fa001868ef006686a90077
:101174000080fa00000006000600fa0081408000aa
:10118400904080000000d1000074a1000080fb00aa
:101194004200dd0000804000100078004400de00c2
:1011a400000f780081408000904080000000d10052
:1011b4000074a1000080fb004200dd0000804000bc
:1011c400100090004200de0010079800c1a28000c9
:1011d400d0a2800000804000104078000080fb0016
:1011e4002007980018c8bf000004e0001100320076
:1011f400304584009e007800808f50000200360045
:10120400d8ff070016003700404584009e00900078
:10121400808f500004003e009e0090002e0090003d
:10122400808f500002003600ceff07000c0037000c
:101234006686a8003033800000407800614060007a
:101244000004a200614060000080fb0061006000b7
:10125400313380000100a1000100700030338800a8
:101264000080fa00000006000000fa00e1a28000fd
:10127400c0a28000024020006fff07000080fa0037
:10128400000006000000fa00a04080000000e0001a
:10129400020032000040eb0046003700814080002d
:1012a400904080000000d1000074a1000080fb0089
:1012b4004200dd0000804000100078006100600002
:1012c4000000e000020032000040eb00390037006b
:1012d40081408000904080000000d1000074a10093
:1012e4000080fb004200dd00008040001000780018
:1012f400620060000000e000020032000040eb00e9
:101304002c00370081408000904080000000d10014
:101314000074a1000080fb004200dd00008040005a
:1013240010007800640060000000e0000200320059
:101334000040eb001f003700814080009040800097
:101344000000d1000074a1000080fb004200dd0019
:1013540000804000100078004400de008000780027
:1013640030458400808f5000020031000040eb00c3
:101374001000370081408000904080000000d100c0
:101384000074a1000080fb004200dd0000804000ea
:10139400100090004200de00800078004045840088
:1013a400808f5000020031000040eb000100370044
:1013b40010c0b3000080fa00000006000400fa0028
:1013c400000f2f00010f2f00ea060700008fbe0058
:1013d40081408000904080000000d1000074a10092
:1013e4000080fb004200dd00008040003e187800d1
:1013f4002e107800904080000000d1000074a100fd
:101404000040e8000074a1008080fb00f007200089
:1014140000806000000040009240800011f02f0026
:1014240081006100010070009040880090408000bd
:101434000000d1000074a1000080fb00ea0f5000fe
:10144400050034009140800010f02f0000806000ff
:10145400904088001208a8000080fa0000000600ee
:101464000200fa0005030700004f7800b040800036
:10147400e10f50002a003200e10f5000050039004e
:10148400e20f50002c003200e30f50002e00320017
:10149400330037001e80fb00e10f50001b003200b8
:1014a400e20f50001b0032000000e0002b003a0065
:1014b400f2020700004f78001e80fb00610060000c
:1014c400004078000004e000040032006dff0700d3
:1014d4000004e000010032001dff07001e80fb0035
:1014e400620060000000e000010032001dff070000
:1014f4001e80fb00640060000000e0000100320078
:1015040059ff0700000000001500370010002000fc
:10151400b040880030002000b04088001000370040
:101524001e80fb004800dd0030a38800200020005e
:10153400b04088000a0037001e80fb0030a38800fa
:101544001628ef000600370061408000004080004c
:101554005b0707001628ef000100370000000000b9
:101564000080fa00000006000000fa003a010700bb
:10157400d8020700fdff37000800fa009040800001
:101584000000d1000074a100004f78001e407800d4
:101594000004e00003003a00a0c0b300004f78004c
:1015a400010037001e4fe900814080001e80fb00cf
:1015b4004200dd0000804000100090004200de0088
:1015c40010479800814080001e80fb004200dd002f
:1015d40000804000100090004200de004880de00e1
:1015e40020479800814080001e80fb004200dd00ff
:1015f40000804000100078004400de00304798006e
:10160400814080001e80fb004200dd00008040001d
:10161400100078004400de004880de004047980057
:10162400b0022000300798001e4090000004e00043
:1016340008003a001e80fb00300798003e0090002e
:101644002002b000300798003e0090002002b10054
:1016540030079800d0408000e10f500009003200ac
:10166400e10f500015003100c0a2800001402000ad
:1016740037030700c0a2800001402000ab0107002f
:101684000f00370000c0eb000901070000c0eb00a9
:10169400070107001e409000050107002e4090003e
:1016a400030107003e409000010107004e409000f6
:1016b400ff000700000000000100370000000000e8
:1016c4000080fa00000006000000fa00aaff0700ec
:1016d4000080fa00000006000000fa00a6ff0700e0
:1016e4000080fa00000006000000fa00e2a2800078
:1016f40031a3800020458400034020009d0407009e
:101704003000200020a388000080fa0000000600ba
:101714000600fa00f0a280000000e0001d003a007c
:1017240000c2b300104798001e4090000080fb00e8
:101734000140200000017800110009008200d80057
:10174400204798000040eb00004f78000d00370060
:10175400f1a2800021079800e2a280001e409000c0
:101764008080fb002e0090000088b9000000780003
:101774000001410031a380002045840017050700c3
:101784001e4fe8002e4090009e40780080cf50000d
:10179400efff39003000200020a388000080fa0009
:1017a400000006000000fa001ec8bf000004e000ac
:1017b40006003a004140800000408000c006070057
:1017c40010c0b3001ee8b7000400370011408000c9
:1017d40000408000ba0607001e68ef000080fa008f
:1017e400000006000000fa00414080000040800034
:1017f400b30607000080fa00000006000000fa00ab
:101804005140800000408000ad0607000080fa00cf
:10181400000006000000fa00214080000040800023
:10182400a70607000080fa00000006000000fa0086
:101834003140800000408000a10607000080fa00cb
:10184400000006000000fa00e08b20008b06070071
:1018540000408800009e2000880607001040880091
:1018640020a32000850607002040880060ab2000ec
:10187400820607003040880060b620007f0607001b
:1018840040408800e0b620007c06070050408800f5
:1018940060b720007906070060408800a0b82000e7
:1018a4007606070070408800004080006906070043
:1018b40040bd200027060700c0c02000e00107004b
:1018c40080c12000550007002a06070031030700e5
:1018d400a701070042a3800053a38000c2a288008e
:1018e400d3a2880062a3800073a38000e2a28800d0
:1018f400f3a2880082a3800093a3800002a388003f
:1019040013a3880080852000c0a288000000eb009b
:10191400d0a2880080c52000e0a288000000eb006f
:10192400f0a288008005210000a388000000eb00dd
:1019340010a388003000200020a388004047210025
:10194400804088001208a9009140800010f02f0008
:1019540000806000904088001d68ef001c68ef0064
:1019640010002000d0408800004080000080fa0071
:10197400000006000000fa009be0a9009bc0a9003b
:1019840080002000701d8800b023ef003003200089
:10199400b01d8800b823ef00c04b2100f04188003f
:1019a400c04b2100e0418800504c2100d041880008
:1019b400504c2100c04188004068ef00a0d02000b6
:1019c4000700070080d22000140007009bc0a80075
:1019d400afe3a800b143a8000080fa0000000600ad
:1019e4000200fa00000f78001e0078000000e000fa
:1019f40003003a00a0d02000104288000200370003
:101a04009e007800114288000080fa000000060061
:101a14000000fa000080fa00000006000200fa004c
:101a2400000f78001e0078000000e00003003a0078
:101a340080d2200020428800020037009e007800f7
:101a4400214288000080fa00000006000000fa002d
:101a54000080fa00000006000200fa000040eb00db
:101a6400004f780000000000d1418000c041800098
:101a7400808f5000fcff3200d0418000104f78006e
:101a8400d04180000000e800d0418800d1418000ae
:101a9400e04c2100808f500002003a00504c21009d
:101aa400d04188001e4078000080fa000000060043
:101ab4000200fa00004f7800000000001c0007003c
:101ac4000004a2000004e000fcff3a00e0418000b2
:101ad4001e487800e04180000000e800e0418800f2
:101ae400e1418000504c2100808f500002003a00f8
:101af400c04b2100e04188009be0a8000080fa0070
:101b0400000006000000fa00d1418000c0418000be
:101b14000080680000f0a7000000ea000000ea006e
:101b24004f00de00004078000080fa00000006004c
:101b34000400fa00f141800011079800e14180009f
:101b44001e009000808f5000060031009e0090001f
:101b5400e0418000008050000000e900000f7800a0
:101b6400050037009e009000e04180000080500096
:101b740068004000000f78001e00780000f0a70005
:101b84000000ea000000ea004f00de000040780098
:101b94000080fa00000006000000fa00e141800025
:101ba400f0418000808f500009003a00811d8000c0
:101bb400001020000080600000f0a7000000ea0090
:101bc4000000ea004f00de0000407800010037000a
:101bd4000040eb000080fa00000006000400fa0058
:101be400c141800011079800d04180009e00900000
:101bf400808f5000060031009e009000d04180008c
:101c04000080500069004000000f78000400370095
:101c14009e009000d041800000805000000f7800aa
:101c2400f00f20009e007800808f500002003600e4
:101c340000c0eb00020037001e007800004078006e
:101c44000080fa00000006000400fa00f141800060
:101c540011079800e14180001e009000808f500021
:101c6400060031009e009000e0418000008050009a
:101c74000000e900000f7800050037009e00900086
:101c8400e04180000080500068004000000f7800b0
:101c9400f00f20009e007800808f50000200360074
:101ca40000c0eb00020037001e00780000407800fe
:101cb4000080fa00000006000800fa0020079800df
:101cc40031079800c5ff07000080fb00000f780073
:101cd4003e0090009e0f500002003100be009000b4
:101ce400010f78000000eb0010079800090037008e
:101cf40059ff0700ae009000804878002e00900045
:101d04000000e800200798001e0090000000e80092
:101d1400100798001e0090009e0f5000f4ff390039
:101d24001e0078000080fa00000006000800fa0097
:101d34002007980031079800c3ff07000080fb00cc
:101d4400000f78003e0090009e0f5000020031000a
:101d5400be009000010f78000000eb00100798000f
:101d6400090037002e00900010407800ae0090006b
:101d74008100e800210798004dff07001e00900035
:101d84000000e800100798001e0090009e0f50000d
:101d9400f4ff39001e0078000080fa0000000600fd
:101da4000400fa000000eb00000f78008bff07002e
:101db40020479800a4ff0700304798002e40900069
:101dc4000080fb000000e00003003200e90f500037
:101dd40003003200040037001e20a0000400370076
:101de4001e00a000020037001e10a000000000002a
:101df4003e4090000080fb000000e0000300320041
:101e0400e90f500003003200040037001e30a00028
:101e1400020037001e40a000000000001e007800f1
:101e24000080fa00000006000400fa001007980081
:101e3400d14180001e009000008f40000200370056
:101e44009e007800698f5000e04c21009e007800cd
:101e5400808f5000faff3e001e007800104078008a
:101e64000080fa00000006000000fa005bff070093
:101e74000080fb000000e9004f00de000040780015
:101e84000080fa00000006000000fa006eff070060
:101e94000080fb000000e9004f00de0000407800f5
:101ea4000080fa00000006000000fa00801d800097
:101eb4000080fa00000006000000fa0062ff07003c
:101ec4000004e00010003200f1418000e041800095
:101ed400808f500006003600f041800080007800ba
:101ee400e0418000008050000000e9000700370056
:101ef400f041800080007800e041800000805000c4
:101f040068004000010037000000eb000080fa0088
:101f1400000006000000fa0030ff07000004e000a3
:101f240010003200d1418000c0418000808f5000f9
:101f340006003600d041800080007800c041800057
:101f4400008050000000e90007003700d041800005
:101f540080007800c041800000805000680040008c
:101f6400010037000000eb000080fa0000000600ca
:101f74000000fa00afe3a800b143a8000080fa0013
:101f8400000006000000fa00afe3a900b143a90075
:101f94000080fa00000006000000fa009980a90001
:101fa4009960a90080002000c01c88009a23ef00db
:101fb40030032000001d8800a223ef00e04c210024
:101fc40060428800e04c210050428800704d21009e
:101fd40040428800704d2100304288004e68ef0076
:101fe400c001210007000700a0032100140007001e
:101ff4009960a80099e3a8009b43a8000080fa0018
:10200400000006000200fa00000f78001e007800ad
:102014000000e00003003a00c00121008042880073
:10202400020037009e007800814288000080fa0098
:10203400000006000000fa000080fa00000006001c
:102044000200fa00000f78001e0078000000e00093
:1020540003003a00a00321009042880002003700e8
:102064009e007800914288000080fa00000006007b
:102074000000fa000080fa00000006000200fa00e6
:102084000040eb00004f7800000000004142800057
:1020940030428000808f5000fcff320040428000bc
:1020a400104f7800404280000000e8004042880061
:1020b40041428000004e2100808f500002003a000f
:1020c400704d2100404288001e4078000080fa00d4
:1020d400000006000200fa00004f78000000000033
:1020e4001c0007000004a2000004e000fcff3a000a
:1020f400504280001e487800504280000000e800f2
:102104005042880051428000704d2100808f500061
:1021140002003a00e04c2100504288009980a80057
:102124000080fa00000006000000fa00414280002e
:10213400304280000080680000f0a7000000ea0040
:102144000000ea004f00de00004078000080fa0042
:10215400000006000400fa006142800011079800a4
:10216400514280001e009000808f50000600310014
:102174009e00900050428000008050000000e90062
:10218400000f7800050037009e0090005042800048
:102194000080500068004000000f78001e007800a6
:1021a40000f0a7000000ea000000ea004f00de0093
:1021b400004078000080fa00000006000000fa00e9
:1021c4005142800060428000808f500009003a0034
:1021d400d11c8000001020000080600000f0a700e7
:1021e4000000ea000000ea004f00de000040780032
:1021f400010037000040eb000080fa0000000600f8
:102204000400fa0031428000110798004042800027
:102214009e009000808f5000060031009e009000c8
:10222400404280000080500069004000000f7800a8
:10223400040037009e00900040428000008050005f
:10224400000f7800f00f20009e007800808f50006f
:102254000200360000c0eb00020037001e007800c8
:10226400004078000080fa00000006000400fa0034
:102274006142800011079800514280001e009000c6
:10228400808f5000060031009e0090005042800074
:10229400008050000000e900000f780005003700be
:1022a4009e00900050428000008050006800400072
:1022b400000f7800f00f20009e007800808f5000ff
:1022c4000200360000c0eb00020037001e00780058
:1022d400004078000080fa00000006000800fa00c0
:1022e4002007980031079800c5ff07000080fb0015
:1022f400000f78003e0090009e0f50000200310055
:10230400be009000010f78000000eb001007980059
:102314000900370059ff0700ae009000804878009c
:102324002e0090000000e800200798001e00900096
:102334000000e800100798001e0090009e0f500057
:10234400f4ff39001e0078000080fa000000060047
:102354000800fa002007980031079800c3ff07001f
:102364000080fb00000f78003e0090009e0f50009c
:1023740002003100be009000010f78000000eb0065
:1023840010079800090037002e00900010407800d4
:10239400ae0090008100e800210798004dff07007f
:1023a4001e0090000000e800100798001e00900036
:1023b4009e0f5000f4ff39001e0078000080fa00e0
:1023c400000006000400fa000000eb00000f780093
:1023d4008bff070020479800a4ff070030479800b0
:1023e4002e4090000080fb000000e000030032005b
:1023f400e90f500003003200040037001e20a00043
:10240400040037001e00a000020037001e10a000c8
:10241400000000003e4090000080fb000000e0004f
:1024240003003200e90f50000300320004003700bb
:102434001e30a000020037001e40a0000000000073
:102444001e0078000080fa00000006000400fa0074
:1024540010079800414280001e009000008f400049
:10246400020037009e007800698f5000004e210062
:102474009e007800808f5000faff3e001e00780016
:10248400104078000080fa00000006000000fa0006
:102494005bff07000080fb000000e9004f00de0046
:1024a400004078000080fa00000006000000fa00f6
:1024b4006eff07000080fb000000e9004f00de0013
:1024c400004078000080fa00000006000000fa00d6
:1024d400d01c80000080fa00000006000000fa0012
:1024e40062ff07000004e000100032006142800037
:1024f40050428000808f5000060036006042800009
:102504008000780050428000008050000000e90004
:10251400070037006042800080007800504280004d
:102524000080500068004000010037000000eb000c
:102534000080fa00000006000000fa0030ff0700e7
:102544000004e0001000320041428000304280006c
:10255400808f5000060036004042800080007800e2
:1025640030428000008050000000e900070037007e
:10257400404280008000780030428000008050009b
:1025840068004000010037000000eb000080fa0002
:10259400000006000000fa0099e3a8009b43a8008d
:1025a4000080fa00000006000000fa0099e3a90088
:1025b4009b43a9000080fa00000006000000fa0016
:1025c40000822000014e21001100980000822000aa
:1025d400014e21000108780000822000a000900034
:1025e4000110a0002100980000822000a0009000ab
:1025f4000100a10021009800008220008040eb002f
:102604006140980020012000c024880000002800b8
:10261400d02488009e24ef008a20a9009a20a800d4
:102624000080fa00000006000200fa000082200088
:10263400e0409000014f78001e4078000080fa00ce
:10264400000006000000fa006041800066004000bf
:10265400604188002ac8bf000040e9002ae8b700aa
:102664002ac8bf000004e00003003a004000200034
:1026740040418800020037001000200040418800db
:102684000080fa00000006000200fa00000f780043
:102694009a44a80070418000200090000000e000ef
:1026a4000300320070418000200090001e08780072
:1026b4002828ef000080fa00000006000800fa0055
:1026c400000f7800214798002207980033079800ec
:1026d4000082200020009000610060000000e00003
:1026e4000a003a00ae0190002e4190009e0078004e
:1026f400c04e2100770007003e019000c14e21002a
:1027040010c0b3001f000700030037003e00900014
:102714008000eb00010878000080fa000000060049
:102724000800fa00000f780021479800220798005b
:1027340033079800008220002000900061006000b0
:102744000000e0000a003a00ae0190002e41900023
:102754009e007800604e2100460007003e01900074
:10276400614e210010c0b3000600070003003700cb
:102774003e0090008000eb00010878000080fa0021
:10278400000006000600fa00004f780011079800c8
:102794002207980000822000200090006100600061
:1027a4000000e0002e003a002e00900011002000ee
:1027b4000108780000822000100078009e0090003c
:1027c4001100980000822000100078001e48780054
:1027d4000082200010007800ae00900021009800d4
:1027e4000082200010007800e600400000822000f3
:1027f400010878000082200090007800604e2100db
:10280400808f500003003a0000822000014e210016
:102814000108780000822000a00090000110a100af
:102824002100980000822000900090000082200087
:1028340010007800808f500004003a0000822000cd
:10284400a00090000100a0002100980040418000f9
:102854000000e00005003a008a20a80003003700c9
:102864002e0090008000eb00010878000080fa0040
:10287400000006000800fa00000f78001107980015
:1028840042479800330798003e0090000000400043
:10289400800078001e007800010878001e0078008f
:1028a40010007800800078000100a0001e0078006d
:1028b400010878001e007800ce4090002140980066
:1028c4001e0078009e009000210098000080fa000d
:1028d400000006000800fa00000f780011079800b5
:1028e40042479800330798003e00900000004000e3
:1028f400800078001e007800010878001e0078002f
:10290400ce409000214098001e0078009e00900068
:10291400210098000080fa00000006000000fa0080
:1029240000822000200090006200600000f0a700f8
:102934000000ea000000ea004f00de0000407800da
:102944000080fa00000006000000fa000082200067
:10295400200090006100600000f0a7000000ea0081
:102964000000ea004f00de00004078000080fa001a
:10297400000006001e00fa00300f9800410f980076
:10298400520f9800630f9800100020002007980051
:102994004e0890004800de00004078002057980060
:1029a4004e0890000040780030579800f20047002d
:1029b40066004700be09900022c0b300c5ff0700af
:1029c4006e08900080407800660047006600400072
:1029d400be09900001417800de089000a5ff0700c1
:1029e4000000eb00000f78000000eb0010079800d7
:1029f40020003700e400470066004700010178002a
:102a04008000780020c0b3005eff07000c00370090
:102a140000d4200031002000360307009e009000ff
:102a240020032000808f500002003a002e00900006
:102a3400160037001e0090000000e8001007980000
:102a44002e009000e10f5000f1ff32002e009000a4
:102a5400e20f50000b003200400620009e00780078
:102a6400808f500002003a002e00900007003700cb
:102a74001e0fe8002e0090000000e000ddff3a0089
:102a840001003700000000002e0090000080fa00d2
:102a9400000006001400fa0060079800710798000f
:102aa400020f9800130f98001000200050079800a0
:102ab4000000eb00000f78003f0037007e0090001c
:102ac4004800de0000407800604798007e009000d7
:102ad40000407800704798000e089000104078007d
:102ae400004f98000e0890000000e800000f9800c6
:102af4000000eb00100798000000eb00200798008e
:102b040021003700ea004700660047008101780091
:102b14006e01900031c0b300e8fe070007003700e3
:102b2400ae00900020032000808f50000700320088
:102b34002e0090000000e800200798005e0090003e
:102b4400e10f5000f6ff32000100370000000000e2
:102b5400ae00900020032000808f50000f00320050
:102b64005e009000e20f50000c0032009e009000c6
:102b740040062000808f5000070032001e009000a5
:102b84000000e800100798005e0090000000e000dc
:102b9400dcff3a0001003700000000005e009000f6
:102ba4000000e000090032007e0090000000e80010
:102bb400700798001e0fe8001e0890009e00780021
:102bc400808f5000bdff3900010037000000000075
:102bd4005e0090000080fa00000006001e00fa006b
:102be400400f9800510f9800620f980000c2b30084
:102bf4004047980010002000300798005e089000bd
:102c04004800de0000407800405798005e089000bd
:102c14000040780050579800f400470068004700cf
:102c2400ce09900022c0b3002aff070068004700c5
:102c340066004000ce0990004e419000ee089000de
:102c440024ff07000000eb00000f78000000eb00f9
:102c54001007980020003700e6004700680047008e
:102c6400010178008000780020c0b300c5fe070091
:102c74000c00370000d42000310020009d02070022
:102c84009e00900020032000808f500002003a0034
:102c94003e009000160037001e0090000000e8007f
:102ca400100798003e009000e10f5000f1ff320041
:102cb4003e009000e20f50000b003200400620005e
:102cc4009e007800808f500002003a003e00900081
:102cd400070037001e0fe8003e0090000000e000ef
:102ce400ddff3a0001003700000000003e009000c4
:102cf4000080fa00000006000000fa000001200035
:102d0400b01f8800f823ef00fc23ef001000200020
:102d1400202088000824ef000a24ef000c24ef0090
:102d24000e24ef0010822800a01f88000080fa0003
:102d3400000006000400fa00000f78001107980054
:102d440000000000e01f8000620060000000e0005e
:102d5400fcff3a001e007800100078000020880074
:102d64001e0078000080e800100078001020880021
:102d740000000000e11f80000002200000806000cd
:102d84000000e000fbff3a001e00900001208000dc
:102d9400010878001e0090000080e80011208000e7
:102da400010878000080fa00000006001a00fa000a
:102db400200f9800310f9800420f98000000eb009c
:102dc400000f78000000eb00100798000000eb00f3
:102dd400700798006000b800000f9800110f980069
:102de40040002000600798003e0890004200de008a
:102df400300f98002e0890000000e00005003a0013
:102e04000000eb005007980070004700200798006e
:102e140004003700ee00900051079800ae089000bf
:102e2400210798004e0890000000e00005003a00d9
:102e34000000eb00400798006e0047003007980040
:102e440005003700ee00900041079800ce0890007e
:102e54003107980000000000e01f8000620060005d
:102e64000000e000fcff3a0023003700e01f800070
:102e7400620060000000e0000c003a002e009000a8
:102e840010007800002088002e0090000080e800e8
:102e94001000780010208800ae0090005e009000c2
:102ea40000804000200798001e0fe800e11f80000a
:102eb40000022000008060000000e0000e003a00e4
:102ec4003e00900001208000010878003e00900040
:102ed4000080e8001120800001087800be00900006
:102ee4004e00900000804000300798001e009000c3
:102ef4000000e800100798003e0890009e0078004b
:102f0400808f5000d9ff390013003700e11f800083
:102f140000022000008060000000e0000e003a0083
:102f24003e00900001208000010878003e009000df
:102f34000080e8001120800001087800be009000a5
:102f44004e00900000804000300798001e00900062
:102f54000000e800100798009e0090003e089000d2
:102f6400808f5000e9ff39001e0078000080fa00cd
:102f7400000006000800fa002007980031079800b6
:102f84008e007800640047006aff07001e00be0040
:102f94000080fa00000006000600fa00000f780026
:102fa4001107980022079800ae0090001e007800d8
:102fb400010178009e0090007cff07000080fa0069
:102fc400000006000000fa00a11f8000008020001d
:102fd400008060000000e0000200320020002000b9
:102fe40008003700a11f800000402000008060001e
:102ff4000000e00002003200100020000100370051
:103004000000eb000080fa00000006000000fa0057
:10301400e01f80000080fa00000006000000fa00b3
:103024009a21ef0060002000f00c88009621ef0048
:10303400f0a72100e00c880080002800000d880023
:10304400b04280000000e00002003a00608a2100e3
:10305400400007008900a9009900a800604f2100e2
:103064008040eb00014878000080fa000000060070
:103074000400fa00008fbe001e007800e00c8800f7
:103084001e00be004008de0000007800f00c88003e
:103094000080fa00000006000400fa000080eb0043
:1030a4008080eb00008fbe00f00c80008000eb00fd
:1030b400c001dd0002002000e00c80008000eb0075
:1030c400001f7100019771001e00be000080fa000d
:1030d400000006000400fa00008fbe001e00be00bf
:1030e4004008de0000007800c00c88001e00780054
:1030f400b00c88000080fa00000006000800fa0006
:103104000080eb008080eb00008fbe00b10c8000db
:1031140021079800c10c8000310798003e00900000
:103124008000eb00c001dd00020020002e009000b2
:103134008000eb00001f7100019771001e00be00ab
:103144000080fa00000006000000fa000080fa0087
:10315400000006000200fa00000f78009900a900a0
:103164009e007800b14288009900a8000080fa000f
:10317400000006000000fa00604f21008040eb00d0
:10318400014878009900a800a1e1a8000080fa0095
:10319400000006000000fa00a1e1a9009900a900be
:1031a4000080fa00000006000200fa00604f2100cf
:1031b400104f78001e4078000004e0000300320045
:1031c400604f21008040eb00014878001e407800e9
:1031d4000080fa00000006000000fa00704f210091
:1031e400104078000080fb000080fa000000060018
:1031f4000000fa00704f21008040eb000148780085
:103204000080fa00000006000200fa00000f7800b7
:103214001e00780010007800000001001e007800f5
:10322400200090009e00780091009000110098000a
:103234001e007800100090009e007800a10090000d
:10324400210098001e00780090009000010f780083
:10325400efff37000200fa00000f78001e0078002c
:103264009e007800210098001e0078009e007800df
:10327400110098000080fa00000006000400fa0023
:10328400100798008000200041f70700000f780025
:103294001e0078008000eb00110098001e007800ea
:1032a4008000eb00210098001e0078009e00900032
:1032b400010878001e0078000080fa000000060073
:1032c4000800fa002007980031079800ae0090002b
:1032d4003e009000808f500022003200ae0090002b
:1032e400010f78000040eb002047980009003700e8
:1032f4001e00780090009000010f78003e009000be
:103304009e0f500003003a0010c0b30020479800fd
:10331400070037001e00780010009000a000900005
:103324001e00780010009000808f5000f0ff3a00db
:103334002e4090000004e0000b003a001e007800cc
:10334400be009000110098003e0090009e0078009e
:10335400210098003e009000ae00900011009800fb
:1033640001003700000000000080fa0000000600a1
:103374000000fa006626ef0000402900d0338800e0
:103384006226ef0070a62400b03388007426ef0094
:103394008826ef007226ef000000240030348800f5
:1033a4006826ef007c26ef006a26ef007e26ef00f9
:1033b40001088000f00b2000008160006004200000
:1033c40071052000031020008049780081497800ad
:1033d40082497800113f8000f00f2800808060004f
:1033e4000050200001007000103f8800013f800061
:1033f40000f82f00008060003000b300003f880018
:10340400b13d800000fc2f0000806000e000b300ac
:10341400b03d8800e13e800000f82f00008060008d
:103424000030a000e03e8800013f8000f00f28003b
:10343400808060000060200001007000003f880070
:10344400b13e8000f00f28008080600000702000f2
:1034540001007000b03e8800f13e800000f82f00ab
:10346400008060009000b300f03e8800b13d800011
:10347400f00f2c00008060000090a000b03d880098
:10348400c13d800000fc2f00008060009000b3006c
:10349400c03d8800a13d800000fc2f00008060003a
:1034a400b000b300a03d880000088000000178004f
:1034b4000260a000600420007105200003102000b9
:1034c4008049780081497800824978000080fa00b8
:1034d400000006000000fa0041068000f08f2f0073
:1034e400008060000080a00040068800b1058000d4
:1034f400f0ff28000080600000c0a000b005880034
:10350400b1058000f08f2f00008060000080a000d3
:10351400b005880041068000f0f82f0000806000ac
:103524000040a000400688007105800080ff2f0045
:10353400008060000000a000700588006105800024
:10354400f0ff28000080600000c0a0006005880033
:1035540081058000f0f82f00008060000040a0008a
:10356400800588008105800080ff2f0000806000b6
:103574000000a0008005880051058000f0ff2800ad
:103584000080600000c0a000500588006105800034
:1035940080ff2f00008060000000a000600588000c
:0835a4000080fa00000006009f
:020000040000fa
:1035ac009c14000020000000800000005408000063
:1035bc000200000082000000ffff0000f614000073
:1035cc00020000008000000056080000020000000d
:1035dc0080000000bc1400001200000080000000fd
:1035ec00380800000e00000080000000ce1400001f
:1035fc001200000080000000460800000e000000d1
:10360c0080000000e01400001200000080000000a8
:10361c00200800001800000080000000580800007e
:10362c00440c000080000000000800002000000096
:10363c0080000000f814000002000000820000006e
:10364c0004000000f21400000400000080000000e0
:10365c00fa140000020000008000000000000000ce
:020000040000fa
:10366c000000fa0000002300100888000621ef007b
:10367c006821ef006a21ef000821ef0000702000a4
:10368c00500888000c21ef000e21ef007821ef008c
:10369c007a21ef007c21ef007e21ef008021ef00ea
:1036ac008221ef008421ef008621ef000001eb0066
:1036bc0080072000a1092000131020008049780009
:1036cc0081497800824978000001eb0060042000f9
:1036dc007105200003102000804978008149780092
:0c36ec00824978000080fa00000006000f
:020000040000fa
:1036f800f03fb1000180b10006003500ee0309007b
:1037080000000000403fb1000180b100fbff3d0018
:103718001000b000203fb000020035000080090012
:08372800000000000000060093
:020000040000fa
:103730000200fa00000f78009e007800a142880085
:10374000ffff37000000fa00c04921008007780021
:10375000404b2100000188000080fa0000000600b4
:103760000000fa0003ff0700c0ff07005aff070030
:1037700081f8070061fd070091fb070007fa0700c9
:1037800027fe07000080fa00000006000000fa0093
:10379000f3ff07002cf807009cfe07001000200034
:0837a0000080fa0000000600a1
:020000040000fa
:020000040005f5
:045e0000ffff0000a0
:020000040000fa
:020000040005f5
:045e2000ffffff0081
:020000040000fa
:020000040005f5
:045e300060ffff0010
:020000040000fa
:020000040005f5
:045e380063ffff0005
:020000040000fa
:020000040005f5
:045e40009fffff00c1
:020000040000fa
:020000040005f5
:045e4800ffffff0059
:020000040000fa
:020000040005f5
:045e5000dfffff0071
:020000040000fa
:020000040005f5
:045e5800efffff0059
:00000001FF
