:020000040000fa
:080000000001040000000000f3
:020000040000fa
:040008003c020000b6
:020000040000fa
:04000c007e02000070
:020000040000fa
:04001000be0200002c
:020000040000fa
:040014005c0200008a
:020000040000fa
:040018009e02000044
:020000040000fa
:04001c0014070000c5
:020000040000fa
:0400200014070000c1
:020000040000fa
:0400240014070000bd
:020000040000fa
:0400280014070000b9
:020000040000fa
:04002c0014070000b5
:020000040000fa
:0400300014070000b1
:020000040000fa
:0400340014070000ad
:020000040000fa
:0400380014070000a9
:020000040000fa
:04003c0014070000a5
:020000040000fa
:0400400014070000a1
:020000040000fa
:04004400de020000d8
:020000040000fa
:040048001407000099
:020000040000fa
:04004c001407000095
:020000040000fa
:040050001407000091
:020000040000fa
:04005400480400005c
:020000040000fa
:04005800ec030000b5
:020000040000fa
:04005c001407000085
:020000040000fa
:040060001407000081
:020000040000fa
:04006400140700007d
:020000040000fa
:040068001407000079
:020000040000fa
:04006c00c4040000c8
:020000040000fa
:040070001407000071
:020000040000fa
:04007400140700006d
:020000040000fa
:040078001407000069
:020000040000fa
:04007c001407000065
:020000040000fa
:040080001407000061
:020000040000fa
:04008400140700005d
:020000040000fa
:040088001407000059
:020000040000fa
:04008c001407000055
:020000040000fa
:040090001407000051
:020000040000fa
:04009400140700004d
:020000040000fa
:040098001407000049
:020000040000fa
:04009c001407000045
:020000040000fa
:0400a00070030000e9
:020000040000fa
:0400a4001403000041
:020000040000fa
:0400a8001407000039
:020000040000fa
:0400ac001407000035
:020000040000fa
:0400b0001407000031
:020000040000fa
:0400b400140700002d
:020000040000fa
:0400b8001407000029
:020000040000fa
:0400bc001407000025
:020000040000fa
:0400c0001407000021
:020000040000fa
:0400c400140700001d
:020000040000fa
:0400c8001407000019
:020000040000fa
:0400cc001407000015
:020000040000fa
:0400d0001407000011
:020000040000fa
:0400d400140700000d
:020000040000fa
:0400d8001407000009
:020000040000fa
:0400dc001407000005
:020000040000fa
:0400e0001407000001
:020000040000fa
:0400e40014070000fd
:020000040000fa
:0400e80014070000f9
:020000040000fa
:0400ec0014070000f5
:020000040000fa
:0400f00014070000f1
:020000040000fa
:0400f40014070000ed
:020000040000fa
:0400f80014070000e9
:020000040000fa
:0400fc0014070000e5
:020000040000fa
:0401000014070000e0
:020000040000fa
:0401040014070000dc
:020000040000fa
:0401080014070000d8
:020000040000fa
:04010c0014070000d4
:020000040000fa
:0401100014070000d0
:020000040000fa
:0401140014070000cc
:020000040000fa
:0401180014070000c8
:020000040000fa
:04011c0014070000c4
:020000040000fa
:0401200014070000c0
:020000040000fa
:0401240014070000bc
:020000040000fa
:0401280014070000b8
:020000040000fa
:04012c00ae0400001d
:020000040000fa
:04013000d6030000f2
:020000040000fa
:0401340014070000ac
:020000040000fa
:0401380014070000a8
:020000040000fa
:04013c0014070000a4
:020000040000fa
:0401400014070000a0
:020000040000fa
:04014400140700009c
:020000040000fa
:040148001407000098
:020000040000fa
:04014c001407000094
:020000040000fa
:040150001407000090
:020000040000fa
:04015400140700008c
:020000040000fa
:040158001407000088
:020000040000fa
:04015c001407000084
:020000040000fa
:040160001407000080
:020000040000fa
:04016400140700007c
:020000040000fa
:040168001407000078
:020000040000fa
:04016c001407000074
:020000040000fa
:040170001407000070
:020000040000fa
:04017400140700006c
:020000040000fa
:040178001407000068
:020000040000fa
:04017c001407000064
:020000040000fa
:040180001407000060
:020000040000fa
:04018400140700005c
:020000040000fa
:040188001407000058
:020000040000fa
:04018c001407000054
:020000040000fa
:040190001407000050
:020000040000fa
:04019400140700004c
:020000040000fa
:040198001407000048
:020000040000fa
:04019c001407000044
:020000040000fa
:0401a0001407000040
:020000040000fa
:0401a400140700003c
:020000040000fa
:0401a8001407000038
:020000040000fa
:0401ac001407000034
:020000040000fa
:0401b0001407000030
:020000040000fa
:0401b400140700002c
:020000040000fa
:0401b8001407000028
:020000040000fa
:0401bc001407000024
:020000040000fa
:0401c0001407000020
:020000040000fa
:0401c400140700001c
:020000040000fa
:0401c8001407000018
:020000040000fa
:0401cc001407000014
:020000040000fa
:0401d0001407000010
:020000040000fa
:0401d400140700000c
:020000040000fa
:0401d8001407000008
:020000040000fa
:0401dc001407000004
:020000040000fa
:0401e0001407000000
:020000040000fa
:0401e40014070000fc
:020000040000fa
:0401e80014070000f8
:020000040000fa
:0401ec0014070000f4
:020000040000fa
:0401f00014070000f0
:020000040000fa
:0401f40014070000ec
:020000040000fa
:0401f80014070000e8
:020000040000fa
:0401fc0014070000e4
:020000040000fa
:10020000cf9320000e7f24000e0188000000000024
:10021000000020000000e000020032000001200089
:100220002002880014000700220307000000e000fd
:1002300003003a00a0502100010020000200370016
:100240000000200001002000810f7000010032003a
:1002500014000700000020000000e000020032004f
:100260000000020000000000aa15020000000000cb
:100270000040da000000fe004440a90020002000f9
:100280000000e00003003200100020009001880010
:100290004440a800000006008a1f78008b1f7800e9
:1002a00000000600a1028800800478000000eb0036
:1002b0001f003700e284440054a0b4009905ba003e
:1002c000e284440054a0b4009906ba00e2844400d9
:1002d00054a0b4000006eb00476fde00fd07b2003b
:1002e000ae018800636ce10003003a00eaff0700fa
:1002f0000000eb000e003700606ce10008003a00df
:10030000004deb000a05e800020039003420ec0043
:100310000af0a0008b05e900f9ff3e000400370059
:100320006168e100010032000086eb000b0007006d
:1003300019c7ba001905ba000e04e00003003a001c
:100340000a00e000dbff3a0000000600fe07b200f2
:10035000ae0288008a047800f5ff37000cd0a300b5
:10036000e20f4d001c00390089027800354dba00bb
:100370000a05e800020039003420ec000af0a00071
:100380008b05e9000f003200254dba000a05e80090
:10039000020039003420ec000af0a0008b05e900cf
:1003a000080032000c00e0000600320015cdba0053
:1003b0000a05e800020039003420ec000af0a00031
:1003c0008b05e9008984e80054a0b4000b00e0002c
:1003d000e2ff3a00000006009902ba00055d7800cd
:1003e0008b05e900f7ff3200c82ade00055d7800c2
:1003f0008b05e900f3ff32000c00e000f1ff320052
:1004000019ddba00eeff37000213040000000000ff
:10041000dc08040000000000fa08040000000000ee
:10042000ee0b0400000000000c0c040000000000b3
:1004300062130400000000006813040000000000c4
:100440006e130400000000007a1304000000000096
:100450008013040000000000861304000000000068
:100460008c13040000000000c4130400000000000e
:10047000d0130400000000003600f800809fbe008a
:10048000829fbe00849fbe00869fbe000000fa00cf
:100490008020a9000000eb00c10907000080fa00dd
:1004a0004f03be004f02be004f01be004f00be0012
:1004b0003600f900004006003600f800809fbe00bc
:1004c000829fbe00849fbe00869fbe000000fa008f
:1004d000b80907008040a90010002000b0090700fb
:1004e0000080fa004f03be004f02be004f01be0065
:1004f0004f00be003600f900004006003600f8004c
:10050000809fbe00829fbe00849fbe00869fbe006b
:100510000000fa008060a90020002000a009070068
:100520000080fa004f03be004f02be004f01be0024
:100530004f00be003600f900004006003600f8000b
:10054000809fbe00829fbe00849fbe00869fbe002b
:100550000000fa008080a900300020009009070008
:100560000080fa004f03be004f02be004f01be00e4
:100570004f00be003600f900004006003600f800cb
:10058000809fbe00829fbe00849fbe00869fbe00eb
:100590000000fa008600a900700020008009070012
:1005a0000080fa004f03be004f02be004f01be00a4
:1005b0004f00be003600f900004006003600f8008b
:1005c000809fbe00829fbe00849fbe00869fbe00ab
:1005d0000000fa00204280000000e000020032002b
:1005e0002042800000000100108a200010407800a6
:1005f0008040e800108a200001487800008a20002e
:1006000011c0b3000148780088e0a9000080fa001a
:100610004f03be004f02be004f01be004f00be00a0
:100620003600f900004006003600f800809fbe004a
:10063000829fbe00849fbe00869fbe000000fa001d
:100640001041800000000100f1408000e040800087
:10065000808f500002003a009be0a900190037008b
:100660008be0a90010003700f04080009040780037
:100670008180fb00911d88000000e800f0408800a8
:10068000f1408000f0862000808f500002003a0088
:1006900060862000f0408800f1408000e04080004b
:1006a000808f500006003200811d80000020200055
:1006b000008060000000e000ebff32000100370026
:1006c000000000000080fa004f03be004f02be0091
:1006d0004f01be004f00be003600f900004006008a
:1006e0003600f800809fbe00829fbe00849fbe003f
:1006f000869fbe000000fa0020418000000001003b
:100700008bc0a9001e003700c0408000a11d8000e2
:100710008140780001487800c14080007087200047
:10072000808f500009003200c04080008000e80047
:10073000d0408000808f500004003200c040800014
:100740000000e800c04088000d003700c140800074
:1007500070872000808f500007003a00d140800051
:10076000f0862000808f500003003200f0862000c9
:10077000c04088000200370010c0b30020e8b70076
:10078000801d8000610060000000e000deff3a0094
:100790000080fa004f03be004f02be004f01be00b2
:1007a0004f00be003600f90000400600801f7800b0
:1007b0000000fa00801d8000620060000000e00080
:1007c00001003200b023a9009040a9000080fa0087
:1007d0004f007800004006003600f800809fbe0001
:1007e000829fbe00849fbe00869fbe000000fa006c
:1007f0008041800000000100614180005041800084
:10080000808f500002003a009980a900190037003b
:100810008980a90010003700604180009040780076
:100820008180fb00e11c88000000e8006041880036
:100830006141800010882000808f500002003a0043
:100840008087200060418800614180005041800025
:10085000808f500006003200d11c80000020200054
:10086000008060000000e000ebff32000100370074
:10087000000000000080fa004f03be004f02be00df
:100880004f01be004f00be003600f90000400600d8
:100890003600f800809fbe00829fbe00849fbe008d
:1008a000869fbe000000fa00904180000000010019
:1008b0008960a9001e00370030418000f11c8000d3
:1008c0008140780001487800314180009088200004
:1008d000808f500009003200304180008000e80025
:1008e00040418000808f5000040032003041800081
:1008f0000000e800304188000d00370031418000e1
:1009000090882000808f500007003a00414180000d
:1009100010882000808f50000300320010882000d3
:10092000304188000200370010c0b3002ee8b70045
:10093000d01c8000610060000000e000deff3a0093
:100940000080fa004f03be004f02be004f01be0000
:100950004f00be003600f90000400600801f7800fe
:100960000000fa00d01c8000620060000000e0007f
:10097000010032009a23a9009020a9000080fa000b
:100980004f007800004006003600f800809fbe004f
:10099000829fbe00849fbe00869fbe000000fa00ba
:1009a0008a20a900f1248000000820000080600057
:1009b0000000e000080032009ee4a9000828ef00d3
:1009c00070408000200090008000eb00010878005b
:1009d0000e28ef000d013700404080008000eb0042
:1009e000b200200003002000820f5000838f5800c7
:1009f000fc003e00006001000b00370039003700aa
:100a0000750037009c003700f3003700c80037003e
:100a1000d9003700f0003700db003700f100370065
:100a20003400370050003700008020002000900084
:100a3000620060000000e000f3003a000080200047
:100a4000100090007040880000802000100090008e
:100a5000104078000ae8b7000080200010009000e5
:100a6000100090006040880000802000100090007e
:100a7000e600400000802000110098000080200067
:100a80009000900000892000808f500003003a0001
:100a900000802000a1882000110098000080200024
:100aa000a00090000100a10021009800008020001b
:100ab000900090000080200010007800808f50008f
:100ac00004003a0000802000a00090000110a00067
:100ad000210098009a04a8002000200040408800cf
:100ae000ca0037009a24a800200020004040880057
:100af000c6003700f124800000002800008060005c
:100b00000000e000080032000080200060409000fb
:100b10008040e800008020006140980040002000f4
:100b2000c3040700b9003700804080008000d10076
:100b3000f00f200000806000b0248800804080001a
:100b400061006000004078000004e0000300320013
:100b5000b000200040408800ac003700300020008a
:100b600040408800a9003700f124800000002800e0
:100b7000008060000000e0000800320000802000db
:100b8000604090008040e8000080200061409800b4
:100b900040002000a60407009c0037009a24a8000b
:100ba000804080004800de00e6006000000f20006a
:100bb0000100700080408800804080000000a0009c
:100bc0008040880010c0b30012e8b7002000200069
:100bd000404088008d00370012c8bf00e14f500030
:100be0000a003200604080001000780080408800d9
:100bf0006040800020009000a0408800604080009d
:100c00002040900016e8b700010037001268ef009e
:100c100081408000f00f2000808f500009003600d6
:100c2000804080004800de00e6006000000f2000e9
:100c300001007000b0248800a0002000404088001f
:100c40007200370080408000b0248800804080001f
:100c500061006000004078000004e0000300320002
:100c6000500020004040880068003700300020001d
:100c70004040880065003700f12480000000280013
:100c8000008060000000e0000900320000802000c9
:100c9000604090008040e8000080200061409800a3
:100ca0009fe4a900500020006104070057003700ae
:100cb00016c8bf008080fb008100e900cf08de007d
:100cc000814078000040e90016e8b7000104e00028
:100cd00010003200604080006600400060408800e4
:100ce0000ac8bf000040e9000ae8b7000ac8bf0010
:100cf0000004e00003003a00200020004c0407003c
:100d0000420037009a24a8002000200040408800bc
:100d10003e003700a0408000904078008180fb00ba
:100d2000b12488000000e800a040880037003700a8
:100d3000f124800000002800008060000000e00036
:100d40000900320000802000604090008040e800f0
:100d5000008020006140980040002000340407001b
:100d60009fe4a900290037009a64a80080002000b1
:100d70004040880025003700800020004040880067
:100d80009a64a80021003700a0408000a1248000c0
:100d900081407800014878000000e800a040880009
:100da00016c8bf000040e90016e8b70016c8bf002b
:100db0000004e000040032009aa4a90060002000b2
:100dc00040408800020037009aa4a80007040700ea
:100dd0009a84a8000d0037002000200014040700aa
:100de0000a00370000802000604090008040e8004a
:100df0000080200061409800600020000c04070083
:100e00000000000001003700000000000080fa0030
:100e10004f03be004f02be004f01be004f00be0098
:100e20003600f900004006000040da000000fe0035
:100e3000889fbe0080047800204580000000e0000c
:100e400004003a000e0007000084eb000000e00000
:100e500008003500284580000900e0000500320048
:100e600009004400060007000000e00001003d000a
:100e70000084eb00080078004f04be00000006006c
:100e8000800078000100e00003003a00608a200042
:100e900020458800000005000080eb00c293200080
:100ea000828f500002003e00214588000000eb00c8
:100eb0000000060000000500889fbe0000047800c6
:100ec000e14480000100e0000200320001007800ef
:100ed0000d003700f1448000e08920000400370055
:100ee000910f5400250036000180e8009100900029
:100ef0000100e000faff3a0010003700920f5400a2
:100f00001e0036000280e800100178000200e000b8
:100f1000faff3a0011017800f1448000e0892000d6
:100f200004003700910f5400140036000180e800df
:100f300091009000828f5000faff3a00194580001e
:100f4000888f54000100310088047800090078007f
:100f5000360007000000e00004003a00888f5400cb
:100f6000050032008904d100f5ff37000918780028
:100f700038000700d2ff37000000eb004f04be002e
:100f800000000600881f7800630440000800a100ec
:100f90008000eb00800f540021003600e30f540066
:100fa00001003e004800200008007800c2ff070052
:100fb0008000eb000000e000190032009000780093
:100fc0009101780064815100880f510003003100c5
:100fd00011019000020878000700370008814000e6
:100fe0000208780091019000130198001001780028
:100ff0001109140088087800100178000000eb0047
:101000000200e00004003200920190000300e000c2
:10101000010032000280e800e04488008180e8009e
:10102000010078004f04780000000600800078007e
:101030000000eb000100e000050034000100780032
:101040007bff0700e10f400001003a000000eb00c9
:10105000000006000000e0002f003200c001780010
:10106000e38f51002c0036000308a3002a003a0049
:10107000f14480000100e00002003200810f5000c6
:101080000400310011009800f04488001600370079
:1010900082007800110190000200e000020032009e
:1010a000800f5100faff390011027800848240005d
:1010b000850f500018003900808f520003003a005d
:1010c0008308420001007800070037000200e000ba
:1010d0000300320083014000830f51000e003900ed
:1010e0001200980090009800900090000100e0002d
:1010f0000900320010014000828f500006003a00c3
:10110000c28920000009eb0010017800110841009d
:0c11100091009000110098000000060003
:020000040000fa
:10111c000000fa009be0a9009bc0a9008000200001
:10112c00701d8800b023ef0070062000b01d8800f1
:10113c00b823ef0060862000f04088006086200015
:10114c00e0408800f0862000d0408800f086200027
:10115c00c04088002068ef00c08d20000700070009
:10116c00a08f2000140007009bc0a800afe3a800cc
:10117c00b143a8000080fa00000006000200fa004b
:10118c00000f78001e0078000000e00003003a0019
:10119c00c08d200010418800020037009e007800ae
:1011ac00114188000080fa00000006000000fa00df
:1011bc000080fa00000006000200fa00000f780020
:1011cc001e0078000000e00003003a00a08f200011
:1011dc0020418800020037009e00780021418800e1
:1011ec000080fa00000006000000fa000080fa00ff
:1011fc00000006000200fa000040eb00004f7800ef
:10120c0000000000d1408000c0408000808f500062
:10121c00fcff3200d0408000104f7800d04080009e
:10122c000000e800d0408800d1408000808720007a
:10123c00808f500002003a00f0862000d0408800d9
:10124c001e4078000080fa00000006000200fa0040
:10125c00004f7800000000001c0007000004a200f2
:10126c000004e000fcff3a00e04080001e487800db
:10127c00e04080000000e800e0408800e140800091
:10128c00f0862000808f500002003a00608620001b
:10129c00e04088009be0a8000080fa0000000600f7
:1012ac000000fa00d1408000c0408000008068003f
:1012bc0000f0a7000000ea000000ea004f00de008a
:1012cc00004078000080fa00000006000400fa00dc
:1012dc00f140800011079800e14080001e00900052
:1012ec00808f5000060031009e009000e04080008e
:1012fc00008050000000e900000f78000500370066
:10130c009e009000e040800000805000680040008b
:10131c00000f78001e00780000f0a7000000ea0023
:10132c000000ea004f00de00004078000080fa0068
:10133c00000006000000fa00e1408000f040800050
:10134c00808f500009003a00811d800000102000a1
:10135c000080600000f0a7000000ea000000ea0036
:10136c004f00de0000407800010037000040eb0029
:10137c000080fa00000006000400fa00c140800062
:10138c0011079800d04080009e009000808f500084
:10139c00060031009e009000d0408000008050007c
:1013ac0069004000000f7800040037009e00900098
:1013bc00d040800000805000000f7800f00f20001b
:1013cc009e007800808f50000200360000c0eb00b9
:1013dc00020037001e007800004078000080fa0000
:1013ec00000006000400fa00f1408000110798008c
:1013fc00e14080001e009000808f500006003100fc
:10140c009e009000e0408000008050000000e90049
:10141c00000f7800050037009e009000e04080002f
:10142c000080500068004000000f7800f00f200092
:10143c009e007800808f50000200360000c0eb0048
:10144c00020037001e007800004078000080fa008f
:10145c00000006000800fa002007980031079800e9
:10146c00c5ff07000080fb00000f78003e009000d5
:10147c009e0f500002003100be009000010f78005a
:10148c000000eb00100798000900370059ff070017
:10149c00ae009000804878002e0090000000e8001c
:1014ac00200798001e0090000000e800100798002c
:1014bc001e0090009e0f5000f4ff39001e007800b3
:1014cc000080fa00000006000800fa0020079800cf
:1014dc0031079800c3ff07000080fb00000f780065
:1014ec003e0090009e0f500002003100be009000a4
:1014fc00010f78000000eb0010079800090037007e
:10150c002e00900010407800ae0090008100e800a2
:10151c00210798004dff07001e0090000000e80016
:10152c00100798001e0090009e0f5000f4ff390029
:10153c001e0078000080fa00000006000400fa008b
:10154c000000eb00000f78008bff0700204798008d
:10155c00a4ff0700304798002e4090000080fb004d
:10156c000000e00003003200e90f500003003200dd
:10157c00040037001e20a000040037001e00a0004d
:10158c00020037001e10a000000000003e4090003a
:10159c000080fb000000e00003003200e90f500067
:1015ac0003003200040037001e30a0000200370098
:1015bc001e40a000000000001e0078000080fa0011
:1015cc00000006000400fa0010079800d1408000cb
:1015dc001e009000008f4000020037009e00780033
:1015ec00698f5000808720009e007800808f50000b
:1015fc00faff3e001e007800104078000080fa00d0
:10160c00000006000000fa005bff07000080fb00f2
:10161c000000e9004f00de00004078000080fa0076
:10162c00000006000000fa006eff07000080fb00bf
:10163c000000e9004f00de00004078000080fa0056
:10164c00000006000000fa00801d80000080fa00f7
:10165c00000006000000fa0062ff07000004e00032
:10166c0010003200f1408000e0408000808f50007c
:10167c0006003600f040800080007800e0408000da
:10168c00008050000000e90007003700f0408000a7
:10169c0080007800e040800000805000680040002e
:1016ac00010037000000eb000080fa00000006008b
:1016bc000000fa0030ff07000004e00010003200c8
:1016cc00d1408000c0408000808f50000600360062
:1016dc00d040800080007800c04080000080500026
:1016ec000000e90007003700d0408000800078003f
:1016fc00c0408000008050006800400001003700ae
:10170c000000eb000080fa00000006000000fa0068
:10171c00afe3a800b143a8000080fa000000060067
:10172c000000fa00afe3a900b143a9000080fa0061
:10173c00000006000000fa009980a9009960a90039
:10174c0080002000c01c88009a23ef007006200047
:10175c00001d8800a223ef008087200060418800d4
:10176c00808720005041880010882000404188006c
:10177c0010882000304188002e68ef00e0be200069
:10178c0007000700c0c02000140007009960a800e3
:10179c0099e3a8009b43a8000080fa000000060013
:1017ac000200fa00000f78001e0078000000e00034
:1017bc0003003a00e0be20008041880002003700a0
:1017cc009e007800814188000080fa00000006002d
:1017dc000000fa000080fa00000006000200fa0087
:1017ec00000f78001e0078000000e00003003a00b3
:1017fc00c0c0200090418800020037009e00780095
:10180c00914188000080fa00000006000000fa00f8
:10181c000080fa00000006000200fa000040eb0015
:10182c00004f7800000000004141800030418000f2
:10183c00808f5000fcff320040418000104f780038
:10184c00404180000000e800404188004141800098
:10185c00a0882000808f500002003a0010882000e1
:10186c00404188001e4078000080fa00000006000d
:10187c000200fa00004f7800000000001c00070076
:10188c000004a2000004e000fcff3a00504180007c
:10189c001e487800504180000000e800504188004c
:1018ac005141800010882000808f500002003a00c7
:1018bc0080872000504188009980a8000080fa00a1
:1018cc00000006000000fa00414180003041800019
:1018dc000080680000f0a7000000ea000000ea00a9
:1018ec004f00de00004078000080fa000000060087
:1018fc000400fa00614180001107980051418000fa
:10190c001e009000808f5000060031009e00900059
:10191c0050418000008050000000e900000f78006a
:10192c00050037009e009000504180000080500060
:10193c0068004000000f78001e00780000f0a7003f
:10194c000000ea000000ea004f00de0000407800d2
:10195c000080fa00000006000000fa0051418000ef
:10196c0060418000808f500009003a00d11c80003b
:10197c00001020000080600000f0a7000000ea00ca
:10198c000000ea004f00de00004078000100370044
:10199c000040eb000080fa00000006000400fa0092
:1019ac003141800011079800404180009e0090005a
:1019bc00808f5000060031009e0090004041800056
:1019cc000080500069004000000f780004003700d0
:1019dc009e0090004041800000805000000f780075
:1019ec00f00f20009e007800808f5000020036001f
:1019fc0000c0eb00020037001e00780000407800a9
:101a0c000080fa00000006000400fa00614180002a
:101a1c0011079800514180001e009000808f5000eb
:101a2c00060031009e009000504180000080500064
:101a3c000000e900000f7800050037009e009000c0
:101a4c00504180000080500068004000000f78007a
:101a5c00f00f20009e007800808f500002003600ae
:101a6c0000c0eb00020037001e0078000040780038
:101a7c000080fa00000006000800fa002007980019
:101a8c0031079800c5ff07000080fb00000f7800ad
:101a9c003e0090009e0f500002003100be009000ee
:101aac00010f78000000eb001007980009003700c8
:101abc0059ff0700ae009000804878002e0090007f
:101acc000000e800200798001e0090000000e800cd
:101adc00100798001e0090009e0f5000f4ff390074
:101aec001e0078000080fa00000006000800fa00d2
:101afc002007980031079800c3ff07000080fb0007
:101b0c00000f78003e0090009e0f50000200310044
:101b1c00be009000010f78000000eb001007980049
:101b2c00090037002e00900010407800ae009000a5
:101b3c008100e800210798004dff07001e0090006f
:101b4c000000e800100798001e0090009e0f500047
:101b5c00f4ff39001e0078000080fa000000060037
:101b6c000400fa000000eb00000f78008bff070068
:101b7c0020479800a4ff0700304798002e409000a3
:101b8c000080fb000000e00003003200e90f500071
:101b9c0003003200040037001e20a00004003700b0
:101bac001e00a000020037001e10a0000000000064
:101bbc003e4090000080fb000000e000030032007b
:101bcc00e90f500003003200040037001e30a00063
:101bdc00020037001e40a000000000001e0078002c
:101bec000080fa00000006000400fa0010079800bc
:101bfc00414180001e009000008f40000200370021
:101c0c009e007800698f5000a08820009e0078000c
:101c1c00808f5000faff3e001e00780010407800c4
:101c2c000080fa00000006000000fa005bff0700cd
:101c3c000080fb000000e9004f00de00004078004f
:101c4c000080fa00000006000000fa006eff07009a
:101c5c000080fb000000e9004f00de00004078002f
:101c6c000080fa00000006000000fa00d01c800082
:101c7c000080fa00000006000000fa0062ff070076
:101c8c000004e000100032006141800050418000ef
:101c9c00808f500006003600604180008000780084
:101cac0050418000008050000000e9000700370020
:101cbc00604180008000780050418000008050001e
:101ccc0068004000010037000000eb000080fa00c3
:101cdc00000006000000fa0030ff07000004e000de
:101cec00100032004141800030418000808f500054
:101cfc0006003600404180008000780030418000b2
:101d0c00008050000000e9000700370040418000cf
:101d1c008000780030418000008050006800400056
:101d2c00010037000000eb000080fa000000060004
:101d3c000000fa0099e3a8009b43a8000080fa0079
:101d4c00000006000000fa0099e3a9009b43a900db
:101d5c000080fa00000006000000fa00008020005d
:101d6c00a18820001100980000802000a18820008c
:101d7c000108780000802000a00090000110a00055
:101d8c002100980000802000a00090000100a1001c
:101d9c0021009800008020008040eb0061409800fa
:101dac0020012000c024880000002800d0248800d6
:101dbc009e24ef008a20a9009a20a8000080fa0037
:101dcc00000006000200fa0000802000e0409000b5
:101ddc00014f78001e4078000080fa0000000600d9
:101dec000000fa00604080006600400060408800ff
:101dfc000ac8bf000040e9000ae8b7000ac8bf00e3
:101e0c000004e00003003a0040002000404088003d
:101e1c000200370010002000404088000080fa00cb
:101e2c00000006000200fa00000f78009a44a80097
:101e3c0070408000200090000000e00003003200a1
:101e4c0070408000200090001e0878000828ef00e9
:101e5c000080fa00000006000800fa00000f78006d
:101e6c002147980022079800330798000080200033
:101e7c0020009000610060000000e0000a003a00c1
:101e8c00ae0190002e4190009e00780060892000e9
:101e9c00770007003e0190006189200010c0b3005c
:101eac001f000700030037003e0090008000eb008d
:101ebc00010878000080fa00000006000800fa0013
:101ecc00000f7800214798002207980033079800ec
:101edc000080200020009000610060000000e00005
:101eec000a003a00ae0190002e4190009e0078004e
:101efc0000892000460007003e0190000189200067
:101f0c0010c0b30006000700030037003e0090002d
:101f1c008000eb00010878000080fa000000060049
:101f2c000600fa00004f780011079800220798006d
:101f3c000080200020009000610060000000e000a4
:101f4c002e003a002e0090001100200001087800ad
:101f5c0000802000100078009e0090001100980076
:101f6c0000802000100078001e48780000802000bf
:101f7c0010007800ae009000210098000080200036
:101f8c0010007800e6004000008020000108780076
:101f9c00008020009000780000892000808f500085
:101fac0003003a0000802000a1882000010878007e
:101fbc0000802000a00090000110a10021009800da
:101fcc00008020009000900000802000100078001d
:101fdc00808f500004003a0000802000a000900088
:101fec000100a00021009800404080000000e000ab
:101ffc0005003a008a20a800030037002e0090004c
:10200c008000eb00010878000080fa000000060058
:10201c000800fa00000f780011079800424798005a
:10202c00330798003e0090000000400080007800cc
:10203c001e007800010878001e007800100078005f
:10204c00800078000100a0001e00780001087800d4
:10205c001e007800ce409000214098001e007800b1
:10206c009e009000210098000080fa0000000600fd
:10207c000800fa00000f78001107980042479800fa
:10208c00330798003e00900000004000800078006c
:10209c001e007800010878001e007800ce409000e9
:1020ac00214098001e0078009e00900021009800ae
:1020bc000080fa00000006000000fa0000802000fa
:1020cc00200090006200600000f0a7000000ea0011
:1020dc000000ea004f00de00004078000080fa00ab
:1020ec00000006000000fa00008020002000900094
:1020fc006100600000f0a7000000ea000000ea00a8
:10210c004f00de00004078000080fa00000006005e
:10211c000000fa00f623ef00f823ef00fc23ef0099
:10212c000424ef000824ef000a24ef000c24ef0035
:10213c000e24ef0010022800a01f88000080fa0077
:10214c00000006000400fa00000f78001107980048
:10215c0000000000e01f8000620060000000e00052
:10216c00fcff3a001e007800104078000080fb0055
:10217c000020880000000000e11f80000002200009
:10218c00008060000000e000fbff3a0000208000af
:10219c00804078001e009000014878000080fa0012
:1021ac00000006001800fa00100f9800210f98008c
:1021bc00320f98000000eb00000f78000000eb00dd
:1021cc00100798000000eb00700798000000eb006f
:1021dc00000f980010002000600798001e08900067
:1021ec000000e00005003a000000eb0050079800ea
:1021fc00700047002007980004003700ee009000a4
:10220c00510798009e089000210798003e08900006
:10221c000000e00005003a000000eb0040079800c9
:10222c006e0047003007980005003700ee00900064
:10223c0041079800be08900031079800000000008c
:10224c00e01f8000620060000000e000fcff3a002c
:10225c001d003700e01f8000620060000000e000fd
:10226c0009003a002e009000104078000080fb001e
:10227c0000208800ae0090005e00900000804000be
:10228c00200798001e0fe800e11f800000022000cc
:10229c00008060000000e0000b003a00002080008d
:1022ac00804078003e00900001487800be0090000d
:1022bc004e00900000804000300798001e009000f7
:1022cc000000e800100798002e0890009e0078008f
:1022dc00808f5000dfff390010003700e11f8000b5
:1022ec0000022000008060000000e0000b003a00bb
:1022fc0000208000804078003e009000014878006b
:10230c00be0090004e009000008040003007980006
:10231c001e0090000000e800100798009e0090003e
:10232c002e089000808f5000ecff39001e007800c2
:10233c000080fa00000006000400fa002047980014
:10234c000e80e8008e0078007eff07001e407800ab
:10235c000080fa00000006000600fa00000f78006a
:10236c0011079800220798002e0190009e00900003
:10237c001e0078008bff07000080fa0000000600aa
:10238c000000fa00a11f8000008020000080600087
:10239c000000e0000200320020002000080037009e
:1023ac00a11f800000402000008060000000e000c1
:1023bc000200320010002000010037000000eb008a
:1023cc000080fa00000006000000fa00e01f800008
:1023dc000080fa00000006000200fa00000f7800ee
:1023ec001e00780010007800000001001e0078002c
:1023fc00200090009e007800910090001100980041
:10240c001e007800100090009e007800a100900043
:10241c00210098001e00780090009000010f7800b9
:10242c00efff37000200fa00000f78001e00780062
:10243c009e007800210098001e0078009e00780015
:10244c00110098001e007800a102200031009800b5
:10245c000080fa00000006000400fa001007980043
:10246c0080002000c4fa0700000f78001e007800de
:10247c008000eb00110098001e0078008000eb003b
:10248c00210098001e0078009e0090000108780042
:10249c001e0078000080fa00000006000800fa0018
:1024ac002007980031079800ae0090003e00900085
:1024bc00808f500022003200ae009000010f780097
:1024cc000040eb0020479800090037001e00780000
:1024dc0090009000010f78003e0090009e0f50007d
:1024ec0003003a0010c0b3002047980007003700e3
:1024fc001e00780010009000a00090001e007800d4
:10250c0010009000808f5000f0ff3a002e40900099
:10251c000004e0000b003a001e007800be009000a2
:10252c00110098003e0090009e0078002100980059
:10253c003e009000ae0090001100980001003700a2
:10254c00000000000080fa00000006000000fa0005
:10255c009621ef009c21ef0000002800000d880060
:10256c00204280000000e00002003a0020302100f0
:10257c002400070088e0a90098e0a800008a200049
:10258c008040eb00014878000080fa000000060053
:10259c000200fa00000f78009e007800e10c880021
:1025ac00008a20008040eb00014878000080fa008f
:1025bc00000006000000fa00e00c80000080fa0029
:1025cc00000006000200fa00000f78009e00780060
:1025dc00b10c8800008a20008040eb000148780094
:1025ec000080fa00000006000000fa00b00c800029
:1025fc000080fa00000006000000fa000080fa00db
:10260c00000006000200fa00000f780098e0a90014
:10261c009e0078002142880098e0a8000080fa0013
:10262c00000006000000fa00008a20008040eb0049
:10263c000148780098e0a800a1e1a8000080fa0009
:10264c00000006000000fa00a1e1a90098e0a90032
:10265c000080fa00000006000200fa00008a200048
:10266c00104f78001e4078000004e0000300320098
:10267c00008a20008040eb00014878001e40780062
:10268c000080fa00000006000000fa00108a20000a
:10269c00104078000080fb000080fa00000006006b
:1026ac000000fa00108a20008040eb0001487800fe
:1026bc000080fa00000006000000fa000080fa001a
:1026cc00000006000000fa000080fa00000006007e
:1026dc000200fa0050fc0700004f780000000000d8
:1026ec000080fa00000006000000fa000080fa00ea
:1026fc00000006000000fa000080fa00000006004e
:10270c000000fa000080fa00000006000000fa0049
:10271c0040c8bf000004e00006003a00e141800020
:10272c00a04180005dff070010c0b30040e8b70077
:10273c0004003700f1418000a041800057ff0700e2
:10274c004068ef000080fa00000006000000fa006c
:10275c00e1418000a041800050ff07000080fa009a
:10276c00000006000000fa00f1418000a04180004a
:10277c004aff07000080fa00000006000000fa0083
:10278c00c1418000a041800044ff07000080fa0096
:10279c00000006000000fa00d1418000a04180003a
:1027ac003eff07000080fa00000006000000fa005f
:1027bc002036210028ff0700a04188008036210028
:1027cc0025ff0700b0418800e036210022ff0700fa
:1027dc00c0418800a03721001fff0700d0418800ae
:1027ec00003821001cff0700e04188006038210000
:1027fc0019ff0700f0418800a041800009ff070085
:10280c00c03821007fff0700403c2100f3fb07008c
:10281c00003d210068fa0700a04180000080fa000a
:10282c00000006000000fa006626ef007a26ef0092
:10283c00400120001033880030a62600b0338800f9
:10284c007426ef008826ef007226ef008626ef0034
:10285c006826ef007c26ef00c00020005033880073
:10286c0000002200f033880001088000f00b2000eb
:10287c00008160006004200071052000031020001e
:10288c00804978008149780082497800e13e8000d7
:10289c0000f82f00008060000030a000e03e8800af
:1028ac00f13e800000f82f00008060009000b30023
:1028bc00f03e8800c13d800000fc2f0000806000cd
:1028cc009000b300c03d8800113f8000f00f28003d
:1028dc00808060000050200001007000103f8800d4
:1028ec00a13d800000fc2f0000806000b000b30010
:1028fc00a03d8800013f800000f82f0000806000a0
:10290c003000b300003f8800b13d800000fc2f0078
:10291c0000806000e000b300b03d8800000880003b
:10292c00000178000260a000600420007105200006
:10293c000310200080497800814978008249780092
:10294c000080fa00000006000000fa00410680003a
:10295c00f08f2f00008060000080a00040068800ef
:10296c00b1058000f0ff28000080600000c0a000ce
:10297c00b0058800b1058000f08f2f00008060004a
:10298c000080a000b005880041068000f0f82f0000
:10299c00008060000040a0004006880071058000a7
:1029ac0080ff2f00008060000000a00070058800f0
:1029bc0061058000f0ff28000080600000c0a000ce
:1029cc006005880081058000f0f82f000080600011
:1029dc000040a000800588008105800080ff2f004a
:1029ec00008060000000a000800588005105800078
:1029fc00f0ff28000080600000c0a0005005880097
:082a0c000080fa000000060042
:020000040000fa
:102a1400460800002000000080000000420800007a
:102a24000200000082000000ffff0000a008000078
:102a340002000000800000004408000002000000c2
:102a44008000000066080000120000008000000002
:102a5400180800000e000000800000007808000044
:102a64001200000080000000260800000e00000094
:102a740080000000340800000e0000008000000008
:102a84008a08000012000000800000000008000016
:102a94001800000080000000a208000002000000ee
:102aa40082000000040000009c08000004000000f4
:102ab40080000000a4080000020000008000000064
:042ac400000000000e
:020000040000fa
:102ac8000000fa0000002300100888000621ef002b
:102ad8006821ef006a21ef000821ef000070200054
:102ae800500888000c21ef000e21ef007821ef003c
:102af8007a21ef007c21ef007e21ef008021ef009a
:102b08008221ef008421ef008621ef000001eb0015
:102b180080072000a10920001310200080497800b8
:102b280081497800824978000001eb0060042000a8
:102b38007105200003102000804978008149780041
:102b4800824978000080fa00000006000200fa00be
:102b58001d00070016ff0700000f78001e00780010
:102b68001efe0700d03380004200de006140600096
:102b78000004a200614060000080fb00610060006a
:102b88004200dd00d13380000120a1000100700067
:102b9800d0338800f3ff37000200fa00000f7800f6
:102ba8009e00780011428800ffff37000000fa00fd
:102bb8006084200080077800e085200000018800fc
:102bc8000080fa00000006000000fa0016ff070067
:102bd8005eff0700baff07004ef907004dfd07002a
:102be8005efc0700d4fa070059fe07000080fa00cf
:042bf80000000600d3
:020000040000fa
:020000040005f5
:045e0000ffff0000a0
:020000040000fa
:020000040005f5
:045e2000ffffff0081
:020000040000fa
:020000040005f5
:045e300078ffff00f8
:020000040000fa
:020000040005f5
:045e3800b3ffff00b5
:020000040000fa
:020000040005f5
:045e40009fffff00c1
:020000040000fa
:020000040005f5
:045e4800ffffff0059
:020000040000fa
:020000040005f5
:045e5000dfffff0071
:020000040000fa
:020000040005f5
:045e5800efffff0059
:00000001FF
