:020000040000fa
:080000000001040000000000f3
:020000040000fa
:0400080024020000ce
:020000040000fa
:04000c006602000088
:020000040000fa
:04001000a602000044
:020000040000fa
:0400140044020000a2
:020000040000fa
:04001800860200005c
:020000040000fa
:04001c00fc020000e2
:020000040000fa
:04002000fc020000de
:020000040000fa
:04002400fc020000da
:020000040000fa
:04002800fc020000d6
:020000040000fa
:04002c00fc020000d2
:020000040000fa
:04003000fc020000ce
:020000040000fa
:04003400fc020000ca
:020000040000fa
:04003800fc020000c6
:020000040000fa
:04003c00fc020000c2
:020000040000fa
:04004000fc020000be
:020000040000fa
:04004400c6020000f0
:020000040000fa
:04004800fc020000b6
:020000040000fa
:04004c00fc020000b2
:020000040000fa
:04005000fc020000ae
:020000040000fa
:04005400fc020000aa
:020000040000fa
:04005800fc020000a6
:020000040000fa
:04005c00fc020000a2
:020000040000fa
:04006000fc0200009e
:020000040000fa
:04006400fc0200009a
:020000040000fa
:04006800fc02000096
:020000040000fa
:04006c00fc02000092
:020000040000fa
:04007000fc0200008e
:020000040000fa
:04007400fc0200008a
:020000040000fa
:04007800fc02000086
:020000040000fa
:04007c00fc02000082
:020000040000fa
:04008000fc0200007e
:020000040000fa
:04008400fc0200007a
:020000040000fa
:04008800fc02000076
:020000040000fa
:04008c00fc02000072
:020000040000fa
:04009000fc0200006e
:020000040000fa
:04009400fc0200006a
:020000040000fa
:04009800fc02000066
:020000040000fa
:04009c00fc02000062
:020000040000fa
:0400a000fc0200005e
:020000040000fa
:0400a400fc0200005a
:020000040000fa
:0400a800fc02000056
:020000040000fa
:0400ac00fc02000052
:020000040000fa
:0400b000fc0200004e
:020000040000fa
:0400b400fc0200004a
:020000040000fa
:0400b800fc02000046
:020000040000fa
:0400bc00fc02000042
:020000040000fa
:0400c000fc0200003e
:020000040000fa
:0400c400fc0200003a
:020000040000fa
:0400c800fc02000036
:020000040000fa
:0400cc00fc02000032
:020000040000fa
:0400d000fc0200002e
:020000040000fa
:0400d400fc0200002a
:020000040000fa
:0400d800fc02000026
:020000040000fa
:0400dc00fc02000022
:020000040000fa
:0400e000fc0200001e
:020000040000fa
:0400e400fc0200001a
:020000040000fa
:0400e800fc02000016
:020000040000fa
:0400ec00fc02000012
:020000040000fa
:0400f000fc0200000e
:020000040000fa
:0400f400fc0200000a
:020000040000fa
:0400f800fc02000006
:020000040000fa
:0400fc00fc02000002
:020000040000fa
:04010000fc020000fd
:020000040000fa
:04010400fc020000f9
:020000040000fa
:04010800fc020000f5
:020000040000fa
:04010c00fc020000f1
:020000040000fa
:04011000fc020000ed
:020000040000fa
:04011400fc020000e9
:020000040000fa
:04011800fc020000e5
:020000040000fa
:04011c00fc020000e1
:020000040000fa
:04012000fc020000dd
:020000040000fa
:04012400fc020000d9
:020000040000fa
:04012800fc020000d5
:020000040000fa
:04012c00fc020000d1
:020000040000fa
:04013000fc020000cd
:020000040000fa
:04013400fc020000c9
:020000040000fa
:04013800fc020000c5
:020000040000fa
:04013c00fc020000c1
:020000040000fa
:04014000fc020000bd
:020000040000fa
:04014400fc020000b9
:020000040000fa
:04014800fc020000b5
:020000040000fa
:04014c00fc020000b1
:020000040000fa
:04015000fc020000ad
:020000040000fa
:04015400fc020000a9
:020000040000fa
:04015800fc020000a5
:020000040000fa
:04015c00fc020000a1
:020000040000fa
:04016000fc0200009d
:020000040000fa
:04016400fc02000099
:020000040000fa
:04016800fc02000095
:020000040000fa
:04016c00fc02000091
:020000040000fa
:04017000fc0200008d
:020000040000fa
:04017400fc02000089
:020000040000fa
:04017800fc02000085
:020000040000fa
:04017c00fc02000081
:020000040000fa
:04018000fc0200007d
:020000040000fa
:04018400fc02000079
:020000040000fa
:04018800fc02000075
:020000040000fa
:04018c00fc02000071
:020000040000fa
:04019000fc0200006d
:020000040000fa
:04019400fc02000069
:020000040000fa
:04019800fc02000065
:020000040000fa
:04019c00fc02000061
:020000040000fa
:0401a000fc0200005d
:020000040000fa
:0401a400fc02000059
:020000040000fa
:0401a800fc02000055
:020000040000fa
:0401ac00fc02000051
:020000040000fa
:0401b000fc0200004d
:020000040000fa
:0401b400fc02000049
:020000040000fa
:0401b800fc02000045
:020000040000fa
:0401bc00fc02000041
:020000040000fa
:0401c000fc0200003d
:020000040000fa
:0401c400fc02000039
:020000040000fa
:0401c800fc02000035
:020000040000fa
:0401cc00fc02000031
:020000040000fa
:0401d000fc0200002d
:020000040000fa
:0401d400fc02000029
:020000040000fa
:0401d800fc02000025
:020000040000fa
:0401dc00fc02000021
:020000040000fa
:0401e000fc0200001d
:020000040000fa
:0401e400fc02000019
:020000040000fa
:0401e800fc02000015
:020000040000fa
:0401ec00fc02000011
:020000040000fa
:0401f000fc0200000d
:020000040000fa
:0401f400fc02000009
:020000040000fa
:0401f800fc02000005
:020000040000fa
:0401fc00fc02000001
:020000040000fa
:100200002f8d20000e7f24000e01880000000000ca
:10021000000020000000e000020032000001200089
:100220002002880014000700160107000000e0000b
:1002300003003a00e0a02000010020000200370087
:100240000000200001002000810f7000010032003a
:1002500014000700000020000000e000020032004f
:100260000000020000000000440a0200000000003c
:100270000040da000000fe004440a90020002000f9
:100280000000e00003003200100020009001880010
:100290004440a800000006008a1f78008b1f7800e9
:1002a00000000600a1028800800478000000eb0036
:1002b0001f003700e284440054a0b4009905ba003e
:1002c000e284440054a0b4009906ba00e2844400d9
:1002d00054a0b4000006eb00476fde00fd07b2003b
:1002e000ae018800636ce10003003a00eaff0700fa
:1002f0000000eb000e003700606ce10008003a00df
:10030000004deb000a05e800020039003420ec0043
:100310000af0a0008b05e900f9ff3e000400370059
:100320006168e100010032000086eb000b0007006d
:1003300019c7ba001905ba000e04e00003003a001c
:100340000a00e000dbff3a0000000600fe07b200f2
:10035000ae0288008a047800f5ff37000cd0a300b5
:10036000e20f4d001c00390089027800354dba00bb
:100370000a05e800020039003420ec000af0a00071
:100380008b05e9000f003200254dba000a05e80090
:10039000020039003420ec000af0a0008b05e900cf
:1003a000080032000c00e0000600320015cdba0053
:1003b0000a05e800020039003420ec000af0a00031
:1003c0008b05e9008984e80054a0b4000b00e0002c
:1003d000e2ff3a00000006009902ba00055d7800cd
:1003e0008b05e900f7ff3200c82ade00055d7800c2
:1003f0008b05e900f3ff32000c00e000f1ff320052
:1004000019ddba00eeff37005e08040000000000ae
:10041000500904000000000056090400000000001c
:100420005c090400000000006209040000000000f4
:1004300068090400000000006e09040000000000cc
:1004400074090400000000003600f800809fbe0020
:10045000829fbe00849fbe00869fbe000000fa00ff
:100460008020a9000000eb001a0407000080fa00b9
:100470004f03be004f02be004f01be004f00be0042
:100480003600f900004006003600f800809fbe00ec
:10049000829fbe00849fbe00869fbe000000fa00bf
:1004a000110407008040a900100020000904070083
:1004b0000080fa004f03be004f02be004f01be0095
:1004c0004f00be003600f900004006003600f8007c
:1004d000809fbe00829fbe00849fbe00869fbe009c
:1004e0000000fa008060a90020002000f903070046
:1004f0000080fa004f03be004f02be004f01be0055
:100500004f00be003600f900004006003600f8003b
:10051000809fbe00829fbe00849fbe00869fbe005b
:100520000000fa008080a90030002000e9030700e5
:100530000080fa004f03be004f02be004f01be0014
:100540004f00be003600f900004006003600f800fb
:10055000809fbe00829fbe00849fbe00869fbe001b
:100560000000fa008600a90070002000d9030700ef
:100570000080fa004f03be004f02be004f01be00d4
:100580004f00be003600f900004006003600f800bb
:10059000809fbe00829fbe00849fbe00869fbe00db
:1005a0000000fa00804080000000e00002003200fd
:1005b000804080000000010070832000104078001f
:1005c0008040e800708320000148780060832000ac
:1005d00011c0b3000148780088e0a9000080fa004b
:1005e0004f03be004f02be004f01be004f00be00d1
:1005f0003600f900004006000040da000000fe006e
:10060000889fbe0080047800d04180000000e00098
:1006100004003a000e0007000084eb000000e00038
:1006200008003500d84180000900e00005003200d4
:1006300009004400060007000000e00001003d0042
:100640000084eb00080078004f04be0000000600a4
:10065000800078000100e00003003a00c083200021
:10066000d0418800000005000080eb00228d2000b2
:10067000828f500002003e00d14188000000eb0054
:100680000000060000000500889fbe0000047800fe
:10069000914180000100e00002003200010078007a
:1006a0000d003700a1418000408320000400370086
:1006b000910f5400250036000180e8009100900061
:1006c0000100e000faff3a0010003700920f5400da
:1006d0001e0036000280e800100178000200e000f1
:1006e000faff3a0011017800a14180004083200008
:1006f00004003700910f5400140036000180e80018
:1007000091009000828f5000faff3a00c9418000aa
:10071000888f5400010031008804780009007800b7
:10072000360007000000e00004003a00888f540003
:10073000050032008904d100f5ff37000918780060
:1007400038000700d2ff37000000eb004f04be0066
:1007500000000600881f7800630440000800a10024
:100760008000eb00800f540021003600e30f54009e
:1007700001003e004800200008007800c2ff07008a
:100780008000eb000000e0001900320090007800cb
:100790009101780064815100880f510003003100fd
:1007a000110190000208780007003700088140001e
:1007b0000208780091019000130198001001780060
:1007c0001109140088087800100178000000eb007f
:1007d0000200e00004003200920190000300e000fb
:1007e000010032000280e800904188008180e8002a
:1007f000010078004f0478000000060080007800b7
:100800000000eb000100e00005003400010078006a
:100810007bff0700e10f400001003a000000eb0001
:10082000000006000000e0002f003200c001780048
:10083000e38f51002c0036000308a3002a003a0081
:10084000a14180000100e00002003200810f500051
:100850000400310011009800a04188001600370004
:1008600082007800110190000200e00002003200d6
:10087000800f5100faff3900110278008482400095
:10088000850f500018003900808f520003003a0095
:100890008308420001007800070037000200e000f2
:1008a0000300320083014000830f51000e00390025
:1008b0001200980090009800900090000100e00065
:1008c0000900320010014000828f500006003a00fb
:1008d000228320000009eb0010017800110841007c
:0c08e0009100900011009800000006003c
:020000040000fa
:1008ec000000fa00f623ef00f823ef00fc23ef00e2
:1008fc000424ef000824ef000a24ef000c24ef007e
:10090c000e24ef0010022800a01f88000080fa00bf
:10091c00000006000400fa00000f78001107980090
:10092c0000000000e01f8000620060000000e0009a
:10093c00fcff3a001e007800104078000080fb009d
:10094c000020880000000000e11f80000002200051
:10095c00008060000000e000fbff3a0000208000f7
:10096c00804078001e009000014878000080fa005a
:10097c00000006001800fa00100f9800210f9800d4
:10098c00320f98000000eb00000f78000000eb0025
:10099c00100798000000eb00700798000000eb00b7
:1009ac00000f980010002000600798001e089000af
:1009bc000000e00005003a000000eb005007980032
:1009cc00700047002007980004003700ee009000ec
:1009dc00510798009e089000210798003e0890004f
:1009ec000000e00005003a000000eb004007980012
:1009fc006e0047003007980005003700ee009000ad
:100a0c0041079800be0890003107980000000000d4
:100a1c00e01f8000620060000000e000fcff3a0074
:100a2c001d003700e01f8000620060000000e00045
:100a3c0009003a002e009000104078000080fb0066
:100a4c0000208800ae0090005e0090000080400006
:100a5c00200798001e0fe800e11f80000002200014
:100a6c00008060000000e0000b003a0000208000d5
:100a7c00804078003e00900001487800be00900055
:100a8c004e00900000804000300798001e0090003f
:100a9c000000e800100798002e0890009e007800d7
:100aac00808f5000dfff390010003700e11f8000fd
:100abc0000022000008060000000e0000b003a0003
:100acc0000208000804078003e00900001487800b3
:100adc00be0090004e00900000804000300798004f
:100aec001e0090000000e800100798009e00900087
:100afc002e089000808f5000ecff39001e0078000b
:100b0c000080fa00000006000400fa00204798005c
:100b1c000e80e8008e0078007eff07001e407800f3
:100b2c000080fa00000006000600fa00000f7800b2
:100b3c0011079800220798002e0190009e0090004b
:100b4c001e0078008bff07000080fa0000000600f2
:100b5c000000fa00a11f80000080200000806000cf
:100b6c000000e000020032002000200008003700e6
:100b7c00a11f800000402000008060000000e00009
:100b8c000200320010002000010037000000eb00d2
:100b9c000080fa00000006000000fa00e01f800050
:100bac000080fa00000006000000fa00800020001f
:100bbc00701d8800b023ef0070062000b01d880067
:100bcc00b823ef00afe3a800b143a8000080fa00ff
:100bdc00000006000000fa0000000000801d8000ec
:100bec00610060000000e000fcff3200801d80000e
:100bfc00620060000000e00001003200b023a90098
:100c0c00a01d8000004078000080fa000000060063
:100c1c000200fa00004f780000000000811d8000e7
:100c2c0000202000008060000000e000fbff3a0084
:100c3c001e80fb00901d88000080fa00000006005a
:100c4c000000fa00801d80000040780061406000c8
:100c5c000080fb0000f0a7000000ea000000ea00a2
:100c6c004f00de00004078000080fa000000060013
:100c7c000000fa00811d8000002020000080600030
:100c8c000000e00007003a00811d800000402000b9
:100c9c00008060000000e000020032001000200024
:100cac00010037000000eb00004078000080fa00e3
:100cbc00000006000000fa00801d80004800de00e5
:100ccc00614060000080fb0000f0a7000000ea001b
:100cdc000000ea004f00de00004078000080fa00bf
:100cec00000006000000fa00801d80000080fa0061
:100cfc00000006000000fa00afe3a800b143a80012
:100d0c000080fa00000006000000fa00afe3a90022
:100d1c00b143a9000080fa00000006000000fa00b0
:100d2c0080002000c01c88009a23ef007006200071
:100d3c00001d8800a223ef0099e3a8009b43a800a4
:100d4c000080fa00000006000000fa00000000001d
:100d5c00d01c8000610060000000e000fcff32004d
:100d6c00d01c8000620060000000e0000100320036
:100d7c009a23a900f01c8000004078000080fa0043
:100d8c00000006000200fa00004f7800000000008e
:100d9c00d11c800000202000008060000000e000da
:100dac00fbff3a001e80fb00e01c88000080fa006c
:100dbc00000006000000fa00d01c80000040780003
:100dcc00614060000080fb0000f0a7000000ea001a
:100ddc000000ea004f00de00004078000080fa00be
:100dec00000006000000fa00d11c8000002020004a
:100dfc00008060000000e00007003a00d11c800079
:100e0c0000402000008060000000e0000200320082
:100e1c0010002000010037000000eb0000407800bb
:100e2c000080fa00000006000000fa00d01c8000d0
:100e3c004800de00614060000080fb0000f0a7006d
:100e4c000000ea000000ea004f00de0000407800dd
:100e5c000080fa00000006000000fa00d01c8000a0
:100e6c000080fa00000006000000fa0099e3a800d8
:100e7c009b43a8000080fa00000006000000fa0066
:100e8c0099e3a9009b43a9000080fa00000006002a
:100e9c000200fa00000f78001e00780010007800a5
:100eac00000001001e007800200090009e007800d9
:100ebc0091009000110098001e0078001000900026
:100ecc009e007800a1009000210098001e00780080
:100edc0090009000010f7800efff37000200fa003d
:100eec00000f78001e0078009e007800210098000a
:100efc001e0078009e007800110098001e007800fb
:100f0c00a1022000310098000080fa0000000600c9
:100f1c000400fa0010079800800020000afe070069
:100f2c00000f78001e0078008000eb001100980084
:100f3c001e0078008000eb00210098001e00780055
:100f4c009e009000010878001e0078000080fa00d6
:100f5c00000006000800fa002007980031079800ee
:100f6c00ae0090003e009000808f500022003200b6
:100f7c00ae009000010f78000040eb002047980075
:100f8c00090037001e00780090009000010f7800d7
:100f9c003e0090009e0f500003003a0010c0b300ba
:100fac0020479800070037001e00780010009000c2
:100fbc00a00090001e00780010009000808f500060
:100fcc00f0ff3a002e4090000004e0000b003a00c5
:100fdc001e007800be009000110098003e009000aa
:100fec009e007800210098003e009000ae0090001a
:100ffc001100980001003700000000000080fa008a
:10100c00000006000000fa009621ef009c21ef0082
:10101c0000002800000d8800804080000000e000e7
:10102c0002003a00e08520002400070088e0a900b7
:10103c0098e0a800608320008040eb000148780015
:10104c000080fa00000006000200fa00000f780091
:10105c009e007800e10c8800608320008040eb004b
:10106c00014878000080fa00000006000000fa0039
:10107c00e00c80000080fa00000006000200fa007c
:10108c00000f78009e007800b10c8800608320006f
:10109c008040eb00014878000080fa000000060058
:1010ac000000fa00b00c80000080fa00000006007e
:1010bc000000fa000080fa00000006000200fa00ae
:1010cc00000f780098e0a9009e007800814088000d
:1010dc0098e0a8000080fa00000006000000fa006a
:1010ec00608320008040eb000148780098e0a80065
:1010fc00a1e1a8000080fa00000006000000fa0040
:10110c00a1e1a90098e0a9000080fa000000060007
:10111c000200fa0060832000104f78001e40780017
:10112c000004e00003003200608320008040eb00ec
:10113c00014878001e4078000080fa00000006008c
:10114c000000fa0070832000104078000080fb0043
:10115c000080fa00000006000000fa0070832000f6
:10116c008040eb00014878000080fa000000060087
:10117c000000fa006626ef007a26ef0070012000ce
:10118c001033880030a02600b03388007426ef009e
:10119c008826ef007226ef008626ef006826ef0007
:1011ac007c26ef00f0002000503388000000220065
:1011bc00f033880001088000f00b200000816000f3
:1011cc006004200071052000031020008049780085
:1011dc008149780082497800e13e800000f82f00b8
:1011ec00008060000030a000e03e8800a13d80003f
:1011fc0000fc2f0000806000b000b300a03d880010
:10120c00c13d800000fc2f00008060009000b30006
:10121c00c03d8800f13e800000f82f000080600087
:10122c009000b300f03e8800113f8000f00f2800c2
:10123c00808060000050200001007000103f88008a
:10124c00b13d800000fc2f0000806000e000b30086
:10125c00b03d8800013f800000f82f000080600046
:10126c003000b300003f88000008800000017800c7
:10127c000260a00060042000710520000310200013
:10128c008049780081497800824978000080fa0012
:10129c00000006000000fa000080fa0000000600c2
:1012ac000000fa000080fa00000006000000fa00be
:1012bc000080fa00000006000000fa000080fa002e
:1012cc00000006000000fa000080fa000000060092
:1012dc000000fa000080fa00000006000000fa008e
:1012ec000cc8bf000004e00006003a00414080003a
:1012fc000040800017ff070010c0b3000ce8b700d7
:10130c0004003700514080000040800011ff0700ae
:10131c000c68ef000080fa00000006000000fa00e4
:10132c0000952000fafe0700004088006095200020
:10133c00f7fe070010408800c0952000f4fe07005f
:10134c002040880020962000f1fe070030408800e5
:10135c0080962000eefe070040408800e0962000ba
:10136c00ebfe07005040880000408000dbfe0700c9
:10137c004097200051ff0700004080000080fa00d9
:10138c00000006000000fa0000002300100888008e
:10139c000621ef006821ef006a21ef000821ef0021
:1013ac0000702000500888000c21ef000e21ef0087
:1013bc007821ef007a21ef007c21ef007e21ef00f5
:1013cc008021ef008221ef008421ef008621ef00c5
:1013dc000001eb0080072000a10920001310200061
:1013ec008049780081497800824978000001eb003f
:1013fc006004200071052000031020008049780053
:10140c0081497800824978000080fa0000000600cb
:020000040000fa
:10141c001208000020000000800000000e080000f0
:10142c000200000082000000ffff000036080000f0
:10143c000200000080000000100800000200000004
:10144c0080000000000800000e000000800000007a
:10145c0038080000020000008200000004000000b8
:10146c003208000004000000800000003a08000070
:0c147c00020000008000000000000000e2
:020000040000fa
:101488000200fa001d000700a5ff0700000f780002
:101498001e0078007ffe0700d03380004200de0087
:1014a800614060000004a200614060000080fb0011
:1014b800610060004200dd00d13380000120a100fe
:1014c80001007000d0338800f3ff37000200fa00f3
:1014d800000f78009e00780071408800ffff3700f9
:1014e8000000fa002081200080077800a0822000f8
:1014f800000188000080fa00000006000000fa00e1
:101508001cff0700070007009fff0700a7fd070053
:10151800f4fc070002fe0700bbfe07000080fa008b
:10152800000006000000fa0051058000f0ff2800c6
:101538000080600000c0a000500588000080fa000c
:041548000000060099
:020000040000fa
:020000040005f5
:045e0000ffff0000a0
:020000040000fa
:020000040005f5
:045e2000ffffff0081
:020000040000fa
:020000040005f5
:045e300078ffff00f8
:020000040000fa
:020000040005f5
:045e3800b3ffff00b5
:020000040000fa
:020000040005f5
:045e40009fffff00c1
:020000040000fa
:020000040005f5
:045e4800ffffff0059
:020000040000fa
:020000040005f5
:045e5000dfffff0071
:020000040000fa
:020000040005f5
:045e5800ffffff0049
:00000001FF
