:020000040000fa
:080000000001040000000000f3
:020000040000fa
:040008006002000092
:020000040000fa
:04000c00a20200004c
:020000040000fa
:04001000e202000008
:020000040000fa
:040014008002000066
:020000040000fa
:04001800c202000020
:020000040000fa
:04001c006e0700006b
:020000040000fa
:040020006e07000067
:020000040000fa
:040024006e07000063
:020000040000fa
:040028006e0700005f
:020000040000fa
:04002c006e0700005b
:020000040000fa
:040030006e07000057
:020000040000fa
:040034003807000089
:020000040000fa
:040038006e0700004f
:020000040000fa
:04003c006e0700004b
:020000040000fa
:040040006e07000047
:020000040000fa
:040044006e07000043
:020000040000fa
:0400480002030000af
:020000040000fa
:04004c006e0700003b
:020000040000fa
:040050006e07000037
:020000040000fa
:040054006c04000038
:020000040000fa
:040058001004000090
:020000040000fa
:04005c006e0700002b
:020000040000fa
:040060006e07000027
:020000040000fa
:040064006e07000023
:020000040000fa
:040068006e0700001f
:020000040000fa
:04006c00e8040000a4
:020000040000fa
:040070006e07000017
:020000040000fa
:040074006e07000013
:020000040000fa
:040078006e0700000f
:020000040000fa
:04007c006e0700000b
:020000040000fa
:040080006e07000007
:020000040000fa
:040084006e07000003
:020000040000fa
:040088006e070000ff
:020000040000fa
:04008c006e070000fb
:020000040000fa
:040090006e070000f7
:020000040000fa
:040094006e070000f3
:020000040000fa
:040098006e070000ef
:020000040000fa
:04009c006e070000eb
:020000040000fa
:0400a00094030000c5
:020000040000fa
:0400a400380300001d
:020000040000fa
:0400a8006e070000df
:020000040000fa
:0400ac006e070000db
:020000040000fa
:0400b0006e070000d7
:020000040000fa
:0400b4006e070000d3
:020000040000fa
:0400b8006e070000cf
:020000040000fa
:0400bc006e070000cb
:020000040000fa
:0400c0006e070000c7
:020000040000fa
:0400c4006e070000c3
:020000040000fa
:0400c8006e070000bf
:020000040000fa
:0400cc006e070000bb
:020000040000fa
:0400d0006e070000b7
:020000040000fa
:0400d4006e070000b3
:020000040000fa
:0400d8006e070000af
:020000040000fa
:0400dc006e070000ab
:020000040000fa
:0400e0006e070000a7
:020000040000fa
:0400e4006e070000a3
:020000040000fa
:0400e8006e0700009f
:020000040000fa
:0400ec006e0700009b
:020000040000fa
:0400f0006e07000097
:020000040000fa
:0400f4006e07000093
:020000040000fa
:0400f8006e0700008f
:020000040000fa
:0400fc006e0700008b
:020000040000fa
:040100006e07000086
:020000040000fa
:040104006e07000082
:020000040000fa
:040108006e0700007e
:020000040000fa
:04010c006e0700007a
:020000040000fa
:040110006e07000076
:020000040000fa
:040114006e07000072
:020000040000fa
:040118006e0700006e
:020000040000fa
:04011c006e0700006a
:020000040000fa
:040120006e07000066
:020000040000fa
:040124006e07000062
:020000040000fa
:040128006e0700005e
:020000040000fa
:04012c00d2040000f9
:020000040000fa
:04013000fa030000ce
:020000040000fa
:040134006e07000052
:020000040000fa
:040138006e0700004e
:020000040000fa
:04013c006e0700004a
:020000040000fa
:040140006e07000046
:020000040000fa
:040144006e07000042
:020000040000fa
:040148006e0700003e
:020000040000fa
:04014c006e0700003a
:020000040000fa
:040150006e07000036
:020000040000fa
:040154006e07000032
:020000040000fa
:040158006e0700002e
:020000040000fa
:04015c006e0700002a
:020000040000fa
:040160006e07000026
:020000040000fa
:040164006e07000022
:020000040000fa
:040168006e0700001e
:020000040000fa
:04016c006e0700001a
:020000040000fa
:040170006e07000016
:020000040000fa
:040174006e07000012
:020000040000fa
:040178006e0700000e
:020000040000fa
:04017c006e0700000a
:020000040000fa
:040180006e07000006
:020000040000fa
:040184006e07000002
:020000040000fa
:040188006e070000fe
:020000040000fa
:04018c006e070000fa
:020000040000fa
:040190006e070000f6
:020000040000fa
:040194006e070000f2
:020000040000fa
:040198006e070000ee
:020000040000fa
:04019c006e070000ea
:020000040000fa
:0401a0006e070000e6
:020000040000fa
:0401a4006e070000e2
:020000040000fa
:0401a8006e070000de
:020000040000fa
:0401ac006e070000da
:020000040000fa
:0401b0006e070000d6
:020000040000fa
:0401b4006e070000d2
:020000040000fa
:0401b8006e070000ce
:020000040000fa
:0401bc006e070000ca
:020000040000fa
:0401c0006e070000c6
:020000040000fa
:0401c4006e070000c2
:020000040000fa
:0401c8006e070000be
:020000040000fa
:0401cc006e070000ba
:020000040000fa
:0401d0006e070000b6
:020000040000fa
:0401d4006e070000b2
:020000040000fa
:0401d8006e070000ae
:020000040000fa
:0401dc006e070000aa
:020000040000fa
:0401e0006e070000a6
:020000040000fa
:0401e4006e070000a2
:020000040000fa
:0401e8006e0700009e
:020000040000fa
:0401ec006e0700009a
:020000040000fa
:0401f0006e07000096
:020000040000fa
:0401f4006e07000092
:020000040000fa
:0401f8006e0700008e
:020000040000fa
:0401fc006e0700008a
:020000040000fa
:100200008f7421000e7f24000e0188000000000082
:10021000000020000000e000020032000001200089
:100220002002880014000700a30307000000e0007c
:1002300003003a00e04023000100200002003700e4
:100240000000200001002000810f7000010032003a
:1002500014000700000020000000e000020032004f
:1002600000000200000000003a3902000000000017
:100270000040da000000fe004440a9008007200092
:100280000000e00003003200002020009001880000
:100290004440a800000006008a1f78008b1f7800e9
:1002a00000000600a1028800800478000000eb0036
:1002b0001f003700e284440054a0b4009905ba003e
:1002c000e284440054a0b4009906ba00e2844400d9
:1002d00054a0b4000006eb00476fde00fd07b2003b
:1002e000ae018800636ce10003003a00eaff0700fa
:1002f0000000eb000e003700606ce10008003a00df
:10030000004deb000a05e800020039003420ec0043
:100310000af0a0008b05e900f9ff3e000400370059
:100320006168e100010032000086eb000b0007006d
:1003300019c7ba001905ba000e04e00003003a001c
:100340000a00e000dbff3a0000000600fe07b200f2
:10035000ae0288008a047800f5ff37000cd0a300b5
:10036000e20f4d001c00390089027800354dba00bb
:100370000a05e800020039003420ec000af0a00071
:100380008b05e9000f003200254dba000a05e80090
:10039000020039003420ec000af0a0008b05e900cf
:1003a000080032000c00e0000600320015cdba0053
:1003b0000a05e800020039003420ec000af0a00031
:1003c0008b05e9008984e80054a0b4000b00e0002c
:1003d000e2ff3a00000006009902ba00055d7800cd
:1003e0008b05e900f7ff3200c82ade00055d7800c2
:1003f0008b05e900f3ff32000c00e000f1ff320052
:1004000019ddba00eeff3700b63504000000000029
:100410000829040000000000262904000000000054
:100420001a2c040000000000382c0400000000001a
:100430006e36040000000000c21c04000000000032
:10044000dc1d040000000000761e04000000000017
:10045000a81e0400000000002a2104000000000083
:100460007e23040000000000ac2504000000000012
:10047000b625040000000000ec2504000000000088
:100480000a260400000000003a27040000000000d3
:100490004627040000000000880c04000000000053
:1004a000a20c040000000000d00c040000000000ba
:1004b000a617040000000000000004000000000077
:1004c0003600f800809fbe00829fbe00849fbe0061
:1004d000869fbe000000fa008020a9000000eb000b
:1004e0004c1b07000080fa004f03be004f02be0005
:1004f0004f01be004f00be003600f900004006006c
:100500003600f800809fbe00829fbe00849fbe0020
:10051000869fbe000000fa00431b07008040a90030
:10052000100020003b1b07000080fa004f03be00b4
:100530004f02be004f01be004f00be003600f90062
:10054000004006003600f800809fbe00829fbe007b
:10055000849fbe00869fbe000000fa008060a90054
:10056000200020002b1b07000080fa004f03be0074
:100570004f02be004f01be004f00be003600f90022
:10058000004006003600f800809fbe00829fbe003b
:10059000849fbe00869fbe000000fa008080a900f4
:1005a000300020001b1b07000080fa004f03be0034
:1005b0004f02be004f01be004f00be003600f900e2
:1005c000004006003600f800809fbe00829fbe00fb
:1005d000849fbe00869fbe000000fa008600a9002e
:1005e000700020000b1b07000080fa004f03be00c4
:1005f0004f02be004f01be004f00be003600f900a2
:10060000004006003600f800809fbe00829fbe00ba
:10061000849fbe00869fbe000000fa001043800049
:100620000000e000020032001043800000000100e2
:1006300010612100104078008040e8001061210026
:10064000014878000061210011c0b3000148780022
:100650008900a9000080fa004f03be004f02be00cf
:100660004f01be004f00be003600f90000400600fa
:100670003600f800809fbe00829fbe00849fbe00af
:10068000869fbe000000fa0070428000000001005a
:100690005142800040428000808f500002003a00aa
:1006a0009be0a900190037008be0a900100037007b
:1006b00050428000904078008180fb00911d8800ae
:1006c0000000e8005042880051428000f05d2100a7
:1006d000808f500002003a00605d21005042880087
:1006e0005142800040428000808f5000060032005e
:1006f000811d800000202000008060000000e000dc
:10070000ebff320001003700000000000080fa001b
:100710004f03be004f02be004f01be004f00be009f
:100720003600f900004006003600f800809fbe0049
:10073000829fbe00849fbe00869fbe000000fa001c
:1007400080428000000001008bc0a9001e0037001d
:1007500020428000a11d800081407800014878007f
:1007600021428000705e2100808f5000090032001d
:10077000204280008000e80030428000808f5000de
:1007800004003200204280000000e800204288007f
:100790000d00370021428000705e2100808f5000e4
:1007a00007003a0031428000f05d2100808f500048
:1007b00003003200f05d2100204288000200370073
:1007c00010c0b3004ce8b700801d800061006000dd
:1007d0000000e000deff3a000080fa004f03be0098
:1007e0004f02be004f01be004f00be003600f900b0
:1007f00000400600801f78000000fa00801d800085
:10080000620060000000e00001003200b023a90097
:100810009040a9000080fa004f00780000400600d8
:100820003600f800809fbe00829fbe00849fbe00fd
:10083000869fbe000000fa00e04280000000010038
:10084000c1428000b0428000808f500002003a0018
:100850009980a900190037008980a900100037008d
:10086000c0428000904078008180fb00e11c88003d
:100870000000e800c0428800c1428000105f2100f3
:10088000808f500002003a00805e2100c042880044
:10089000c1428000b0428000808f500006003200cc
:1008a000d11c800000202000008060000000e000db
:1008b000ebff320001003700000000000080fa006a
:1008c0004f03be004f02be004f01be004f00be00ee
:1008d0003600f900004006003600f800809fbe0098
:1008e000829fbe00849fbe00869fbe000000fa006b
:1008f000f0428000000001008960a9001e0037005e
:1009000090428000f11c800081407800014878000e
:1009100091428000905f2100808f500009003200da
:10092000904280008000e800a0428000808f50004c
:1009300004003200904280000000e80090428800ed
:100940000d00370091428000905f2100808f5000a1
:1009500007003a00a1428000105f2100808f500004
:1009600003003200105f210090428800020037002f
:1009700010c0b3005ae8b700d01c800061006000ce
:100980000000e000deff3a000080fa004f03be00e6
:100990004f02be004f01be004f00be003600f900fe
:1009a00000400600801f78000000fa00d01c800084
:1009b000620060000000e000010032009a23a900fc
:1009c0009020a9000080fa004f0078000040060047
:1009d0003600f800809fbe00829fbe00849fbe004c
:1009e000869fbe000000fa008a20a900f124800042
:1009f00000082000008060000000e00008003200d5
:100a00009ee4a9003428ef00d0418000200090002f
:100a10008000eb00010878003a28ef000d01370054
:100a2000a04180008000eb00b20020000300200005
:100a3000820f5000838f5800fc003e0000600100d0
:100a40000b00370039003700750037009c00370075
:100a5000f3003700c8003700d9003700f000370036
:100a6000db003700f100370034003700500037005a
:100a7000c082200020009000620060000000e000c2
:100a8000f3003a00c082200010009000d04188009e
:100a9000c0822000100090001040780036e8b700b7
:100aa000c08220001000900010009000c04188001b
:100ab000c082200010009000e6004000c0822000ac
:100ac00011009800c082200090009000006021007a
:100ad000808f500003003a00c0822000a15f2100f7
:100ae00011009800c0822000a00090000100a10029
:100af00021009800c082200090009000c082200059
:100b000010007800808f500004003a00c08220005e
:100b1000a00090000110a000210098009a04a800f5
:100b200020002000a0418800ca0037009a24a800b5
:100b300020002000a0418800c6003700f12480007a
:100b400000002800008060000000e0000800320083
:100b5000c0822000604090008040e800c0822000f9
:100b60006140980040002000c7140700b90037001a
:100b7000e04180008000d100f00f20000080600084
:100b8000b0248800e04180006100600000407800ef
:100b90000004e00003003200b0002000a041880003
:100ba000ac00370030002000a0418800a9003700c9
:100bb000f124800000002800008060000000e000b8
:100bc00008003200c0822000604090008040e800b1
:100bd000c08220006140980040002000aa14070055
:100be0009c0037009a24a800e04180004800de0005
:100bf000e6006000000f200001007000e041880066
:100c0000e04180000000a000e041880010c0b30077
:100c10003ee8b70020002000a04188008d0037008a
:100c20003ec8bf00e14f50000a003200c0418000c2
:100c300010007800e0418800c04180002000900052
:100c400000428800c04180002040900042e8b70088
:100c5000010037003e68ef00e1418000f00f200006
:100c6000808f500009003600e04180004800de001f
:100c7000e6006000000f200001007000b024880032
:100c8000a0002000a041880072003700e0418000f1
:100c9000b0248800e04180006100600000407800de
:100ca0000004e0000300320050002000a041880052
:100cb0006800370030002000a04188006500370040
:100cc000f124800000002800008060000000e000a7
:100cd00009003200c0822000604090008040e8009f
:100ce000c0822000614098009fe4a90050002000cd
:100cf000651407005700370042c8bf008080fb0022
:100d00008100e900cf08de00814078000040e90062
:100d100042e8b7000104e00010003200c04180004a
:100d200066004000c041880036c8bf000040e900ae
:100d300036e8b70036c8bf000004e00003003a0000
:100d40002000200050140700420037009a24a80019
:100d500020002000a04188003e00370000428000b3
:100d6000904078008180fb00b12488000000e800fa
:100d70000042880037003700f1248000000028007e
:100d8000008060000000e00009003200c082200006
:100d9000604090008040e800c082200061409800e0
:100da00040002000381407009fe4a9002900370004
:100db0009a64a80080002000a04188002500370028
:100dc00080002000a04188009a64a800210037001c
:100dd00000428000a1248000814078000148780012
:100de0000000e8000042880042c8bf000040e9005f
:100df00042e8b70042c8bf000004e000040032002f
:100e00009aa4a90060002000a041880002003700d9
:100e10009aa4a8000b1407009a84a8000d003700bc
:100e200020002000181407000a003700c0822000ac
:100e3000604090008040e800c0822000614098003f
:100e400060002000101407000000000001003700bf
:100e5000000000000080fa004f03be004f02be00f9
:100e60004f01be004f00be003600f90000400600f2
:100e70003600f800809fbe00829fbe00849fbe00a7
:100e8000869fbe000000fa00204380000000e000c2
:100e90000200320020438000000001003061210088
:100ea000104078008040e80030612100014878005f
:100eb0002061210011c0b300014878008860a900ba
:100ec0000080fa004f03be004f02be004f01be007b
:100ed0004f00be003600f900004006000040da0076
:100ee0000000fe000a00fa0011002000b1bf9f00c0
:100ef000c0bf9f006a805700300807004fb89700b6
:100f00000080fa00000006000a00fa00e20f50001c
:100f100034003e00c0b08000e10f500003003200fa
:100f2000e20f500011003a000c0037008339200016
:100f30000300e00001003a000040da009803e200fc
:100f400002003500a023ef0099e3a8009b43ab000b
:100f50000d003a009b43a8000b003700e33a200045
:100f60000300e00001003a000040da00ae03e200b6
:100f700002003500b623ef00afe3a800b143ab0099
:100f800001003a00b143a800820178000b0037004d
:100f90003102fb00e10f500004003a009b23ab003c
:100fa000feff3a00e41c880003003700b123ab00c9
:100fb000feff3a00941d88008301e9000300e00071
:100fc000f3ff3a00e10f500003003a009b03ab002f
:100fd000feff32000b003700b103ab00feff320012
:100fe0000800370033002000b3bf9f00c0bf9f0040
:100ff000d1bf9f00e2bf9f006a805700f107070042
:101000006fb99700020078000080fa000000060027
:101010000a00fa0051002000b1bf9f00c0bf9f002e
:101020006a805700e90707005fb897000080fa0060
:1010300000000600889fbe0080047800d0b08000c9
:101040000000e00004003a000e0007000084eb00fe
:101050000000e00008003500d8b080000900e00082
:101060000500320009004400060007000000e0000f
:1010700001003d000084eb00080078004f04be0032
:1010800000000600800078000100e00003003a0044
:10109000c0612100d0b08800000005000080eb0096
:1010a00082742100828f500002003e00d1b088007f
:1010b0000000eb00000006000000050003f0a200a5
:1010c000889fbe008a9fbe008c1f78001701070012
:1010d0001e0133006450e1004f0032006420e10043
:1010e0005200320003826c0007003b000905d0006b
:1010f0000306d000820f54000c065d000200390088
:1011000002003200890178000306780085825500cc
:1011100004003d000003fd008103fd008502ea009c
:101120008b854200840f720002003b0060001000bb
:10113000e08018006011b8000005eb007a28e1009b
:101140000a00390006007800c75ddd00f707b2002d
:10115000878075002d003700828171000a017800b8
:10116000610560008180d1000080d3008502e90024
:10117000f9ff3b00060440008784480002003b0062
:1011800060041400e0841c000988a30007003200fa
:101190008a81710082817100610164008904d1003b
:1011a0000884d3008b05e800170037000978a300f6
:1011b00013003a000b00e000130034008b05e90037
:1011c0000804440089844c000a4474000978a30090
:1011d0000d003a000b00e000070034008b05e90029
:1011e0000804440089844c0001003a000b002000f0
:1011f0000978a300f7ff32000001eb00020037007e
:10120000828171000a0178008d0007000cf0a700b0
:1012100001f0a000d60037006420e10002003a008f
:10122000838f6c00d60033000801be000200be00b0
:10123000cf003700889fbe008a9fbe008c1f7800b9
:10124000ba000700c100330003866c006450e1005f
:101250002e0032006420e100330032006150e100d2
:101260002f0032006120e1003100320085855500f9
:10127000eb07b0000900200008042000050037003b
:101280000804440089844c000a003100060343002e
:1012900087834b000001530081815b00f8ff33001e
:1012a0000203be000800a0000804440089844c002a
:1012b000f6ff3900c639dd008301730001003200fa
:1012c000130020008904d1000884d3000998a300ea
:1012d000050032000800a7000300a0008904d10027
:1012e0000884d3008b05e8008904d1000884d3006a
:1012f0000001eb000281d2005100070001f0a100c3
:101300000cf0a70001f0a000990037006420e10074
:101310009b0032000801be000200be00f7ff37004c
:101320006120e100960032006000b800f3ff370052
:101330000000200001f82700f0ff37000001be0088
:10134000650007000470a70003f0a1006509b10063
:10135000160032000d0035006828e1000600350057
:10136000f0ff2f00f1ff27000300e00013003b0017
:1013700001002800000005000000400081804800b6
:101380008502e900fcff3a0008003700f88f4200b0
:1013900002003c008000eb00000005008100d1004d
:1013a0000080d3008502e800fcff3a000300e00063
:1013b00002003b0060001000e08018000000060002
:1013c0000001be00440007000470a70003f0a10064
:1013d00003f8a30013003a006509b10010003200c1
:1013e000090035006928e1000200350001002800ed
:1013f0000000050000004000818048008502e900ef
:10140000fcff3a0000000600f88f4200050035009e
:101410008100d1000080d3008502e800fcff3a0083
:10142000000006008000eb00000005004f89de0090
:1014300082017800890037006011b80097003700fa
:1014400081002000618055000b003d000b00200052
:1014500061fe2f000100e1001d0034008281710057
:10146000610164008904d1000884d3000000e80011
:10147000faff3a0071002000610064000300700070
:10148000020060000900320061044400e0844c0066
:101490000988a500050032008b05e8006808e10016
:1014a00002003a008904d1000884d300f20f200022
:1014b0000258e10005003d00c75ddd00f907b200fc
:1014c0008980750008007800000006000bf82700ee
:1014d0008b00780000000500c70ade00f107b200ab
:1014e000f50fb20008003200e1cf420002003200e6
:1014f0000170a00024000500810f7000010032007f
:101500000408050044000500810f700002003a0045
:10151000140005008502e9000000400081c0480079
:10152000fcff3b000170a000240005000004be0089
:10153000e9ff07000003be000405be000200be0074
:10154000e5ff0700844f7500000006000200be00a2
:101550006450e100050036006420e100020036001e
:101560000968a30001003a000800be000160a00065
:101570004f0678004f05be004f04be000000060075
:10158000f0ff2f00f1ff2700f9ff3700889fbe0012
:101590008a9fbe008c1f7800e4ff0700ebff33003a
:1015a00003866c006450e100240032006420e100f6
:1015b000270032006150e100220032006120e1008a
:1015c000210032008b854200eb07b1000134b800e6
:1015d000003ab8000804420089844a00013ab80081
:1015e0000030b8008880400009014a000400330040
:1015f0000000400081804800020149008b05e9009d
:10160000c909dd00830170000100320013002000d1
:10161000c814de004814dd004709de001200b200e5
:10162000c808de000884700085ff070001f0a100f3
:101630000cf0a70001f0a000cdff37006120e10011
:10164000cfff32000801be000200be00f7ff3700e6
:101650006150e100fcff3a00c9ff3700881f7800a5
:10166000030478000300e00007003d006000100064
:10167000e080180060011900e081190002003b00c1
:1016800001f02d00030037000400070008f0a70058
:1016900001f0a0004f04780000000600889fbe0003
:1016a0008a9fbe00008270000402710004827100f3
:1016b000260032000004be000200be006011b80027
:1016c0006b092000950220000182cf000a0039003a
:1016d0000541b1000082cf00070039000541b1008b
:1016e0000982cf00040039000541b1000882cf0013
:1016f000010039000541b1000542520012003200dc
:101700000a003b0082817100610164008100d10008
:101710000080d3008984d3000884d3008b05e800bf
:101720000442e800f7ff3a000700370008044400cd
:1017300089844c0000004800818048008b05e90046
:101740000442e900f9ff3a003dff07004f05be00e3
:101750004f04be0000000600889fbe000004780011
:1017600061b080000100e00002003200010078005a
:101770000d00370071b08000e060210004003700e8
:10178000910f5400250036000180e8009100900080
:101790000100e000faff3a0010003700920f5400f9
:1017a0001e0036000280e800100178000200e00010
:1017b000faff3a001101780071b08000e06021006a
:1017c00004003700910f5400140036000180e80037
:1017d00091009000828f5000faff3a00a9b080007b
:1017e000888f5400010031008804780009007800d7
:1017f0003d0007000000e00004003a00888f54001c
:10180000050032008904d100f5ff3700091878007f
:1018100044020700d2ff37000000eb004f04be0077
:1018200000000600881f7800630440000800a10043
:101830008000eb00800f540021003600e30f5400bd
:1018400001003e004800200008007800c2ff0700a9
:101850008000eb000000e0001900320090007800ea
:101860009101780064815100880f5100030031001c
:10187000110190000208780007003700088140003d
:10188000020878009101900013019800100178007f
:101890001109140088087800100178000000eb009e
:1018a0000200e00004003200920190000300e0001a
:1018b000010032000280e80060b088008180e8000a
:1018c000010078004f0478000000060080017800d5
:1018d00002003700b15978000201e9000200e0007f
:1018e000fcff3a0000000600800078000000eb00da
:1018f0000100e0000500340001007800cdfd070084
:10190000e10f400001003a000000eb00000006007b
:10191000889fbe00800478000203be0001047800a6
:101920006149b800898fd2008381d2000802780013
:101930000600be00a7050700088044004f04be0053
:1019400000000600881f7800020478000801780073
:10195000deff0700080040004f047800000006008a
:101960000000fa00881f7800000478006a8257009f
:10197000bfb997000801780081c8200020ca200064
:10198000160007000000e000020035008040eb0078
:10199000017478004f0478000080fa00000006000f
:1019a000889fbe00000478000203be008104780016
:1019b0000802780089017800120020000600be00ad
:1019c00021040700890f5000010032000004eb00e1
:1019d000080078004f04be00000006006800fa000e
:1019e000889fbe008a9fbe008004780001047800b2
:1019f00082057800030578008400780000f92f0044
:101a00000f0040000e040700d98f9f00fb8f9f003e
:101a10000000eb00a09f9f00e88f9f009a84fb00ce
:101a20000904fb008904ea00cf4cde0050022000cc
:101a3000800f54000d003200e18f54000b003a007b
:101a4000090178008a0078007f889700df89970075
:101a500003000100f08f9f000000e00095003200bd
:101a60002f9897000000e800a09f9f0009054500ff
:101a700050022000800f5400040032000800e000f3
:101a8000e6ff3a002f9897008b0037000000eb002c
:101a9000809f9f00f0979f00e0979f00d0979f0046
:101aa000c0979f00b0979f0007003700015d21009d
:101ab0000100500000004000415c210061007800fe
:101ac000cf98970001007000c09f9f000a04780023
:101ad00008057800ba4478008900fb00005d210009
:101ae000c20107000000e000f0ff3a00a1c2b3000d
:101af00081cf54000e003a008f8897000180e900e2
:101b0000808f9f0010007800b09f9f000000e000d1
:101b100005003d000000ea00b09f9f004f9897002d
:101b20000020a000c09f9f000804e80010003700bc
:101b3000b09f9f00880078000000eb000500370090
:101b4000f3ff2700830f5000020032006a02b90041
:101b50000400410001047800880078003101fb0096
:101b60000203b100e90f5100f5ff3600b09f9f005e
:101b7000e0c2b300984f1000020032000080eb007a
:101b800019003700a0c2b300d84f100007003a0078
:101b90008f8897000180e900808f9f0010007800f7
:101ba000909f9f000804e800100037000000eb0041
:101bb000909f9f008800780005003700f3ff270002
:101bc000830f5000020032006a02b9000400410095
:101bd00001047800880078003101fb000203b100a5
:101be000e90f5100f5ff3600909f9f009844780060
:101bf0008900fb00c05b21007c0107000000e000c1
:101c0000020032000804e800010037008044eb00c5
:101c1000a97f9f0080c6b30080cf540006003a0021
:101c200098cf140010003a0066405000a07f9f003b
:101c30000804e8000c003700c0c6b30080cf540091
:101c400009003a0098cf140007003a0067404000ae
:101c5000d84f100002003a006e40500001003700db
:101c600010c7b300a07f9f001801fb00c3fb2f002b
:101c70008f81410001f92f008f80400020f92f0053
:101c80000f004000150007000000e00009003a00c6
:101c9000c1fb2f008f80400020f92f000f00400073
:101ca0008d0207000000e000020035000805e80092
:101cb0005aff37000080eb004f05be004f04be0006
:101cc0000080fa000000060003027800820178001c
:101cd0000101780001cd200040ff3700889fbe0041
:101ce0008a9fbe00e4c6b300844f5100be0032009c
:101cf00010003c006b425200844f5100180032002b
:101d000005003c0054c2b300844f5100f60032007d
:101d100084c5b3000f00370044c6b300844f5100a0
:101d20001400320065424200844f5100f1003a0035
:101d30001000370004c7b300844f5100dd003200ab
:101d40005600350065424200844f51005300320076
:101d500063424200844f5100e6003a004f003700d2
:101d60001181e90082087800a008900012417800f3
:101d7000de003700006a9000c5c6b300854f5200f0
:101d800007003a00910278006482520084087800cb
:101d90001402be004fabde0086037800140037004b
:101da00015c7b300854f520003003a0011047800b4
:101db0006802540005003700a5c6b300854f5200e5
:101dc00006003a0091047800688254008408780084
:101dd0005403be004402be00050037001182e90032
:101de0008408780014027800cfa2de00612bb900cd
:101df0000498be000690be008068900088c6b300bc
:101e000088cf50000d00320028c6b30088cf5000a4
:101e100004003a000402fb00cfa2de00612bb900ef
:101e20000800370048c7b30088cf500003003200d5
:101e30006644440088cf500004003a00cfa2de0080
:101e4000612bb9000498be000690be003002be00af
:101e50002003be00a0089000e00f5200e08f5a005f
:101e6000e00f5b00e08f5b0002003d00d4c2b300d6
:101e700008003700301290000418a300020032005e
:101e8000b4c2b300030037000408a30051003200bd
:101e900004c2b30084f178004c003700006a90005f
:101ea000c5c6b300854f520008003a0011057800fe
:101eb00064025500840878001404be006055b80020
:101ec0000802be000a03be001400370015c7b300a5
:101ed000854f520003003a00910478006882540054
:101ee00005003700a5c6b300854f520006003a0032
:101ef0001105780068025500840878005403be007c
:101f00004402be00050037001182e9008408780011
:101f1000140278008002eb006033b8000498be0021
:101f20000690be008068900088c6b30088cf50003d
:101f30000d00320028c6b30088cf500004003a00dc
:101f40000482fb008002eb006033b8000800370019
:101f500048c7b30088cf50000300320066444400f5
:101f600088cf500004003a008002eb006033b800d4
:101f70000498be000690be00b01090000138a30087
:101f8000140032003002be002003be00e00f5200f9
:101f9000e08f5a00e00f5b00e08f5b000d00320025
:101fa00081c7b300814f51000300320081c5b300e7
:101fb000814f510007003a00a008900004c3b3000d
:101fc00084f178008100e80082f178008100e80067
:101fd00021089800a00890008181410073009800ba
:101fe000824078003e00370080699000c4c6b3008c
:101ff0001181e90084cf5100220032000a003c0028
:102000006442520084cf51002500320004c2e8002f
:1020100084cf5100130032006842520084cf510037
:102020001e003a000a00370044c7b30084cf5100b5
:102030001b0032006642420084cf5100180032007b
:102040006942520084cf510014003a000500370065
:102050008208780092007800206090008048780024
:102060002c0037008208780092007800101290004f
:10207000cfa2de00612bb9008498be008690be001e
:102080002400370082087800920078001011900038
:10209000cf91de008288be001e0037001181e9006a
:1020a0008208780092007800101090008008780074
:1020b000180037001181e9008208780012027800c8
:1020c000cfa2de00612bb9000498be000690be00ce
:1020d000a0089000818141007300980081c7b3007f
:1020e0004e0007000b003700a008900082f1780036
:1020f00006003700a0089000818141000204e00042
:1021000001003a0052c2b300824978008100e80021
:10211000210898000000eb004f05be004f04be00f0
:10212000000006000000e0002f003200c00178002f
:10213000e38f51002c0036000308a3002a003a0068
:1021400071b080000100e00002003200810f5000f9
:10215000040031001100980070b0880016003700ac
:1021600082007800110190000200e00002003200bd
:10217000800f5100faff390011027800848240007c
:10218000850f500018003900808f520003003a007c
:102190008308420001007800070037000200e000d9
:1021a0000300320083014000830f51000e0039000c
:1021b0001200980090009800900090000100e0004c
:1021c0000900320010014000828f500006003a00e2
:1021d000c26021000009eb001001780011084100e5
:1021e00091009000110098000000060002003700e6
:1021f0000304e000060032000001780002007800cd
:10220000b041780081cf5100f9ff3a00010037005a
:102210000001eb000200780000000600fc87470088
:10222000889fbe008a9fbe008c9fbe008e1f7800d4
:102230000006780080c5b30080cf50000a0032004d
:102240007740400080cf50000a00320069404000d3
:1022500080cf50000b003200b058210080bf9f009b
:10226000ae0020000a003700a257210082bf9f0065
:1022700006003700b358210083bf9f008e00200066
:1022800003003700b458210084bf9f000e012000d6
:102290003c02be002c03be000605be000404be00c6
:1022a00040c6b30080cf50000300320065404000bc
:1022b00080cf50000b003a00e00f5200e08f5a0030
:1022c000e00f5b00e08f5b0006003d006000b8009f
:1022d0006011b800040450008584580006055900b8
:1022e00087855900e80f57000400320040002000a5
:1022f000f00f570038003a0001003700300020008e
:10230000e00f5400e08f5c00e00f5d00e08f5d00a7
:1023100004003a008c1090008d0120000100e000c4
:10232000060032008e00e900888060008fba9700b6
:10233000e5c07800f1ef9f007d012000800078006b
:102340008100e900050033008b05d1000a85d30028
:102350008984d3000884d300f9ff3700089ebe00ab
:102360000a96be00120037008d06e9008e00e900d3
:10237000848060000fb99700e2c1780082fd2f00d1
:102380000f01410003f17e00800078008100e90028
:10239000050033008783d1000683d3008582d300f4
:1023a0000482d300f9ff3700049ebe000696be00eb
:1023b0003c02be002c03be00e00f5200e08f5a002a
:1023c000e00f5b00e08f5b008b0034000d00e0004d
:1023d000e5ff3c00880037000c68900081c6b30020
:1023e000814f50000b00320006003c000004e0006a
:1023f00008003200e6c05000814f50004e003a0005
:1024000004003700c1c6b300814f50004a003a00b3
:10241000210037000800e00004003a000c10900092
:102420008d0120000000e0000600320011000900cc
:102430000e84d8000fb99700e2c07800f1ef9f003a
:102440007d012000110009000e84d8000a00370029
:10245000110009000e04d8008d06e9000e81b900b4
:10246000020454008fb8970061417c0081fd2f0069
:102470008f80400082f07e00000478000800e000b9
:10248000020032000d00e000f1ff3c00cfc4de008e
:10249000614db90025003700e00f5400e08f5c006b
:1024a00004003a000c1090008d0120000000e000b4
:1024b000070032006171b9000800be002803070060
:1024c0008fb99700e3417800f3ef9f007d01200072
:1024d0006171b9000800be00110307000b0037004e
:1024e0006171b9000800be00fe0207008d06e90018
:1024f00000f1b900020454000fba9700e4427c00d6
:1025000084fd2f000f02420005f27e000004be0091
:10251000e00f5000e08f5800020032000d00e00094
:10252000efff3c004fcdde008a057800089ebe001c
:102530000a96be0030003700e00f5400e08f5c00c8
:10254000e00f5d00e08f5d0004003a000c10900089
:102550008d0120000000e000090032006172b90026
:10256000612bb9000800be000a01be00a5030700e8
:102570000fba970064427800f4ef9f007d012000bd
:102580006172b900612bb9000800be000a01be00eb
:10259000950307000d0037006172b900612bb90087
:1025a0000800be000a01be009a0307008d06e9007c
:1025b00000f2b900040454008fba970065427c0011
:1025c00085fd2f008f82420084f27e00009ebe00b7
:1025d0000296be003c04be002c05be00e00f540075
:1025e000e08f5c00e00f5d00e08f5d0002003400d2
:1025f0000d00e000e8ff3c00e80f570010003a0033
:102600003c1090000038a3000d003200f78f5600f8
:1026100006003e0085fd2f008f824200e5c07e004f
:1026200000c3b30080cf5000050032008d06e900e2
:1026300002c3b30081fd2f008f80400082f07e0036
:1026400078811600420e98007c00900083fd2f00d8
:102650008f8141008d8041009cfc07004c08900058
:102660008c109000810f500006003d00008050004b
:10267000300e98003c1090000040a10030169800e9
:102680000f0037000100e0000d003d00bc1090007d
:10269000f4806000f08f500009003a002c11900087
:1026a000ac089000810051003c09900082805000ed
:1026b000008050004240a90001003400300e980014
:1026c0004f0778004f06be004f05be004f04be0006
:1026d000cf01b100000006000400fa00889fbe0090
:1026e0008a9fbe008c1f78000004780001067800e5
:1026f000a8149000280890008084540038089000a6
:102700008084540048089000808454005808900049
:1027100080845400680890008084540078089000f9
:10272000808454000002220090bf9f000003230019
:10273000a0bf9f00381090000028a30015003a00a9
:102740000900e00013003400090578008a057800cc
:10275000e20f5500010036002b002000c801900058
:102760000b017800ee805700680090000300010024
:10277000600498000000e000aa00320018109000e9
:102780000b004000101498000b0555004240a900b2
:10279000eeff3c00280990000200e0000c0034002d
:1027a000c80190008c0078006800900003000100d0
:1027b000600498008080eb000000e0009a00320086
:1027c0009810900028089000008040001014980095
:1027d000380d90000a00e000110034008a057800ee
:1027e000e20f5500010036002b002000c8019000c8
:1027f0000b017800ec805700680090000300010096
:10280000600498000000e00086003200181090007c
:102810000b004000101498000b055500edff370029
:1028200008699000c808900050c6b300804f51005e
:1028300008003a000100e000150034005802900042
:1028400008099000980990006800900004000100b9
:10285000070037000100e0000d003400c8019000bf
:1028600001017800f800900068009000030001006a
:10287000600498008080eb000000e0006a003200f5
:1028800098109000480890000080400010149800b4
:10289000580d90000a00e000110034008a0578000d
:1028a000e20f5500010036002b002000c801900007
:1028b0000b017800ec8057006800900003000100d5
:1028c000600498000000e0005600320018109000ec
:1028d0000b004000101498000b055500edff370069
:1028e000086990006808900051c6b300814f5100fc
:1028f0000d003a000000e0001c0034007801900058
:10290000c8089000010141006111b800828fd20017
:102910008381d20058029000800078006800900007
:1029200004000100090037000000e0000f0034003f
:1029300078019000c808900081004100c801900013
:102940000001780068009000030001006004980016
:102950008080eb000000e00033003200981090000f
:10296000680890000080400010149800780d9000d6
:102970000a00e000110034008a057800e20f5500db
:10298000010036002b002000c80190000b017800e8
:10299000ec8057006800900003000100600498007c
:1029a0000000e0001f003200181090000b004000f3
:1029b000101498000b055500edff370038109000fb
:1029c0008000eb000028a300170032000900e0009f
:1029d0001500340009057800e28f5400010036002c
:1029e0002a002000c80190000a017800ee805700fc
:1029f0006800900003000100600498000000e000ff
:102a000008003200181090000a00400010149800ce
:102a10008a8454004240a900eeff3c008000eb0095
:102a2000010037008080eb00010078004f0678003d
:102a30004f05be004f04be000080fa0000000600f3
:102a40000108780000000600e6874700889fbe0066
:102a50008a9fbe008c9fbe008e1f780082bf9f00a1
:102a600004047800029ab900f4b79f000400e00063
:102a7000590032000fb997000200e0005700320001
:102a80000006be0004077800c800900068009000af
:102a9000808f500004003900080078009100070082
:102aa0000000e0003b0035000040200018006000fe
:102ab0000a0032008e017800a20020000c00be0047
:102ac0006d0107000005be000080750007003200a0
:102ad0008c0455008904e800050037008e04780056
:102ae0000a0020000b002000010037008e0478004f
:102af000480190006800900002005000890f5000cb
:102b000003003100800478000a0020000b00200040
:102b10006111b800828fd2008381d200090278004f
:102b20000c00be002b010700090757004800900069
:102b300009004000400498000a8575000400320036
:102b4000080078002c0007000000e00011003a00a7
:102b50000e00e0000f0032006148b800808fd20004
:102b60008180d2000000780000f0a1008c01d0002c
:102b70000001d000028641004220a80081864e005c
:102b80004200a9004220ae004200a8000c86d300fb
:102b9000bdff3700008020001800600002003200f6
:102ba000080078001400070000c020001800600032
:102bb00002003200c8019000630498007fb09700c3
:102bc0000e0750000fb99700110009000287d800c6
:102bd00080017800010037008001eb0003007800dd
:102be0004f0778004f06be004f05be004f04be00e1
:102bf0006f00b10000000600889fbe00000478004e
:102c00000800e0000f003a008004eb00090478009f
:102c10008800d000a0562100610078000000e0008c
:102c200004003200f4ff07000000e00001003d0056
:102c30008084eb000804e800e80f5400f4ff3a0039
:102c40002500370000002200180060008004eb001f
:102c500021003200a80490000f0037000901510044
:102c6000384090000000fb0089007800a6f80700bb
:102c70000000e00007003c0028009000400498009d
:102c800060049800500c98001890a0008084eb001d
:102c9000110037008084440048019000828f540066
:102ca000eeff39002800900040049800980078005a
:102cb00002c020000281600001003a00380090004c
:102cc00001e8a30002003200600498000100370010
:102cd000500c98008004eb00090078004f04be00ff
:102ce00000000600889fbe008a1f7800000478005c
:102cf000c8009000680190000000eb00828f500037
:102d00003c00390018007800220029000201600010
:102d1000e20f510007003200012020000000e00017
:102d20000100350001202400008c70000080eb00c1
:102d3000300037000200260002006000820f5000c1
:102d400009003a0038009000808f500006003900da
:102d500008007800a8ff0700800078000080eb00e2
:102d60000100e00023003a001805780000c02000b0
:102d70000000650018003a00a804900060022000de
:102d800008004000808f540013003a00002020000b
:102d9000a4fa0700200498000000e00005003a00b3
:102da00029049800490498008904e800390498002f
:102db000080037000a60a0000a0c78004004980060
:102dc000012020008080400031049800400c9800d1
:102dd000500c98000c000700280090005004980048
:102de000380090006004980000002600180c700065
:102df0000000eb004f0578004f04be000000060005
:102e0000607a210061003700881f78006861210026
:102e10001804e00003003a00f9ff070020c0b300e7
:102e2000004c78004f04780000000600889fbe0028
:102e300000047800080078006fff07008004780025
:102e400000042000180060000200320028009000fa
:102e5000b4fc07000000eb0020049800384090000c
:102e60000004e000050035000000fb001df807002d
:102e70000000e000010032008084eb001810900098
:102e80000000e0000800320061f807000000e000e8
:102e9000010032008084eb0018109000a1fc0700b4
:102ea0000000eb00101498000008200018006000db
:102eb000150032000001eb006000b800a3562100ad
:102ec0000202d00063027a00880f520005003a0027
:102ed0000000400081804800008041000008eb00b5
:102ee0000600370061004000e08048000201e80071
:102ef000e80f5000e08f5800f0ff3a00080078001b
:102f000088fc07000e003700000c780000c0eb00c2
:102f1000304498006002200008004000200498001f
:102f20004004980050049800400c980060049800f9
:102f3000500c98007004980076004400000c980033
:102f4000090078004f04be0000000600881f7800ca
:102f50000004eb006140b800e2ff2f00f3ff2f00f8
:102f60008200070082572100620078000000e00024
:102f700001003200adff07000804e800e80f54002c
:102f8000f4ff3a004f047800000006000100200022
:102f90000100e00008003200010080000100e000b4
:102fa000050032008100e900010088008100d000a6
:102fb0000200800000b178000000060000c0da00c6
:102fc0000000060000c0da000000060000c0da00c1
:102fd000000006003400f8003200f8000203be00d2
:102fe000820270008502720002f0a6008301e800f0
:102ff000a301880000f0a6008100e800910188008c
:103000001500b2000c003200104978000402e900fb
:103010001500320061014100020039003420ec004b
:103020000200280061004000f7ff39003220ec0068
:1030300000002800f4ff3700100978000482e9003e
:103040000900320062014100020039003420ec0026
:103050000200280062004000f7ff39003220ec0037
:1030600000002800f4ff37003200f9003400f900b6
:103070000601be00000006000300e0000700320069
:103080009501800091018800104278009501880028
:103090000402fb00820f5200110032008301e9009c
:1030a0009501800091018800104278009501880008
:1030b0000404e00008003200000278001000b000b4
:1030c00000026a004260af0000f0a0000482d2005b
:1030d0000180b000e8ff3700000020000100200060
:1030e00000000600839f68000100e00002003d0030
:1030f00060001000e08018000300e00002003d00c6
:1031000060011100e0811900050007004f00e00098
:1031100002003b0060001000e08018000000060084
:103120006022b800060220000000d0008180d2009a
:103130000482d2008582d2000000a0000202520068
:1031400083825a00030031000202420083824a0057
:103150000000a1000603e900f3ff3a0000000600aa
:10316000efff07000400be0000000600020ab900dd
:10317000001bb9000200b80081004200810043003a
:1031800000000600889fbe008a9fbe0030044200f7
:10319000b0844a0030054b0090854b006000b100c0
:1031a0000898be000a90be000440e10005c8e10096
:1031b00006d0e10007d8e1000200310068004000bd
:1031c0001008e8004f05be004f04be0000000600d6
:1031d000889fbe008a9fbe003004be002005be004e
:1031e0000418540005985c0006185d0007985d00ff
:1031f000110020000440e10005c8e10006d0e10014
:1032000007d8e100010039008000eb0010881000b1
:103210004f05be004f04be00000006001200fa0079
:10322000889fbe008a9fbe008c9fbe00e0b79f00b3
:10323000f1b79f0082bf9f0093bf9f000605be00ad
:103240000404be000000eb00d0b79f00c0b79f0091
:10325000b0b79f00a0b79f0090b79f00000678000e
:103260005fb19700cfb09700820141003fb0970057
:103270000200e00004003d00370007007e80570098
:10328000c0ff070003003700330007007e805700af
:10329000cfff0700dfb697000d00e0000c003500ff
:1032a0006fb29700ffb297000fbb97009fbb9700cc
:1032b00010002000010020006011b8000002720020
:1032c0008182720002037300838373001b00070076
:1032d0000c06e80001042000810f5600e0ff3a00d0
:1032e0000d00e00004003d000802be000a03be001d
:1032f0007e805700a3ff07005fa897000000e00052
:1033000005003a001fb29700afb297003fb3970095
:10331000cfb39700090007006fb09700ffb0970088
:103320000fb997009fb997004f06be004f05be002a
:103330004f04be000080fa000000060001000700f4
:1033400000000600a4b79f00b5b79f00c6b79f0056
:10335000d7b79f00000006004f09de008281710090
:10336000b3b79f004f01de00818040008280700073
:10337000a1b79f008fb097004f09de00000040000a
:103380000200700090b79f007fa897004f01de00f9
:10339000818040008280700081b79f000d0007008f
:1033a0004f3ade000000400004007000f0af9f00c4
:1033b000080007000402420085824a0006034b0011
:1033c00087834b00dfff07000802be000a03be0030
:1033d000000006002fb29700bfb297004fb39700ce
:1033e000dfb3970000000600881f78001800200057
:1033f000881f780089ff07008f87e9004f04780055
:1034000000000600801feb0084ff07008f87e900a3
:1034100000000600889fbe008a9fbe00e00f50009b
:10342000e08f5800e00f5900e08f59000c003d007c
:103430006044b8006055b8000000540081805c0012
:1034400002015d0083815d00180020001500070067
:1034500008003d00180007000004eb0005003700dd
:103460000004eb000f00070002003d0012000700ff
:1034700018002000dcff07000800e0000600320012
:103480006022b8006033b8000000520081805a000a
:1034900002015b0083815b004f05be004f04be004c
:1034a00000000600e00f5200e08f5a00e00f5b00c2
:1034b000e08f5b00000006006044b8006055b80073
:1034c0000402540085825c0006035d0087835d0072
:1034d00000000600889fbe008a9fbe008c1f7800f7
:1034e000e00f5000e08f5800e00f5900e08f5900c6
:1034f0000d003d006044b8006055b8000000540065
:1035000081805c0002015d0083815d001c00200061
:103510000820e10009a8e1000ab0e1000bb8e100d1
:103520000d003d00080037000006eb00e00f5200e0
:10353000e08f5a00e00f5b00e08f5b0006003d006b
:103540006044b8006055b8000402540085825c00f5
:1035500006035d0087835d00aaff07000c00e00002
:10356000060032006022b8006033b800000052004c
:1035700081805a0002015b0083815b004f06780066
:0c3580004f05be004f04be000000060016
:020000040000fa
:10358c000000000020030000b004000074310000b3
:10359c00302e000074780000743d000022520000b0
:1035ac00554e00004e4900004e470000220000001e
:1035bc0074310000302e0000626300006f3d00008b
:1035cc003130000032340000006300006c650000f4
:1035dc00203100002c30000000740000313000005d
:1035ec002e740000787400003d220000535400003b
:1035fc004f500000504500004422000000740000b1
:10360c00313000002e620000636f00003d35000079
:10361c00353900003738000000780000312e0000ea
:10362c00766100006c3d000025640000007800000d
:10363c00322e0000766100006c3d00002564000015
:10364c000061000064640000203100002c30000098
:10365c002c25000064000000616400006420000060
:10366c00312c0000312c000025640000000000000b
:020000040000fa
:10367c000001fa0010c0b3001ae8b7002428ef00cc
:10368c00c0812000210020002100980000c0eb0028
:10369c0004070700b0cfb300020707000040eb009f
:1036ac00004f780020002000b04088000e00e80099
:1036bc0022012000c1ac290081f807000b00370063
:1036cc0000000000d11c8000002020000080600061
:1036dc000000e000fbff3a001e80fb0000004700ea
:1036ec00104090001e4fe800770807001e80fb007a
:1036fc0000004700104090000004e000f0ff3a008a
:10370c000040eb00004f780000c0eb006e08070093
:10371c0000c0eb006c08070000c0eb006a08070053
:10372c000e00e800d2002000e1ad290064f807008b
:10373c0000fa200001002000a50e07000b00370046
:10374c0000000000d11c80000020200000806000e0
:10375c000000e000fbff3a001e80fb000000470069
:10376c00104090001e4fe800570807001e80fb0019
:10377c0000004700104090000004e000f0ff3a0009
:10378c000040eb00004f780000c0eb004e08070033
:10379c0000c0eb004c08070000c0eb004a08070013
:1037ac000e00e80082002000b1ae290044f80700aa
:1037bc0000fa200001002000850e07000b003700e6
:1037cc0000000000d11c8000002020000080600060
:1037dc000000e000fbff3a001e80fb0000004700e9
:1037ec00104090001e4fe800370807001e80fb00b9
:1037fc0000004700104090000004e000f0ff3a0089
:10380c000040eb00004f780000c0eb002e080700d2
:10381c0000c0eb002c08070000c0eb002a080700d2
:10382c001628ef000080fa00000006000001fa00e4
:10383c006686a8001a68ef000000eb00f0a2880072
:10384c0010002000204188002628ef00c0812000b5
:10385c00110020002100980000c0eb009106070029
:10386c00a0cfb3008f0607000040eb00004f78009c
:10387c0020002000b04088000e00e800220120004b
:10388c0031af29000ef807000b00370000000000d4
:10389c00d11c800000202000008060000000e000af
:1038ac00fbff3a001e80fb00000047001040900018
:1038bc001e4fe800040807001e80fb0000004700b4
:1038cc00104090000004e000f0ff3a000040eb00d4
:1038dc00004f780000c0eb00fb07070000c0eb00b6
:1038ec00f907070000c0eb00f70707000e00e8001f
:1038fc00e200200051b02900f1f7070000fa200087
:10390c0001002000320e07000b0037000000000001
:10391c00d11c800000202000008060000000e0002e
:10392c00fbff3a001e80fb00000047001040900097
:10393c001e4fe800e40707001e80fb000000470054
:10394c00104090000004e000f0ff3a000040eb0053
:10395c00004f780000c0eb00db07070000c0eb0055
:10396c00d907070000c0eb00d70707001628ef00a7
:10397c000080fa00000006000000fa0030338000de
:10398c0000407800614060000004a20061406000cb
:10399c000080fb0061006000313380000100a10059
:1039ac0001007000303388000080fa00000006002f
:1039bc000000fa00204621008040eb00014878000e
:1039cc0061a38000d0a28000f20f2000bcf707009a
:1039dc0071a38000e0a28000f20f2000b8f707006e
:1039ec00820020005147210030462100b4f7070027
:1039fc000000eb00f0a28800d04721009040780036
:103a0c00b04621000148780090a3800000a38800f4
:103a1c002046210011c0b300014878000080fa0054
:103a2c00000006000000fa00f1a38000d0a2800084
:103a3c00f20f2000a2f7070001a48000e0a2800092
:103a4c00f20f20009ef70700820020007148210031
:103a5c00304621009af707000000eb00f0a2880026
:103a6c00b04621008040eb000148780020a4800083
:103a7c0000a388002046210011c0b3000148780043
:103a8c000080fa00000006000000fa00814080006f
:103a9c00904080000000d1000074a1000080fb0069
:103aac004200dd00008040001000780061006000e2
:103abc000000e000020032000040eb00390037004b
:103acc0081408000904080000000d1000074a10073
:103adc000080fb004200dd000080400010007800f8
:103aec00620060000000e000020032000040eb00c9
:103afc002c00370081408000904080000000d100f5
:103b0c000074a1000080fb004200dd00008040003a
:103b1c0010007800640060000000e0000200320039
:103b2c000040eb001f003700814080009040800077
:103b3c000000d1000074a1000080fb004200dd00f9
:103b4c0000804000100078004400de008000780007
:103b5c0040d68400808f5000020036000040eb00fd
:103b6c001000370081408000904080000000d100a0
:103b7c000074a1000080fb004200dd0000804000ca
:103b8c00100090004200de008000780050d68400c7
:103b9c00808f5000020036000040eb00010037001f
:103bac0010c0b3000080fa00000006000400fa0008
:103bbc00000f2f00010f2f00eb0a0700008fbe0033
:103bcc0081408000904080000000d1000074a10072
:103bdc000080fb004200dd00008040003e187800b1
:103bec002e107800904080000000d1000074a100dd
:103bfc000040e8000074a1008080fb00f00720006a
:103c0c0000806000000040009240800011f02f0006
:103c1c00810061000100700090408800904080009d
:103c2c000000d1000074a1000080fb00ea0f5000de
:103c3c00050034009140800010f02f0000806000df
:103c4c00904088001208a8000080fa0000000600ce
:103c5c000400fa00904080000000d1000074a10024
:103c6c00004f78001e4078000004e00003003a008a
:103c7c00a0c0b300004f7800010037001e4fe900d0
:103c8c000000eb0010079800814080001e80fb00b4
:103c9c004200dd0000804000100090004200de0079
:103cac009e00900001007000100798008140800079
:103cbc001e80fb004200dd000080400010009000e0
:103ccc004200de004880de009e0090000100700083
:103cdc00100798001e0090000080fa0000000600fb
:103cec000200fa000040eb00004f78001000370093
:103cfc00df060700004f78001e80fb00e10f50002c
:103d0c0003003200e20f50000600320008003700ba
:103d1c005dff07000004e0000400320054fe0700c1
:103d2c0003003700c1fe070001003700000000004f
:103d3c00fa0607000004e000edff3a000080fa00ec
:103d4c00000006000200fa000040eb00104798004b
:103d5c000040eb00004f7800a0408000e20f5000c4
:103d6c002c013200e20f500005003e000000e00084
:103d7c000a003200e10f50000d0132003001370013
:103d8c00e40f500015013200e40f500026013900f9
:103d9c00e50f500018013200290137002b050700f0
:103dac00104798001e4090000080fb00e30f50006d
:103dbc0048003200e30f500005003c00e10f5000ba
:103dcc002f003200e20f50003e0032001c01370081
:103ddc00e40f500043003200ea0f500017013a0084
:103dec001a050700104798001e4090000080fb0049
:103dfc00e30f500015003200e30f500005003c00ab
:103e0c00e10f50000a003200e20f50000d003200aa
:103e1c001a003700e50f500012003200e50f500079
:103e2c000e003500e60f5000100032001300370072
:103e3c0015ff07000004e000010032000cfe070033
:103e4c000e00370079fe07000c003700c0812000ff
:103e5c00410020002100980008003700d4fe070024
:103e6c0006003700effe070004003700c081200079
:103e7c003100200021009800000000001c003700d9
:103e8c000000eb0080a4880010002000a0408800f7
:103e9c00c081200011c0b30071409800c081200087
:103eac008000eb0011009800c08120008000eb0026
:103ebc0001087800404721008040eb000148780061
:103ecc000b0037001000200080a488002000200088
:103edc00a04088002000200080a488003000200032
:103eec00a040880040002000a0408800d40037008b
:103efc00d3003700d504070010479800c08120007c
:103f0c0010007800e20f50002a003200e20f50003f
:103f1c0005003e000000e00008003200e10f5000f8
:103f2c001d0032009d003700e30f50003b003200b3
:103f3c00e40f50006a00320098003700c081200066
:103f4c00100190009e40900040472100000041006d
:103f5c00114098001e4fe800c08120001000900016
:103f6c008000e800c081200011009800c081200072
:103f7c0010009000e80f50008f003a00c081200024
:103f8c008000eb0011009800c0812000110020007f
:103f9c00010878008d003700d04721009e4090002a
:103fac0001487800c0812000210020000108780021
:103fbc0086003700c0812000100090000000e00057
:103fcc0009003a001e4090000080fb0090a388007e
:103fdc00c0812000100090008000e800c08120000b
:103fec00110098007900370091a380001e409000ca
:103ffc000080fb004800dd000080400090a388009a
:10400c00c08120008000eb0011009800c0812000ce
:10401c0031002000010878006c003700c0812000be
:10402c0010009000610060000000e0000a003a00ff
:10403c0061a38000c0812000100090000000d1001e
:10404c0000004000008040009e4090008180fb00fa
:10405c00010878000f00370062a38000c0812000a7
:10406c00100090000000d100800040008100410051
:10407c0062a38000000040000000410010017800a5
:10408c001e4090000080fb004800dd000000410055
:10409c0080087800c0812000100090008000e800ab
:1040ac00c081200011009800c08120009000900079
:1040bc0090a380000000e80000004000808f5000ba
:1040cc003f003a00c08120008000eb0011009800f6
:1040dc00c081200041002000010878003b0037001f
:1040ec00c081200010009000610060000000e00022
:1040fc000a003a0071a38000c081200010009000db
:10410c000000d10000004000008040009e40900064
:10411c008180fb00010878000f00370072a380003b
:10412c00c0812000100090000000d10080004000f1
:10413c008100410072a3800000004000000041009b
:10414c00100178001e4090000080fb004800dd004c
:10415c000000410080087800c08120001000900011
:10416c008000e800c081200011009800c081200070
:10417c009000900090a380000000e8000000400038
:10418c00808f500010003a004047210011c0b3004e
:10419c00014878001428ef000c003700c081200083
:1041ac008040eb00714098001428ef0007003700a6
:1041bc00000000000500370000000000030037007d
:1041cc00000000000100370000000000a04080004b
:1041dc00e10f500047ff3200190037001e409000dd
:1041ec000080fb004800dd0090a4880050002000f7
:1041fc00a04088001200370091a480001e4090005f
:10420c000080fb000100700090a488001428ef00cf
:10421c000b00370071408000004080000a0b070043
:10422c001428ef0006003700614080000040800039
:10423c00050b07001428ef000100370000000000f8
:10424c000080fa00000006001001fa00b040800067
:10425c000000e00024013a000040eb00004f780021
:10426c00904080000000d1000074a100104798001d
:10427c001e4090000004e00003003a00a0c0b30010
:10428c0010479800030037001e4090000040e900e2
:10429c0010479800814080001e4090000080fb0079
:1042ac004200dd0000804000100090004200de0063
:1042bc0020479800814080001e4090000080fb0049
:1042cc004200dd0000804000100090004200de0043
:1042dc004880de00304798006000b8002007980046
:1042ec00310798002e4090000080fb008000eb000e
:1042fc004ef407000200200003082400caf3070054
:10430c0020079800310798003e4090000080fb0089
:10431c008000eb0045f40700020020000328240075
:10432c0097f407000001be002e009000be00900024
:10433c0060f307002007980031079800c140800007
:10434c00410798006000b80050079800610798007a
:10435c004e009000604f98004e0090004800de0028
:10436c00704f98006e4890000080fb008000eb00be
:10437c002ef407000200200003082400aaf3070013
:10438c0050079800610798007e4890000080fb0061
:10439c008000eb0025f40700020020000328240015
:1043ac0077f407000001be005e009000ee00900064
:1043bc0040f3070050079800610798001ac8bf0027
:1043cc000004e000a200320002002000832c240034
:1043dc002e009000be00900069f40700d4f3070093
:1043ec008000780070004700811f780031b12900ef
:1043fc00811f780057f50700e48757000b00370042
:10440c0000000000d11c8000002020000080600013
:10441c000000e000fbff3a001e80fb00000047009c
:10442c00005090001e4fe800270507001e80fb007f
:10443c0000004700005090000004e000f0ff3a003c
:10444c000040eb00004f780000c0eb001e05070099
:10445c0000c0eb001c05070000c0eb001a050700ac
:10446c0002002000031224005e009000ee00900079
:10447c0043f40700aef3070080007800700047009b
:10448c00811f7800d1b12900811f780031f5070018
:10449c00e487570000fa2000010020004c0b0700b5
:1044ac000b00370000000000d11c80000020200011
:1044bc00008060000000e000fbff3a001e80fb0063
:1044cc0000004700005090001e4fe800fe0407005b
:1044dc001e80fb0000004700005090000004e0002c
:1044ec00f0ff3a000040eb00004f780000c0eb00fa
:1044fc00f504070000c0eb00f304070000c0eb005c
:10450c00f1040700f25a220043fd23002e00900014
:10451c00be00900044f3070085f30700800078008c
:10452c0070004700811f780071b22900811f78004c
:10453c0008f50700e487570000f421000100200073
:10454c00230b07000b00370000000000d11c80007b
:10455c0000202000008060000000e000fbff3a001b
:10456c001e80fb0000004700005090001e4fe8002a
:10457c00d50407001e80fb0000004700005090008f
:10458c000004e000f0ff3a000040eb00004f780020
:10459c0000c0eb00cc04070000c0eb00ca0407000d
:1045ac0000c0eb00c8040700f25a220043fd2300b0
:1045bc005e009000ee0090001bf307005cf3070018
:1045cc008000780070004700811f780021b329001b
:1045dc00811f7800dff40700e487570000f4210006
:1045ec0001002000fa0a07000b0037000000000051
:1045fc00d11c800000202000008060000000e00042
:10460c00fbff3a001e80fb000000470000509000aa
:10461c001e4fe800ac0407001e80fb0000004700a2
:10462c00005090000004e000f0ff3a000040eb0066
:10463c00004f780000c0eb00a304070000c0eb00a3
:10464c00a104070000c0eb009f0407002600370000
:10465c0002002000832c24002e009000be0090004d
:10466c00c7f3070032f307008000780070004700a2
:10467c00811f780031b12900811f7800b5f4070043
:10468c00e48757000b00370000000000d11c8000ad
:10469c0000202000008060000000e000fbff3a00da
:1046ac001e80fb0000004700005090001e4fe800e9
:1046bc00850407001e80fb0000004700005090009e
:1046cc000004e000f0ff3a000040eb00004f7800df
:1046dc0000c0eb007c04070000c0eb007a0407006c
:1046ec0000c0eb00780407000080fa000000060010
:1046fc001200fa00904080000000d1000074a1006c
:10470c00004f78001e4078000004e00003003a00df
:10471c00a0c0b300004f7800010037001e4fe90025
:10472c00814080001e80fb004200dd0000804000c4
:10473c00100090004200de0040479800814080004d
:10474c001e80fb004200dd00008040001000900045
:10475c004200de004880de00504798008140800017
:10476c001e80fb004200dd0000804000100078003d
:10477c004400de0060479800814080001e80fb00f2
:10478c004200dd0000804000100078004400de0094
:10479c004880de0070479800314180004107980046
:1047ac004e009000204f98004e0090004800de0014
:1047bc00304f9800c1408000610798006e00900057
:1047cc00604f98006e0090004800de00704f98001b
:1047dc00c081200020009000e20f50001900320030
:1047ec00e20f500005003e000000e000d400320053
:1047fc00e10f500006003200d2003700e40f5000e9
:10480c0021003200e40f5000b1003900cd00370018
:10481c0000c0eb00a302070000c0eb00a1020700e0
:10482c004e4090009f0207005e4090009d020700e2
:10483c006e4090009b0207007e409000990207009a
:10484c00c000370000c0eb0096020700e0cfb300b9
:10485c00940207004e409000920207005e409000c8
:10486c00900207006e4090008e0207007e40900080
:10487c008c0207002e4890008a0207003e489000e8
:10488c0088020700af00370000a380000000e8009a
:10489c00000f980000000000811d80000020200007
:1048ac00008060000000e000fbff3a0000c0eb005d
:1048bc007c02070000000000811d80000020200009
:1048cc00008060000000e000fbff3a00d0cfb30096
:1048dc00740207000000eb00100798000f0037006f
:1048ec0000000000811d800000202000008060007e
:1048fc000000e000fbff3a001e009000e8004000c2
:10490c00a045210000804000104090006502070087
:10491c001e0090000000e800100798001e00900098
:10492c00e70f5000eeff360000000000811d8000f4
:10493c0000202000008060000000e000fbff3a0037
:10494c00b04621001040780056020700000000001d
:10495c00811d800000202000008060000000e0002d
:10496c00fbff3a0000a38000004078004d020700d6
:10497c0000000000811d80000020200000806000ed
:10498c000000e000fbff3a0000a380004800de00be
:10499c0000407800430207000000eb00100798006d
:1049ac001e00370000000000811d80000020200048
:1049bc00008060000000e000fbff3a00d1a2800004
:1049cc001e009000000040000080400010007800a5
:1049dc00004078003302070000000000811d8000b9
:1049ec0000202000008060000000e000fbff3a0087
:1049fc00d1a280001e00900000004000008040000a
:104a0c00100078004800de00004078002502070006
:104a1c001e0090000000e800100798009e00900017
:104a2c000e089000808f5000deff39000000eb0074
:104a3c00100798001e00370000000000811d800048
:104a4c0000202000008060000000e000fbff3a0026
:104a5c00e1a280001e009000000040000080400099
:104a6c0010007800004078000e02070000000000e3
:104a7c00811d800000202000008060000000e0000c
:104a8c00fbff3a00e1a280001e00900000004000f5
:104a9c0000804000100078004800de0000407800e4
:104aac00000207001e0090000000e80010079800ac
:104abc009e0090000e089000808f5000deff3900a1
:104acc00c081200011002000210098001d0037003b
:104adc0000c0eb00f3010700c0cfb300f1010700e9
:104aec004e409000ef0107005e409000ed01070082
:104afc006e409000eb0107007e409000e90107003a
:104b0c002e489000e70107003e489000e5010700a1
:104b1c0000000000811d800000202000008060004b
:104b2c000000e000fbff3a006e489000dd0107003a
:104b3c007e489000db0107000000000001003700f8
:104b4c00000000000080fa00000006000000fa00df
:104b5c003000200080a488000080fa0000000600cd
:104b6c000600fa0080a380000000e00013003a0069
:104b7c0000c2b300104798001e4090000080fb005c
:104b8c00f10f200000017800110009008200d8000c
:104b9c00204798000040eb00004f780003003700de
:104bac0081a38000210798001e4fe8002e40900042
:104bbc009e40780080cf5000f9ff39003000200073
:104bcc0080a488000080fa00000006000000fa00b3
:104bdc002ac8bf000040e8002ae8b7002ac8bf0076
:104bec00e34f500006003a002a68ef004b0807001c
:104bfc0061080700414080000040800092080700d7
:104c0c000080fa00000006001e00fa00889fbe001b
:104c1c001ac8bf000004e0006f0032009afb0700c6
:104c2c000004e0006b003200304180001007980057
:104c3c000000e80030418800f1a28000010f7800ec
:104c4c0001a38000210798009e00e8002e00900030
:104c5c00808f500009003600f4fa0700730037000b
:104c6c001e0fe8009e00e8002e009000808f500080
:104c7c0003003600edfa07006c003700000000005e
:104c8c00e1a280001e00e80000004000008040000f
:104c9c00900078001e009000808f5000f0ff3900cb
:104cac009e007800f1a28800d1a280001e0078003e
:104cbc000000400000804000100078003007980091
:104ccc00d1a280001e00e8000000400000804000df
:104cdc001000780040079800e1a280001e007800c8
:104cec000000400000804000100078005007980041
:104cfc00e1a280001e00e80000004000008040009f
:104d0c001000780060079800ee0090005e009000a4
:104d1c000080500070079800ce0090003e0090007c
:104d2c0000805000000f98005e0090009e009000e4
:104d3c0000805000100f98001e089000cf80de00fd
:104d4c00b7f107000004be007e009000cf80de00ab
:104d5c00b3f107000001be000800be0032f10700ed
:104d6c00200f9800310f98000e089000cf80de00c5
:104d7c00abf107002e099000be09900000f207006d
:104d8c00400f9800510f98003e009000cf80de003d
:104d9c00a3f107004e099000de099000c5f0070052
:104dac0084f1070000007800c0408800a8fb0700d1
:104dbc00600f9800c14080006e089000808f5000fa
:104dcc00020036006686a900030037006686a8003c
:104ddc000100370095fa070028c8bf000004e00066
:104dec000e003a0029c8bf000040e80029e8b700cf
:104dfc0029c8bf00e64f500002003a00bf07070069
:104e0c002968ef0051408000004080000e08070028
:104e1c0010c0b30028e8b700040037001140800030
:104e2c0000408000080807002868ef004f04be000f
:104e3c000080fa00000006000000fa0041408000eb
:104e4c0000408000000807000080fa000000060007
:104e5c000000fa005140800000408000fa07070073
:104e6c000080fa00000006000000fa0021408000db
:104e7c0000408000f40707000080fa0000000600e4
:104e8c000000fa003140800000408000ee0707006f
:104e9c000080fa00000006000000fa0063fa070028
:104eac0020cc2100d707070000408800c0dd21007e
:104ebc00d40707001040880060e72100d1070700e5
:104ecc002040880080ea2100ce070700304088008f
:104edc00a0122200cb07070040408800e0372200d8
:104eec00c807070050408800c05a2200c5070700b9
:104efc0060408800605b2200c20707007040880099
:104f0c0000408000b5070700c05e22007307070051
:104f1c00a060220015070700a073220045020700bd
:104f2c0060742200ba0007001807070096030700f8
:104f3c000c020700a145210042492100080009008c
:104f4c00b2187800c1462100624a2100080009000d
:104f5c00b2187800e1472100824b210008000900bb
:104f6c00b218780060862000d0a2880000e62000ed
:104f7c00e0a288000000eb00f0a2880040a6200010
:104f8c0060a38800e005210070a388000000eb00fe
:104f9c0080a3880020c62000f0a38800c025210033
:104fac0000a488000000eb0010a488001000200072
:104fbc0080a48800a04c2100804088001208a90021
:104fcc009140800010f02f0000806000904088001d
:104fdc00c08120008040eb0071409800c08120000f
:104fec008040eb0061409800c0812000410020000f
:104ffc00210098001628ef0000a480008000eb0030
:10500c000108780000a480000080e800e12e200058
:10501c000108780000a4800064004000e1602000da
:10502c000108780000a48000660040006186200022
:10503c000108780000a4800068004000e192200084
:10504c000108780000a480006a004000619f2000e5
:10505c000108780000a480006c00400041e72000ab
:10506c0001087800f0a380004106200001087800b8
:10507c00f0a380000080e800812520000108780062
:10508c00f0a3800064004000012d2000010878008e
:10509c00f0a3800066004000013c2000010878006d
:1050ac00f0a3800068004000813e200001087800d9
:1050bc00f0a380006a004000013c20000108780049
:1050cc00f0a380006c00400041062000010878002d
:1050dc006048210011c0b300014878006000200036
:1050ec0020a488000000eb0010a48800f0482100e8
:1050fc008040eb00014878007048210041c4b300a7
:10510c00014878008048210051c6b300014878005e
:10511c009048210061c6b30001487800a0482100e6
:10512c0011c6b30001487800b048210051c7b30044
:10513c0001487800c0482100c1c6b300014878007e
:10514c00d048210041c7b30001487800e048210055
:10515c008040eb000148780032fa070000408000e4
:10516c000080fa00000006000000fa009be0a90095
:10517c009bc0a90080002000701d8800b023ef00a8
:10518c0030032000b01d8800b823ef00605d2100c3
:10519c0050428800605d210040428800f05d210093
:1051ac0030428800f05d2100204288004c68ef00fe
:1051bc008090220007000700609222001400070074
:1051cc009bc0a800afe3a800b143a8000080fa0080
:1051dc00000006000200fa00000f78001e007800a4
:1051ec000000e00003003a0080902200704288002a
:1051fc00020037009e007800714288000080fa009f
:10520c00000006000000fa000080fa000000060012
:10521c000200fa00000f78001e0078000000e00089
:10522c0003003a006092220080428800020037009e
:10523c009e007800814288000080fa000000060081
:10524c000000fa000080fa00000006000200fa00dc
:10525c000040eb00004f780000000000314280005d
:10526c0020428000808f5000fcff320030428000d2
:10527c00104f7800304280000000e8003042880077
:10528c0031428000805e2100808f500002003a0085
:10529c00f05d2100304288001e4078000080fa004a
:1052ac00000006000200fa00004f78000000000029
:1052bc001c0007000004a2000004e000fcff3a0000
:1052cc00404280001e487800404280000000e80008
:1052dc004042880041428000f05d2100808f5000e8
:1052ec0002003a00605d2100404288009be0a8006b
:1052fc000080fa00000006000000fa003142800035
:10530c00204280000080680000f0a7000000ea0046
:10531c000000ea004f00de00004078000080fa0038
:10532c00000006000400fa005142800011079800aa
:10533c00414280001e009000808f5000060031001a
:10534c009e00900040428000008050000000e90068
:10535c00000f7800050037009e009000404280004e
:10536c000080500068004000000f78001e0078009c
:10537c0000f0a7000000ea000000ea004f00de0089
:10538c00004078000080fa00000006000000fa00df
:10539c004142800050428000808f500009003a004a
:1053ac00811d8000001020000080600000f0a7002c
:1053bc000000ea000000ea004f00de000040780028
:1053cc00010037000040eb000080fa0000000600ee
:1053dc000400fa002142800011079800304280003e
:1053ec009e009000808f5000060031009e009000bf
:1053fc00304280000080500069004000000f7800af
:10540c00040037009e009000304280000080500065
:10541c00000f7800f00f20009e007800808f500065
:10542c000200360000c0eb00020037001e007800be
:10543c00004078000080fa00000006000400fa002a
:10544c005142800011079800414280001e009000dc
:10545c00808f5000060031009e009000404280007a
:10546c00008050000000e900000f780005003700b4
:10547c009e00900040428000008050006800400078
:10548c00000f7800f00f20009e007800808f5000f5
:10549c000200360000c0eb00020037001e0078004e
:1054ac00004078000080fa00000006000800fa00b6
:1054bc002007980031079800c5ff07000080fb000b
:1054cc00000f78003e0090009e0f5000020031004b
:1054dc00be009000010f78000000eb001007980050
:1054ec000900370059ff0700ae0090008048780093
:1054fc002e0090000000e800200798001e0090008d
:10550c000000e800100798001e0090009e0f50004d
:10551c00f4ff39001e0078000080fa00000006003d
:10552c000800fa002007980031079800c3ff070015
:10553c000080fb00000f78003e0090009e0f500092
:10554c0002003100be009000010f78000000eb005b
:10555c0010079800090037002e00900010407800ca
:10556c00ae0090008100e800210798004dff070075
:10557c001e0090000000e800100798001e0090002c
:10558c009e0f5000f4ff39001e0078000080fa00d6
:10559c00000006000400fa000000eb00000f780089
:1055ac008bff070020479800a4ff070030479800a6
:1055bc002e4090000080fb000000e0000300320051
:1055cc00e90f500003003200040037001e20a00039
:1055dc00040037001e00a000020037001e10a000bf
:1055ec00000000003e4090000080fb000000e00046
:1055fc0003003200e90f50000300320004003700b2
:10560c001e30a000020037001e40a0000000000069
:10561c001e0078000080fa00000006000400fa006a
:10562c0010079800314280001e009000008f40004f
:10563c00020037009e007800698f5000805e2100c8
