:020000040000fa
:080000000001040000000000f3
:020000040000fa
:0400080044020000ae
:020000040000fa
:04000c008602000068
:020000040000fa
:04001000c602000024
:020000040000fa
:040014006402000082
:020000040000fa
:04001800a60200003c
:020000040000fa
:04001c001c070000bd
:020000040000fa
:040020001c070000b9
:020000040000fa
:040024001c070000b5
:020000040000fa
:040028001c070000b1
:020000040000fa
:04002c001c070000ad
:020000040000fa
:040030001c070000a9
:020000040000fa
:040034001c070000a5
:020000040000fa
:040038001c070000a1
:020000040000fa
:04003c001c0700009d
:020000040000fa
:040040001c07000099
:020000040000fa
:04004400e6020000d0
:020000040000fa
:040048001c07000091
:020000040000fa
:04004c001c0700008d
:020000040000fa
:040050001c07000089
:020000040000fa
:040054005004000054
:020000040000fa
:04005800f4030000ad
:020000040000fa
:04005c001c0700007d
:020000040000fa
:040060001c07000079
:020000040000fa
:040064001c07000075
:020000040000fa
:040068001c07000071
:020000040000fa
:04006c00cc040000c0
:020000040000fa
:040070001c07000069
:020000040000fa
:040074001c07000065
:020000040000fa
:040078001c07000061
:020000040000fa
:04007c001c0700005d
:020000040000fa
:040080001c07000059
:020000040000fa
:040084001c07000055
:020000040000fa
:040088001c07000051
:020000040000fa
:04008c001c0700004d
:020000040000fa
:040090001c07000049
:020000040000fa
:040094001c07000045
:020000040000fa
:040098001c07000041
:020000040000fa
:04009c001c0700003d
:020000040000fa
:0400a00078030000e1
:020000040000fa
:0400a4001c03000039
:020000040000fa
:0400a8001c07000031
:020000040000fa
:0400ac001c0700002d
:020000040000fa
:0400b0001c07000029
:020000040000fa
:0400b4001c07000025
:020000040000fa
:0400b8001c07000021
:020000040000fa
:0400bc001c0700001d
:020000040000fa
:0400c0001c07000019
:020000040000fa
:0400c4001c07000015
:020000040000fa
:0400c8001c07000011
:020000040000fa
:0400cc001c0700000d
:020000040000fa
:0400d0001c07000009
:020000040000fa
:0400d4001c07000005
:020000040000fa
:0400d8001c07000001
:020000040000fa
:0400dc001c070000fd
:020000040000fa
:0400e0001c070000f9
:020000040000fa
:0400e4001c070000f5
:020000040000fa
:0400e8001c070000f1
:020000040000fa
:0400ec001c070000ed
:020000040000fa
:0400f0001c070000e9
:020000040000fa
:0400f4001c070000e5
:020000040000fa
:0400f8001c070000e1
:020000040000fa
:0400fc001c070000dd
:020000040000fa
:040100001c070000d8
:020000040000fa
:040104001c070000d4
:020000040000fa
:040108001c070000d0
:020000040000fa
:04010c001c070000cc
:020000040000fa
:040110001c070000c8
:020000040000fa
:040114001c070000c4
:020000040000fa
:040118001c070000c0
:020000040000fa
:04011c001c070000bc
:020000040000fa
:040120001c070000b8
:020000040000fa
:040124001c070000b4
:020000040000fa
:040128001c070000b0
:020000040000fa
:04012c00b604000015
:020000040000fa
:04013000de030000ea
:020000040000fa
:040134001c070000a4
:020000040000fa
:040138001c070000a0
:020000040000fa
:04013c001c0700009c
:020000040000fa
:040140001c07000098
:020000040000fa
:040144001c07000094
:020000040000fa
:040148001c07000090
:020000040000fa
:04014c001c0700008c
:020000040000fa
:040150001c07000088
:020000040000fa
:040154001c07000084
:020000040000fa
:040158001c07000080
:020000040000fa
:04015c001c0700007c
:020000040000fa
:040160001c07000078
:020000040000fa
:040164001c07000074
:020000040000fa
:040168001c07000070
:020000040000fa
:04016c001c0700006c
:020000040000fa
:040170001c07000068
:020000040000fa
:040174001c07000064
:020000040000fa
:040178001c07000060
:020000040000fa
:04017c001c0700005c
:020000040000fa
:040180001c07000058
:020000040000fa
:040184001c07000054
:020000040000fa
:040188001c07000050
:020000040000fa
:04018c001c0700004c
:020000040000fa
:040190001c07000048
:020000040000fa
:040194001c07000044
:020000040000fa
:040198001c07000040
:020000040000fa
:04019c001c0700003c
:020000040000fa
:0401a0001c07000038
:020000040000fa
:0401a4001c07000034
:020000040000fa
:0401a8001c07000030
:020000040000fa
:0401ac001c0700002c
:020000040000fa
:0401b0001c07000028
:020000040000fa
:0401b4001c07000024
:020000040000fa
:0401b8001c07000020
:020000040000fa
:0401bc001c0700001c
:020000040000fa
:0401c0001c07000018
:020000040000fa
:0401c4001c07000014
:020000040000fa
:0401c8001c07000010
:020000040000fa
:0401cc001c0700000c
:020000040000fa
:0401d0001c07000008
:020000040000fa
:0401d4001c07000004
:020000040000fa
:0401d8001c07000000
:020000040000fa
:0401dc001c070000fc
:020000040000fa
:0401e0001c070000f8
:020000040000fa
:0401e4001c070000f4
:020000040000fa
:0401e8001c070000f0
:020000040000fa
:0401ec001c070000ec
:020000040000fa
:0401f0001c070000e8
:020000040000fa
:0401f4001c070000e4
:020000040000fa
:0401f8001c070000e0
:020000040000fa
:0401fc001c070000dc
:020000040000fa
:100200008f5921000e7f24000e018800000000009d
:10021000000020000000e000020032000001200089
:100220002002880014000700260307000000e000f9
:1002300003003a00e0b22100010020000200370074
:100240000000200001002000810f7000010032003a
:1002500014000700000020000000e000020032004f
:1002600000000200000000001e1c02000000000050
:100270000040da000000fe004440a90020002000f9
:100280000000e00003003200100020009001880010
:100290004440a800000006008a1f78008b1f7800e9
:1002a00000000600a1028800800478000000eb0036
:1002b0001f003700e284440054a0b4009905ba003e
:1002c000e284440054a0b4009906ba00e2844400d9
:1002d00054a0b4000006eb00476fde00fd07b2003b
:1002e000ae018800636ce10003003a00eaff0700fa
:1002f0000000eb000e003700606ce10008003a00df
:10030000004deb000a05e800020039003420ec0043
:100310000af0a0008b05e900f9ff3e000400370059
:100320006168e100010032000086eb000b0007006d
:1003300019c7ba001905ba000e04e00003003a001c
:100340000a00e000dbff3a0000000600fe07b200f2
:10035000ae0288008a047800f5ff37000cd0a300b5
:10036000e20f4d001c00390089027800354dba00bb
:100370000a05e800020039003420ec000af0a00071
:100380008b05e9000f003200254dba000a05e80090
:10039000020039003420ec000af0a0008b05e900cf
:1003a000080032000c00e0000600320015cdba0053
:1003b0000a05e800020039003420ec000af0a00031
:1003c0008b05e9008984e80054a0b4000b00e0002c
:1003d000e2ff3a00000006009902ba00055d7800cd
:1003e0008b05e900f7ff3200c82ade00055d7800c2
:1003f0008b05e900f3ff32000c00e000f1ff320052
:1004000019ddba00eeff37002a19040000000000d1
:10041000d20d040000000000f00d040000000000f8
:10042000e4100400000000000211040000000000bd
:10043000b808040000000000e40904000000000007
:10044000320a040000000000b60a040000000000a8
:10045000340c0400000000003c0c0400000000000c
:10046000440c040000000000580c040000000000d0
:10047000a20c040000000000da0c040000000000e0
:10048000e60c0400000000003600f800809fbe006b
:10049000829fbe00849fbe00869fbe000000fa00bf
:1004a0008020a9000000eb00cd0c07000080fa00be
:1004b0004f03be004f02be004f01be004f00be0002
:1004c0003600f900004006003600f800809fbe00ac
:1004d000829fbe00849fbe00869fbe000000fa007f
:1004e000c40c07008040a90010002000bc0c0700cd
:1004f0000080fa004f03be004f02be004f01be0055
:100500004f00be003600f900004006003600f8003b
:10051000809fbe00829fbe00849fbe00869fbe005b
:100520000000fa008060a90020002000ac0c070049
:100530000080fa004f03be004f02be004f01be0014
:100540004f00be003600f900004006003600f800fb
:10055000809fbe00829fbe00849fbe00869fbe001b
:100560000000fa008080a900300020009c0c0700e9
:100570000080fa004f03be004f02be004f01be00d4
:100580004f00be003600f900004006003600f800bb
:10059000809fbe00829fbe00849fbe00869fbe00db
:1005a0000000fa008600a900700020008c0c0700f3
:1005b0000080fa004f03be004f02be004f01be0094
:1005c0004f00be003600f900004006003600f8007b
:1005d000809fbe00829fbe00849fbe00869fbe009b
:1005e0000000fa00e04280000000e000020032005b
:1005f000e042800000000100d04f21001040780050
:100600008040e800d04f210001487800c04f210011
:1006100011c0b3000148780088e0a9000080fa000a
:100620004f03be004f02be004f01be004f00be0090
:100630003600f900004006003600f800809fbe003a
:10064000829fbe00849fbe00869fbe000000fa000d
:1006500040428000000001002142800010428000e2
:10066000808f500002003a009be0a900190037007b
:100670008be0a900100037002042800090407800f5
:100680008180fb00911d88000000e8002042880066
:1006900021428000b04c2100808f500002003a00bf
:1006a000204c21002042880021428000104280001e
:1006b000808f500006003200811d80000020200045
:1006c000008060000000e000ebff32000100370016
:1006d000000000000080fa004f03be004f02be0081
:1006e0004f01be004f00be003600f900004006007a
:1006f0003600f800809fbe00829fbe00849fbe002f
:10070000869fbe000000fa005042800000000100f9
:100710008bc0a9001e003700f0418000a11d8000a1
:100720008140780001487800f1418000304d21007f
:10073000808f500009003200f04180008000e80006
:1007400000428000808f500004003200f0418000a1
:100750000000e800f04188000d003700f141800002
:10076000304d2100808f500007003a000142800088
:10077000b04c2100808f500003003200b04c2100ab
:10078000f04188000200370010c0b30046e8b7000f
:10079000801d8000610060000000e000deff3a0084
:1007a0000080fa004f03be004f02be004f01be00a2
:1007b0004f00be003600f90000400600801f7800a0
:1007c0000000fa00801d8000620060000000e00070
:1007d00001003200b023a9009040a9000080fa0077
:1007e0004f007800004006003600f800809fbe00f1
:1007f000829fbe00849fbe00869fbe000000fa005c
:10080000b0428000000001009142800080428000e0
:10081000808f500002003a009980a900190037002b
:100820008980a90010003700904280009040780035
:100830008180fb00e11c88000000e80090428800f5
:1008400091428000d04d2100808f500002003a007c
:10085000404d2100904288009142800080428000fb
:10086000808f500006003200d11c80000020200044
:10087000008060000000e000ebff32000100370064
:10088000000000000080fa004f03be004f02be00cf
:100890004f01be004f00be003600f90000400600c8
:1008a0003600f800809fbe00829fbe00849fbe007d
:1008b000869fbe000000fa00c042800000000100d8
:1008c0008960a9001e00370060428000f11c800092
:1008d000814078000148780061428000504e21003c
:1008e000808f500009003200604280008000e800e4
:1008f00070428000808f500004003200604280000f
:100900000000e800604288000d003700614280006e
:10091000504e2100808f500007003a007142800045
:10092000d04d2100808f500003003200d04d2100b7
:10093000604288000200370010c0b30054e8b700de
:10094000d01c8000610060000000e000deff3a0083
:100950000080fa004f03be004f02be004f01be00f0
:100960004f00be003600f90000400600801f7800ee
:100970000000fa00d01c8000620060000000e0006f
:10098000010032009a23a9009020a9000080fa00fb
:100990004f007800004006003600f800809fbe003f
:1009a000829fbe00849fbe00869fbe000000fa00aa
:1009b0008a20a900f1248000000820000080600047
:1009c0000000e000080032009ee4a9002e28ef009d
:1009d000a0418000200090008000eb00010878001a
:1009e0003428ef000d013700704180008000eb00db
:1009f000b200200003002000820f5000838f5800b7
:100a0000fc003e00006001000b0037003900370099
:100a1000750037009c003700f3003700c80037002e
:100a2000d9003700f0003700db003700f100370055
:100a30003400370050003700608220002000900012
:100a4000620060000000e000f3003a0060822000d5
:100a500010009000a04188006082200010009000eb
:100a60001040780030e8b70060822000100090004d
:100a700010009000904188006082200010009000db
:100a8000e600400060822000110098006082200093
:100a900090009000c04e2100808f500003003a006b
:100aa00060822000614e21001100980060822000c9
:100ab000a00090000100a1002100980060822000a9
:100ac000900090006082200010007800808f50001d
:100ad00004003a0060822000a00090000110a000f5
:100ae000210098009a04a80020002000704188008e
:100af000ca0037009a24a800200020007041880016
:100b0000c6003700f124800000002800008060004b
:100b10000000e00008003200608220006040900089
:100b20008040e80060822000614098004000200082
:100b30003a070700b9003700b04180008000d100bb
:100b4000f00f200000806000b0248800b0418000d9
:100b500061006000004078000004e0000300320003
:100b6000b000200070418800ac0037003000200049
:100b700070418800a9003700f1248000000028009f
:100b8000008060000000e000080032006082200069
:100b9000604090008040e800608220006140980042
:100ba000400020001d0707009c0037009a24a80081
:100bb000b04180004800de00e6006000000f200029
:100bc00001007000b0418800b04180000000a0002a
:100bd000b041880010c0b30038e8b7002000200002
:100be000704188008d00370038c8bf00e14f5000c9
:100bf0000a0032009041800010007800b041880067
:100c00009041800020009000d041880090418000f9
:100c1000204090003ce8b700010037003868ef0042
:100c2000b1418000f00f2000808f50000900360095
:100c3000b04180004800de00e6006000000f2000a8
:100c400001007000b0248800a000200070418800de
:100c500072003700b0418000b0248800b0418000ad
:100c600061006000004078000004e00003003200f2
:100c700050002000704188006800370030002000dc
:100c80007041880065003700f124800000002800d2
:100c9000008060000000e000090032006082200057
:100ca000604090008040e800608220006140980031
:100cb0009fe4a90050002000d80607005700370025
:100cc0003cc8bf008080fb008100e900cf08de0047
:100cd000814078000040e9003ce8b7000104e000f2
:100ce0001000320090418000660040009041880072
:100cf00030c8bf000040e90030e8b70030c8bf008e
:100d00000004e00003003a0020002000c3060700b2
:100d1000420037009a24a80020002000704188007b
:100d20003e003700d0418000904078008180fb0079
:100d3000b12488000000e800d04188003700370067
:100d4000f124800000002800008060000000e00026
:100d50000900320060822000604090008040e8007e
:100d6000608220006140980040002000ab06070030
:100d70009fe4a900290037009a64a80080002000a1
:100d800070418800250037008000200070418800f5
:100d90009a64a80021003700d0418000a12480007f
:100da00081407800014878000000e800d0418800c8
:100db0003cc8bf000040e9003ce8b7003cc8bf00a9
:100dc0000004e000040032009aa4a90060002000a2
:100dd00070418800020037009aa4a8007e06070030
:100de0009a84a8000d003700200020008b06070021
:100df0000a00370060822000604090008040e800d8
:100e00006082200061409800600020008306070097
:100e10000000000001003700000000000080fa0020
:100e20004f03be004f02be004f01be004f00be0088
:100e30003600f900004006000040da000000fe0025
:100e4000889fbe008004780000a880000000e000b9
:100e500004003a000e0007000084eb000000e000f0
:100e60000800350008a880000900e00005003200f5
:100e700009004400060007000000e00001003d00fa
:100e80000084eb00080078004f04be00000006005c
:100e9000800078000100e00003003a0020502100ab
:100ea00000a88800000005000080eb0082592100a6
:100eb000828f500002003e0001a888000000eb0075
:100ec0000000060000000500889fbe0000047800b6
:100ed000c1a780000100e00002003200010078009c
:100ee0000d003700d1a78000a04f2100040037007b
:100ef000910f5400250036000180e8009100900019
:100f00000100e000faff3a0010003700920f540091
:100f10001e0036000280e800100178000200e000a8
:100f2000faff3a0011017800d1a78000a04f2100fc
:100f300004003700910f5400140036000180e800cf
:100f400091009000828f5000faff3a00f9a78000cc
:100f5000888f54000100310088047800090078006f
:100f60003d0007000000e00004003a00888f5400b4
:100f7000050032008904d100f5ff37000918780018
:100f80003f000700d2ff37000000eb004f04be0017
:100f900000000600881f7800630440000800a100dc
:100fa0008000eb00800f540021003600e30f540056
:100fb00001003e004800200008007800c2ff070042
:100fc0008000eb000000e000190032009000780083
:100fd0009101780064815100880f510003003100b5
:100fe00011019000020878000700370008814000d6
:100ff0000208780091019000130198001001780018
:101000001109140088087800100178000000eb0036
:101010000200e00004003200920190000300e000b2
:10102000010032000280e800c0a788008180e8004b
:10103000010078004f04780000000600800178006d
:1010400002003700b15978000201e9000200e00017
:10105000fcff3a0000000600800078000000eb0072
:101060000100e000050034000100780074ff070073
:10107000e10f400001003a000000eb000000060014
:101080000000e0002f003200c0017800e38f510023
:101090002c0036000308a3002a003a00d1a78000e4
:1010a0000100e00002003200810f50000400310016
:1010b00011009800d0a78800160037008200780041
:1010c000110190000200e00002003200800f510088
:1010d000faff39001102780084824000850f500029
:1010e00018003900808f520003003a008308420044
:1010f00001007800070037000200e0000300320022
:1011000083014000830f51000e0039001200980047
:1011100090009800900090000100e000090032006b
:1011200010014000828f500006003a00824f2100db
:101130000009eb00100178001108410091009000b7
:081140001100980000000600f8
:020000040000fa
:101148000000fa0010c0b3001ee8b7000080fa00e3
:10115800000006000000fa001e68ef006686a9007d
:101168000080fa00000006000600fa00b140800086
:10117800c04080000000d1000074a1000080fb0086
:101188004200dd000080400090009000f0ff200049
:1011980000806000000f7800b1408000c0408000ef
:1011a8000000d1000074a1000080fb004200dd00b7
:1011b80080804000f0ff23001100600010079800b5
:1011c800f1a2800000a38000008040001040780059
:1011d8000080fb00200798001ec8bf000004e00044
:1011e80011003200104080009e007800808f50006f
:1011f80002003600d7ff07001600370020408000a5
:101208009e009000808f500004003e009e009000d9
:101218002e009000808f500002003600cdff07009e
:101228000c0037006686a800303380000040780044
:10123800614060000004a200614060000080fb0083
:1012480061006000313380000100a10001007000de
:10125800303388000080fa00000006000000fa0021
:1012680011a38000f0a280000240200071ff070057
:101278000080fa00000006000000fa00d04080005c
:101288000000e000020032000040eb004a00370096
:10129800b1408000c04080000000d1000074a1006f
:1012a8000080fb004200dd000080400090009000bc
:1012b80000002800008060000000e000020032000a
:1012c8000040eb003c003700b1408000c040800087
:1012d8000000d1000074a1000080fb004200dd0086
:1012e8000080400090009000000024000080600012
:1012f8000000e000020032000040eb002e00370042
:10130800b1408000c04080000000d1000074a100fe
:101318000080fb004200dd0000804000900090004b
:1013280000002200008060000000e000020032009f
:101338000040eb0020003700b1408000c040800032
:101348000000d1000074a1000080fb004200dd0015
:101358000080400090009000f0ff200000806000b6
:101368008000780010408000808f5000020031001b
:101378000040eb0010003700b1408000c040800002
:101388000000d1000074a1000080fb004200dd00d5
:1013980080804000f0ff230011006000800078008a
:1013a80020408000808f5000020031000040eb0098
:1013b8000100370010c0b3000080fa0000000600ea
:1013c8000400fa006000b8004b070700008fbe0059
:1013d800b1408000c04080000000d1000074a1002e
:1013e8000080fb004200dd00008040003e187800cd
:1013f8002e107800c04080000000d1000074a100c9
:101408000040e8000074a1008080fb00f007200085
:101418000080600000004000c240800011f02f00f2
:101428008100610001007000c0408800c140800058
:10143800e00f200000806000f40f500005003a0023
:10144800c140800010f02f0000806000c04088007c
:101458001808a8000080fa00000006000200fa0040
:1014680069030700004f7800e0408000e10f50005a
:101478002a003200e10f500005003900e20f500049
:101488002c003200e30f50002e00320033003700ea
:101498001e80fb00e10f50001b003200e20f5000dd
:1014a8001b0032000000e0002b003a005603070042
:1014b800004f78001e80fb0061006000004078004b
:1014c8000004e000040032006bff07000004e000a5
:1014d800010032001aff07001e80fb006200600056
:1014e8000000e000010032001aff07001e80fb0028
:1014f800640060000000e0000100320057ff0700b0
:10150800000000001500370010002000e0408800af
:1015180030002000e0408800100037001e80fb00eb
:101528004800dd0060a3880020002000e04088001b
:101538000a0037001e80fb0060a388001c28ef000b
:101548000600370091408000304080009d0707006a
:101558001c28ef0001003700000000000080fa009e
:10156800000006000200fa009e010700004f780004
:10157800d0408000e20f500060003200e20f5000bf
:1015880005003e000000e0000a003200e10f5000b4
:101598003e00320062003700e40f50004d00320078
:1015a800e40f50005a003900e50f50004f00320098
:1015b8005b0037001e80fb00e20f5000270032005e
:1015c800e20f500005003c000000e0000800320077
:1015d800e10f50001c00320051003700e30f5000ab
:1015e80022003200e40f5000240032004c00370083
:1015f8007c010700004f78001e80fb00610060003e
:10160800004078000004e000040032001aff0700e0
:101618000004e00001003200c9fe07001e80fb0044
:10162800620060000000e00001003200c9fe07000f
:101638001e80fb00640060000000e0000100320032
:1016480006ff0700100037000000eb0050a38800d9
:1016580010002000d04088000b0037001000200048
:1016680050a3880020002000d040880020002000df
:1016780050a3880030002000d0408800400020009f
:10168800d0408800260037002500370021a38000bd
:10169800f03f2000808f500008003e0011a380001a
:1016a80020a38000008040001e48780020a380000e
:1016b8000000e80020a38800190037000000eb00b4
:1016c80020a388001a28ef003000200050a38800cb
:1016d800130037001e80fb004800dd0060a388006f
:1016e80050002000d04088000d0037001e80fb000d
:1016f80060a388001a28ef0009003700a140800085
:10170800304080002f0707001a28ef000400370038
:1017180091408000304080002a0707001a28ef0017
:101728000080fa00000006000400fa00b1408000c2
:10173800c04080000000d1000074a1000080fb00c0
:101748004200dd0080804000f0ff230011006000af
:10175800004f7800b1408000c04080000000d100f8
:101768000074a1000080fb004200dd008080400082
:10177800f0ff2300110060004880de001047980049
:10178800b1408000c04080000000d1000074a1007a
:101798000080fb004200dd000080400090009000c7
:1017a800f0ff20000080600020479800b1408000d2
:1017b800c04080000000d1000074a1000080fb0040
:1017c8004200dd000080400090009000f0ff200003
:1017d800008060004880de003047980000418000ab
:1017e800e10f500009003200e10f500019003100ec
:1017f800f0a280000140200038030700f0a280001a
:1018080001402000ac010700130037001e4078009b
:10181800930207001e409000910207002e4090009e
:101828008f0207003e4090008d0207001e4078009e
:10183800020107001e409000000107002e409000a2
:10184800fe0007003e409000fc000700000000007a
:1018580001003700000000000080fa0000000600c8
:101868000000fa00b0ff07000080fa000000060040
:101878000000fa00acff07000080fa000000060034
:101888000000fa0012a3800061a3800000408000dd
:10189800034020009a0407003000200050a388006d
:1018a8000080fa00000006000600fa0020a380006d
:1018b8000000e0001d003a0000c2b3001047980085
:1018c8001e4090000080fb000140200000017800cd
:1018d800110009008200d800204798000040eb0062
:1018e800004f78000d00370021a3800021079800e1
:1018f80012a380001e4090008080fb002e00900004
:101908000088b900000078000001410061a3800050
:1019180000408000140507001e4fe8002e4090008c
:101928009e40780080cf5000efff39003000200043
:1019380050a388000080fa00000006000000fa00aa
:1019480024c8bf000004e00006003a00714080008f
:10195800304080009b06070010c0b30024e8b700a1
:101968000400370081408000304080009506070061
:101978002468ef000080fa00000006000000fa006a
:1019880071408000304080008e0607000080fa0019
:10199800000006000000fa0081408000304080000e
:1019a800880607000080fa00000006000000fa0020
:1019b8005140800030408000820607000080fa0015
:1019c800000006000000fa006140800030408000fe
:1019d8007c0607000080fa00000006000000fa00fc
:1019e800808b20006606070030408800409e20005b
:1019f800630607004040880020a320006006070017
:101a08005040880060ab20005d06070060408800f9
:101a180040c320005a06070070408800c0c3200059
:101a2800570607008040880040c42000540607007d
:101a38009040880080c5200051060700a04088001b
:101a4800304080004406070020ca20000206070034
:101a5800a0cd2000dd01070060ce20005200070065
:101a680072a3800083a38000f2a2880003a38800e9
:101a780092a38000a3a3800012a3880023a3880058
:101a8800b2a38000c3a3800032a3880043a38800c8
:101a9800e0852000f0a288000000eb0000a3880089
:101aa800e0c5200010a388000000eb0020a38800f8
:101ab800e005210030a388000000eb0040a3880067
:101ac8003000200050a38800a0472100b0408800c3
:101ad8001808a900c140800010f02f0000806000a5
:101ae800c04088002368ef002268ef002000200033
:101af80000418800304080000080fa0000000600a5
:101b08000000fa009be0a9009bc0a900800020000b
:101b1800701d8800b023ef0070062000b01d8800fb
:101b2800b823ef00204c210020428800204c2100df
:101b380010428800b04c210000428800b04c2100bf
:101b4800f04188004668ef0020dd2000070007000c
:101b580000df2000140007009bc0a800afe3a80026
:101b6800b143a8000080fa00000006000200fa0055
:101b7800000f78001e0078000000e00003003a0023
:101b880020dd200040428800020037009e007800d7
:101b9800414288000080fa00000006000000fa00b8
:101ba8000080fa00000006000200fa00000f78002a
:101bb8001e0078000000e00003003a0000df20006b
:101bc80050428800020037009e0078005142880089
:101bd8000080fa00000006000000fa000080fa0009
:101be800000006000200fa000040eb00004f7800f9
:101bf8000000000001428000f0418000808f50000a
:101c0800fcff320000428000104f78000042800044
:101c18000000e8000042880001428000404d210099
:101c2800808f500002003a00b04c2100004288002a
:101c38001e4078000080fa00000006000200fa004a
:101c4800004f7800000000001c0007000004a200fc
:101c58000004e000fcff3a00104280001e487800b3
:101c6800104280000000e800104288001142800005
:101c7800b04c2100808f500002003a00204c210017
:101c8800104288009be0a8000080fa0000000600cf
:101c98000000fa0001428000f041800000806800e6
:101ca80000f0a7000000ea000000ea004f00de0094
:101cb800004078000080fa00000006000400fa00e6
:101cc8002142800011079800114280001e009000f8
:101cd800808f5000060031009e0090001042800066
:101ce800008050000000e900000f78000500370070
:101cf8009e00900010428000008050006800400064
:101d0800000f78001e00780000f0a7000000ea002d
:101d18000000ea004f00de00004078000080fa0072
:101d2800000006000000fa001142800020428000f6
:101d3800808f500009003a00811d800000102000ab
:101d48000080600000f0a7000000ea000000ea0040
:101d58004f00de0000407800010037000040eb0033
:101d68000080fa00000006000400fa00f14180003b
:101d780011079800004280009e009000808f50005c
:101d8800060031009e009000004280000080500054
:101d980069004000000f7800040037009e009000a2
:101da8000042800000805000000f7800f00f2000f3
:101db8009e007800808f50000200360000c0eb00c3
:101dc800020037001e007800004078000080fa000a
:101dd800000006000400fa00214280001107980064
:101de800114280001e009000808f500006003100d4
:101df8009e00900010428000008050000000e90022
:101e0800000f7800050037009e0090001042800007
:101e18000080500068004000000f7800f00f20009c
:101e28009e007800808f50000200360000c0eb0052
:101e3800020037001e007800004078000080fa0099
:101e4800000006000800fa002007980031079800f3
:101e5800c5ff07000080fb00000f78003e009000df
:101e68009e0f500002003100be009000010f780064
:101e78000000eb00100798000900370059ff070021
:101e8800ae009000804878002e0090000000e80026
:101e9800200798001e0090000000e8001007980036
:101ea8001e0090009e0f5000f4ff39001e007800bd
:101eb8000080fa00000006000800fa0020079800d9
:101ec80031079800c3ff07000080fb00000f78006f
:101ed8003e0090009e0f500002003100be009000ae
:101ee800010f78000000eb00100798000900370088
:101ef8002e00900010407800ae0090008100e800ad
:101f0800210798004dff07001e0090000000e80020
:101f1800100798001e0090009e0f5000f4ff390033
:101f28001e0078000080fa00000006000400fa0095
:101f38000000eb00000f78008bff07002047980097
:101f4800a4ff0700304798002e4090000080fb0057
:101f58000000e00003003200e90f500003003200e7
:101f6800040037001e20a000040037001e00a00057
:101f7800020037001e10a000000000003e40900044
:101f88000080fb000000e00003003200e90f500071
:101f980003003200040037001e30a00002003700a2
:101fa8001e40a000000000001e0078000080fa001b
:101fb800000006000400fa001007980001428000a3
:101fc8001e009000008f4000020037009e0078003d
:101fd800698f5000404d21009e007800808f50008e
:101fe800faff3e001e007800104078000080fa00da
:101ff800000006000000fa005bff07000080fb00fd
:102008000000e9004f00de00004078000080fa0080
:10201800000006000000fa006eff07000080fb00c9
:102028000000e9004f00de00004078000080fa0060
:10203800000006000000fa00801d80000080fa0001
:10204800000006000000fa0062ff07000004e0003c
:10205800100032002142800010428000808f500022
:102068000600360020428000800078001042800080
:10207800008050000000e90007003700204280007f
:102088008000780010428000008050006800400006
:10209800010037000000eb000080fa000000060095
:1020a8000000fa0030ff07000004e00010003200d2
:1020b80001428000f0418000808f50000600360009
:1020c8000042800080007800f041800000805000cd
:1020d8000000e90007003700004280008000780017
:1020e800f041800000805000680040000100370087
:1020f8000000eb000080fa00000006000000fa0073
:10210800afe3a800b143a8000080fa000000060071
:102118000000fa00afe3a900b143a9000080fa006b
:10212800000006000000fa009980a9009960a90043
:1021380080002000c01c88009a23ef007006200051
:10214800001d8800a223ef00404d21009042880026
:10215800404d210080428800d04d21007042880007
:10216800d04d2100604288005468ef00400e2100e5
:102178000700070020102100140007009960a8003c
:1021880099e3a8009b43a8000080fa00000006001d
:102198000200fa00000f78001e0078000000e0003e
:1021a80003003a00400e2100b042880002003700c8
:1021b8009e007800b14288000080fa000000060006
:1021c8000000fa000080fa00000006000200fa0091
:1021d800000f78001e0078000000e00003003a00bd
:1021e80020102100c0428800020037009e007800bd
:1021f800c14288000080fa00000006000000fa00d2
:102208000080fa00000006000200fa000040eb001f
:10221800004f78000000000071428000604280009a
:10222800808f5000fcff320070428000104f780011
:10223800704280000000e80070428800714280000f
:10224800604e2100808f500002003a00d04d2100de
:10225800704288001e4078000080fa0000000600e6
:102268000200fa00004f7800000000001c00070080
:102278000004a2000004e000fcff3a008042800055
:102288001e487800804280000000e80080428800f4
:1022980081428000d04d2100808f500002003a001a
:1022a800404d2100804288009980a8000080fa00f3
:1022b800000006000000fa007142800060428000c1
:1022c8000080680000f0a7000000ea000000ea00b3
:1022d8004f00de00004078000080fa000000060091
:1022e8000400fa00914280001107980081428000a2
:1022f8001e009000808f5000060031009e00900064
:1023080080428000008050000000e900000f780043
:10231800050037009e009000804280000080500039
:1023280068004000000f78001e00780000f0a70049
:102338000000ea000000ea004f00de0000407800dc
:102348000080fa00000006000000fa0081428000c8
:1023580090428000808f500009003a00d11c800014
:10236800001020000080600000f0a7000000ea00d4
:102378000000ea004f00de0000407800010037004e
:102388000040eb000080fa00000006000400fa009c
:102398006142800011079800704280009e00900002
:1023a800808f5000060031009e009000704280002f
:1023b8000080500069004000000f780004003700da
:1023c8009e0090007042800000805000000f78004e
:1023d800f00f20009e007800808f50000200360029
:1023e80000c0eb00020037001e00780000407800b3
:1023f8000080fa00000006000400fa009142800004
:1024080011079800814280001e009000808f5000c4
:10241800060031009e00900080428000008050003d
:102428000000e900000f7800050037009e009000ca
:10243800804280000080500068004000000f780053
:10244800f00f20009e007800808f500002003600b8
:1024580000c0eb00020037001e0078000040780042
:102468000080fa00000006000800fa002007980023
:1024780031079800c5ff07000080fb00000f7800b7
:102488003e0090009e0f500002003100be009000f8
:10249800010f78000000eb001007980009003700d2
:1024a80059ff0700ae009000804878002e00900089
:1024b8000000e800200798001e0090000000e800d7
:1024c800100798001e0090009e0f5000f4ff39007e
:1024d8001e0078000080fa00000006000800fa00dc
:1024e8002007980031079800c3ff07000080fb0011
:1024f800000f78003e0090009e0f5000020031004f
:10250800be009000010f78000000eb001007980053
:10251800090037002e00900010407800ae009000af
:102528008100e800210798004dff07001e00900079
:102538000000e800100798001e0090009e0f500051
:10254800f4ff39001e0078000080fa000000060041
:102558000400fa000000eb00000f78008bff070072
:1025680020479800a4ff0700304798002e409000ad
:102578000080fb000000e00003003200e90f50007b
:1025880003003200040037001e20a00004003700ba
:102598001e00a000020037001e10a000000000006e
:1025a8003e4090000080fb000000e0000300320085
:1025b800e90f500003003200040037001e30a0006d
:1025c800020037001e40a000000000001e00780036
:1025d8000080fa00000006000400fa0010079800c6
:1025e800714280001e009000008f400002003700fa
:1025f8009e007800698f5000604e21009e00780090
:10260800808f5000faff3e001e00780010407800ce
:102618000080fa00000006000000fa005bff0700d7
:102628000080fb000000e9004f00de000040780059
:102638000080fa00000006000000fa006eff0700a4
:102648000080fb000000e9004f00de000040780039
:102658000080fa00000006000000fa00d01c80008c
:102668000080fa00000006000000fa0062ff070080
:102678000004e00010003200914280008042800097
:10268800808f50000600360090428000800078005d
:1026980080428000008050000000e90007003700f9
:1026a80090428000800078008042800000805000c6
:1026b80068004000010037000000eb000080fa00cd
:1026c800000006000000fa0030ff07000004e000e8
:1026d800100032007142800060428000808f5000fc
:1026e800060036007042800080007800604280005a
:1026f800008050000000e9000700370070428000a9
:10270800800078006042800000805000680040002f
:10271800010037000000eb000080fa00000006000e
:102728000000fa0099e3a8009b43a8000080fa0083
:10273800000006000000fa0099e3a9009b43a900e5
:102748000080fa00000006000000fa006082200005
:10275800614e21001100980060822000614e210026
:102768000108780060822000a00090000110a000fd
:102778002100980060822000a00090000100a100c4
:1027880021009800608220008040eb0061409800a2
:1027980020012000c024880000002800d0248800e0
:1027a8009e24ef008a20a9009a20a8000080fa0041
:1027b800000006000200fa0060822000e04090005d
:1027c800014f78001e4078000080fa0000000600e3
:1027d8000000fa00904180006600400090418800a7
:1027e80030c8bf000040e90030e8b70030c8bf007b
:1027f8000004e00003003a00400020007041880017
:102808000200370010002000704188000080fa00a4
:10281800000006000200fa00000f78009a44a800a1
:10282800a0418000200090000000e000030032007a
:10283800a0418000200090001e0878002e28ef009c
:102848000080fa00000006000800fa00000f780077
:1028580021479800220798003307980060822000db
:1028680020009000610060000000e0000a003a00cb
:10287800ae0190002e4190009e007800204f21006c
:10288800770007003e019000214f210010c0b300df
:102898001f000700030037003e0090008000eb0097
:1028a800010878000080fa00000006000800fa001d
:1028b800000f7800214798002207980033079800f6
:1028c8006082200020009000610060000000e000ad
:1028d8000a003a00ae0190002e4190009e00780058
:1028e800c04e2100460007003e019000c14e210065
:1028f80010c0b30006000700030037003e00900038
:102908008000eb00010878000080fa000000060053
:102918000600fa00004f7800110798002207980077
:102928006082200020009000610060000000e0004c
:102938002e003a002e0090001100200001087800b7
:1029480060822000100078009e009000110098001e
:1029580060822000100078001e4878006082200005
:1029680010007800ae0090002100980060822000de
:1029780010007800e600400060822000010878001e
:102988006082200090007800c04e2100808f5000a7
:1029980003003a0060822000614e2100010878009f
:1029a80060822000a00090000110a1002100980082
:1029b8006082200090009000608220001000780063
:1029c800808f500004003a0060822000a000900030
:1029d8000100a00021009800704180000000e00084
:1029e80005003a008a20a800030037002e00900056
:1029f8008000eb00010878000080fa000000060063
:102a08000800fa00000f7800110798004247980064
:102a1800330798003e0090000000400080007800d6
:102a28001e007800010878001e0078001000780069
:102a3800800078000100a0001e00780001087800de
:102a48001e007800ce409000214098001e007800bb
:102a58009e009000210098000080fa000000060007
:102a68000800fa00000f7800110798004247980004
:102a7800330798003e009000000040008000780076
:102a88001e007800010878001e007800ce409000f3
:102a9800214098001e0078009e00900021009800b8
:102aa8000080fa00000006000000fa0060822000a2
:102ab800200090006200600000f0a7000000ea001b
:102ac8000000ea004f00de00004078000080fa00b5
:102ad800000006000000fa0060822000200090003c
:102ae8006100600000f0a7000000ea000000ea00b2
:102af8004f00de00004078000080fa000000060069
:102b08001e00fa00300f9800410f9800520f9800ed
:102b1800630f980010002000200798004e089000ce
:102b28004800de0000407800205798004e089000ca
:102b38000040780030579800f200470066004700d0
:102b4800be09900022c0b300c5ff07006e089000c0
:102b5800804078006600470066004000be0990008b
:102b680001417800de089000a5ff07000000eb0097
:102b7800000f78000000eb001007980020003700d5
:102b8800e4004700660047000101780080007800f3
:102b980020c0b3005eff07000c00370000d42000ff
:102ba80031002000fe0207009e0090002003200054
:102bb800808f500002003a002e0090001600370067
:102bc8001e0090000000e800100798002e009000fa
:102bd800e10f5000f1ff32002e009000e20f50008c
:102be8000b003200400620009e007800808f5000c5
:102bf80002003a002e009000070037001e0fe80080
:102c08002e0090000000e000ddff3a0001003700d0
:102c1800000000002e0090000080fa00000006006e
:102c28001400fa006007980071079800020f9800d6
:102c3800130f980010002000500798000000eb00c8
:102c4800000f78003f0037007e0090004800de004b
:102c580000407800604798007e00900000407800af
:102c6800704798000e08900010407800004f9800b8
:102c78000e0890000000e800000f98000000eb002c
:102c8800100798000000eb0020079800210037008b
:102c9800ea00470066004700810178006e01900055
:102ca80031c0b300e8fe070007003700ae0090000f
:102cb80020032000808f5000070032002e00900073
:102cc8000000e800200798005e009000e10f500027
:102cd800f6ff32000100370000000000ae0090004f
:102ce80020032000808f50000f0032005e0090000b
:102cf800e20f50000c0032009e00900040062000b9
:102d0800808f5000070032001e0090000000e8008d
:102d1800100798005e0090000000e000dcff3a0019
:102d280001003700000000005e0090000000e00095
:102d3800090032007e0090000000e800700798004b
:102d48001e0fe8001e0890009e007800808f50003b
:102d5800bdff390001003700000000005e00900050
:102d68000080fa00000006001e00fa00400f9800dc
:102d7800510f9800620f980000c2b30040479800b6
:102d880010002000300798005e0890004800de0020
:102d980000407800405798005e0890000040780096
:102da80050579800f400470068004700ce0990008b
:102db80022c0b3002aff07006800470066004000f1
:102dc800ce0990004e419000ee08900024ff0700c5
:102dd8000000eb00000f78000000eb0010079800df
:102de80020003700e600470068004700010178002e
:102df8008000780020c0b300c5fe07000c00370033
:102e080000d4200031002000650207009e009000d9
:102e180020032000808f500002003a003e009000fe
:102e2800160037001e0090000000e8001007980008
:102e38003e009000e10f5000f1ff32003e0090008c
:102e4800e20f50000b003200400620009e00780080
:102e5800808f500002003a003e00900007003700c3
:102e68001e0fe8003e0090000000e000ddff3a0081
:102e780001003700000000003e0090000080fa00ca
:102e8800000006000000fa00f623ef00f823ef0028
:102e9800fc23ef000424ef000824ef000a24ef00cd
:102ea8000c24ef000e24ef0010822800a01f8800d9
:102eb8000080fa00000006000400fa00000f780005
:102ec8001107980000000000e01f80006200600009
:102ed8000000e000fcff3a001e00780010007800b7
:102ee800002088001e0078000080e80010007800ac
:102ef8001020880000000000e11f80000002200070
:102f0800008060000000e000fbff3a001e00900017
:102f180001208000010878001e0090000080e80071
:102f280011208000010878000080fa0000000600e7
:102f38001a00fa00200f9800310f9800420f9800ed
:102f48000000eb00000f78000000eb00100798006d
:102f58000000eb00700798006000b800000f9800b0
:102f6800110f980040002000600798003e0890006c
:102f78004200de00300f98002e0890000000e000ac
:102f880005003a000000eb00500798007000470069
:102f98002007980004003700ee00900051079800c1
:102fa800ae089000210798004e0890000000e0004d
:102fb80005003a000000eb00400798006e0047004b
:102fc8003007980005003700ee0090004107980090
:102fd800ce0890003107980000000000e01f800034
:102fe800620060000000e000fcff3a0023003700a8
:102ff800e01f8000620060000000e0000c003a0062
:103008002e00900010007800002088002e0090000c
:103018000080e8001000780010208800ae009000c2
:103028005e00900000804000200798001e0fe80016
:10303800e11f800000022000008060000000e00026
:103048000e003a003e009000012080000108780040
:103058003e0090000080e800112080000108780000
:10306800be0090004e00900000804000300798009d
:103078001e0090000000e800100798003e0890002d
:103088009e007800808f5000d9ff39001300370068
:10309800e11f800000022000008060000000e000c6
:1030a8000e003a003e0090000120800001087800e0
:1030b8003e0090000080e8001120800001087800a0
:1030c800be0090004e00900000804000300798003d
:1030d8001e0090000000e800100798009e00900075
:1030e8003e089000808f5000e9ff39001e007800ec
:1030f8000080fa00000006000800fa002007980087
:10310800310798008e007800640047006aff0700c6
:103118001e00be000080fa00000006000600fa004b
:10312800000f78001107980022079800ae00900061
:103138001e007800010178009e0090007cff0700c7
:103148000080fa00000006000000fa00a11f8000bd
:1031580000802000008060000000e00002003200d3
:103168002000200008003700a11f80000040200038
:10317800008060000000e000020032001000200023
:10318800010037000000eb000080fa000000060094
:103198000000fa00e01f80000080fa00000006002e
:1031a8000000fa009621ef009c21ef0000002800a3
:1031b800000d8800e04280000000e00002003a00b4
:1031c800a09221002400070088e0a90098e0a80048
:1031d800c04f21008040eb00014878000080fa00d1
:1031e800000006000200fa00000f78009e00780038
:1031f800e10c8800c04f21008040eb0001487800b6
:103208000080fa00000006000000fa00e00c8000d0
:103218000080fa00000006000200fa00000f7800a3
:103228009e007800b10c8800c04f21008040eb0060
:10323800014878000080fa00000006000000fa004b
:10324800b00c80000080fa00000006000000fa00c0
:103258000080fa00000006000200fa00000f780063
:1032680098e0a9009e007800e142880098e0a80054
:103278000080fa00000006000000fa00c04f21009c
:103288008040eb000148780098e0a800a1e1a80080
:103298000080fa00000006000000fa00a1e1a90081
:1032a80098e0a9000080fa00000006000200fa0079
:1032b800c04f2100104f78001e4078000004e00045
:1032c80003003200c04f21008040eb000148780025
:1032d8001e4078000080fa00000006000000fa0096
:1032e800d04f2100104078000080fb000080fa00d9
:1032f800000006000000fa00d04f21008040eb00db
:10330800014878000080fa00000006000200fa0078
:10331800000f78001e0078001000780000000100ff
:103328001e007800200090009e0078009100900018
:10333800110098001e007800100090009e00780090
:10334800a1009000210098001e00780090009000d5
:10335800010f7800efff37000200fa00000f780035
:103368001e0078009e007800210098001e0078005a
:103378009e007800110098000080fa000000060006
:103388000400fa001007980080002000fff60700ec
:10339800000f78001e0078008000eb0011009800f4
:1033a8001e0078008000eb00210098001e007800c5
:1033b8009e009000010878001e0078000080fa0046
:1033c800000006000800fa0020079800310798005e
:1033d800ae0090003e009000808f50002200320026
:1033e800ae009000010f78000040eb0020479800e5
:1033f800090037001e00780090009000010f780047
:103408003e0090009e0f500003003a0010c0b30029
:1034180020479800070037001e0078001000900031
:10342800a00090001e00780010009000808f5000cf
:10343800f0ff3a002e4090000004e0000b003a0034
:103448001e007800be009000110098003e00900019
:103458009e007800210098003e009000ae00900089
:103468001100980001003700000000000080fa00f9
:10347800000006000000fa006626ef007a26ef003a
:103488006226ef0030a62600b03388007426ef00cd
:103498008826ef007226ef008626ef006826ef00e8
:1034a8007c26ef00800020005033880000002200b6
:1034b800f033880001088000f00b200000816000d4
:1034c8006004200071052000031020008049780066
:1034d8008149780082497800013f800000f82f0078
:1034e800008060003000b300003f8800f13e80009b
:1034f80000f82f00008060009000b300f03e8800c4
:10350800b13d800000fc2f0000806000e000b300a7
:10351800b03d8800c13d800000fc2f0000806000a5
:103528009000b300c03d8800113f8000f00f2800d4
:10353800808060000050200001007000103f88006b
:10354800e13e800000f82f00008060000030a000fd
:10355800e03e8800a13d800000fc2f000080600054
:10356800b000b300a03d880000088000000178008a
:103578000260a000600420007105200003102000f4
:103588008049780081497800824978000080fa00f3
:10359800000006000000fa0041068000f08f2f00ae
:1035a800008060000080a00040068800b10580000f
:1035b800f0ff28000080600000c0a000b00588006f
:1035c800b1058000f08f2f00008060000080a0000f
:1035d800b005880041068000f0f82f0000806000e8
:1035e8000040a000400688007105800080ff2f0081
:1035f800008060000000a000700588006105800060
:10360800f0ff28000080600000c0a000600588006e
:1036180081058000f0f82f00008060000040a000c5
:10362800800588008105800080ff2f0000806000f1
:103638000000a0008005880051058000f0ff2800e8
:103648000080600000c0a000500588000080fa00db
:043658000000060068
:020000040000fa
:10365c00a214000020000000800000005a080000a6
:10366c000200000082000000ffff0000fc140000bc
:10367c0002000000800000005c0800000200000056
:10368c0080000000c2140000120000008000000046
:10369c003e0800000e00000080000000d414000062
:1036ac0012000000800000004c0800000e0000001a
:1036bc0080000000e61400001200000080000000f2
:1036cc002608000018000000800000005e080000c2
:1036dc00440c0000800000000008000026000000e0
:1036ec0080000000fe1400000200000082000000b8
:1036fc0004000000f814000004000000800000002a
:10370c000015000002000000800000000000000016
:020000040000fa
:10371c000000fa0000002300100888000621ef00ca
:10372c006821ef006a21ef000821ef0000702000f3
:10373c00500888000c21ef000e21ef007821ef00db
:10374c007a21ef007c21ef007e21ef008021ef0039
:10375c008221ef008421ef008621ef000001eb00b5
:10376c0080072000a1092000131020008049780058
:10377c0081497800824978000001eb006004200048
:10378c0071052000031020008049780081497800e1
:0c379c00824978000080fa00000006005e
:020000040000fa
:1037a800f03fb1000180b10006003500ee030900ca
:1037b80000000000403fb1000180b100fbff3d0068
:1037c8001000b000203fb000020035000080090062
:0837d8000000000000000600e3
:020000040000fa
:1037e0000200fa00000f78009e007800d1428800a5
:1037f000ffff37000000fa00204a21008007780010
:10380000a04b2100000188000080fa0000000600a3
:103810000000fa0019ff070060ff0700bfff070064
:10382000b9f8070099fd0700c9fb07003ffa070038
:103830005dfe07000080fa00000006000000fa00ac
:10384000f3ff070067f80700b2fe07001000200032
:083850000080fa0000000600f0
:020000040000fa
:020000040005f5
:045e0000ffff0000a0
:020000040000fa
:020000040005f5
:045e2000ffffff0081
:020000040000fa
:020000040005f5
:045e300060ffff0010
:020000040000fa
:020000040005f5
:045e380063ffff0005
:020000040000fa
:020000040005f5
:045e40009fffff00c1
:020000040000fa
:020000040005f5
:045e4800ffffff0059
:020000040000fa
:020000040005f5
:045e5000dfffff0071
:020000040000fa
:020000040005f5
:045e5800efffff0059
:00000001FF
